:020000040800F2
:100000000050002045260008DD250008DF250008F7
:10001000E1250008E3250008E525000800000000B0
:1000200000000000000000000000000071750008E2
:10003000E72500080000000011760008557600084A
:100040008D2600088D2600088D2600088D260008C4
:100050008D2600088D2600088D2600088D260008B4
:100060008D2600088D2600088D260008E925000849
:100070008D2600088D2600088D2600088D26000894
:100080008D2600088D2600088D2600088D26000884
:100090008D2600088D2600088D2600088D26000874
:1000A0008D260008FD2500088D2600088D260008F5
:1000B0000D2600088D2600081D2600088D26000844
:1000C0008D2600088D2600088D2600088D26000844
:1000D0008D260008312600088D2600088D26000890
:1000E0008D2600088D2600088D26000800000000DF
:1000F0000000000000000000000000000000000000
:0C01000000000000000000005FF808F1A3
:1001100010B5054C237833B9044B13B10448AFF341
:1001200000800123237010BD280100200000000082
:10013000B47B000808B5034B1BB103490348AFF378
:10014000008008BD000000002C010020B47B0008E6
:1001500081F0004102E000BF83F0004330B54FEA78
:1001600041044FEA430594EA050F08BF90EA020FE5
:100170001FBF54EA000C55EA020C7FEA645C7FEA78
:10018000655C00F0E2804FEA5454D4EB5555B8BF9B
:100190006D420CDD2C4480EA020281EA030382EA0C
:1001A000000083EA010180EA020281EA0303362D9E
:1001B00088BF30BD11F0004F4FEA01314FF4801C71
:1001C0004CEA113102D0404261EB410113F0004F83
:1001D0004FEA03334CEA133302D0524263EB43033A
:1001E00094EA050F00F0A780A4F10104D5F1200ED8
:1001F0000DDB02FA0EFC22FA05F2801841F1000133
:1002000003FA0EF2801843FA05F359410EE0A5F106
:1002100020050EF1200E012A03FA0EFC28BF4CF037
:10022000020C43FA05F3C01851EBE37101F00045ED
:1002300007D54FF0000EDCF1000C7EEB00006EEBFA
:100240000101B1F5801F1BD3B1F5001F0CD3490884
:100250005FEA30004FEA3C0C04F101044FEA4452DB
:1002600012F5800F80F09A80BCF1004F08BF5FEA62
:10027000500C50F1000041EB045141EA050130BD42
:100280005FEA4C0C404141EB0101013C28BFB1F554
:10029000801FE9D291F0000F04BF01460020B1FA9F
:1002A00081F308BF2033A3F10B03B3F120020CDA72
:1002B0000C3208DD02F1140CC2F10C0201FA0CF050
:1002C00021FA02F10CE002F11402D8BFC2F1200CB5
:1002D00001FA02F120FA0CFCDCBF41EA0C0190406B
:1002E000E41AA2BF01EB0451294330BD6FEA0404B4
:1002F0001F3C1CDA0C340EDC04F11404C4F120029F
:1003000020FA04F001FA02F340EA030021FA04F3B0
:1003100045EA030130BDC4F10C04C4F1200220FA07
:1003200002F001FA04F340EA0300294630BD21FA45
:1003300004F0294630BD94F0000F83F4801306BF0B
:1003400081F480110134013D4EE77FEA645C18BFFF
:100350007FEA655C29D094EA050F08BF90EA020F96
:1003600005D054EA000C04BF1946104630BD91EA8E
:10037000030F1EBF0021002030BD5FEA545C05D191
:100380004000494128BF41F0004130BD14F58004D0
:100390003CBF01F5801130BD01F0004545F0FE4144
:1003A00041F470014FF0000030BD7FEA645C1ABF79
:1003B000194610467FEA655C1CBF0B46024650EAB0
:1003C000013406BF52EA033591EA030F41F40021DC
:1003D00030BD00BF90F0000F04BF0021704730B562
:1003E0004FF4806404F132044FF000054FF0000137
:1003F00050E700BF90F0000F04BF0021704730B5F8
:100400004FF4806404F1320410F0004548BF4042CC
:100410004FF000013EE700BF42004FEAE2014FEA21
:1004200031014FEA02701FBF12F07F4393F07F4FFC
:1004300081F06051704732F07F4208BF704793F0FF
:100440007F4F04BF41F40021704730B54FF4607412
:1004500001F0004521F000411CE700BF50EA010215
:1004600008BF704730B54FF000050AE050EA0102BE
:1004700008BF704730B511F0004502D5404261EB2E
:1004800041014FF4806404F132045FEA915C3FF46F
:10049000D8AE4FF003025FEADC0C18BF03325FEA0C
:1004A000DC0C18BF033202EBDC02C2F1200300FABD
:1004B00003FC20FA02F001FA03FE40EA0E0021FAE2
:1004C00002F11444BDE600BF70B54FF0FF0C4CF4D0
:1004D000E06C1CEA11541DBF1CEA135594EA0C0F82
:1004E00095EA0C0F00F0DEF82C4481EA030621EABD
:1004F0004C5123EA4C5350EA013518BF52EA0335F8
:1005000041F4801143F4801338D0A0FB02CE4FF0A9
:100510000005E1FB02E506F00042E0FB03E54FF0D9
:100520000006E1FB03569CF0000F18BF4EF0010ED1
:10053000A4F1FF04B6F5007F64F5407404D25FEACD
:100540004E0E6D4146EB060642EAC62141EA555180
:100550004FEAC52040EA5E504FEACE2EB4F1FD0CC2
:1005600088BFBCF5E06F1ED8BEF1004F08BF5FEA40
:10057000500E50F1000041EB045170BD06F00046F2
:1005800046EA010140EA020081EA0301B4EB5C049F
:10059000C2BFD4EB0C0541EA045170BD41F4801197
:1005A0004FF0000E013C00F3AB8014F1360FDEBFBC
:1005B000002001F0004170BDC4F10004203C35DA98
:1005C0000C341BDC04F11404C4F1200500FA05F31B
:1005D00020FA04F001FA05F240EA020001F00042BC
:1005E00021F0004110EBD37021FA04F642EB060132
:1005F0005EEA430E08BF20EAD37070BDC4F10C045C
:10060000C4F1200500FA04F320FA05F001FA04F21F
:1006100040EA020001F0004110EBD37041F100010B
:100620005EEA430E08BF20EAD37070BDC4F1200516
:1006300000FA05F24EEA020E20FA04F301FA05F27E
:1006400043EA020321FA04F001F0004121FA04F226
:1006500020EA020000EBD3705EEA430E08BF20EAF6
:10066000D37070BD94F0000F0FD101F00046400030
:1006700041EB010111F4801F08BF013CF7D041EAB2
:10068000060195F0000F18BF704703F000465200B6
:1006900043EB030313F4801F08BF013DF7D043EA87
:1006A0000603704794EA0C0F0CEA135518BF95EA3D
:1006B0000C0F0CD050EA410618BF52EA4306D1D1C4
:1006C00081EA030101F000414FF0000070BD50EAE3
:1006D000410606BF1046194652EA430619D094EA6D
:1006E0000C0F02D150EA013613D195EA0C0F05D157
:1006F00052EA03361CBF104619460AD181EA0301AB
:1007000001F0004141F0FE4141F470014FF0000062
:1007100070BD41F0FE4141F4780170BD70B54FF0FD
:10072000FF0C4CF4E06C1CEA11541DBF1CEA13557D
:1007300094EA0C0F95EA0C0F00F0A7F8A4EB05045F
:1007400081EA030E52EA03354FEA013100F0888056
:100750004FEA03334FF0805545EA131343EA12631F
:100760004FEA022245EA111545EA10654FEA0026D4
:100770000EF000419D4208BF964244F1FD0404F58D
:10078000407402D25B084FEA3202B61A65EB0305E9
:100790005B084FEA32024FF480104FF4002CB6EBA6
:1007A000020E75EB030E22BFB61A754640EA0C0026
:1007B0005B084FEA3202B6EB020E75EB030E22BF66
:1007C000B61A754640EA5C005B084FEA3202B6EBA7
:1007D000020E75EB030E22BFB61A754640EA9C0066
:1007E0005B084FEA3202B6EB020E75EB030E22BF36
:1007F000B61A754640EADC0055EA060E18D04FEAF4
:10080000051545EA16754FEA06164FEAC30343EA93
:1008100052734FEAC2025FEA1C1CC0D111F4801F60
:100820000BD141EA00014FF000004FF0004CB6E759
:1008300011F4801F04BF01430020B4F1FD0C88BFF8
:10084000BCF5E06F3FF6AFAEB5EB030C04BFB6EB03
:10085000020C5FEA500C50F1000041EB045170BDF6
:100860000EF0004E4EEA113114EB5C04C2BFD4EB23
:100870000C0541EA045170BD41F480114FF0000EA7
:10088000013C90E645EA060E8DE60CEA135594EA23
:100890000C0F08BF95EA0C0F3FF43BAF94EA0C0F26
:1008A0000AD150EA01347FF434AF95EA0C0F7FF49B
:1008B00025AF104619462CE795EA0C0F06D152EAEF
:1008C00003353FF4FDAE1046194622E750EA4106D3
:1008D00018BF52EA43067FF4C5AE50EA41047FF4E4
:1008E0000DAF52EA43057FF4EBAE12E74A0011D296
:1008F00012F5001211D20DD56FF47873B3EB62527A
:100900000ED44FEAC12343F0004343EA505323FA85
:1009100002F070474FF00000704750EA013002D1FA
:100920004FF0FF3070474FF0000070474FEA410230
:10093000B2F1E04324BFB3F5001CDCF1FE5C0DD93D
:1009400001F0004C4FEAC0024CEA5070B2F1004F87
:1009500040EB830008BF20F00100704711F0804F8A
:1009600021D113F13872BCBF01F00040704741F44F
:1009700080114FEA5252C2F11802C2F1200C10FA53
:100980000CF320FA02F018BF40F001004FEAC12337
:100990004FEAD32303FA0CFC40EA0C0023FA02F3DB
:1009A0004FEA4303CCE77FEA625307D150EA0133B1
:1009B0001EBF4FF0FE4040F44000704701F0004081
:1009C00040F0FE4040F40000704700BF80F000405F
:1009D00002E000BF81F0004142001FBF5FEA410317
:1009E00092EA030F7FEA226C7FEA236C6AD04FEA17
:1009F0001262D2EB1363C1BFD2184140484041405C
:100A0000B8BF5B42192B88BF704710F0004F40F40D
:100A1000000020F07F4018BF404211F0004F41F429
:100A2000000121F07F4118BF494292EA030F3FD0F5
:100A3000A2F1010241FA03FC10EB0C00C3F1200308
:100A400001FA03F100F0004302D5494260EB400097
:100A5000B0F5000F13D3B0F1807F06D340084FEA02
:100A6000310102F10102FE2A51D2B1F1004F40EBF7
:100A7000C25008BF20F0010040EA0300704749005F
:100A800040EB0000013A28BFB0F5000FEDD2B0FAFC
:100A900080FCACF1080CB2EB0C0200FA0CF0AABF1F
:100AA00000EBC25052421843BCBFD04018437047BD
:100AB00092F0000F81F4000106BF80F400000132C3
:100AC000013BB5E74FEA41037FEA226C18BF7FEA9A
:100AD000236C21D092EA030F04D092F0000F08BFDC
:100AE0000846704790EA010F1CBF0020704712F0C3
:100AF0007F4F04D1400028BF40F00040704712F102
:100B000000723CBF00F50000704700F0004343F066
:100B1000FE4040F4000070477FEA226216BF08469C
:100B20007FEA23630146420206BF5FEA412390EA5F
:100B3000010F40F4800070474FF0000304E000BF55
:100B400010F0004348BF40425FEA000C08BF704706
:100B500043F0964301464FF000001CE050EA0102CA
:100B600008BF70474FF000030AE000BF50EA0102DF
:100B700008BF704711F0004302D5404261EB4101CC
:100B80005FEA010C02BF84460146002043F0B643F1
:100B900008BFA3F18053A3F50003BCFA8CF2083A16
:100BA000A3EBC25310DB01FA02FC634400FA02FC1F
:100BB000C2F12002BCF1004F20FA02F243EB020026
:100BC00008BF20F00100704702F1200201FA02FC88
:100BD000C2F1200250EA4C0021FA02F243EB02007B
:100BE00008BF20EADC7070474FF0FF0C1CEAD052BF
:100BF0001EBF1CEAD15392EA0C0F93EA0C0F6FD080
:100C00001A4480EA010C400218BF5FEA41211ED05D
:100C10004FF0006343EA501043EA5111A0FB013149
:100C20000CF00040B1F5000F3EBF490041EAD3711E
:100C30005B0040EA010062F17F02FD2A1DD8B3F19A
:100C4000004F40EBC25008BF20F00100704790F009
:100C5000000F0CF0004C08BF49024CEA502040EA5B
:100C600051207F3AC2BFD2F1FF0340EAC250704721
:100C700040F400004FF00003013A5DDC12F1190F5F
:100C8000DCBF00F000407047C2F10002410021FAD1
:100C900002F1C2F1200200FA02FC5FEA310040F1E9
:100CA000000053EA4C0308BF20EADC70704792F062
:100CB000000F00F0004C02BF400010F4000F013A9A
:100CC000F9D040EA0C0093F0000F01F0004C02BF95
:100CD000490011F4000F013BF9D041EA0C018FE704
:100CE0000CEAD15392EA0C0F18BF93EA0C0F0AD00A
:100CF00030F0004C18BF31F0004CD8D180EA010030
:100D000000F00040704790F0000F17BF90F0004FC8
:100D1000084691F0000F91F0004F14D092EA0C0FAA
:100D200001D142020FD193EA0C0F03D14B0218BF3D
:100D3000084608D180EA010000F0004040F0FE4083
:100D400040F40000704740F0FE4040F4400070471F
:100D50004FF0FF0C1CEAD0521EBF1CEAD15392EA9E
:100D60000C0F93EA0C0F69D0A2EB030280EA010C8E
:100D700049024FEA402037D04FF0805343EA111127
:100D800043EA10130CF000408B4238BF5B0042F185
:100D90007D024FF4000C8B4224BF5B1A40EA0C002A
:100DA000B3EB510F24BFA3EB510340EA5C00B3EB5C
:100DB000910F24BFA3EB910340EA9C00B3EBD10F4A
:100DC00024BFA3EBD10340EADC001B0118BF5FEA9C
:100DD0001C1CE0D1FD2A3FF650AF8B4240EBC250C5
:100DE00008BF20F0010070470CF0004C4CEA502086
:100DF0007F32C2BFD2F1FF0340EAC250704740F4D5
:100E000000004FF00003013A37E792F0000F00F0C6
:100E1000004C02BF400010F4000F013AF9D040EA44
:100E20000C0093F0000F01F0004C02BF490011F4D8
:100E3000000F013BF9D041EA0C0195E70CEAD153D0
:100E400092EA0C0F08D142027FF47DAF93EA0C0FB7
:100E50007FF470AF084676E793EA0C0F04D14B029B
:100E60003FF44CAF08466EE730F0004C18BF31F04D
:100E7000004CCAD130F000427FF45CAF31F0004347
:100E80007FF43CAF5FE700BF4FF0FF3C06E000BFE0
:100E90004FF0010C02E000BF4FF0010C4DF804CD03
:100EA0004FEA40024FEA41037FEA226C18BF7FEA13
:100EB000236C11D001B052EA530C18BF90EA010F15
:100EC00058BFB2EB030088BFC81738BF6FEAE170A4
:100ED00018BF40F0010070477FEA226C02D15FEA40
:100EE000402C05D17FEA236CE4D15FEA412CE1D0AC
:100EF0005DF8040B704700BF844608466146FFE773
:100F00000FB5FFF7C9FF002848BF10F1000F0FBD54
:100F10004DF808EDFFF7F4FF0CBF012000205DF84D
:100F200008FB00BF4DF808EDFFF7EAFF34BF0120D2
:100F300000205DF808FB00BF4DF808EDFFF7E0FF6B
:100F400094BF012000205DF808FB00BF4DF808EDBC
:100F5000FFF7D2FF94BF012000205DF808FB00BF1F
:100F60004DF808EDFFF7C8FF34BF012000205DF801
:100F700008FB00BF42000ED2B2F1FE4F0BD34FF080
:100F80009E03B3EB126209D44FEA002343F00043FF
:100F900023FA02F070474FF00000704712F1610F22
:100FA00001D1420202D14FF0FF3070474FF00000F4
:100FB000704700BF2DE9F843022833D80E461C4B7A
:100FC00013F810300BB90F462DE0194A02EB400020
:100FD000427894B2154603EB0208424526DA002710
:100FE000DFF8509004E00134A4B2254644451ADAF3
:100FF00005EB450359F823103046FFF79DFF002805
:10100000F1D06F0005EB450309EB830359683046C7
:10101000FFF7EAFD2F4409EB8707B968FFF7DCFC0F
:101020000746E0E700273846BDE8F8830027FAE7DF
:10103000480100205001002001291ED00346114A1A
:1010400012F8100098B910B40F4A12888C183C2C72
:1010500015D80C4C01F1FF3C04F813C004EB43031A
:101060005A70013A1144084B198010BC704701397D
:10107000884214BF022000207047032070470120DF
:10108000F3E700BF48010020440100202DE9F047AC
:1010900007460E4615461C46DDF820A0DDF82490D4
:1010A00049465046FFF796FC804621462846FFF702
:1010B00091FC01464046FFF74BFE38602146504602
:1010C000FFF792FD074629464846FFF78DFD01468A
:1010D0003846FFF77FFC074629462046FFF77AFC93
:1010E00001463846FFF734FE3060BDE8F087000067
:1010F000144B13F81030934201D802207047F0B51A
:1011000083B00D460F4B03EB40004478224494B269
:10111000670004EB440080000B4E00F1080104302E
:10112000AB6801932B680093EB686A6831443044E4
:10113000FFF7ACFFEB683C4446F82430002003B0D6
:10114000F0BD00BF480100205001002070B584B000
:101150001D46002301930393082827D8044616460A
:10116000134B03EB001399734A1E18BF01221A7325
:10117000104B53F830300093022911D00123029311
:101180000C4B03EBC4036946586802F087F8084823
:1011900000EB0414A66065600020607304B070BDAD
:1011A000034B03EB001301229A73E7E70120F5E7F5
:1011B000200400201C7C000810B50B4C0023236089
:1011C00022460221094B186804F056FE23684BB1F1
:1011D0004FF0E0234FF08052C3F8042DBFF34F8F40
:1011E000BFF36F8F10BD00BFB8040020BC04002007
:1011F0002DE9F04182B09DF8205045B301EB430E3C
:1012000000EB4200013DECB22344023101EB430408
:10121000BDF824C04FEA4C0C00274FF003080D4DD9
:1012200008E0019BA5FB03235B082EF8023B02307C
:10123000A6450CD0019701464346019E0A883244D8
:101240000192013B614413F0FF03F6D1E9E702B0DC
:10125000BDE8F081ABAAAAAAD0B584B01E4A32F884
:10126000103002931D4931F810300393039C029B08
:1012700003EBC3039B00DC2606FB0433C3F30F23FD
:10128000ADF80630BDF8063021F81030BDF8064044
:10129000A4B222F810402046FFF7ACF80CA3D3E923
:1012A0000023FFF711F906460F46C4F57F600F30A3
:1012B000FFF7A0F802460B4630463946FFF72EFAF4
:1012C000FFF734FBFFF756FE80B204B0D0BD00BF7D
:1012D000000000000088C340180400201004002013
:1012E000064BA3F19001002093F88C2002F001023C
:1012F00042EA4000103B8B42F6D1704720040020A8
:101300002DE9F04F8BB000F017FAB24B18600A23AA
:101310001A4600210846FFF719FF0A231A46002142
:101320000120FFF713FF0A231A4600210220FFF7CE
:101330000DFF0A231A4600210320FFF707FF0A23A7
:101340001A4600210420FFF701FF0A231A46002154
:101350000520FFF7FBFE0A231A4600210620FFF7AF
:10136000F5FE0A231A4600210720FFF7EFFE0A23A5
:101370001A4600210820FFF7E9FE14210120FFF79B
:101380005BFE954C2546002601276888FFF7D4FBB5
:1013900006902888FFF7D0FB0590E888FFF7CCFB84
:1013A000089035F8040FFFF7C7FB0790B2B205A904
:1013B0003846FFF79DFE0136132EE6D11421022098
:1013C000FFF73AFE002502266088FFF7B5FB06907E
:1013D0002088FFF7B1FB0590E088FFF7ADFB089090
:1013E00034F8040FFFF7A8FB0790AAB205A930460E
:1013F000FFF77EFE0135132DE6D1784B01225A709E
:10140000DA705A71DA71764A002313805380938020
:101410000393DFF8D0B14FF001089946DFF8C8A177
:1014200081E0724B83F8008041466A4B186804F0F3
:10143000D5FC8FE0626816E0C4F8009010340835DF
:10144000BC421BD02646A37B022BF7D029886868B4
:1014500002F05EF8627B8242EED0236801332360A3
:10146000002AE7D1A2689342E8D9B37B83F0010355
:1014700003F00103434033737073DFE74FF0FF3332
:10148000009343464A4602215248006804F01BFC80
:10149000574801F09BFB0323019300934B464A46B8
:1014A00054495846FFF7A4FE4046FFF7D5FEFFF724
:1014B00043FB099009985146FFF752FD002860D080
:1014C0004FF6FF71404600F015FC082000F00CFCC0
:1014D00040F0010189B2082000F00CFC0220FFF767
:1014E000BBFEFFF729FB099009985146FFF738FD2D
:1014F00000285AD04FF6FF71022000F0FBFB0820B5
:1015000000F0F2FB40F0020189B2082000F0F2FB8B
:10151000FFF7E6FEC0F30111484600F0EBFB494639
:10152000062000F0E7FB09225946314801F004FA91
:10153000404605F0A3FB424610212F4801F0EEFF84
:101540002A4B1B7833B9039B0133DBB20393322B55
:101550003FF467AF0024214E284D16F8142005EB08
:10156000C403003A18BF012235F83410586801F05E
:10157000D5FF0134042CF0D1214C224D04F1900709
:1015800060E709994046FFF715FDFFF7F3FC81B2CC
:10159000404600F0AFFB082000F0A6FB20F0010160
:1015A00089B2082000F0A6FB98E709990220FFF70E
:1015B00001FDFFF7DFFC81B2022000F09BFB082059
:1015C00000F092FB20F0020189B2082000F092FBAB
:1015D0009EE700BFBC040020CC7B0008B0040020C4
:1015E00010040020FC03002000B808471E0400205F
:1015F000801200201804002000080140647C0008CC
:10160000200400201C7C0008014B03F810107047D8
:10161000B0040020014B13F810007047B004002004
:101620002DE9F04387B001F019FD0028FBD100231C
:101630000193029301230393124C0494059301A98F
:1016400002A801F0C7FD104D104F4FF00009DFF860
:10165000408003E00434043544450CD0BC42F9D347
:101660002A684B462146022001F04EFD18B92A682F
:1016700023689A42EED001F007FD0028FBD107B0A5
:10168000BDE8F08300FC0008040000200080000892
:1016900020FC000808B50D4B1B781BB908BDFFF7EF
:1016A000BFFF03E00A4B1B78722BF8D1094A531E87
:1016B00002F11D000849891ACA5C03F8012F834210
:1016C000FAD1024B00221A70E8E700BF00000020A8
:1016D00000FC00080400002001FC000808B50130EF
:1016E000024B23F81010FFF79BFF08BD04000020F9
:1016F00010B50446054B1B7823B90134044B33F86D
:10170000140010BDFFF7C6FFF7E700BF0000002080
:101710000400002008B50A24204604F03FFAFBE745
:10172000014B1868704700BF34140020014B186843
:10173000704700BF7C140020014B1868704700BF41
:101740005814002008B5044BD860184602F092FCEB
:1017500000B908BD72B6FEE7F412002008B50248D1
:1017600002F02AFB08BD00BFF412002008B50248B1
:1017700002F056FB08BD00BFF412002000B595B082
:10178000202200210BA806F04FF9002305930693B1
:1017900007930893099301930293039304930223FD
:1017A0000A9301220E9210220F9211934FF46013AC
:1017B00013930AA801F0C2FEC8B90F2305930221B2
:1017C0000691002307934FF480620892099305A8BD
:1017D00002F0F4F868B9022301934FF40043039335
:1017E00001A802F0E1F930B915B05DF804FB72B65A
:1017F000FEE772B6FEE772B6FEE7000080B592B073
:1018000000F046FFFFF7BAFF00240B940C940D94F0
:101810000E94AD4DAB6943F01003AB61AB6903F0BF
:1018200010030193019BAB6943F02003AB61AB69EB
:1018300003F020030293029BAB6943F00403AB6106
:10184000AB6903F004030393039BAB6943F0080304
:10185000AB61AB6903F008030493049B9B4E2246E3
:101860004FF49871304601F059FE994F22464FF4DB
:101870007041384601F052FE4FF498730B934FF0CD
:101880000109CDF830900D944FF00208CDF8388062
:101890000BA9304601F002FD40F6FF730B930C9448
:1018A0000D940BA9384601F0F9FC4FF470430B93EB
:1018B000CDF830900D94CDF838800BA9384601F062
:1018C000EDFC4FF400430B930C940D940BA93046A0
:1018D00001F0E4FC6B6943EA09036B616B6903EA9D
:1018E00009030093009B224605210B2001F0B0F96B
:1018F0000B2001F0E3F97748774B03604FF4E133B5
:1019000043604FF480538360C4604FF4C06303614D
:101910000C2343618461C46102F0C0FE002840F0E2
:101920003A8100230B930C930D930E930793089326
:101930006A484FF0804202604FF44C62426083601C
:101940004FF47A72C2600361836102F093FB002856
:1019500040F023814FF480530B930BA95F4802F0B2
:1019600089FC002840F01B81202307930023089363
:1019700007A95A4802F0E8FD002840F01281002330
:101980000B930C930D935648564A02604FF48072A5
:1019900082600122027303754FF46022C2614360CA
:1019A0000323036101F08EF8002840F0FC8000233F
:1019B0000B9301230C9304230D930BA9484800F0CB
:1019C000C9FE002840F0F18001230B9302230C9301
:1019D0000BA9434800F0BEFE002840F0E880022337
:1019E0000B9303230C930BA93D4800F0B3FE002892
:1019F00040F0DF8000230793089309930A9305932F
:101A000006930B930C930D930E930F9310931193D6
:101A10003548364A02600222426083604FF47A728F
:101A2000C2600361836102F025FB002840F0C3809F
:101A30004FF48053079307A92B4802F01BFC0028A2
:101A400040F0BB80284802F041FB002840F0B780FE
:101A500000230593069305A9234802F075FD00288D
:101A600040F0AF8060230B9300220C920D92042370
:101A70000F930BA91C4802F083FB002840F0A380C1
:101A80004FF4FA730C9304220BA9174802F078FB69
:101A9000002840F09A80144800F0EAFC00230B93E1
:101AA0000C930D930E93079308931148114A02600B
:101AB0004FF4FA42426083604FF4FA62C2600361FD
:101AC0008023836118E000BF00100240000801403D
:101AD000000C0140CC13002000380140F41200201B
:101AE00080120020002401403C130020000400402C
:101AF000841300200008004002F0BCFA002866D1E0
:101B00004FF480530B930BA9344802F0B3FB002829
:101B10005FD100230793089307A9304802F014FD12
:101B2000002858D103F088FF2D4A00212D4803F0EA
:101B3000CFFF2D4B18602D4A00212D4803F0C8FF20
:101B40002C4B18602C4A00212C4803F0C1FF2C4B71
:101B500018602C4A00212C4803F0BAFF2B4B186068
:101B60002B4A00212B4803F0B3FF2B4B18602B4866
:101B700004F036F82A4B18602A4804F031F82A4B52
:101B800018602A4804F02CF8294B186000F080F8FF
:101B900003F076FFFEE772B6FEE772B6FEE772B6B6
:101BA000FEE772B6FEE772B6FEE772B6FEE772B601
:101BB000FEE772B6FEE772B6FEE772B6FEE772B6F1
:101BC000FEE772B6FEE772B6FEE772B6FEE772B6E1
:101BD000FEE772B6FEE772B6FEE700BF8413002090
:101BE000787D0008151700087C120020E87C0008AA
:101BF000011300087C070020547D00080D570008E1
:101C0000BC0F00200C7D0008E51D00083C0A0020E8
:101C1000307D0008411D0008FC0C00209C7D000860
:101C200034140020BC7D00087C140020AC7D00082A
:101C30005814002010B504460368B3F1804F04D057
:101C40002268054B9A4203D010BD03F09FFDF7E7D1
:101C500000F030FDF8E700BF002C014072B6FEE74F
:101C600002291CBF074B1970064B1A78064B1A81C4
:101C700004281CBF054B1870044B1A78024B5A817C
:101C8000704700BFB2140020881400208614002082
:101C9000014B1860704700BFB414002000B583B03A
:101CA00001464FF0FF3300930123002203480068F0
:101CB00004F009F803B05DF804FB00BFB414002081
:101CC00008B5042807D810B9054B01221A70054B36
:101CD00033F8100008BD0538FFF70AFD80B2F9E7B8
:101CE00084140020A4140020014B33F81000704726
:101CF00088140020024630B9054B1B888B4202D065
:101D0000044B01201870024B23F81210704700BFDB
:101D1000881400209C14002008B5042807D810B9A6
:101D2000054B01221A70054B23F8101008BD053829
:101D3000FFF7D4FCFAE700BF9C140020A414002095
:101D400010B582B00120FFF7A9FFFFF7C9FA012300
:101D500000934FF4E133002200F00F01104602F02F
:101D600079FF02F0D5FF0421054B186804F036F81E
:101D70000124204604F082FF02F0DCFFF9E700BFF7
:101D8000B4140020024A136801331360704700BF87
:101D9000A01400200A4B1B8833B10A4B1B689842E1
:101DA0008CBF00200120704710B5054B01221A801E
:101DB0000024044B1C60044801F0FEFF204610BDC7
:101DC00082140020A01400208413002008B50348CA
:101DD00002F026F8024B00221A8008BD841300206E
:101DE000821400202DE9F04F89B00024DFF864A2AE
:101DF0004FF00008DFF860920026984F0DE0FFF7E3
:101E000049FC25462946E0B2FFF786FF0134052C40
:101E1000F8D10720FFF742FF0124914B1A78914B2C
:101E2000DA800A2004F02AFF002CE8D08D4B9B8931
:101E3000022B32D08C4B1B78012B37D0884B1B7870
:101E4000022B53D0032B7DD0012B61D0874B1889F7
:101E5000002301930293039304930593069307933E
:101E6000642804D8824B1B88834240F0D2817D4B8A
:101E70001B8A13F0010F40F0028213F0020F04D00E
:101E8000784B1B88022B00F026820022794B1A80A7
:101E90002021504601F042FBFCE1724BDB89022B12
:101EA000704B0CBF03220222DA81C3E76D4B1B8803
:101EB00033B96B4B04221A706B4B00221A70BDE7CA
:101EC0006D4B01221A70694B1B883BB1013B9BB2E1
:101ED0009342F1D8624B01221A70EDE701210020F4
:101EE000FFF7BEFE5E4B02221A70E5E75D4B5B8892
:101EF000142B08D91D2B87BF002108460221002082
:101F0000FFF7AEFEA2E701210020FFF7A9FE9DE743
:101F100001210020FFF7A4FE0820FFF7E9FB80B2B3
:101F2000FFF738FF002891D04E4B5D880620FFF761
:101F3000DFFB83B2AB4289D8FFF748FF484B03224F
:101F40001A7083E7474B5D880920FFF7D1FB80B209
:101F5000A8422DD2434BDB89012B2FD1414B1B884B
:101F6000022B4ED0444B01221A70404B1B889342E7
:101F700000F0E8803B4B1B88012B7FF467AF3E4BA2
:101F800001221A70394B1B88022B7FF45FAF374B4D
:101F9000B3F806B09D880420FFF7AAFB83B2ED1AC0
:101FA000AB4580F2F78001210220FFF759FE4DE793
:101FB00001232C4AD3812A4A137047E72E4A012174
:101FC00011702A4A1288022AC8D1032B08D0254B47
:101FD0009B89012B09D001210320FFF741FE35E742
:101FE000204BDA81FFF7F2FEF1E71220FFF7D2FE75
:101FF00000283FF42BAF1B4B0122DA81FFF7E6FEEE
:1020000024E71D4B01221A70184B1B88022BA9D103
:10201000144BB3F804B0154B9D880020FFF768FB04
:1020200083B2ED1AAB4504DA01210320FFF718FE55
:102030000CE70C4BB3F804B00C4B9D880120FFF764
:1020400057FB83B2ED1AAB4518DA02210420FFF7E3
:1020500007FEFBE6000801400000594000E08A400E
:1020600085140020881400209C140020A414002053
:1020700080140020AE14002084140020984BB3F884
:1020800004B0984B9D880120FFF732FB83B2ED1A14
:10209000AB4510D0924BB3F804B0924B9D88022010
:1020A000FFF726FB83B2ED1AAB4509DA02210420C3
:1020B000FFF7D6FDCAE602210846FFF7D1FDC5E6C7
:1020C000874BB3F804B0874B9D880220FFF710FBC5
:1020D00083B2ED1AAB450BD0814B9D88814BB3F891
:1020E00004B0AB4509D902210420FFF7B9FDADE6E4
:1020F00002210120FFF7B4FDA8E6AB450BD0032079
:10210000FFF7F6FA83B25B449D4209DA002104200E
:10211000FFF7A6FD9AE600210420FFF7A1FD95E652
:102120006F4B9D886F4BB3F804B00320FFF7E0FAC4
:1021300083B25B449D42FFF615AF00210846FFF7CE
:102140008FFD83E6674BDD88B3F804B00720FFF707
:10215000CFFA83B25B449D4205DD0021614B987844
:10216000FFF77EFD72E65F4BB3F806B09D88042052
:10217000FFF7BEFA83B2ED1AAB4505DA0121594BE0
:102180009878FFF76DFD61E60221564B9878FFF7CE
:1021900067FDEFE6534BB3F806B09D880420FFF7C8
:1021A000A7FA83B2ED1AAB450AD04E4BDD88B3F8DF
:1021B00004B0AB4509D902210420FFF751FD45E6E3
:1021C00002210120FFF74CFD40E6AB450BD0052076
:1021D000FFF78EFA83B25B449D4209DA00210420A6
:1021E000FFF73EFD32E600210420FFF739FD2DE622
:1021F0003C4BDD88B3F804B00520FFF779FA83B2D1
:102200005B449D42FFF622AE00210846FFF728FD01
:102210001CE660230193FEF7EDF842464B46FEF7BD
:102220007DFA32463B46FEF74FF9FEF75FFB029020
:102230002D4D0021284602F045F9002201A928462B
:1022400001F09EFF0021284602F0D8F80FE6274B48
:1022500000221A802021504601F066F91AE0012080
:1022600003F09CFAD8E5012B03D021460024254633
:1022700020E000210D461DE000210D461AE01C4B18
:1022800032221A80194B1B8801339BB2312BDED8C6
:10229000164A1380124B1B88002BE0D0104A51893C
:1022A0000229E9D00329DED0012914BF0025012528
:1022B00000210C460020FFF7A7F921460120FFF777
:1022C000A3F929460220FFF79FF9054B197A03204D
:1022D000FFF79AF9A0E5064B32221A80D2E700BF39
:1022E00088140020A41400203C130020B014002007
:1022F000AE14002000B583B0114B9A6942F0010280
:102300009A619A6902F001020092009ADA6942F039
:102310008052DA61DB6903F080530193019B002254
:102320000F216FF0010000F093FC064A536823F080
:10233000E06343F00073536003B05DF804FB00BF3B
:10234000001002400000014010B586B00023029347
:1023500003930493059302681D4B9A4201D006B083
:1023600010BD044603F56C439A6942F400729A6109
:102370009A6902F400720092009A9A6942F004028B
:102380009A619B6903F004030193019B0723029365
:102390000323039302A90F4800F080FF0E480F4B60
:1023A00003600023436083608022C2604FF4807228
:1023B00002614FF4806242618361C36100F08CFC72
:1023C00018B9054B23625C62C9E7FFF747FCF8E7E1
:1023D0000024014000080140B01200200800024023
:1023E00000B585B00368B3F1804F08D01D4A934211
:1023F00019D01D4A934221D005B05DF804FB03F5C6
:102400000433DA6942F00102DA61DB6903F00103A7
:102410000193019B002205211C2000F019FC1C20C7
:1024200000F04CFCE8E7114BDA6942F00202DA6195
:10243000DB6903F002030293029BDDE70B4BDA69D1
:1024400042F00402DA61DB6903F004030393039BA7
:10245000002205211E2000F0FBFB1E2000F02EFCB8
:10246000CAE700BF0004004000080040001002401E
:1024700000B587B000230293039304930593026889
:102480000D4B9A4202D007B05DF804FB03F503330D
:102490009A6942F004029A619B6903F00403019374
:1024A000019BC0230293022303930323059302A9F4
:1024B000024800F0F3FEE6E7000400400008014097
:1024C00030B587B000230293039304930593026809
:1024D0001B4B9A4201D007B030BD03F558439A69AF
:1024E00042F480429A619A6902F480420092009A12
:1024F0009A6942F004029A619B6903F00403019314
:10250000019B4FF40073029302230393032305936B
:102510000C4D02A9284600F0C1FE4FF480630293DF
:1025200000240394049402A9284600F0B7FE224632
:102530000521252000F08CFB252000F0BFFBCAE719
:10254000003801400008014030B589B004461E4BF8
:102550009A6942F400629A619B6903F400630193F3
:10256000019B02A903A801F001FB01F0EFFA034669
:102570001648174A026040F2E732C260154AA2FBD1
:1025800003239B0C013B4360002303618360836151
:1025900001F070FD054610B1284609B030BD0B486A
:1025A00001F00AFC05460028F6D1192000F086FB50
:1025B0000F2C01D90125EFE700222146192000F058
:1025C00047FB054B1C60E7E700100240B8140020F1
:1025D000002C014083DE1B432C000020FEE7FEE7B9
:1025E000FEE7FEE7FEE7704708B5FEF7E5FD0248A7
:1025F00000F066FC08BD00BFB012002008B502481C
:1026000001F02CFC08BD00BFB814002008B502483A
:1026100001F024FC08BD00BFF412002008B5FFF74C
:10262000B1FB024801F01AFC08BD00BF8413002072
:1026300008B5024802F062F908BD00BFCC130020C3
:1026400070470000FFF7FCFF0B480C490C4A0023C1
:1026500002E0D458C4500433C4188C42F9D3094A58
:10266000094C002301E013600432A242FBD305F0C1
:10267000A7F9FFF7C3F870470000002024010020ED
:102680007880000828010020A4300020FEE7000028
:1026900008B5074A136843F010031360032000F0E5
:1026A000C5FA0F20FFF750FFFFF724FE002008BDFA
:1026B00000200240034A1168034B1B780B4413604F
:1026C000704700BF0015002028000020014B18684B
:1026D000704700BF00150020704708B5436A9A6A2A
:1026E00012F0500F1ED19A6A42F400729A621A6870
:1026F000926802F46022B2F5602F03D01846FFF70B
:10270000EBFF08BD1A7B002AF8D19A6A22F4807286
:102710009A629A6A12F4805FF0D19A6A42F00102DA
:102720009A62EBE71B6A1B6B9847EAE7704708B5AC
:10273000406AFFF7FBFF08BD704708B5406A836A2F
:1027400043F040038362C36A43F00403C362FFF7AC
:10275000F3FF08BD30B482B00022019290F824202B
:10276000012A00F095800346012280F824204A685F
:10277000062A2DD80468606B02EB8202053A4FF0FE
:102780001F0C0CFA02FC20EA0C000D6805FA02F29C
:10279000024362630A68092A3AD91C68E06802EBBE
:1027A00042021E3A4FF0070C0CFA02FC20EA0C0021
:1027B0008D6805FA02F20243E2600A68103A012AC3
:1027C00036D90020002283F8242002B030BC7047A4
:1027D0000C2A0ED80568286B02EB8202233A1F24CC
:1027E000944020EA04000C6804FA02F202432A63CF
:1027F000D0E70568E86A02EB8202413A1F24944060
:1028000020EA04000C6804FA02F20243EA62C1E71B
:102810001C68206902EB42024FF0070C0CFA02FC24
:1028200020EA0C008D6805FA02F202432261C4E737
:102830001868184A904205D09A6A42F020029A62BB
:102840000120BFE7926812F4000F1DD11148826881
:1028500042F4000282600A68102A01D00020B1E729
:102860000D4A12680D49A1FB0212920C02EB820282
:1028700052000192019A4AB1019A013A0192019AD9
:10288000002AF9D100209DE700209BE7002099E76E
:1028900002209AE7002401402400002083DE1B432D
:1028A00030B583B00023019303689A6812F0010FDA
:1028B0003BD104469A6842F001029A601C4B1B68A7
:1028C0001C4AA2FB03239B0C0193019B2BB1019B90
:1028D000013B0193019B002BF9D1FFF7F7FE054661
:1028E00023689B6813F0010F06D000201EE02368C8
:1028F0009B6813F0010F16D1FFF7E8FE431B022B74
:10290000F5D923689B6813F0010FF0D1A36A43F057
:102910001003A362E36A43F00103E362002384F837
:102920002430012002E0002000E0002003B030BD90
:102930002400002083DE1B43F8B504460D461646EE
:102940000168424881425DD0414B99425AD094F887
:102950002430012B77D0012384F824302046FFF760
:102960009FFF074600286AD1A16A21F4706121F017
:10297000010141F48071A1622268354B9A4248D02E
:10298000A36A23F48013A362536813F4806F05D005
:10299000A36A23F4405343F48053A362A36A13F45D
:1029A000805F1ABFE36A23F006030023E36200237B
:1029B00084F82430236A274A9A62236A264ADA6214
:1029C000236A264A1A6323686FF002021A6022689B
:1029D000936843F480739360216833462A464C31F0
:1029E000206A00F0AFF923689A6802F46022B2F519
:1029F000602F9A680CBF42F4A00242F480129A60E1
:102A00003846F8BD114B5B6813F4702F9FD0012737
:102A1000F6E7A3F580635B6813F4702FB0D0A36A68
:102A200043F48013A362094B5B6813F4806FB5D045
:102A3000A36A23F4405343F48053A362AEE7002318
:102A400084F82430DCE70227DAE700BF00240140E5
:102A500000280140DB2600082F2700083B2700083C
:102A600038B503689A6812F0010F01D1002038BD13
:102A700004469A6822F001029A60FFF727FE054695
:102A800023689B6813F0010F06D10020EFE723684D
:102A90009B6813F0010F13D0FFF718FE431B022BA6
:102AA000F5D923689B6813F0010FF0D0A36A43F0B7
:102AB0001003A362E36A43F00103E3620120D6E757
:102AC0000020D4E700287AD070B50446836A002B32
:102AD0004FD02046FFF7C4FFA36A13F0100368D15C
:102AE000002866D1A26A22F4885222F0020242F043
:102AF0000202A262217B6268E5692A4342EA41023E
:102B0000A568B5F5807F04D0012D14BF1D464FF494
:102B10008075267D012E32D02668716821F46941C6
:102B2000294371602568AE68264931401143A96088
:102B3000A168B1F5807F01D0012902D12369013B51
:102B40001B052568E96A21F470010B43EB622368D9
:102B500099681D4B0B409A4222D0A36A23F01203BE
:102B600043F01003A362E36A43F00103E362012030
:102B700024E0C36280F82430FFF7E6FBA9E731B90F
:102B8000A169013945EA413141F40065C4E7A16A10
:102B900041F02001A162E16A41F00101E162BBE77D
:102BA0000023E362A36A23F0030343F00103A3625B
:102BB00004E0A36A43F01003A362012070BD01206A
:102BC000704700BFFDF7E1FFFE0E1FFF90F82430B5
:102BD000012B28D010B50446012380F82430FFF7DC
:102BE0003FFF50B92268936823F480739360226A90
:102BF00092F82130DBB2022B03D0002384F824307A
:102C000010BD104600F0EDF840B9A36A23F48853D4
:102C100023F0010343F00103A362EEE7A36A43F04C
:102C20004003A362E9E70220704700000749CA6831
:102C3000030203F4E06322F4E0621204120C134373
:102C400043F0BF6343F40033CB60704700ED00E016
:102C500000B5184BDB68C3F30223C3F1070CBCF1CA
:102C6000040F28BF4FF0040C03F1040EBEF1060F51
:102C70008CBF033B00234FF0FF3E0EFA0CFC21EA11
:102C80000C0199400EFA03F322EA030211430028D3
:102C900009DB0901C9B200F1604000F5614080F82C
:102CA00000135DF804FB00F00F000901C9B2024BEC
:102CB0001954F6E700ED00E014ED00E0002808DB11
:102CC000420900F01F00012303FA00F0014B43F812
:102CD0002200704700E100E060B310B402460168D2
:102CE000154B0B441548A0FB03031B099B00136401
:102CF000134BD363022382F82130086820F47F50FD
:102D000020F03000536894682343D4682343146947
:102D100023435469234394692343D46923430343DE
:102D20000B6000209063012382F8213082F820009C
:102D300010BC704701207047F8FFFDBFCDCCCCCC54
:102D40000000024090F820C0BCF1010F47D04FF0C6
:102D5000010C80F820C090F821C05FFA8CFCBCF117
:102D6000010F04D0002380F820300220704770B497
:102D7000022480F821400024846305682C6824F034
:102D800001042C60C56B0124066CB4406C600468BF
:102D900063604368102B12D0036899600368DA609F
:102DA000C36A8BB10268136843F00E0313600268B4
:102DB000136843F001031360002070BC7047036880
:102DC0009A600368D960EBE70268136823F0040394
:102DD00013600268136843F00A031360E7E70220F8
:102DE000704790F82130DBB2022B06D004238363B6
:102DF000002380F82030012070470268136823F018
:102E00000E0313600268136823F001031360C16BA3
:102E10000122036C02FA03F34B6080F821200023A7
:102E200080F820301846704708B590F82130DBB2A2
:102E3000022B03D004238363012008BD02681368BA
:102E400023F00E0313600268136823F0010313607C
:102E50000368194A934213D0143293421ED014329D
:102E600093421DD0143293421DD0143293421DD090
:102E7000143293420CBF4FF480134FF0807300E084
:102E800001230E4A5360012380F82130002380F88B
:102E90002030436B6BB198470020CEE71023F0E75A
:102EA0004FF48073EDE74FF48053EAE74FF480333B
:102EB000E7E70020C1E700BF080002400000024031
:102EC00038B5C36B1A6804682568016C04238B400D
:102ED000134234D015F0040F31D0236813F0200FC3
:102EE00003D1236823F0040323600368424A93421A
:102EF00013D01432934217D01432934216D01432A6
:102F0000934216D01432934216D0143293420CBF1F
:102F10004FF480034FF0806300E00423374A53608E
:102F2000C36A03B1984738BD4023F7E74FF4806385
:102F3000F4E74FF48043F1E74FF48023EEE70223F8
:102F40008B4013423BD015F0020F38D0236813F0AA
:102F5000200F06D1236823F00A032360012380F8A1
:102F600021300368244A934213D0143293421BD079
:102F7000143293421AD0143293421AD0143293422C
:102F80001AD0143293420CBF4FF400134FF0007369
:102F900000E00223194A5360002380F82030836A3E
:102FA000002BC0D09847BEE72023F3E74FF400730F
:102FB000F0E74FF40053EDE74FF40033EAE708235E
:102FC00003FA01F11142AED015F0080FABD023681F
:102FD00023F00E032360C16B0123026C03FA02F29B
:102FE0004A60836380F82130002380F82030036B2F
:102FF000002B98D0984796E7080002400000024056
:10300000144BDB6813F0100305D0134AD36943F067
:103010000203D36110230F4AD26812F0040F06D0C6
:103020000D49CA6942F00102CA6143F00403094A2A
:10303000D26912F0010F09D00749CA6942F00402AF
:10304000CA610449CA6922F00102CA61014AD36017
:10305000704700BF0020024008150020084B1B6984
:1030600013F0800F09D0064B064A5A6002F18832ED
:103070005A601869C0F3C01070470020704700BF45
:103080000020024023016745034A136943F080038F
:1030900013610020704700BF0020024070B5044655
:1030A000FFF714FB0646174DEB6813F0010F0AD02B
:1030B000B4F1FF3FF8D01CB3FFF708FB801BA04220
:1030C000F2D903201BE00F4BDB6813F0200F02D076
:1030D0000C4B2022DA600B4BDB6813F0100F0BD186
:1030E000084BDB6913F0010F06D1064BDB6813F0C8
:1030F000040F01D1002002E0FFF782FF012070BD24
:103100000320FCE7002002402DE9F84F1F46264B24
:103110001B7E012B45D004460D469046224B0122D2
:103120001A764CF25030FFF7B9FF034680BB012CF2
:1031300034D0022C0CBF4FF002094FF0040905EB0C
:1031400049090024DFF860B0A246184EC4F12001FE
:10315000A4F1200228FA04F307FA01F10B4327FA3D
:1031600002F213439BB2CBF81CA0326942F0010279
:1031700032612B804CF25030FFF790FF336923F01F
:1031800001033361034618B9103402354D45DDD1D2
:10319000054A002111761846BDE8F88F4FF0010965
:1031A000CDE70223F7E700BF08150020002002400A
:1031B000064B0022DA61064B1A6942F002021A61DC
:1031C00058611A6942F040021A61704708150020E0
:1031D000002002402F4B1B7E012B58D02DE9F041DF
:1031E00005460F462B4B01221A760368022B26D088
:1031F0004CF25030FFF752FF00283FD14FF0FF3321
:103200003B60AC68EB6804EB83239C423DD24CF2FC
:103210005038214E2046FFF7CBFF4046FFF73EFFD8
:10322000336923F002033361014628BB04F580644F
:10323000EA68AB6803EB8223A342EBD81FE04CF2B1
:103240005030FFF72BFF08B1012118E0114B00228D
:10325000DA61114C236943F004032361236943F0CD
:10326000400323614CF25030FFF718FF01462369F9
:1032700023F00403236102E03C6000E00121054BE0
:1032800000221A760846BDE8F0810121F7E7022105
:103290000846704708150020002002402DE9F04F35
:1032A00083B0D1F80090B9F1000F00F01F81002227
:1032B0001346904E904C914DDFF844E29446BAE0AC
:1032C0004FF0000C25E0A9450FD006D9F1450CD0F0
:1032D000DFF830A2D14508D01BE0DFF82CA2D145A1
:1032E00003D00AF5702AD1450FD1D1F808C0BCF13E
:1032F000000F00F0EF80BCF1010F0CBFC0F8108090
:10330000C0F814804FF0080C03E0AAF5801AD145EC
:10331000EBD0FF2F99BF8146924600F10409A2F13C
:10332000200AD9F800804FF00F0B0BFA0AFB28EAAD
:103330000B080CFA0AFA48EA0A08C9F80080D1F822
:10334000048018F0805F6FD0D6F8188048F001082C
:10335000C6F81880D6F8188008F00108CDF8048067
:10336000DDF8048023F0030808F1804808F5803870
:10337000D8F808A003F003094FEA890B4FF00F09B2
:1033800009FA0BF92AEA090ADFF88091484500F0AA
:10339000A48009F58069484500F0A28009F580699C
:1033A000484500F0A08009F5806948450CBF4FF002
:1033B00003094FF0040909FA0BF949EA0A09C8F8A8
:1033C0000890D1F8048018F4801FD4F8088014BF46
:1033D00048EA070828EA0708C4F80880D1F80480FA
:1033E00018F4001FD4F80C8014BF48EA070828EA34
:1033F0000708C4F80C80D1F8048018F4003FD4F812
:10340000048014BF48EA070828EA0708C4F80480C3
:10341000D1F8048018F4803FD4F8008014BF48EA43
:10342000070728EA070727600133D1F80090043224
:1034300039FA03F75AD04FF0010808FA03F808EAFE
:10344000090738EA0909EFD1D1F80490B9F1120F50
:103450003FF639AFB9F1120F3FF65BAF0FF2040A36
:103460005AF829F0EB320008B1340008C1340008E2
:10347000C132000813330008133300081333000867
:103480001333000813330008133300081333000804
:1034900013330008133300081333000813330008F4
:1034A0001333000813330008B7340008CB34000886
:1034B000D1F80CC02DE7D1F80CC00CF1040C28E7B2
:1034C000D1F80CC00CF1080C23E7D1F80CC00CF1BA
:1034D0000C0C1EE74FF0040C1BE74FF000096AE7E5
:1034E0004FF0010967E74FF0020964E703B0BDE858
:1034F000F08F00BF001002400004014000002210C5
:1035000000003110000032100000121000080140CD
:103510008368194214BF0120002070470AB101617D
:103520007047090401617047C36801EA030221EA98
:10353000030141EA0241016170470000002800F0E8
:1035400001822DE9F04182B00446036813F0010FB7
:103550002CD09F4B5B6803F00C03042B1DD09C4BBD
:103560005B6803F00C03082B12D06368B3F5803F4F
:1035700041D0002B55D103F1804303F504331A6881
:1035800022F480321A601A6822F480221A6037E02E
:103590008F4B5B6813F4803FE7D08D4B1B6813F4AF
:1035A000003F03D06368002B00F0CE81236813F046
:1035B000020F75D0864B5B6813F00C0F5FD0844B05
:1035C0005B6803F00C03082B54D02369002B00F038
:1035D0008A80804B01221A60FFF778F805467C4EFE
:1035E000336813F0020F75D1FFF770F8401B022803
:1035F000F6D90320ADE1764A136843F480331360B3
:10360000636843B3FFF762F80546714E336813F4FD
:10361000003FCBD1FFF75AF8401B6428F6D90320AE
:1036200097E1B3F5A02F09D0694B1A6822F48032D4
:103630001A601A6822F480221A60E1E703F18043DD
:10364000A3F53C331A6842F480221A601A6842F4E7
:1036500080321A60D4E7FFF739F805465C4E3368CC
:1036600013F4003FA2D0FFF731F8401B6428F6D9CD
:1036700003206EE1564B5B6813F4803FA5D1544B99
:103680001B6813F0020F03D02369012B40F05E8109
:103690004F4A1368616923F0F80343EAC1031360DA
:1036A000236813F0080F3DD0A369002B66D0494B67
:1036B0000122C3F88024FFF709F80546444E736AD7
:1036C00013F0020F21D1FFF701F8401B0228F6D9B1
:1036D00003203EE13E4A1368616923F0F80343EAA0
:1036E000C1031360DCE73B4B00221A60FEF7EEFFDC
:1036F0000546374E336813F0020FD1D0FEF7E6FFD0
:10370000401B0228F6D9032023E1334B1B68334AC0
:10371000A2FB03235B0A019300BF019B5A1E019287
:10372000002BF9D1236813F0040F00F09B80284B85
:10373000DB6913F0805F34D1254BDA6942F08052A7
:10374000DA61DB6903F080530093009B0125244B71
:103750001B6813F4807F26D0E368012B42D0002B36
:1037600058D103F1804303F504331A6A22F00102B1
:103770001A621A6A22F004021A6238E0154B00221B
:10378000C3F88024FEF7A2FF0546114E736A13F0BA
:10379000020FC7D0FEF79AFF401B0228F6D903207C
:1037A000D7E00025D3E70E4A136843F48073136013
:1037B000FEF78CFF06460A4F3B6813F4807FCBD19F
:1037C000FEF784FF801B6428F6D90320C1E000BF08
:1037D000001002400000424224000020D34D62103D
:1037E000007000405E4A136A43F001031362E3680D
:1037F00033B3FEF76BFF0646594F41F288383B6AF8
:1038000013F0020F2DD1FEF761FF801B4045F6D962
:1038100003209EE0052B09D0514B1A6A22F00102C9
:103820001A621A6A22F004021A62E0E74C4B1A6A22
:1038300042F004021A621A6A42F001021A62D6E7E2
:10384000FEF744FF0646464F41F288383B6A13F0C4
:10385000020F06D0FEF73AFF801B4045F6D9032041
:1038600077E0E5B9E369002B72D03D4A526802F077
:103870000C02082A56D0022B17D03A4B00221A66A7
:10388000FEF724FF0446364D2B6813F0007F47D027
:10389000FEF71CFF001B0228F6D9032059E0304A2E
:1038A000D36923F08053D361DCE72E4B00221A66E4
:1038B000FEF70CFF05462A4E336813F0007F06D052
:1038C000FEF704FF401B0228F6D9032041E0236ADB
:1038D000B3F5803F1AD022494A68236A606A0343DD
:1038E00022F4741213434B601E4B01221A66FEF73A
:1038F000EDFE04461A4D2B6813F0007F0ED1FEF743
:10390000E5FE001B0228F6D9032022E0144A536882
:1039100023F40033A1680B435360DCE7002018E078
:10392000002016E0012B17D00D4B5B6803F48031AB
:10393000226A914212D103F47013606A181A18BFF8
:10394000012006E001207047012002E0012000E094
:10395000002002B0BDE8F0810120FAE70120F8E77D
:1039600000100240000042420F4B5B6803F00C0263
:10397000082A01D00D487047C3F383420C49885C84
:1039800013F4803F0BD0084B5B68084A02FB00F041
:10399000C3F34043074AD35CB0FBF3F07047064BD8
:1039A00003FB00F0704700BF0010024000127A00D5
:1039B000E47D0008F47D000800093D00002800F0C7
:1039C000A2802DE9F0410D460446534B1B6803F0DD
:1039D00007038B420BD2504A136823F007030B43B3
:1039E0001360136803F007038B4240F08E80236856
:1039F00013F0020F17D013F0040F04D0474A536896
:103A000043F4E0635360236813F0080F04D0434A83
:103A1000536843F460535360404A536823F0F00303
:103A2000A1680B435360236813F0010F31D0626823
:103A3000012A20D0022A25D0384B1B6813F0020F30
:103A400065D036494B6823F0030313434B60FEF700
:103A50003DFE0646314F41F288387B6803F00C0387
:103A60006268B3EB820F14D0FEF730FE801B404536
:103A7000F3D9032045E0294B1B6813F4003FE0D144
:103A800001203EE0254B1B6813F0007FD9D10120B7
:103A900037E0214B1B6803F00703AB420AD91E4AEB
:103AA000136823F007032B431360136803F0070325
:103AB000AB422ED1236813F0040F06D0174A536887
:103AC00023F4E063E1680B435360236813F0080FAD
:103AD00007D0124A5368216923F4605343EAC103B3
:103AE0005360FFF741FF0D4B5B68C3F303130C4AB0
:103AF000D35CD8400B4B18600B4B1868FEF724FDC5
:103B00000020BDE8F081012070470120F9E7012085
:103B1000F7E70120F5E700BF002002400010024057
:103B2000CC7D0008240000202C000020044B5B68A2
:103B3000C3F30223034AD35C034A1068D84070479A
:103B400000100240DC7D000824000020044B5B686C
:103B5000C3F3C223034AD35C034A1068D8407047BA
:103B600000100240DC7D0008240000200F230360C9
:103B70000B4B5A6802F0030242605A6802F0F002EE
:103B800082605A6802F4E062C2605B68DB0803F49A
:103B9000E0630361034B1B6803F007030B6070478E
:103BA00000100240002002402DE9F04182B004469E
:103BB000036813F0010F36D03F4BDB6913F0805FD1
:103BC00049D13D4BDA6942F08052DA61DB6903F09A
:103BD00080530193019B0125384B1B6813F4807FB0
:103BE0003BD0354B1B6A13F4407313D0626802F468
:103BF00040729A420ED0304A136A23F44070304922
:103C00000126C1F840640026C1F84064106213F038
:103C1000010F36D1284A136A23F4407361680B43BD
:103C20001362002D3ED1236813F0020F06D0224A02
:103C3000536823F44043A1680B435360236813F097
:103C4000100F34D01C4A536823F48003E1680B43FF
:103C5000536000202CE00025BEE7184A136843F4A7
:103C600080731360FEF732FD0646144F3B6813F471
:103C7000807FB6D1FEF72AFD801B6428F6D9032089
:103C800016E0FEF723FD06460B4F41F288383B6AEB
:103C900013F0020FBED1FEF719FD801B4045F6D987
:103CA000032005E0D36923F08053D361BBE70020F4
:103CB00002B0BDE8F08100BF00100240007000407B
:103CC0000000424270B4036A026A22F001020262FA
:103CD0004468826922F073020D682A4323F00203CC
:103CE0008D682B430B4DA84206D0446082614A6820
:103CF0004263036270BC704723F00803CD682B4316
:103D000023F0040324F440744D698E6935432C4339
:103D1000EBE700BF002C014070B4036A026A22F492
:103D2000807202624468C26922F073020D682A43FD
:103D300023F400738D6843EA05230C4DA84206D096
:103D40004460C2614A68C263036270BC704723F476
:103D50000063CD6843EA052323F4806324F44054D0
:103D60004D698E69354344EA0514E9E7002C0140AA
:103D700030B4036A026A22F4805202624468C26963
:103D800022F4E6420D6842EA052223F400538D68CE
:103D900043EA0533074DA84206D04460C2614A6831
:103DA0000264036230BC704724F480444D6944EAE5
:103DB0008514F2E7002C014090F83D30DBB2012B76
:103DC00027D1022380F83D300268D36843F0010315
:103DD000D3600368114A934210D0B3F1804F0DD0E5
:103DE000A2F59432934209D002F58062934205D045
:103DF0001A6842F001021A60002070479A6802F0C7
:103E00000702062A07D01A6842F001021A60002051
:103E10007047012070470020704700BF002C014010
:103E20000268D36823F00103D3600368196A41F282
:103E30001112114208D1196A40F24442114203D1D1
:103E40001A6822F001021A60012380F83D30002038
:103E500070477047704770477047704710B5044609
:103E600003681A6912F0020F11D0DA6812F0020F1B
:103E70000DD06FF002021A610123037703689B697A
:103E800013F0030F70D0FFF7E6FF002323772368BA
:103E90001A6912F0040F12D0DA6812F0040F0ED073
:103EA0006FF004021A610223237723689B6913F4DD
:103EB000407F5FD02046FFF7CEFF002323772368A3
:103EC0001A6912F0080F12D0DA6812F0080F0ED03B
:103ED0006FF008021A61042323772368DB6913F06B
:103EE000030F4ED02046FFF7B6FF00232377236849
:103EF0001A6912F0100F12D0DA6812F0100F0ED0FB
:103F00006FF010021A61082323772368DB6913F42A
:103F1000407F3DD02046FFF79EFF00232377236894
:103F20001A6912F0010F03D0DA6812F0010F36D1CE
:103F300023681A6912F0800F03D0DA6812F0800F3C
:103F400034D123681A6912F0400F03D0DA6812F0F6
:103F5000400F32D123681A6912F0200F03D0DA68BB
:103F600012F0200F30D110BDFFF774FF2046FFF78D
:103F700073FF8AE72046FFF76DFF2046FFF76CFFCF
:103F80009BE72046FFF766FF2046FFF765FFACE79B
:103F90002046FFF75FFF2046FFF75EFFBDE76FF0AB
:103FA00001021A612046FDF745FEC1E76FF080026D
:103FB0001A61204600F0FDFAC3E76FF040021A6173
:103FC0002046FFF74AFFC5E76FF020021A6120463E
:103FD00000F0EEFAC7E700000368254A904214D0CB
:103FE000B0F1804F2BD0A2F59432904222D002F54E
:103FF0008062904237D023F080034A691343036004
:104000008B68C3620B6883622AE023F070034A68FE
:10401000134323F44073CA68134323F080034A69AF
:10402000134303608B68C3620B6883620A69104B99
:104030001A6315E023F070034A68134303E023F08A
:1040400070034A68134323F44073CA68134323F090
:1040500080034A69134303608B68C3620B68836201
:1040600001234361704723F070034A681343EAE772
:10407000002C014040B310B5044690F83D30F3B138
:10408000022384F83D30214651F8040BFFF7A4FFCA
:10409000012384F8463084F83E3084F83F3084F8B9
:1040A000403084F8413084F8423084F8433084F85A
:1040B000443084F8453084F83D30002010BD80F84D
:1040C0003C30FEF78DF9DBE70120704740B310B5B7
:1040D000044690F83D30F3B1022384F83D30214688
:1040E00051F8040BFFF778FF012384F8463084F879
:1040F0003E3084F83F3084F8403084F8413084F812
:10410000423084F8433084F8443084F8453084F8F1
:104110003D30002010BD80F83C30FFF79AFEDBE711
:104120000120704770B4036A026A22F01002026232
:104130004468826922F4E6420D6842EA052223F0CF
:1041400020038D6843EA05130C4DA84206D0446055
:1041500082614A688263036270BC704723F0800307
:10416000CD6843EA051323F0400324F440644D690D
:104170008E69354344EA8504E9E700BF002C01401D
:1041800038B590F83C30012B66D004460D4601232B
:1041900080F83C300C2A5AD8DFE802F00759595908
:1041A0001B5959593059595944000068FFF78AFD85
:1041B0002268936943F0080393612268936923F0AE
:1041C000040393612268936929690B43936100207A
:1041D0003EE00068FFF7A6FF2268936943F400639E
:1041E00093612268936923F48063936122689369E1
:1041F000296943EA01239361002029E00068FFF761
:104200008BFD2268D36943F00803D3612268D36928
:1042100023F00403D3612268D36929690B43D36176
:10422000002015E00068FFF7A3FD2268D36943F47E
:104230000063D3612268D36923F48063D361226869
:10424000D369296943EA0123D361002000E00120FA
:10425000002384F83C3038BD0220FCE710B48468A9
:1042600024F47F4C0A4342EA032242EA0C028260B1
:1042700010BC704790F83C30012B00F0AE8070B558
:104280000446012380F83C30022380F83D30026868
:10429000936823F47F4323F0770393600B68602BCC
:1042A00060D03DD8402B79D01CD9502B36D1036833
:1042B0004868CD68196A1A6A22F001021A629A697E
:1042C00022F0F00242EA051221F00A0101439A614C
:1042D00019622268936823F0700343F057039360D8
:1042E000002012E0202B02D00BD9302B14D12168F2
:1042F0008A6822F07002134343F007038B600020AA
:1043000003E033F01002F2D00120012384F83D30A5
:10431000002384F83C3070BD0120F6E70120F4E76B
:10432000B3F5805F55D0B3F5005F0CD1CB684A6818
:1043300089680068FFF792FF2268936843F480431E
:1043400093600020E1E7702B45D1CB684A6889680B
:104350000068FFF783FF2268936843F07703936058
:104360000020D2E703684D68CE681A6A186A20F008
:1043700010001862996921F4704141EA063122F077
:10438000A00242EA051299611A622268936823F03A
:10439000700343F0670393600020B6E70368486842
:1043A000CD68196A1A6A22F001021A629A6922F02B
:1043B000F00242EA051221F00A0101439A611962F2
:1043C0002268936823F0700343F047039360002052
:1043D0009BE7002099E7012097E70220704701F052
:1043E0001F01036A4FF0010C0CFA01FC23EA0C03D5
:1043F0000362036A8A401A430262704710B504469A
:10440000084601BB94F83E30DBB2012B52D10223A7
:1044100084F83E30012201462068FFF7E0FF236860
:10442000264A934234D0B3F1804F38D0244A934285
:1044300035D002F58062934231D01A6842F0010211
:104440001A60002035E004290CD008290CBF94F82C
:10445000403094F84130DBB2013B18BF012343B137
:10446000012026E094F83F30DBB2013B18BF012366
:10447000F5E7042808D008284FF002030CBF84F8A1
:10448000403084F84130C5E7022384F83F30C1E76B
:10449000536C43F40043536423689342C3D19A6836
:1044A00002F00702062A07D01A6842F001021A60D9
:1044B000002010BD0120FCE70020FAE7002C01409D
:1044C0000004004038B504460D4600220068FFF79E
:1044D00086FF22681B4B9A4214D02368196A41F266
:1044E0001112114208D1196A40F24442114203D11B
:1044F0001A6822F001021A60ADB9012384F83E3037
:10450000002038BD1A6A41F211131A42E5D10D4B51
:104510001A6A40F244431A42DFD10A4A536C23F428
:1045200000435364D9E7042D08D0082D4FF0010350
:104530000CBF84F8403084F84130E1E7012384F86F
:104540003F30DDE7002C014090F83C30012B2BD0B0
:1045500030B4012380F83C30022380F83D300468F9
:104560006368A26823F070030D682B4363600368DF
:104570000E4CA3420AD0B3F1804F07D0A4F5943477
:10458000A34203D004F58064A34204D122F0800248
:1045900049680A439A60012380F83D30002380F87F
:1045A0003C30184630BC704702207047002C014058
:1045B00070477047026802F10C0353E8003F23F490
:1045C00090730C3242E800310029F3D1026802F105
:1045D000140353E8003F23F00103143242E8003192
:1045E0000029F3D1036B012B05D0202380F8423042
:1045F000002303637047026802F10C0353E8003F95
:1046000023F010030C3242E800310029F3D1ECE72B
:1046100010B504460268136923F44053C1680B4384
:1046200013610168CA6883680069034360690343D2
:1046300022F4B05222F00C021343CB60226853697B
:1046400023F44073A1690B4353612268114B9A42D2
:104650001BD0FFF76BFA034603EB830303EB8303E3
:1046600062689200B3FBF2F320680B49A1FB03429E
:104670005209642404FB12331B013233A1FB0313E0
:10468000120102EB5313836010BDFFF75FFA03467C
:10469000E2E700BF003801401F85EB5160B310B561
:1046A000044690F8413013B3242384F84130226843
:1046B000D36823F40053D3602046FFF7A9FF226894
:1046C000136923F4904313612268536923F02A038A
:1046D00053612268D36843F40053D36000206064C0
:1046E000202384F8413084F84230606310BD80F8A4
:1046F0004030FDF7E5FED7E70120704790F84130E4
:10470000DBB2202B10D189B192B101628284C284C4
:1047100000234364212280F841200168CA6842F0E6
:104720008002CA6018467047022070470120704717
:1047300001207047704708B5406A0023C385C384D1
:10474000FFF7F8FF08BD704710B50446226802F174
:104750000C0353E8003F23F490730C3242E800311D
:104760000029F3D1226802F1140353E8003F23F03B
:104770000103143242E800310029F3D1236B012BED
:104780001CD023685B6913F0400F2ED0226802F121
:10479000140353E8003F23F04003143242E8003191
:1047A0000029F3D1E36BB3B1154A5A63E06BFEF70E
:1047B0003BFB18B3E06B436B98471FE0226802F1A4
:1047C0000C0353E8003F23F010030C3242E80031A1
:1047D0000029F3D1D5E70023E385202284F8422085
:1047E00023632046FFF7AFFF08E00023E385202284
:1047F00084F8422023632046FFF7A5FF002010BD68
:104800000548000808B5406A0023C385202280F8C7
:1048100042200363FFF797FF08BD704790F84230CE
:10482000DBB2222B1ED18368B3F5805F06D0826A8B
:1048300083B103685B6803F07F031BE00369ABB9D6
:10484000826A03685B68C3F308031380836A0233D8
:10485000836213E00369002BEBD108E000F072FFE4
:10486000002048E00220704700207047826A0368F9
:104870005B68DBB21370836A01338362C38D013BD3
:104880009BB2C385002BEFD100B583B00268D3681B
:1048900023F02003D3600268D36823F48073D360CD
:1048A0000268536923F001035361202380F84230EA
:1048B00000234363036B012BD0D100230363026801
:1048C00002F10C0353E8003F23F010030C3242E8DE
:1048D00000310029F3D103681A6812F0100F06D0D6
:1048E000002201921A6801925B680193019B818DFD
:1048F000FFF793FF002003B05DF804FB10B582B012
:10490000044602681368D168506913F00F0F09D18B
:1049100013F0200F0DD011F0200F0AD02046FFF722
:104920007DFF17E000F0010001F4907C5CEA000CD0
:1049300012D1206B01287FD013F0800F03D011F02B
:10494000800F40F0198113F0400F03D011F0400F99
:1049500040F03F8102B010BD13F0010F06D011F4FA
:10496000807F03D0626C42F00102626413F0040F96
:104970002FD058B1626C42F00202626413F0020F51
:1049800000F03281626C42F00402626413F0080F9E
:1049900007D001F02002024303D0626C42F008020B
:1049A0006264626C002AD5D013F0200F02D011F09F
:1049B000200F14D123685A69636C02F0400203F09F
:1049C000080313430FD12046FFF7B4FE00236364AE
:1049D000C0E713F0020FD9D00028D7D0D2E7204685
:1049E000FFF71CFFE6E72046FFF7E4FD23685B695D
:1049F00013F0400F1CD0226802F1140353E8003F6B
:104A000023F04003143242E800310029F3D1E36B74
:104A100053B1784A5A63E06BFEF706FA002899D042
:104A2000E06B436B984795E72046FFF783FE91E7DD
:104A30002046FFF77FFE8DE713F0100F3FF47CAFA9
:104A400011F0100F3FF478AF002301931368019326
:104A500053680193019B536913F0400F50D0E26BF0
:104A600013685B689BB2002B3FF474AFA18D994231
:104A70007FF670AFE3859369202B37D0226802F16F
:104A80000C0353E8003F23F480730C3242E80031FA
:104A90000029F3D1226802F1140353E8003F23F008
:104AA0000103143242E800310029F3D1226802F1F7
:104AB000140353E8003F23F04003143242E800316E
:104AC0000029F3D1202384F8423000232363226895
:104AD00002F10C0353E8003F23F010030C3242E8CC
:104AE00000310029F3D1E06BFEF77BF90223636309
:104AF000E38DA18DC91A89B22046FFF78EFE29E702
:104B0000E38D9AB2E38D9BB2002B3FF423AFA38DCC
:104B10009B1A99B200293FF41DAF226802F10C03E1
:104B200053E8003F23F490730C3242E80030002831
:104B3000F3D1226802F1140353E8003F23F001038C
:104B4000143242E800300028F3D1202384F84230A8
:104B500000232363226802F10C0353E8003F23F093
:104B600010030C3242E800300028F3D102236363C3
:104B70002046FFF752FEEDE694F84130DBB2212BE0
:104B80007FF4E8AEA368B3F5805F16D0236A591CA2
:104B900021621B785360E38C013B9BB2E384002BC2
:104BA0007FF4D8AE2268D36823F08003D3602268F4
:104BB000D36843F04003D360CCE62369002BE5D1F2
:104BC000236A1B88C3F308035360236A02332362FA
:104BD000E1E7D36823F04003D360202384F8413019
:104BE000204600F077FDB5E613F0080F7FF4D5AE50
:104BF000D7E600BF3747000881628285C28500235F
:104C00004364222380F84230036923B10268D368E9
:104C100043F48073D3600268536943F00103536126
:104C20000268D36843F02003D3600020704708B5C2
:104C300090F84230DBB2202B08D149B10AB90120EB
:104C400008BD00230363FFF7D7FFF9E70220F7E76A
:104C50000120F5E710B50446084601F1FF3C5FFA74
:104C60008CFCBCF1F60F2BD811461A46174B187066
:104C70000CB1022425E0164B164C1C60164B174C49
:104C80001C60174B174C1C60174B184C1C60184BC2
:104C900000241C60174B184C1C60184B184C1C60EF
:104CA000184B194C1C609DF8083000F0B9FA044606
:104CB00038B900F03DFC30B1144B01221A7000E00D
:104CC0000224204610BD0324FBE700BF4D15002041
:104CD000381500206D5200083C1500208D52000848
:104CE00030150020F55200082C150020A5520008B0
:104CF00034150020401500207D5300084415002085
:104D000009540008481500207554000830000020A0
:104D100008B5064B1B78012B01D0062008BD044BBB
:104D20001B6898470020014B1870F7E730000020FF
:104D30003815002070B582B0364B1C78002C65D138
:104D40000DF1070000F02AFC012802D0204602B035
:104D500070BD9DF80730022B19D0042BF6D12E4BD5
:104D60001E6831782D4B19702D4B01221A700023CB
:104D70002C4D15F8332022B191421ED00133102B57
:104D8000F7D1294B1B78002B30D11C46DEE7274B8F
:104D90001B68274A20492448984705460028D5D152
:104DA000214B1B78234A12789A4201D0002B2FD135
:104DB000042000F0C7FB2C46C8E71A4A02EBC303E5
:104DC0005B681B4930469847154B1870164B1B788B
:104DD00053B158B9184B1B68154A12880E49096817
:104DE000144800789847B1E71C46AFE70B4B1A7898
:104DF00009490D680E4B01261E8062F07F022A7061
:104E000009681A8895191D808854E3E706249DE7F0
:104E100004469BE730000020501500204C15002070
:104E20002815002034000020541500202C150020E7
:104E3000561500204D15002030150020B9B130B4B2
:104E400001F1FF3C1FFA8CFC0CF1010C8444FF22A1
:104E50001146094D094C10F8013B5340EA5C4A40A9
:104E6000E15C6045F7D142EA012030BC7047FF2287
:104E700042EA0220704700BFF87D0008F87E000873
:104E800038B50B88052B01D0032038BD0C46C378FC
:104E9000027942EA0322531E9BB240F2CE718B424A
:104EA00025D890F801C08178002323800123037066
:104EB00023880133238012F0070F1DBFD508013569
:104EC000EDB2C2F3C705457023880133238041EA60
:104ED0000C210131002389B2023000F001FD18B924
:104EE00023881D442580D0E700F014FBCDE7032084
:104EF000CBE70B88052B01D00320704703790BBB50
:104F0000C278531EDBB2FD2B1ED900B583B04378A7
:104F1000817800208DF80500FF2A14BF00220122AD
:104F20008DF8042041EA0321013101231A4689B298
:104F300001A800F0D5FC10B903B05DF804FB00F047
:104F4000E9FAF9E703207047032070470B88052B27
:104F500028D910B50C46C278037943EA022213F02F
:104F6000070F1DBFD1080131C9B2C2F3C701531EDB
:104F70009BB2B3F5F66F17D243798B4201D0032071
:104F800010BD4378817841EA03210131012389B2C0
:104F9000063000F0A5FC10B905232380F0E700F0EF
:104FA000B9FAEDE7032070470320E9E738B50B882D
:104FB000052B01D0032038BD0C46C378027942EAA4
:104FC0000322531E9BB240F2CE718B4224D890F83C
:104FD00001C08178002323800223037023880133DA
:104FE000238012F0070F1DBFD5080135EDB2C2F3C3
:104FF000C705457023880133238041EA0C21013124
:1050000089B2023000F0DEFC18B923881D442580E7
:10501000D1E700F07FFACEE70320CCE708B50B8894
:10502000052B01D0032008BD4378817841EA032194
:10503000013101231A4689B2033000F007FC002831
:10504000F1D000F067FAEEE70B88052B21D910B5F7
:105050000C46C378027942EA0322531E9BB2772B97
:1050600019D853004179DBB2994201D0032010BD19
:105070004378817841EA03210131012389B2063066
:1050800000F0E4FB10B905232380F0E700F042FABA
:10509000EDE7032070470320E9E738B50B88052BBF
:1050A00001D0032038BD0C46C378057945EA0325B5
:1050B0006B1E9BB27C2B01D90320F3E790F801C053
:1050C000817800232380032202702288013222800B
:1050D0006A00427022880132228041EA0C210131AB
:1050E0002A4689B2023000F0B1FB20B9238803EBD5
:1050F00045052580D6E700F00DFAD3E70B88092B8C
:1051000045D92DE9F04104460D46C378067946EAB3
:105110000326731E9BB27C2B3BD8C379027A42EAEA
:105120000322531E9BB2782B36D8437AB3EB420F3F
:1051300001D003202EE090F80180877843798179AF
:1051400041EA03210131012389B20A3000F07EFBDC
:10515000034610B100F0DEF91CE02880172222700F
:105160002A8801322A80720062702A8801322A80DD
:1051700047EA08210131324689B2A01C00F066FBE3
:105180000028E7D12B8803EB46062E8002E00020A2
:1051900070470320BDE8F0810320FBE738B50B889A
:1051A000052B01D0032038BD0C46C378057945EAAC
:1051B00003256B1E9BB27B2B01D90320F3E74278BA
:1051C0008178002323800423037023880133238004
:1051D0006B00437023880133238041EA02210131AF
:1051E0002A4689B2023000F005FB20B9238803EB80
:1051F00045052580D7E700F08DF9D4E738B50D4691
:10520000054B1C8822460549013002F0FFFB0134A2
:105210002C80002038BD00BF7815002058150020D4
:1052200070B50D4614461E4600F080F9334608223C
:105230002146284600F0D8F9012804D0032400F0C4
:1052400076F9204670BDB4F5964F9DBF64000648C0
:10525000B0FBF4F0232080B200F08AFA01280CBFE2
:1052600000240324EBE700BFA07F170008B500F07F
:105270005DF90021044B1970012000F0D9F900F00C
:105280007CFA00F054F908BD7A15002008B500F04A
:105290004DF90021084600F0CBF900F072FA00F059
:1052A00046F908BD70B506460D46144600F03EF9B5
:1052B0000E4B1B889BB2032B04D8052400F037F952
:1052C000204670BD094B198889B20948FFF7B6FD21
:1052D00050B9074B13F8012B3270044A1288033A75
:1052E00022802B600024E9E70524E7E780160020F0
:1052F000801500202DE9F04105460C46904600F04F
:1053000015F9194B1B78DBB2012B05D0052400F0F1
:105310000EF92046BDE8F081601E144B1860144F52
:1053200001263E8004F8015C3A88424492B23A80F9
:10533000398889B2FFF782FD3B889BB29A1992B2F5
:105340003A80C2B20B49CA543B889BB29A1992B2B6
:105350003A80C0F30720C854074B1E703146002026
:1053600000F066F90024D2E77A1500207C150020B1
:1053700082160020801500207B15002000B583B028
:105380000DF1070000F09EF91C4B1B78DBB2032BDC
:1053900005D8DFE803F0020B1D0800F0EEF900204D
:1053A00003B05DF804FB00F0E8F9F8E7144A0023C5
:1053B000138013889BB2591C89B211809DF8071085
:1053C000104AD1540D4B02221A7000F0D6F9E6E7CC
:1053D0000B4B1B889BB2FF2B0CD809490B889BB247
:1053E0005A1C92B20A809DF80710064AD15400F068
:1053F000C4F9D4E7014B03221A70F8E77A150020AC
:10540000801600208015002010B5174B1B7803F084
:10541000FF0423B1012C07D00024204610BD002139
:10542000012000F005F9F8E7104B1B889BB273B11F
:105430000F4C2368187800F02DF92368013323609E
:105440000A4A1388013B9BB213800024E5E7082039
:1054500000F078F804460021012000F0E9F8024B42
:1054600000221A70D9E700BF7B15002082160020A9
:105470007C15002010B50C4B1B785BB103F0FF02CC
:10548000022A0CD0002400F07CF9074B01221A708C
:10549000204610BD012000F055F80446F3E7022035
:1054A00000F050F80446EEE77A15002030B5CC083D
:1054B00004F1010E4FF0010C0CFA02FC0CF1FF3C60
:1054C0001FFA8CFCA1EBC4020CFA02FC10F80E507F
:1054D000025D42EA052222EA0C0201F007018B403C
:1054E00013431BB20355C3F3072300F80E3030BD3E
:1054F0004FEAD10C0CF10103C35C10F80C0040EA38
:10550000032001F00701084101239340013B1840AB
:10551000C0B27047012805D0072805D0002818BF61
:10552000042070470220704706207047704770477C
:1055300008B5FCF7F5F8024B1860012008BD00BF64
:105540008416002000B583B0014604281FD018D867
:10555000431EDBB2012B16D80023019301AA0E4B88
:10556000186800F089FC70B1019B63B14FF0E02333
:105570004FF08052C3F8042DBFF34F8FBFF36F8FEE
:1055800001E0082803D0012003B05DF804FB024BC2
:10559000186800F023FCF6E78416002030B583B0CD
:1055A00005464FF0FF330093002301220F210D4CDD
:1055B000206800F088FB431E072B07D8DFE803F0C4
:1055C0000409060C0606060F01232B70012003B008
:1055D00030BD02232B70F9E704232B70F6E7082374
:1055E0002B70F3E78416002008B5104A51600021A3
:1055F000D160012B0AD0022B10D023B10B48FFF74A
:105600004DF8012008BD91601161F7E7074B4FF499
:1056100080529A604FF4C0621A61EFE7034B4FF477
:1056200080529A604FF480621A61E7E7CC13002041
:1056300010B582B00C4690B1012212491248FFF712
:10564000F6FA00224FF480711048FDF767FF84B12D
:1056500001210F4B186800F0C1FB02B010BD012200
:105660004FF480710948FDF759FF0748FFF76CF8C0
:10567000EDE700230093012211460548006800F081
:1056800022FBEAE789160020CC1300200008014025
:105690008C16002000B583B08DF8070001224FF46E
:1056A00080710648FDF73AFF01220DF10701044819
:1056B000FFF724F8012003B05DF804FB0008014067
:1056C000CC130020024B1B7803700120704700BFF1
:1056D0008816002000B583B00023019301AA0121A0
:1056E000094B186800F0C8FB58B1019B4BB14FF053
:1056F000E0234FF08052C3F8042DBFF34F8FBFF368
:105700006F8F03B05DF804FB8C160020F0B583B0FA
:10571000FCF70CF8094B18601E464FF0FF35084F98
:1057200000240095234601221146306800F0CBFA90
:105730000128F6D13B689847F2E700BF8C1600209D
:105740004415002008B506490A78064B1A70012254
:105750000548FFF76CFA054B1B68984708BD00BF6A
:105760008916002088160020CC1300204015002048
:1057700008B5FBF7E7FF012008BD08B5FBF7EEFF12
:1057800008BD08B5FBF7F2FF08BD000008B5024BE5
:105790001B68984708BD00BF4815002070B582B04F
:1057A000012811D070B90024114E0125E0B2FBF799
:1057B00031FF03462A46A1B23046FFF777FE013497
:1057C000042CF3D102B070BD0024094E01252A46F5
:1057D000A1B23046FFF78CFE8DF807009DF8071048
:1057E000E0B2FBF711FF0134042CF0D1EAE700BF6F
:1057F00090160020013989B204291ED9F8B58B18FA
:105800000E2B1CDC104B1C880C1BA4B2CAB1851CCF
:10581000224496B2E7B23846FCF766FA000A05F869
:10582000020C3846FCF760FA05F8010C0134A4B20A
:105830000235B442EED1002002E001207047012081
:10584000F8BD0020FCE700BFB8000020013989B294
:105850000D293AD92DE9F04105461E468B182C2B0F
:1058600035DC1E4B1C880C1BA4B2B6B1012E31D105
:1058700000206AB302351619B6B215F8021C15F8E5
:10588000013C43EA0121E0B2FCF746FA0134A4B23C
:105890000235B442F1D100201AE0EAB102352244C7
:1058A0001FFA82F8E7B23846FCF70AFA000A05F850
:1058B000020C3846FCF704FA05F8010C0134A4B2D6
:1058C0000235A045EED1304602E0012070470120AC
:1058D000BDE8F0810020FBE73046F9E7B600002084
:1058E000013989B2002962D02DE9F84F05461646E4
:1058F0001F468B18052B5CDC4FEAD20808F1010229
:105900002E4B1C880C1BC4F3CC0B04F00704FFB116
:10591000012F51D1012A98BF814614D900EB080903
:105920000746DFF89CA0ABEB0005781980B217F8AA
:10593000013B082221465044FFF7B8FD4F45F4D102
:10594000C3441FFA8BFB16F0070227D1002031E079
:105950000020FFF723FF08F10108A844A946DFF85B
:1059600060A0ABEB05054FF0080B09EB050080B21A
:105970005A4621465044FFF7BBFD09F8010BC145CB
:10598000F3D106F00706C6F1080218F8016C96403C
:10599000F6B2164108F8016C38460BE099F8003071
:1059A000214607485844FFF781FD002002E001200E
:1059B00070470120BDE8F88F0020FBE7B40000200D
:1059C000901600202DE9F0474D1EADB2AB18012B0B
:1059D00002DD0120BDE8F0871646154B1B88ED1A45
:1059E000C5F3CC0805F0070500EBD20701370446E4
:1059F000DFF840A0A8EB00084FF0080904EB08000E
:105A000080B24A4629465044FFF772FD04F8010B64
:105A1000A742F3D106F00706C6F1080617F8013CC5
:105A2000B340DBB243FA06F607F8016C0020D1E779
:105A30009616002094160020EFF30583A3B9EFF328
:105A40001083A3B90D4B1868022804D090B90B4BF2
:105A500001221A607047EFF31183002B14BF6FF01F
:105A600005004FF0FF3070476FF0050070476FF092
:105A7000050070474FF0FF30704700BF54190020F9
:105A800008B5EFF30583C3B9EFF31083C3B90F4B28
:105A90001B68022B08D0012B15D10C4B02221A6077
:105AA00000F074FF002008BDEFF31183002B14BF3A
:105AB0006FF005004FF0FF30F5E76FF00500F2E7FB
:105AC0006FF00500EFE74FF0FF30ECE754190020CE
:105AD000F0B587B000240494EFF30584D4B9EFF354
