:020000040800F2
:10000000005000209D2400083524000837240008F3
:10001000392400083B2400083D24000800000000AB
:1000200000000000000000000000000061710008F6
:100030003F2400080000000001720008457200081B
:10004000E5240008E5240008E5240008E52400086C
:10005000E5240008E5240008E5240008E52400085C
:10006000E5240008E5240008E524000841240008F0
:10007000E5240008E5240008E5240008E52400083C
:10008000E5240008E5240008E5240008E52400082C
:10009000E5240008E5240008E5240008E52400081C
:1000A000E524000855240008E5240008E52400089C
:1000B00065240008E524000875240008E5240008EC
:1000C000E5240008E5240008E5240008E5240008EC
:1000D000E524000889240008E5240008E524000838
:1000E000E5240008E5240008E524000800000000DD
:1000F0000000000000000000000000000000000000
:0C01000000000000000000005FF808F1A3
:1001100010B5054C237833B9044B13B10448AFF341
:1001200000800123237010BD0001002000000000AA
:10013000A477000808B5034B1BB103490348AFF38C
:10014000008008BD0000000004010020A477000822
:1001500081F0004102E000BF83F0004330B54FEA78
:1001600041044FEA430594EA050F08BF90EA020FE5
:100170001FBF54EA000C55EA020C7FEA645C7FEA78
:10018000655C00F0E2804FEA5454D4EB5555B8BF9B
:100190006D420CDD2C4480EA020281EA030382EA0C
:1001A000000083EA010180EA020281EA0303362D9E
:1001B00088BF30BD11F0004F4FEA01314FF4801C71
:1001C0004CEA113102D0404261EB410113F0004F83
:1001D0004FEA03334CEA133302D0524263EB43033A
:1001E00094EA050F00F0A780A4F10104D5F1200ED8
:1001F0000DDB02FA0EFC22FA05F2801841F1000133
:1002000003FA0EF2801843FA05F359410EE0A5F106
:1002100020050EF1200E012A03FA0EFC28BF4CF037
:10022000020C43FA05F3C01851EBE37101F00045ED
:1002300007D54FF0000EDCF1000C7EEB00006EEBFA
:100240000101B1F5801F1BD3B1F5001F0CD3490884
:100250005FEA30004FEA3C0C04F101044FEA4452DB
:1002600012F5800F80F09A80BCF1004F08BF5FEA62
:10027000500C50F1000041EB045141EA050130BD42
:100280005FEA4C0C404141EB0101013C28BFB1F554
:10029000801FE9D291F0000F04BF01460020B1FA9F
:1002A00081F308BF2033A3F10B03B3F120020CDA72
:1002B0000C3208DD02F1140CC2F10C0201FA0CF050
:1002C00021FA02F10CE002F11402D8BFC2F1200CB5
:1002D00001FA02F120FA0CFCDCBF41EA0C0190406B
:1002E000E41AA2BF01EB0451294330BD6FEA0404B4
:1002F0001F3C1CDA0C340EDC04F11404C4F120029F
:1003000020FA04F001FA02F340EA030021FA04F3B0
:1003100045EA030130BDC4F10C04C4F1200220FA07
:1003200002F001FA04F340EA0300294630BD21FA45
:1003300004F0294630BD94F0000F83F4801306BF0B
:1003400081F480110134013D4EE77FEA645C18BFFF
:100350007FEA655C29D094EA050F08BF90EA020F96
:1003600005D054EA000C04BF1946104630BD91EA8E
:10037000030F1EBF0021002030BD5FEA545C05D191
:100380004000494128BF41F0004130BD14F58004D0
:100390003CBF01F5801130BD01F0004545F0FE4144
:1003A00041F470014FF0000030BD7FEA645C1ABF79
:1003B000194610467FEA655C1CBF0B46024650EAB0
:1003C000013406BF52EA033591EA030F41F40021DC
:1003D00030BD00BF90F0000F04BF0021704730B562
:1003E0004FF4806404F132044FF000054FF0000137
:1003F00050E700BF90F0000F04BF0021704730B5F8
:100400004FF4806404F1320410F0004548BF4042CC
:100410004FF000013EE700BF42004FEAE2014FEA21
:1004200031014FEA02701FBF12F07F4393F07F4FFC
:1004300081F06051704732F07F4208BF704793F0FF
:100440007F4F04BF41F40021704730B54FF4607412
:1004500001F0004521F000411CE700BF50EA010215
:1004600008BF704730B54FF000050AE050EA0102BE
:1004700008BF704730B511F0004502D5404261EB2E
:1004800041014FF4806404F132045FEA915C3FF46F
:10049000D8AE4FF003025FEADC0C18BF03325FEA0C
:1004A000DC0C18BF033202EBDC02C2F1200300FABD
:1004B00003FC20FA02F001FA03FE40EA0E0021FAE2
:1004C00002F11444BDE600BF70B54FF0FF0C4CF4D0
:1004D000E06C1CEA11541DBF1CEA135594EA0C0F82
:1004E00095EA0C0F00F0DEF82C4481EA030621EABD
:1004F0004C5123EA4C5350EA013518BF52EA0335F8
:1005000041F4801143F4801338D0A0FB02CE4FF0A9
:100510000005E1FB02E506F00042E0FB03E54FF0D9
:100520000006E1FB03569CF0000F18BF4EF0010ED1
:10053000A4F1FF04B6F5007F64F5407404D25FEACD
:100540004E0E6D4146EB060642EAC62141EA555180
:100550004FEAC52040EA5E504FEACE2EB4F1FD0CC2
:1005600088BFBCF5E06F1ED8BEF1004F08BF5FEA40
:10057000500E50F1000041EB045170BD06F00046F2
:1005800046EA010140EA020081EA0301B4EB5C049F
:10059000C2BFD4EB0C0541EA045170BD41F4801197
:1005A0004FF0000E013C00F3AB8014F1360FDEBFBC
:1005B000002001F0004170BDC4F10004203C35DA98
:1005C0000C341BDC04F11404C4F1200500FA05F31B
:1005D00020FA04F001FA05F240EA020001F00042BC
:1005E00021F0004110EBD37021FA04F642EB060132
:1005F0005EEA430E08BF20EAD37070BDC4F10C045C
:10060000C4F1200500FA04F320FA05F001FA04F21F
:1006100040EA020001F0004110EBD37041F100010B
:100620005EEA430E08BF20EAD37070BDC4F1200516
:1006300000FA05F24EEA020E20FA04F301FA05F27E
:1006400043EA020321FA04F001F0004121FA04F226
:1006500020EA020000EBD3705EEA430E08BF20EAF6
:10066000D37070BD94F0000F0FD101F00046400030
:1006700041EB010111F4801F08BF013CF7D041EAB2
:10068000060195F0000F18BF704703F000465200B6
:1006900043EB030313F4801F08BF013DF7D043EA87
:1006A0000603704794EA0C0F0CEA135518BF95EA3D
:1006B0000C0F0CD050EA410618BF52EA4306D1D1C4
:1006C00081EA030101F000414FF0000070BD50EAE3
:1006D000410606BF1046194652EA430619D094EA6D
:1006E0000C0F02D150EA013613D195EA0C0F05D157
:1006F00052EA03361CBF104619460AD181EA0301AB
:1007000001F0004141F0FE4141F470014FF0000062
:1007100070BD41F0FE4141F4780170BD70B54FF0FD
:10072000FF0C4CF4E06C1CEA11541DBF1CEA13557D
:1007300094EA0C0F95EA0C0F00F0A7F8A4EB05045F
:1007400081EA030E52EA03354FEA013100F0888056
:100750004FEA03334FF0805545EA131343EA12631F
:100760004FEA022245EA111545EA10654FEA0026D4
:100770000EF000419D4208BF964244F1FD0404F58D
:10078000407402D25B084FEA3202B61A65EB0305E9
:100790005B084FEA32024FF480104FF4002CB6EBA6
:1007A000020E75EB030E22BFB61A754640EA0C0026
:1007B0005B084FEA3202B6EB020E75EB030E22BF66
:1007C000B61A754640EA5C005B084FEA3202B6EBA7
:1007D000020E75EB030E22BFB61A754640EA9C0066
:1007E0005B084FEA3202B6EB020E75EB030E22BF36
:1007F000B61A754640EADC0055EA060E18D04FEAF4
:10080000051545EA16754FEA06164FEAC30343EA93
:1008100052734FEAC2025FEA1C1CC0D111F4801F60
:100820000BD141EA00014FF000004FF0004CB6E759
:1008300011F4801F04BF01430020B4F1FD0C88BFF8
:10084000BCF5E06F3FF6AFAEB5EB030C04BFB6EB03
:10085000020C5FEA500C50F1000041EB045170BDF6
:100860000EF0004E4EEA113114EB5C04C2BFD4EB23
:100870000C0541EA045170BD41F480114FF0000EA7
:10088000013C90E645EA060E8DE60CEA135594EA23
:100890000C0F08BF95EA0C0F3FF43BAF94EA0C0F26
:1008A0000AD150EA01347FF434AF95EA0C0F7FF49B
:1008B00025AF104619462CE795EA0C0F06D152EAEF
:1008C00003353FF4FDAE1046194622E750EA4106D3
:1008D00018BF52EA43067FF4C5AE50EA41047FF4E4
:1008E0000DAF52EA43057FF4EBAE12E74A0011D296
:1008F00012F5001211D20DD56FF47873B3EB62527A
:100900000ED44FEAC12343F0004343EA505323FA85
:1009100002F070474FF00000704750EA013002D1FA
:100920004FF0FF3070474FF0000070474FEA410230
:10093000B2F1E04324BFB3F5001CDCF1FE5C0DD93D
:1009400001F0004C4FEAC0024CEA5070B2F1004F87
:1009500040EB830008BF20F00100704711F0804F8A
:1009600021D113F13872BCBF01F00040704741F44F
:1009700080114FEA5252C2F11802C2F1200C10FA53
:100980000CF320FA02F018BF40F001004FEAC12337
:100990004FEAD32303FA0CFC40EA0C0023FA02F3DB
:1009A0004FEA4303CCE77FEA625307D150EA0133B1
:1009B0001EBF4FF0FE4040F44000704701F0004081
:1009C00040F0FE4040F40000704700BF80F000405F
:1009D00002E000BF81F0004142001FBF5FEA410317
:1009E00092EA030F7FEA226C7FEA236C6AD04FEA17
:1009F0001262D2EB1363C1BFD2184140484041405C
:100A0000B8BF5B42192B88BF704710F0004F40F40D
:100A1000000020F07F4018BF404211F0004F41F429
:100A2000000121F07F4118BF494292EA030F3FD0F5
:100A3000A2F1010241FA03FC10EB0C00C3F1200308
:100A400001FA03F100F0004302D5494260EB400097
:100A5000B0F5000F13D3B0F1807F06D340084FEA02
:100A6000310102F10102FE2A51D2B1F1004F40EBF7
:100A7000C25008BF20F0010040EA0300704749005F
:100A800040EB0000013A28BFB0F5000FEDD2B0FAFC
:100A900080FCACF1080CB2EB0C0200FA0CF0AABF1F
:100AA00000EBC25052421843BCBFD04018437047BD
:100AB00092F0000F81F4000106BF80F400000132C3
:100AC000013BB5E74FEA41037FEA226C18BF7FEA9A
:100AD000236C21D092EA030F04D092F0000F08BFDC
:100AE0000846704790EA010F1CBF0020704712F0C3
:100AF0007F4F04D1400028BF40F00040704712F102
:100B000000723CBF00F50000704700F0004343F066
:100B1000FE4040F4000070477FEA226216BF08469C
:100B20007FEA23630146420206BF5FEA412390EA5F
:100B3000010F40F4800070474FF0000304E000BF55
:100B400010F0004348BF40425FEA000C08BF704706
:100B500043F0964301464FF000001CE050EA0102CA
:100B600008BF70474FF000030AE000BF50EA0102DF
:100B700008BF704711F0004302D5404261EB4101CC
:100B80005FEA010C02BF84460146002043F0B643F1
:100B900008BFA3F18053A3F50003BCFA8CF2083A16
:100BA000A3EBC25310DB01FA02FC634400FA02FC1F
:100BB000C2F12002BCF1004F20FA02F243EB020026
:100BC00008BF20F00100704702F1200201FA02FC88
:100BD000C2F1200250EA4C0021FA02F243EB02007B
:100BE00008BF20EADC7070474FF0FF0C1CEAD052BF
:100BF0001EBF1CEAD15392EA0C0F93EA0C0F6FD080
:100C00001A4480EA010C400218BF5FEA41211ED05D
:100C10004FF0006343EA501043EA5111A0FB013149
:100C20000CF00040B1F5000F3EBF490041EAD3711E
:100C30005B0040EA010062F17F02FD2A1DD8B3F19A
:100C4000004F40EBC25008BF20F00100704790F009
:100C5000000F0CF0004C08BF49024CEA502040EA5B
:100C600051207F3AC2BFD2F1FF0340EAC250704721
:100C700040F400004FF00003013A5DDC12F1190F5F
:100C8000DCBF00F000407047C2F10002410021FAD1
:100C900002F1C2F1200200FA02FC5FEA310040F1E9
:100CA000000053EA4C0308BF20EADC70704792F062
:100CB000000F00F0004C02BF400010F4000F013A9A
:100CC000F9D040EA0C0093F0000F01F0004C02BF95
:100CD000490011F4000F013BF9D041EA0C018FE704
:100CE0000CEAD15392EA0C0F18BF93EA0C0F0AD00A
:100CF00030F0004C18BF31F0004CD8D180EA010030
:100D000000F00040704790F0000F17BF90F0004FC8
:100D1000084691F0000F91F0004F14D092EA0C0FAA
:100D200001D142020FD193EA0C0F03D14B0218BF3D
:100D3000084608D180EA010000F0004040F0FE4083
:100D400040F40000704740F0FE4040F4400070471F
:100D50004FF0FF0C1CEAD0521EBF1CEAD15392EA9E
:100D60000C0F93EA0C0F69D0A2EB030280EA010C8E
:100D700049024FEA402037D04FF0805343EA111127
:100D800043EA10130CF000408B4238BF5B0042F185
:100D90007D024FF4000C8B4224BF5B1A40EA0C002A
:100DA000B3EB510F24BFA3EB510340EA5C00B3EB5C
:100DB000910F24BFA3EB910340EA9C00B3EBD10F4A
:100DC00024BFA3EBD10340EADC001B0118BF5FEA9C
:100DD0001C1CE0D1FD2A3FF650AF8B4240EBC250C5
:100DE00008BF20F0010070470CF0004C4CEA502086
:100DF0007F32C2BFD2F1FF0340EAC250704740F4D5
:100E000000004FF00003013A37E792F0000F00F0C6
:100E1000004C02BF400010F4000F013AF9D040EA44
:100E20000C0093F0000F01F0004C02BF490011F4D8
:100E3000000F013BF9D041EA0C0195E70CEAD153D0
:100E400092EA0C0F08D142027FF47DAF93EA0C0FB7
:100E50007FF470AF084676E793EA0C0F04D14B029B
:100E60003FF44CAF08466EE730F0004C18BF31F04D
:100E7000004CCAD130F000427FF45CAF31F0004347
:100E80007FF43CAF5FE700BF4FF0FF3C06E000BFE0
:100E90004FF0010C02E000BF4FF0010C4DF804CD03
:100EA0004FEA40024FEA41037FEA226C18BF7FEA13
:100EB000236C11D001B052EA530C18BF90EA010F15
:100EC00058BFB2EB030088BFC81738BF6FEAE170A4
:100ED00018BF40F0010070477FEA226C02D15FEA40
:100EE000402C05D17FEA236CE4D15FEA412CE1D0AC
:100EF0005DF8040B704700BF844608466146FFE773
:100F00000FB5FFF7C9FF002848BF10F1000F0FBD54
:100F10004DF808EDFFF7F4FF0CBF012000205DF84D
:100F200008FB00BF4DF808EDFFF7EAFF34BF0120D2
:100F300000205DF808FB00BF4DF808EDFFF7E0FF6B
:100F400094BF012000205DF808FB00BF4DF808EDBC
:100F5000FFF7D2FF94BF012000205DF808FB00BF1F
:100F60004DF808EDFFF7C8FF34BF012000205DF801
:100F700008FB00BF42000ED2B2F1FE4F0BD34FF080
:100F80009E03B3EB126209D44FEA002343F00043FF
:100F900023FA02F070474FF00000704712F1610F22
:100FA00001D1420202D14FF0FF3070474FF00000F4
:100FB000704700BF2DE9F843022833D80E461C4B7A
:100FC00013F810300BB90F462DE0194A02EB400020
:100FD000427894B2154603EB0208424526DA002710
:100FE000DFF8509004E00134A4B2254644451ADAF3
:100FF00005EB450359F823103046FFF79DFF002805
:10100000F1D06F0005EB450309EB830359683046C7
:10101000FFF7EAFD2F4409EB8707B968FFF7DCFC0F
:101020000746E0E700273846BDE8F8830027FAE7DF
:10103000200100202801002001291ED00346114A6A
:1010400012F8100098B910B40F4A12888C183C2C72
:1010500015D80C4C01F1FF3C04F813C004EB43031A
:101060005A70013A1144084B198010BC704701397D
:10107000884214BF022000207047032070470120DF
:10108000F3E700BF200100201C0100202DE9F047FC
:1010900007460E4615461C46DDF820A0DDF82490D4
:1010A00049465046FFF796FC804621462846FFF702
:1010B00091FC01464046FFF74BFE38602146504602
:1010C000FFF792FD074629464846FFF78DFD01468A
:1010D0003846FFF77FFC074629462046FFF77AFC93
:1010E00001463846FFF734FE3060BDE8F087000067
:1010F000144B13F81030934201D802207047F0B51A
:1011000083B00D460F4B03EB40004478224494B269
:10111000670004EB440080000B4E00F1080104302E
:10112000AB6801932B680093EB686A6831443044E4
:10113000FFF7ACFFEB683C4446F82430002003B0D6
:10114000F0BD00BF200100202801002070B584B050
:101150001D46002301930393082827D8044616460A
:10116000134B03EB001399734A1E18BF01221A7325
:10117000104B53F830300093022911D00123029311
:101180000C4B03EBC4036946586801F065FE084840
:1011900000EB0414A66065600020607304B070BDAD
:1011A000034B03EB001301229A73E7E70120F5E7F5
:1011B000F80300200C78000810B50B4C00232360C6
:1011C00022460221094B186804F04CFC23684BB1FD
:1011D0004FF0E0234FF08052C3F8042DBFF34F8F40
:1011E000BFF36F8F10BD00BF900400209404002057
:1011F0002DE9F04182B09DF8205045B301EB430E3C
:1012000000EB4200013DECB22344023101EB430408
:10121000BDF824C04FEA4C0C00274FF003080D4DD9
:1012200008E0019BA5FB03235B082EF8023B02307C
:10123000A6450CD0019701464346019E0A883244D8
:101240000192013B614413F0FF03F6D1E9E702B0DC
:10125000BDE8F081ABAAAAAA30B585B0224A32F81F
:1012600010300293214931F810300393039C029B04
:10127000C3EBC303DB00C82505FB0433C3F30F2313
:10128000ADF80630BDF8063021F81030BDF8064044
:10129000A4B222F810402046FFF7ACF810A3D3E91F
:1012A0000023FFF711F9FFF741FB0546C4F57F6006
:1012B0000F30FFF745FC01462846FFF749FD04467D
:1012C0000B49FFF74DFE28B92046FFF753FE80B2C9
:1012D00005B030BD48F6B800FAE700BFAFF30080B4
:1012E000000000000088C340F0030020E803002055
:1012F00000B8084782B000230193094AA2F1900088
:10130000019B5B000193019992F88C3003F001037B
:101310000B430193103A8242F2D1019802B0704718
:10132000F80300202DE9F04F89B000F0ABF9BA4B7B
:1013300018600A231A4600210846FFF707FF0A2310
:101340001A4600210120FFF701FF0A231A46002157
:101350000220FFF7FBFE0A231A4600210320FFF7B5
:10136000F5FE0A231A4600210420FFF7EFFE0A23A8
:101370001A4600210520FFF7E9FE0A231A4600213C
:101380000620FFF7E3FE0A231A4600210720FFF795
:10139000DDFE0A231A4600210820FFF7D7FE14219C
:1013A0000120FFF749FE9D4C25460026012768884D
:1013B000FFF7C2FB05902888FFF7BEFB0490E88882
:1013C000FFF7BAFB079035F8040FFFF7B5FB06905F
:1013D000B2B204A93846FFF78BFE0136132EE6D1D0
:1013E00014210220FFF728FE002502266088FFF75F
:1013F000A3FB05902088FFF79FFB0490E088FFF790
:101400009BFB079034F8040FFFF796FB0690AAB2F7
:1014100004A93046FFF76CFE0135132DE6D1804B51
:1014200001225A70DA705A71DA717E4A00231380F1
:10143000538093800393DFF8F0B1DFF8F0A14FF011
:10144000010899468DE07A4B83F800804146724B43
:10145000186804F0B9FA9BE0626816E0C4F80090DE
:1014600010340835BC421BD02646A37B022BF7D094
:101470002988686801F02AFE627B8242EED02368E8
:1014800001332360002AE7D1A2689342E8D9B37BF5
:1014900083F0010303F00103434033737073DFE70C
:1014A0004FF0FF33009343464A4602215A480068F2
:1014B00004F0FFF9504601F0B5FA032301930093BD
:1014C0004B464A465B495846FFF792FE4046FFF7B7
:1014D000C3FE0146052000F0C5FB0220FFF7BCFE5D
:1014E0000146062000F0BEFB4046FFF7B5FEA0F621
:1014F000AC539BB247F60B32934260D94FF6FF7163
:10150000404600F09DFB072000F094FB40F00101F5
:1015100089B2072000F094FB0220FFF79DFEA0F6A1
:10152000AC539BB247F60B3293425ED94FF6FF7134
:10153000022000F085FB072000F07CFB40F0020158
:1015400089B2072000F07CFBFFF7D4FEC0F3002037
:1015500003F014FFFFF7CEFEC0F30111484600F080
:101560006FFB09225946504601F012F9404605F03A
:101570007BF942461021304801F0AEFD2C4B1B7820
:1015800033B9039B0133DBB20393322B3FF45BAFE0
:101590000024234E294D16F8142005EBC403003A0D
:1015A00018BF012235F83410586801F095FD013458
:1015B000042CF0D1224C234D04F1900754E7FFF79F
:1015C000BBFA01464046FFF7F5FCFFF7D3FC81B2BA
:1015D000404600F035FB072000F02CFB20F0010115
:1015E00089B2072000F02CFB96E7FFF7A5FA014629
:1015F0000220FFF7DFFCFFF7BDFC81B2022000F004
:101600001FFB072000F016FB20F0020189B2072023
:1016100000F016FB98E700BF94040020BC77000898
:1016200088040020E8030020D4030020E0140020F8
:10163000F6030020F0030020000801405478000861
:10164000F80300200C780008014B03F810107047D5
:1016500088040020014B13F8100070478804002014
:1016600008B50A24204604F08FF8FBE7014B186800
:10167000704700BF94160020014B1868704700BFE8
:10168000DC160020014B1868704700BFB816002018
:1016900008B5044BD860184602F0CAFA00B908BD74
:1016A00072B6FEE75415002010B5054C204602F036
:1016B00095F9236800225A62204602F05BF910BDBA
:1016C0005415002008B5024802F088F908BD00BF93
:1016D0005415002000B595B000230C930D930F9383
:1016E000109305930693079308930993019302932C
:1016F0000393049301220A924FF480330B930E92CA
:101700000222119212934FF4C01313930AA801F00E
:10171000F3FCC8B90F230593022106910023079318
:101720004FF480620892099305A801F025FF68B97B
:10173000022301934FF40043039301A802F012F82F
:1017400030B915B05DF804FB72B6FEE772B6FEE77D
:1017500072B6FEE780B592B000F0C6FEFFF7BAFFA2
:1017600000240B940C940D940E94AD4DAB6943F092
:101770001003AB61AB6903F010030193019BAB69EC
:1017800043F02003AB61AB6903F020030293029B9B
:10179000AB6943F00403AB61AB6903F0040303934B
:1017A000039BAB6943F00803AB61AB6903F008032B
:1017B0000493049B9B4E22464FF49871304601F0EF
:1017C0008BFC994F22464FF47041384601F084FC5F
:1017D0004FF498730B934FF00109CDF830900D94AE
:1017E0004FF00208CDF838800BA9304601F034FBE9
:1017F00040F6FF730B930C940D940BA9384601F03F
:101800002BFB4FF470430B93CDF830900D94CDF833
:1018100038800BA9384601F01FFB4FF400430B93AF
:101820000C940D940BA9304601F016FB6B6943EA4A
:1018300009036B616B6903EA09030093009B22466D
:1018400005210B2001F030F90B2001F063F97748F6
:10185000774B03604FF4164343604FF4805383602B
:10186000C4604FF4C06303610C2343618461C461AD
:1018700002F0F2FC002840F03A8100230B930C9315
:101880000D930E93079308936A484FF080420260CD
:101890004FF44C62426083604FF47A72C26003611D
:1018A000836102F0C5F9002840F023814FF4805392
:1018B0000B930BA95F4802F0BBFA002840F01B8194
:1018C000202307930023089307A95A4802F01AFC23
:1018D000002840F0128100230B930C930D9356487F
:1018E000564A02604FF480728260012202730375CF
:1018F0004FF46022C26143600323036101F00EF8DC
:10190000002840F0FC8000230B9301230C93042358
:101910000D930BA9484800F049FE002840F0F180E3
:1019200001230B9302230C930BA9434800F03EFEC6
:10193000002840F0E88002230B9303230C930BA9AB
:101940003D4800F033FE002840F0DF80002307937D
:10195000089309930A93059306930B930C930D93A5
:101960000E930F93109311933548364A026002226A
:10197000426083604FF47A72C2600361836102F057
:1019800057F9002840F0C3804FF48053079307A90C
:101990002B4802F04DFA002840F0BB80284802F0A6
:1019A00073F9002840F0B78000230593069305A93A
:1019B000234802F0A7FB002840F0AF8060230B9380
:1019C00000220C920D9204230F930BA91C4802F0E5
:1019D000B5F9002840F0A3804FF4FA730C93042269
:1019E0000BA9174802F0AAF9002840F09A80144881
:1019F00000F06AFC00230B930C930D930E93079356
:101A000008931148114A02604FF4FA424260836021
:101A10004FF4FA62C26003618023836118E000BF63
:101A20000010024000080140000C01402C1600206C
:101A30000038014054150020E0140020002401402B
:101A40009C15002000040040E41500200008004020
:101A500002F0EEF8002866D14FF480530B930BA9E7
:101A6000344802F0E5F900285FD10023079308937A
:101A700007A9304802F046FB002858D103F0D2FDF8
:101A80002D4A00212D4803F019FE2D4B18602D4AD8
:101A900000212D4803F012FE2C4B18602C4A002127
:101AA0002C4803F00BFE2C4B18602C4A00212C48CC
:101AB00003F004FE2B4B18602B4A00212B4803F047
:101AC000FDFD2B4B18602B4803F080FE2A4B18605D
:101AD0002A4803F07BFE2A4B18602A4803F076FE62
:101AE000294B186000F080F803F0C0FDFEE772B6E5
:101AF000FEE772B6FEE772B6FEE772B6FEE772B6B2
:101B0000FEE772B6FEE772B6FEE772B6FEE772B6A1
:101B1000FEE772B6FEE772B6FEE772B6FEE772B691
:101B2000FEE772B6FEE772B6FEE772B6FEE772B681
:101B3000FEE700BFE4150020687900086116000880
:101B4000DC140020D878000825130008D4070020F2
:101B500044790008ED5200081C120020FC780008AF
:101B60002D1D0008940A002020790008891C000817
:101B70005C0F00208C79000894160020AC790008D6
:101B8000DC1600209C790008B816002010B5044629
:101B90000368B3F1804F04D02268054B9A4203D00A
:101BA00010BD03F0E3FBF7E700F0B0FCF8E700BF7F
:101BB000002C014072B6FEE702291CBF074B1970CA
:101BC000064B1A78064B1A8104281CBF054B187067
:101BD000044B1A78024B5A81704700BF1617002039
:101BE000E8160020E6160020014B1860704700BF81
:101BF0001817002000B583B001464FF0FF33009363
:101C0000012300220348006803F053FE03B05DF88F
:101C100004FB00BF18170020024610B9034B012136
:101C20001970034B33F81200704700BFE416002010
:101C300004170020014B33F810007047E81600200D
:101C4000024630B9054B1B888B4202D0044B012061
:101C50001870024B23F81210704700BFE8160020DE
:101C6000FC160020024630B9054B1B888B4202D07F
:101C7000044B01201870024B23F81210704700BF6C
:101C800004170020FC16002010B582B00120FFF7D9
:101C9000B1FFFFF72FFB012300934FF416430022FF
:101CA00000F00F01104602F0B3FD02F00FFE042118
:101CB000054B186803F088FE0124204604F0D4FD8B
:101CC00002F016FEF9E700BF18170020024A136859
:101CD00001331360704700BF001700200A4B1B88B8
:101CE00033B10A4B1B6898428CBF0020012070471B
:101CF00010B5054B01221A800024044B1C600448D7
:101D000001F038FE204610BDE2160020001700202A
:101D1000E415002008B5034801F060FE024B0022E4
:101D20001A8008BDE4150020E21600202DE9F046D7
:101D300089B00024DFF8789200269E4F06E0072045
:101D4000FFF758FF9C4B01221A7001249B4B1A7815
:101D50009B4BDA800A2004F087FD002CEFD0FFF7C0
:101D6000C9FA10F4807F07D0954B9B89022B944BC6
:101D70000CBF032202229A818F4B1B78012B38D093
:101D80008F4B1B88002B56D08D4AD28912F0010F41
:101D900004D1022B4FD112F0020F4CD001210020B0
:101DA000FFF70AFF874B18890023019302930393DF
:101DB0000493059306930793642804D8824B1B88E9
:101DC000834240F04E817E4BDB8913F0010F40F0DF
:101DD0007E8113F0020F04D0794B1B88022B00F098
:101DE000A4810022794B1A802021484601F074F921
:101DF00078E1734B01229A811B8833B96F4B04221F
:101E00001A706D4B00221A70BAE7714B01221A70DA
:101E10006C4B1B883BB1013B9BB29342F1D8674BA3
:101E200001221A70EDE701210020FFF7C5FE634B88
:101E300002221A70E5E7614A1278022A16D0032AB4
:101E400026D0012AAED101210020FFF7B5FE3C20AB
:101E5000FFF744FF0028A5D0594B5B88132BA1D96D
:101E6000FFF758FF554B03221A709BE7544B5B88D2
:101E7000142B08D91D2B87BF002108460221002002
:101E8000FFF79AFE8EE701210020FFF795FE89E714
:101E90004B4A52880C2A1ED9494A9289012A20D1DC
:101EA000022B43D04A4A01211170464A12888A42C5
:101EB00046D0012B7FF476AF022A7FF473AF414AFC
:101EC0009388D288D91E914240F3A4800121022038
:101ED000FFF772FE66E70123394A9381374A137090
:101EE00060E73B4901200870364909880229D7D1AB
:101EF000032A10D0FFF7FEF910F4807F11D1B4202F
:101F0000FFF7ECFE00283FF44DAF2D4B01229A81E4
:101F1000FFF700FF46E72A4B02229A81FFF7FAFEFD
:101F2000E8E701210320FFF747FE3BE7284B0122AA
:101F30001A70244B1B88022B0ED0012B7FF432AF7A
:101F4000204BDA889B88991C8A4259DD00211D4B61
:101F50009878FFF731FE25E7194B9A88194B9B8833
:101F6000991F8A4204DA01210320FFF725FE19E7B1
:101F7000191F8A4204DA02210420FFF71DFE11E72F
:101F80008A4207D0991E8A4209DA02210420FFF70B
:101F900013FE07E702210846FFF70EFE02E78A421A
:101FA00018D093421BD902210420FFF705FEF9E661
:101FB0000008014000005940FC160020E5160020F2
:101FC000E816002004170020E01600201217002059
:101FD000E416002002210120FFF7EEFDE2E6934225
:101FE00009D001339A424FF00001D4BF04200846C3
:101FF000FFF7E2FDD6E600210420FFF7DDFDD1E684
:10200000023B9A42B4BF012102214A4B9878FFF764
:10201000D3FDC7E6991E8A4204DA01210420FFF7A6
:10202000CBFDBFE68A4206D09A4209D202210120A6
:10203000FFF7C2FDB6E601210846FFF7BDFDB1E698
:102040009A4209D001339A424FF00001D4BF0420D4
:102050000846FFF7B1FDA5E600210120FFF7ACFD22
:10206000A0E660230193FEF7C5F932463B46FEF732
:1020700055FB0022304BFEF727FAFEF737FC0290A3
:102080002E4D0021284601F0FBFF002201A9284621
:1020900001F054FE0021284601F08EFF93E6284B04
:1020A00000221A802021484601F01CF81AE0012085
:1020B00003F06AF949E6012B03D021460024A24629
:1020C00022E000218A461FE000218A461CE01D4BC9
:1020D00032221A801A4B1B8801339BB2312BDED877
:1020E000174A1380184B1B88002BE0D0164A5189E1
:1020F0000229E9D00329DED0012914BF4FF0000ADC
:102100004FF0010A00210C460020FFF79DFA2146FE
:102110000120FFF799FA51460220FFF795FA0A4B82
:10212000197A0320FFF790FA0FE6064B32221A8045
:10213000D0E700BF0417002000E08A409C15002073
:102140001417002012170020E816002000B583B0F5
:10215000114B9A6942F001029A619A6902F00102F8
:102160000092009ADA6942F08052DA61DB6903F08A
:1021700080530193019B00220F216FF0010000F0BA
:1021800093FC064A536823F0E06343F00073536006
:1021900003B05DF804FB00BF0010024000000140E6
:1021A00010B586B00023029303930493059302684D
:1021B0001D4B9A4201D006B010BD044603F56C4396
:1021C0009A6942F400729A619A6902F4007200926C
:1021D000009A9A6942F004029A619B6903F0040331
:1021E0000193019B072302930323039302A90F4842
:1021F00000F032FE0E480F4B036000234360836003
:102200008022C2604FF4807202614FF480624261AA
:102210008361C36100F08CFC18B9054B23625C62DA
:10222000C9E7FFF7C7FCF8E70024014000080140B8
:10223000101500200800024000B585B00368B3F116
:10224000804F08D01D4A934219D01D4A934221D095
:1022500005B05DF804FB03F50433DA6942F00102CE
:10226000DA61DB6903F001030193019B0022052180
:102270001C2000F019FC1C2000F04CFCE8E7114B7E
:10228000DA6942F00202DA61DB6903F002030293C9
:10229000029BDDE70B4BDA6942F00402DA61DB698D
:1022A00003F004030393039B002205211E2000F08A
:1022B000FBFB1E2000F02EFCCAE700BF000400401C
:1022C000000800400010024000B587B000230293D0
:1022D00003930493059302680D4B9A4202D007B012
:1022E0005DF804FB03F503339A6942F004029A6136
:1022F0009B6903F004030193019BC0230293022313
:1023000003930323059302A9024800F0A5FDE6E725
:10231000000400400008014030B587B0002302935C
:1023200003930493059302681B4B9A4201D007B0B4
:1023300030BD03F558439A6942F480429A619A6924
:1023400002F480420092009A9A6942F004029A6173
:102350009B6903F004030193019B4FF40073029304
:1023600002230393032305930C4D02A9284600F092
:1023700073FD4FF48063029300240394049402A934
:10238000284600F069FD22460521252000F08CFB3F
:10239000252000F0BFFBCAE70038014000080140DB
:1023A00030B589B004461E4B9A6942F400629A61C6
:1023B0009B6903F400630193019B02A903A801F048
:1023C000B3F901F0A1F903461648174A026040F23A
:1023D000E732C260154AA2FB03239B0C013B43601A
:1023E000002303618360836101F022FC054610B184
:1023F000284609B030BD0B4801F0BCFA054600285C
:10240000F6D1192000F086FB0F2C01D90125EFE74A
:1024100000222146192000F047FB054B1C60E7E72E
:10242000001002401C170020002C014083DE1B43DB
:1024300008000020FEE7FEE7FEE7FEE7FEE7704744
:1024400008B5FEF7B9FE024800F066FC08BD00BF03
:102450001015002008B5024801F0DEFA08BD00BFE3
:102460001C17002008B5024801F0D6FA08BD00BFCD
:102470005415002008B5FFF729FC024801F0CCFAFA
:1024800008BD00BFE415002008B5024802F014F8AA
:1024900008BD00BF2C16002070470000FFF7FCFFAE
:1024A0000B480C490C4A002302E0D458C4500433B2
:1024B000C4188C42F9D3094A094C002301E0136087
:1024C0000432A242FBD305F073F8FFF743F97047DB
:1024D0000000002000010020687C000800010020AE
:1024E000E4320020FEE7000008B5074A136843F015
:1024F00010031360032000F0C5FA0F20FFF750FF10
:10250000FFF724FE002008BD00200240034A1168A6
:10251000034B1B780B441360704700BF6417002007
:1025200004000020014B1868704700BF64170020AA
:10253000704708B5436A9A6A12F0500F1ED19A6A22
:1025400042F400729A621A68926802F46022B2F54C
:10255000602F03D01846FFF7EBFF08BD1A7B002A57
:10256000F8D19A6A22F480729A629A6A12F4805FB1
:10257000F0D19A6A42F001029A62EBE71B6A1B6B88
:102580009847EAE7704708B5406AFFF7FBFF08BDC8
:10259000704708B5406A836A43F040038362C36AA8
:1025A00043F00403C362FFF7F3FF08BD30B482B009
:1025B0000022019290F82420012A00F09580034621
:1025C000012280F824204A68062A2DD80468606B0E
:1025D00002EB8202053A4FF01F0C0CFA02FC20EAD3
:1025E0000C000D6805FA02F2024362630A68092AC8
:1025F0003AD91C68E06802EB42021E3A4FF0070C21
:102600000CFA02FC20EA0C008D6805FA02F2024383
:10261000E2600A68103A012A36D90020002283F8C5
:10262000242002B030BC70470C2A0ED80568286BF5
:1026300002EB8202233A1F24944020EA04000C6833
:1026400004FA02F202432A63D0E70568E86A02EB63
:102650008202413A1F24944020EA04000C6804FAE4
:1026600002F20243EA62C1E71C68206902EB4202FF
:102670004FF0070C0CFA02FC20EA0C008D6805FAFA
:1026800002F202432261C4E71868184A904205D05A
:102690009A6A42F020029A620120BFE7926812F41F
:1026A000000F1DD11148826842F4000282600A685E
:1026B000102A01D00020B1E70D4A12680D49A1FB94
:1026C0000212920C02EB820252000192019A4AB16C
:1026D000019A013A0192019A002AF9D100209DE75E
:1026E00000209BE7002099E702209AE700240140A0
:1026F0000000002083DE1B4330B583B0002301932C
:1027000003689A6812F0010F3BD104469A6842F0C0
:1027100001029A601C4B1B681C4AA2FB03239B0C02
:102720000193019B2BB1019B013B0193019B002B6A
:10273000F9D1FFF7F7FE054623689B6813F0010FF8
:1027400006D000201EE023689B6813F0010F16D10D
:10275000FFF7E8FE431B022BF5D923689B6813F0B3
:10276000010FF0D1A36A43F01003A362E36A43F0C0
:102770000103E362002384F82430012002E00020FA
:1027800000E0002003B030BD0000002083DE1B43CA
:10279000F8B504460D4616460168424881425DD0B0
:1027A000414B99425AD094F82430012B77D0012321
:1027B00084F824302046FFF79FFF074600286AD19F
:1027C000A16A21F4706121F0010141F48071A162DC
:1027D0002268354B9A4248D0A36A23F48013A3623F
:1027E000536813F4806F05D0A36A23F4405343F475
:1027F0008053A362A36A13F4805F1ABFE36A23F0D5
:1028000006030023E362002384F82430236A274A66
:102810009A62236A264ADA62236A264A1A6323687E
:102820006FF002021A602268936843F48073936029
:10283000216833462A464C31206A00F0AFF92368FC
:102840009A6802F46022B2F5602F9A680CBF42F4D5
:10285000A00242F480129A603846F8BD114B5B68C2
:1028600013F4702F9FD00127F6E7A3F580635B6810
:1028700013F4702FB0D0A36A43F48013A362094B02
:102880005B6813F4806FB5D0A36A23F4405343F41C
:102890008053A362AEE7002384F82430DCE70227EC
:1028A000DAE700BF0024014000280140332500087A
:1028B000872500089325000838B503689A6812F048
:1028C000010F01D1002038BD04469A6822F00102B0
:1028D0009A60FFF727FE054623689B6813F0010FF7
:1028E00006D10020EFE723689B6813F0010F13D097
:1028F000FFF718FE431B022BF5D923689B6813F0E2
:10290000010FF0D0A36A43F01003A362E36A43F01F
:102910000103E3620120D6E70020D4E700287AD043
:1029200070B50446836A002B4FD02046FFF7C4FFE2
:10293000A36A13F0100368D1002866D1A26A22F4BA
:10294000885222F0020242F00202A262217B6268F7
:10295000E5692A4342EA4102A568B5F5807F04D0C3
:10296000012D14BF1D464FF48075267D012E32D0F7
:102970002668716821F46941294371602568AE6851
:10298000264931401143A960A168B1F5807F01D08B
:10299000012902D12369013B1B052568E96A21F45D
:1029A00070010B43EB62236899681D4B0B409A4200
:1029B00022D0A36A23F0120343F01003A362E36A58
:1029C00043F00103E362012024E0C36280F8243075
:1029D000FFF7E6FBA9E731B9A169013945EA4131C1
:1029E00041F40065C4E7A16A41F02001A162E16AF7
:1029F00041F00101E162BBE70023E362A36A23F037
:102A0000030343F00103A36204E0A36A43F010034D
:102A1000A362012070BD0120704700BFFDF7E1FFF8
:102A2000FE0E1FFF90F82430012B28D010B504466D
:102A3000012380F82430FFF73FFF50B922689368E4
:102A400023F480739360226A92F82130DBB2022B68
:102A500003D0002384F8243010BD104600F0EDF8B8
:102A600040B9A36A23F4885323F0010343F0010320
:102A7000A362EEE7A36A43F04003A362E9E7022002
:102A8000704700000749CA68030203F4E06322F4B8
:102A9000E0621204120C134343F0BF6343F40033AB
:102AA000CB60704700ED00E000B5184BDB68C3F366
:102AB0000223C3F1070CBCF1040F28BF4FF0040C34
:102AC00003F1040EBEF1060F8CBF033B00234FF051
:102AD000FF3E0EFA0CFC21EA0C0199400EFA03F3BA
:102AE00022EA03021143002809DB0901C9B200F1FF
:102AF000604000F5614080F800135DF804FB00F0D1
:102B00000F000901C9B2024B1954F6E700ED00E0CD
:102B100014ED00E0002808DB420900F01F0001234B
:102B200003FA00F0014B43F82200704700E100E097
:102B300060B310B402460168154B0B441548A0FB66
:102B400003031B099B001364134BD363022382F816
:102B50002130086820F47F5020F0300053689468DA
:102B60002343D4682343146923435469234394695A
:102B70002343D469234303430B6000209063012364
:102B800082F8213082F8200010BC70470120704785
:102B9000F8FFFDBFCDCCCCCC0000024090F820C0A7
:102BA000BCF1010F47D04FF0010C80F820C090F825
:102BB00021C05FFA8CFCBCF1010F04D0002380F827
:102BC00020300220704770B4022480F82140002495
:102BD000846305682C6824F001042C60C56B012413
:102BE000066CB4406C60046863604368102B12D0BC
:102BF000036899600368DA60C36A8BB1026813687E
:102C000043F00E0313600268136843F0010313607E
:102C1000002070BC704703689A600368D960EBE7D6
:102C20000268136823F0040313600268136843F01A
:102C30000A031360E7E70220704790F82130DBB207
:102C4000022B06D004238363002380F82030012068
:102C500070470268136823F00E031360026813685C
:102C600023F001031360C16B0122036C02FA03F32A
:102C70004B6080F82120002380F8203018467047F0
:102C800008B590F82130DBB2022B03D00423836314
:102C9000012008BD0268136823F00E031360026868
:102CA000136823F0010313600368194A934213D099
:102CB000143293421ED0143293421DD014329342E8
:102CC0001DD0143293421DD0143293420CBF4FF4E6
:102CD00080134FF0807300E001230E4A53600123FC
:102CE00080F82130002380F82030436B6BB1984787
:102CF0000020CEE71023F0E74FF48073EDE74FF4A8
:102D00008053EAE74FF48033E7E70020C1E700BFD4
:102D1000080002400000024038B5C36B1A6804681E
:102D20002568016C04238B40134234D015F0040F46
:102D300031D0236813F0200F03D1236823F004035C
:102D400023600368424A934213D01432934217D04F
:102D50001432934216D01432934216D01432934256
:102D600016D0143293420CBF4FF480034FF08063AF
:102D700000E00423374A5360C36A03B1984738BD63
:102D80004023F7E74FF48063F4E74FF48043F1E723
:102D90004FF48023EEE702238B4013423BD015F023
:102DA000020F38D0236813F0200F06D1236823F0D8
:102DB0000A032360012380F821300368244A9342E8
:102DC00013D0143293421BD0143293421AD01432CF
:102DD00093421AD0143293421AD0143293420CBF49
:102DE0004FF400134FF0007300E00223194A5360C0
:102DF000002380F82030836A002BC0D09847BEE7BC
:102E00002023F3E74FF40073F0E74FF40053EDE7AE
:102E10004FF40033EAE7082303FA01F11142AED080
:102E200015F0080FABD0236823F00E032360C16BAD
:102E30000123026C03FA02F24A60836380F82130B6
:102E4000002380F82030036B002B98D0984796E73A
:102E500008000240000002402DE9F04F83B0D1F895
:102E60000090B9F1000F00F01F8100221346904E30
:102E7000904C914DDFF844E29446BAE04FF0000CDC
:102E800025E0A9450FD006D9F1450CD0DFF830A2D6
:102E9000D14508D01BE0DFF82CA2D14503D00AF5BC
:102EA000702AD1450FD1D1F808C0BCF1000F00F055
:102EB000EF80BCF1010F0CBFC0F81080C0F8148087
:102EC0004FF0080C03E0AAF5801AD145EBD0FF2F94
:102ED00099BF8146924600F10409A2F1200AD9F86F
:102EE00000804FF00F0B0BFA0AFB28EA0B080CFAD4
:102EF0000AFA48EA0A08C9F80080D1F8048018F0F4
:102F0000805F6FD0D6F8188048F00108C6F81880A6
:102F1000D6F8188008F00108CDF80480DDF80480A8
:102F200023F0030808F1804808F58038D8F808A095
:102F300003F003094FEA890B4FF00F0909FA0BF967
:102F40002AEA090ADFF88091484500F0A48009F5D3
:102F50008069484500F0A28009F58069484500F085
:102F6000A08009F5806948450CBF4FF003094FF078
:102F7000040909FA0BF949EA0A09C8F80890D1F8D6
:102F8000048018F4801FD4F8088014BF48EA0708AA
:102F900028EA0708C4F80880D1F8048018F4001F54
:102FA000D4F80C8014BF48EA070828EA0708C4F8D8
:102FB0000C80D1F8048018F4003FD4F8048014BFCA
:102FC00048EA070828EA0708C4F80480D1F8048012
:102FD00018F4803FD4F8008014BF48EA070728EAB5
:102FE000070727600133D1F80090043239FA03F75C
:102FF0005AD04FF0010808FA03F808EA090738EA3E
:103000000909EFD1D1F80490B9F1120F3FF639AFA9
:10301000B9F1120F3FF65BAF0FF2040A5AF829F02C
:10302000A72E00086D3000087D3000087D2E0008B6
:10303000CF2E0008CF2E0008CF2E0008CF2E00087C
:10304000CF2E0008CF2E0008CF2E0008CF2E00086C
:10305000CF2E0008CF2E0008CF2E0008CF2E00085C
:10306000CF2E00087330000887300008D1F80CC05C
:103070002DE7D1F80CC00CF1040C28E7D1F80CC0F6
:103080000CF1080C23E7D1F80CC00CF10C0C1EE776
:103090004FF0040C1BE74FF000096AE74FF00109FD
:1030A00067E74FF0020964E703B0BDE8F08F00BFA7
:1030B0000010024000040140000022100000311006
:1030C000000032100000121000080140836819420D
:1030D00014BF0120002070470AB101617047090444
:1030E00001617047C36801EA030221EA030141EA72
:1030F0000241016170470000002800F001822DE9C3
:10310000F04182B00446036813F0010F2CD09F4BAE
:103110005B6803F00C03042B1DD09C4B5B6803F031
:103120000C03082B12D06368B3F5803F41D0002B0D
:1031300055D103F1804303F504331A6822F4803239
:103140001A601A6822F480221A6037E08F4B5B689D
:1031500013F4803FE7D08D4B1B6813F4003F03D07E
:103160006368002B00F0CE81236813F0020F75D046
:10317000864B5B6813F00C0F5FD0844B5B6803F0E9
:103180000C03082B54D02369002B00F08A80804B5D
:1031900001221A60FFF7C6F905467C4E336813F02A
:1031A000020F75D1FFF7BEF9401B0228F6D90320A4
:1031B000ADE1764A136843F480331360636843B328
:1031C000FFF7B0F90546714E336813F4003FCBD1D9
:1031D000FFF7A8F9401B6428F6D9032097E1B3F55F
:1031E000A02F09D0694B1A6822F480321A601A683D
:1031F00022F480221A60E1E703F18043A3F53C3317
:103200001A6842F480221A601A6842F480321A6006
:10321000D4E7FFF787F905465C4E336813F4003FA7
:10322000A2D0FFF77FF9401B6428F6D903206EE196
:10323000564B5B6813F4803FA5D1544B1B6813F0C9
:10324000020F03D02369012B40F05E814F4A1368BF
:10325000616923F0F80343EAC1031360236813F0A4
:10326000080F3DD0A369002B66D0494B0122C3F85B
:103270008024FFF757F90546444E736A13F0020F96
:1032800021D1FFF74FF9401B0228F6D903203EE178
:103290003E4A1368616923F0F80343EAC1031360EF
:1032A000DCE73B4B00221A60FFF73CF90546374E3E
:1032B000336813F0020FD1D0FFF734F9401B022816
:1032C000F6D9032023E1334B1B68334AA2FB0323C7
:1032D0005B0A019300BF019B5A1E0192002BF9D19A
:1032E000236813F0040F00F09B80284BDB6913F078
:1032F000805F34D1254BDA6942F08052DA61DB69B4
:1033000003F080530093009B0125244B1B6813F4AA
:10331000807F26D0E368012B42D0002B58D103F1E7
:10332000804303F504331A6A22F001021A621A6A12
:1033300022F004021A6238E0154B0022C3F8802400
:10334000FFF7F0F80546114E736A13F0020FC7D06D
:10335000FFF7E8F8401B0228F6D90320D7E0002544
:10336000D3E70E4A136843F480731360FFF7DAF86B
:1033700006460A4F3B6813F4807FCBD1FFF7D2F8A3
:10338000801B6428F6D90320C1E000BF0010024072
:103390000000424200000020D34D62100070004047
:1033A0005E4A136A43F001031362E36833B3FFF725
:1033B000B9F80646594F41F288383B6A13F0020FBC
:1033C0002DD1FFF7AFF8801B4045F6D903209EE0D2
:1033D000052B09D0514B1A6A22F001021A621A6AAF
:1033E00022F004021A62E0E74C4B1A6A42F004022F
:1033F0001A621A6A42F001021A62D6E7FFF792F8DF
:103400000646464F41F288383B6A13F0020F06D059
:10341000FFF788F8801B4045F6D9032077E0E5B92F
:10342000E369002B72D03D4A526802F00C02082A70
:1034300056D0022B17D03A4B00221A66FFF772F8CB
:103440000446364D2B6813F0007F47D0FFF76AF82B
:10345000001B0228F6D9032059E0304AD36923F033
:103460008053D361DCE72E4B00221A66FFF75AF82F
:1034700005462A4E336813F0007F06D0FFF752F856
:10348000401B0228F6D9032041E0236AB3F5803FB0
:103490001AD022494A68236A606A034322F47412EC
:1034A00013434B601E4B01221A66FFF73BF804469C
:1034B0001A4D2B6813F0007F0ED1FFF733F8001B75
:1034C0000228F6D9032022E0144A536823F400337B
:1034D000A1680B435360DCE7002018E0002016E0F1
:1034E000012B17D00D4B5B6803F48031226A9142A7
:1034F00012D103F47013606A181A18BF012006E095
:1035000001207047012002E0012000E0002002B00D
:10351000BDE8F0810120FAE70120F8E70010024041
:10352000000042420F4B5B6803F00C02082A01D0F6
:103530000D487047C3F383420C49885C13F4803F05
:103540000BD0084B5B68084A02FB00F0C3F3404312
:10355000074AD35CB0FBF3F07047064B03FB00F067
:10356000704700BF0010024000127A00D4790008B2
:10357000E479000800093D00002800F0A2802DE950
:10358000F0410D460446534B1B6803F007038B4282
:103590000BD2504A136823F007030B4313601368E0
:1035A00003F007038B4240F08E80236813F0020F74
:1035B00017D013F0040F04D0474A536843F4E06374
:1035C0005360236813F0080F04D0434A536843F450
:1035D00060535360404A536823F0F003A1680B43E3
:1035E0005360236813F0010F31D06268012A20D0A4
:1035F000022A25D0384B1B6813F0020F65D03649DC
:103600004B6823F0030313434B60FEF78BFF064622
:10361000314F41F288387B6803F00C036268B3EBEA
:10362000820F14D0FEF77EFF801B4045F3D90320A4
:1036300045E0294B1B6813F4003FE0D101203EE038
:10364000254B1B6813F0007FD9D1012037E0214BB7
:103650001B6803F00703AB420AD91E4A136823F024
:1036600007032B431360136803F00703AB422ED10B
:10367000236813F0040F06D0174A536823F4E0635D
:10368000E1680B435360236813F0080F07D0124A18
:103690005368216923F4605343EAC1035360FFF781
:1036A00041FF0D4B5B68C3F303130C4AD35CD84056
:1036B0000B4B18600B4B1868FEF772FE0020BDE83C
:1036C000F081012070470120F9E70120F7E7012090
:1036D000F5E700BF0020024000100240BC7900085E
:1036E0000000002008000020044B5B68C3F30223A5
:1036F000034AD35C034A1068D84070470010024068
:10370000CC79000800000020044B5B68C3F3C2239F
:10371000034AD35C034A1068D84070470010024047
:10372000CC790008000000200F2303600B4B5A687F
:1037300002F0030242605A6802F0F00282605A68A6
:1037400002F4E062C2605B68DB0803F4E0630361DB
:10375000034B1B6803F007030B6070470010024027
:10376000002002402DE9F04182B00446036813F0C6
:10377000010F36D03F4BDB6913F0805F49D13D4BE1
:10378000DA6942F08052DA61DB6903F08053019319
:10379000019B0125384B1B6813F4807F3BD0354BD0
:1037A0001B6A13F4407313D0626802F440729A42A9
:1037B0000ED0304A136A23F4407030490126C1F814
:1037C00040640026C1F84064106213F0010F36D146
:1037D000284A136A23F4407361680B431362002D77
:1037E0003ED1236813F0020F06D0224A536823F417
:1037F0004043A1680B435360236813F0100F34D08B
:103800001C4A536823F48003E1680B435360002093
:103810002CE00025BEE7184A136843F48073136058
:10382000FEF780FE0646144F3B6813F4807FB6D146
:10383000FEF778FE801B6428F6D9032016E0FEF719
:1038400071FE06460B4F41F288383B6A13F0020FB7
:10385000BED1FEF767FE801B4045F6D9032005E088
:10386000D36923F08053D361BBE7002002B0BDE8E9
:10387000F08100BF00100240007000400000424292
:1038800070B4036A026A22F001020262446882692B
:1038900022F073020D682A4323F002038D682B4344
:1038A0000B4DA84206D0446082614A6842630362BD
:1038B00070BC704723F00803CD682B4323F004034A
:1038C00024F440744D698E6935432C43EBE700BF07
:1038D000002C014070B4036A026A22F48072026212
:1038E0004468C26922F073020D682A4323F400730E
:1038F0008D6843EA05230C4DA84206D04460C2619E
:103900004A68C263036270BC704723F40063CD68E9
:1039100043EA052323F4806324F440544D698E69FF
:10392000354344EA0514E9E7002C014030B4036A4A
:10393000026A22F4805202624468C26922F4E642BA
:103940000D6842EA052223F400538D6843EA0533EB
:10395000074DA84206D04460C2614A68026403620F
:1039600030BC704724F480444D6944EA8514F2E782
:10397000002C014090F83D30DBB2012B27D102230F
:1039800080F83D300268D36843F00103D3600368D8
:10399000114A934210D0B3F1804F0DD0A2F594326A
:1039A000934209D002F58062934205D01A6842F032
:1039B00001021A60002070479A6802F00702062A86
:1039C00007D01A6842F001021A60002070470120F7
:1039D00070470020704700BF002C01400268D36888
:1039E00023F00103D3600368196A41F211121142F6
:1039F00008D1196A40F24442114203D11A6822F0F8
:103A000001021A60012380F83D30002070477047A2
:103A1000704770477047704710B5044603681A69CD
:103A200012F0020F11D0DA6812F0020F0DD06FF011
:103A300002021A610123037703689B6913F0030FE5
:103A400070D0FFF7E6FF0023237723681A6912F08E
:103A5000040F12D0DA6812F0040F0ED06FF00402D7
:103A60001A610223237723689B6913F4407F5FD098
:103A70002046FFF7CEFF0023237723681A6912F050
:103A8000080F12D0DA6812F0080F0ED06FF008029B
:103A90001A61042323772368DB6913F0030F4ED0E8
:103AA0002046FFF7B6FF0023237723681A6912F038
:103AB000100F12D0DA6812F0100F0ED06FF0100253
:103AC0001A61082323772368DB6913F4407F3DD014
:103AD0002046FFF79EFF0023237723681A6912F020
:103AE000010F03D0DA6812F0010F36D123681A698A
:103AF00012F0800F03D0DA6812F0800F34D12368FF
:103B00001A6912F0400F03D0DA6812F0400F32D178
:103B100023681A6912F0200F03D0DA6812F0200F20
:103B200030D110BDFFF774FF2046FFF773FF8AE71F
:103B30002046FFF76DFF2046FFF76CFF9BE720460E
:103B4000FFF766FF2046FFF765FFACE72046FFF76B
:103B50005FFF2046FFF75EFFBDE76FF001021A61CD
:103B60002046FEF713F8C1E76FF080021A61204685
:103B700000F0FDFAC3E76FF040021A612046FFF73C
:103B80004AFFC5E76FF020021A61204600F0EEFA06
:103B9000C7E700000368254A904214D0B0F1804F77
:103BA0002BD0A2F59432904222D002F5806290424E
:103BB00037D023F080034A69134303608B68C362E4
:103BC0000B6883622AE023F070034A68134323F4EE
:103BD0004073CA68134323F080034A6913430360A8
:103BE0008B68C3620B6883620A69104B1A6315E025
:103BF00023F070034A68134303E023F070034A681C
:103C0000134323F44073CA68134323F080034A69C3
:103C1000134303608B68C3620B68836201234361B3
:103C2000704723F070034A681343EAE7002C014011
:103C300040B310B5044690F83D30F3B1022384F848
:103C40003D30214651F8040BFFF7A4FF012384F80F
:103C5000463084F83E3084F83F3084F8403084F8B1
:103C6000413084F8423084F8433084F8443084F89A
:103C7000453084F83D30002010BD80F83C30FEF720
:103C8000DBFADBE70120704740B310B5044690F83B
:103C90003D30F3B1022384F83D30214651F8040B46
:103CA000FFF778FF012384F8463084F83E3084F82B
:103CB0003F3084F8403084F8413084F8423084F852
:103CC000433084F8443084F8453084F83D30002097
:103CD00010BD80F83C30FFF79AFEDBE7012070470B
:103CE00070B4036A026A22F01002026244688269B8
:103CF00022F4E6420D6842EA052223F020038D6893
:103D000043EA05130C4DA84206D0446082614A681C
:103D10008263036270BC704723F08003CD6843EA7E
:103D2000051323F0400324F440644D698E69354344
:103D300044EA8504E9E700BF002C014038B590F85B
:103D40003C30012B66D004460D46012380F83C3000
:103D50000C2A5AD8DFE802F0075959591B5959590A
:103D60003059595944000068FFF78AFD2268936969
:103D700043F0080393612268936923F0040393617D
:103D80002268936929690B43936100203EE0006833
:103D9000FFF7A6FF2268936943F4006393612268EA
:103DA000936923F48063936122689369296943EAE4
:103DB00001239361002029E00068FFF78BFD226852
:103DC000D36943F00803D3612268D36923F0040365
:103DD000D3612268D36929690B43D361002015E0C0
:103DE0000068FFF7A3FD2268D36943F40063D36141
:103DF0002268D36923F48063D3612268D369296977
:103E000043EA0123D361002000E00120002384F86D
:103E10003C3038BD0220FCE710B4846824F47F4CA9
:103E20000A4342EA032242EA0C02826010BC704755
:103E300090F83C30012B00F0AE8070B504460123B1
:103E400080F83C30022380F83D300268936823F408
:103E50007F4323F0770393600B68602B60D03DD8DD
:103E6000402B79D01CD9502B36D103684868CD68D7
:103E7000196A1A6A22F001021A629A6922F0F002A3
:103E800042EA051221F00A0101439A61196222688F
:103E9000936823F0700343F057039360002012E00F
:103EA000202B02D00BD9302B14D121688A6822F044
:103EB0007002134343F007038B60002003E033F0EC
:103EC0001002F2D00120012384F83D30002384F851
:103ED0003C3070BD0120F6E70120F4E7B3F5805FC8
:103EE00055D0B3F5005F0CD1CB684A68896800688B
:103EF000FFF792FF2268936843F4804393600020A9
:103F0000E1E7702B45D1CB684A6889680068FFF704
:103F100083FF2268936843F0770393600020D2E721
:103F200003684D68CE681A6A186A20F0100018629B
:103F3000996921F4704141EA063122F0A00242EA77
:103F4000051299611A622268936823F0700343F0A6
:103F5000670393600020B6E703684868CD68196A74
:103F60001A6A22F001021A629A6922F0F00242EA09
:103F7000051221F00A0101439A61196222689368CF
:103F800023F0700343F04703936000209BE7002079
:103F900099E7012097E70220704701F01F01036AAB
:103FA0004FF0010C0CFA01FC23EA0C030362036AD4
:103FB0008A401A430262704710B50446084601BBA6
:103FC00094F83E30DBB2012B52D1022384F83E300C
:103FD000012201462068FFF7E0FF2368264A93424A
:103FE00034D0B3F1804F38D0244A934235D002F513
:103FF0008062934231D01A6842F001021A600020B8
:1040000035E004290CD008290CBF94F8403094F80E
:104010004130DBB2013B18BF012343B1012026E050
:1040200094F83F30DBB2013B18BF0123F5E70428C9
:1040300008D008284FF002030CBF84F8403084F801
:104040004130C5E7022384F83F30C1E7536C43F4A5
:104050000043536423689342C3D19A6802F0070275
:10406000062A07D01A6842F001021A60002010BD2B
:104070000120FCE70020FAE7002C0140000400408A
:1040800038B504460D4600220068FFF786FF226817
:104090001B4B9A4214D02368196A41F21112114243
:1040A00008D1196A40F24442114203D11A6822F041
:1040B00001021A60ADB9012384F83E30002038BDFA
:1040C0001A6A41F211131A42E5D10D4B1A6A40F2F5
:1040D00044431A42DFD10A4A536C23F40043536429
:1040E000D9E7042D08D0082D4FF001030CBF84F848
:1040F000403084F84130E1E7012384F83F30DDE7C8
:10410000002C014090F83C30012B2BD030B401231F
:1041100080F83C30022380F83D3004686368A26870
:1041200023F070030D682B43636003680E4CA342B9
:104130000AD0B3F1804F07D0A4F59434A34203D042
:1041400004F58064A34204D122F0800249680A4346
:104150009A60012380F83D30002380F83C301846F7
:1041600030BC704702207047002C014070477047F8
:10417000026802F10C0353E8003F23F490730C3201
:1041800042E800310029F3D1026802F1140353E838
:10419000003F23F00103143242E800310029F3D13B
:1041A000036B012B05D0202380F8423000230363EA
:1041B0007047026802F10C0353E8003F23F010033C
:1041C0000C3242E800310029F3D1ECE710B5044687
:1041D0000268136923F44053C1680B4313610168FB
:1041E000CA688368006903436069034322F4B052DC
:1041F00022F00C021343CB602268536923F440730E
:10420000A1690B4353612268114B9A421BD0FFF7FF
:104210006BFA034603EB830303EB830362689200AC
:10422000B3FBF2F320680B49A1FB0342520964245B
:1042300004FB12331B013233A1FB0313120102EB07
:104240005313836010BDFFF75FFA0346E2E700BF38
:10425000003801401F85EB5160B310B5044690F85B
:10426000413013B3242384F841302268D36823F407
:104270000053D3602046FFF7A9FF2268136923F497
:10428000904313612268536923F02A035361226823
:10429000D36843F40053D36000206064202384F883
:1042A000413084F84230606310BD80F84030FEF742
:1042B00033F8D7E70120704790F84130DBB2202B6C
:1042C00010D189B192B101628284C2840023436417
:1042D000212280F841200168CA6842F08002CA6049
:1042E0001846704702207047012070470120704730
:1042F000704708B5406A0023C385C384FFF7F8FF01
:1043000008BD704710B50446226802F10C0353E85B
:10431000003F23F490730C3242E800310029F3D1BE
:10432000226802F1140353E8003F23F00103143222
:1043300042E800310029F3D1236B012B1CD0236804
:104340005B6913F0400F2ED0226802F1140353E88A
:10435000003F23F04003143242E800310029F3D13A
:10436000E36BB3B1154A5A63E06BFEF789FC18B3EF
:10437000E06B436B98471FE0226802F10C0353E89F
:10438000003F23F010030C3242E800310029F3D142
:10439000D5E70023E385202284F8422023632046CA
:1043A000FFF7AFFF08E00023E385202284F84220D6
:1043B00023632046FFF7A5FF002010BDC14300087E
:1043C00008B5406A0023C385202280F84220036399
:1043D000FFF797FF08BD704790F84230DBB2222B01
:1043E0001ED18368B3F5805F06D0826A83B103680B
:1043F0005B6803F07F031BE00369ABB9826A036863
:104400005B68C3F308031380836A0233836213E09B
:104410000369002BEBD108E000F084FF002048E0A6
:104420000220704700207047826A03685B68DBB235
:104430001370836A01338362C38D013B9BB2C385D2
:10444000002BEFD100B583B00268D36823F02003BE
:10445000D3600268D36823F48073D3600268536921
:1044600023F001035361202380F84230002343638B
:10447000036B012BD0D100230363026802F10C030C
:1044800053E8003F23F010030C3242E800310029CA
:10449000F3D103681A6812F0100F06D000220192BF
:1044A0001A6801925B680193019B818DFFF793FF6E
:1044B000002003B05DF804FB10B582B0044602682A
:1044C0001368D168506913F00F0F09D113F0200F52
:1044D0000DD011F0200F0AD02046FFF77DFF17E026
:1044E00000F0010001F4907C5CEA000C12D1206B1A
:1044F00001287FD013F0800F03D011F0800F40F01F
:10450000198113F0400F03D011F0400F40F03F81AC
:1045100002B010BD13F0010F06D011F4807F03D05C
:10452000626C42F00102626413F0040F2FD058B1A4
:10453000626C42F00202626413F0020F00F03281FA
:10454000626C42F00402626413F0080F07D001F0BD
:104550002002024303D0626C42F008026264626C83
:10456000002AD5D013F0200F02D011F0200F14D163
:1045700023685A69636C02F0400203F00803134396
:104580000FD12046FFF7B4FE00236364C0E713F0A9
:10459000020FD9D00028D7D0D2E72046FFF71CFF62
:1045A000E6E72046FFF7E4FD23685B6913F0400F60
:1045B0001CD0226802F1140353E8003F23F04003AB
:1045C000143242E800310029F3D1E36B53B1784A49
:1045D0005A63E06BFEF754FB002899D0E06B436B05
:1045E000984795E72046FFF783FE91E72046FFF7BF
:1045F0007FFE8DE713F0100F3FF47CAF11F0100F2A
:104600003FF478AF0023019313680193536801933B
:10461000019B536913F0400F50D0E26B13685B6845
:104620009BB2002B3FF474AFA18D99427FF670AF1F
:10463000E3859369202B37D0226802F10C0353E8FD
:10464000003F23F480730C3242E800310029F3D19B
:10465000226802F1140353E8003F23F001031432EF
:1046600042E800310029F3D1226802F1140353E833
:10467000003F23F04003143242E800310029F3D117
:10468000202384F8423000232363226802F10C03C4
:1046900053E8003F23F010030C3242E800310029B8
:1046A000F3D1E06BFEF7C9FA02236363E38DA18DBA
:1046B000C91A89B22046FFF78EFE29E7E38D9AB228
:1046C000E38D9BB2002B3FF423AFA38D9B1A99B2CD
:1046D00000293FF41DAF226802F10C0353E8003FAC
:1046E00023F490730C3242E800300028F3D12268A2
:1046F00002F1140353E8003F23F00103143242E8AF
:1047000000300028F3D1202384F8423000232363B3
:10471000226802F10C0353E8003F23F010030C322F
:1047200042E800300028F3D1022363632046FFF7FC
:1047300052FEEDE694F84130DBB2212B7FF4E8AE77
:10474000A368B3F5805F16D0236A591C21621B78D9
:104750005360E38C013B9BB2E384002B7FF4D8AE23
:104760002268D36823F08003D3602268D36843F0C3
:104770004003D360CCE62369002BE5D1236A1B8874
:10478000C3F308035360236A02332362E1E7D3686B
:1047900023F04003D360202384F84130204600F00A
:1047A00089FDB5E613F0080F7FF4D5AED7E600BF5C
:1047B000F342000881628285C2850023436422237C
:1047C00080F84230036923B10268D36843F48073F0
:1047D000D3600268536943F0010353610268D368F0
:1047E00043F02003D3600020704708B590F84230B2
:1047F000DBB2202B08D149B10AB9012008BD002342
:104800000363FFF7D7FFF9E70220F7E70120F5E799
:1048100010B50446084601F1FF3C5FFA8CFCBCF180
:10482000F60F2BD811461A46174B18700CB10224FC
:1048300025E0164B164C1C60164B174C1C60174B92
:10484000174C1C60174B184C1C60184B00241C6044
:10485000174B184C1C60184B184C1C60184B194C0B
:104860001C609DF8083000F0B9FA044638B900F031
:104870003DFC30B1144B01221A7000E002242046A6
:1048800010BD0324FBE700BF8D1700207817002020
:10489000294E00087C170020494E000870170020A0
:1048A000B14E00086C170020614E000874170020FC
:1048B00080170020394F000884170020C54F0008DA
:1048C00088170020315000080C00002008B5064B66
:1048D0001B78012B01D0062008BD044B1B689847AC
:1048E0000020014B1870F7E70C000020781700201B
:1048F00070B582B0364B1C78002C65D10DF10700E5
:1049000000F03CFC012802D0204602B070BD9DF8AA
:104910000730022B19D0042BF6D12E4B1E683178AC
:104920002D4B19702D4B01221A7000232C4D15F8B8
:10493000332022B191421ED00133102BF7D1294BE5
:104940001B78002B30D11C46DEE7274B1B68274A1B
:1049500020492448984705460028D5D1214B1B788B
:10496000234A12789A4201D0002B2FD1042000F064
:10497000C7FB2C46C8E71A4A02EBC3035B681B4916
:1049800030469847154B1870164B1B7853B158B9E1
:10499000184B1B68154A12880E490968144800789C
:1049A0009847B1E71C46AFE70B4B1A7809490D68E9
:1049B0000E4B01261E8062F07F022A7009681A8859
:1049C00095191D808854E3E706249DE704469BE77C
:1049D0000C000020901700208C1700206817002082
:1049E00010000020941700206C170020961700205C
:1049F0008D17002070170020B9B130B401F1FF3CD1
:104A00001FFA8CFC0CF1010C8444FF221146094D65
:104A1000094C10F8013B5340EA5C4A40E15C6045B8
:104A2000F7D142EA012030BC7047FF2242EA02205F
:104A3000704700BFE8790008E87A000838B50B88AD
:104A4000052B01D0032038BD0C46C378027942EA19
:104A50000322531E9BB240F2CE718B4225D890F8B0
:104A600001C0817800232380012303702388013350
:104A7000238012F0070F1DBFD5080135EDB2C2F338
:104A8000C705457023880133238041EA0C21013199
:104A9000002389B2023000F019FD18B923881D44A3
:104AA0002580D0E700F014FBCDE70320CBE70B888F
:104AB000052B01D00320704703790BBBC278531E2E
:104AC000DBB2FD2B1ED900B583B04378817800207E
:104AD0008DF80500FF2A14BF002201228DF8042062
:104AE00041EA0321013101231A4689B201A800F0ED
:104AF000EDFC10B903B05DF804FB00F0E9FAF9E74A
:104B000003207047032070470B88052B28D910B568
:104B10000C46C278037943EA022213F0070F1DBF47
:104B2000D1080131C9B2C2F3C701531E9BB2B3F51C
:104B3000F66F17D243798B4201D0032010BD437822
:104B4000817841EA03210131012389B2063000F066
:104B5000BDFC10B905232380F0E700F0B9FAEDE7BA
:104B6000032070470320E9E738B50B88052B01D0F7
:104B7000032038BD0C46C378027942EA0322531E53
:104B80009BB240F2CE718B4224D890F801C081785C
:104B9000002323800223037023880133238012F033
:104BA000070F1DBFD5080135EDB2C2F3C70545702B
:104BB00023880133238041EA0C21013189B202307C
:104BC00000F0F6FC18B923881D442580D1E700F0D9
:104BD0007FFACEE70320CCE708B50B88052B01D080
:104BE000032008BD4378817841EA03210131012384
:104BF0001A4689B2033000F01FFC0028F1D000F003
:104C000067FAEEE70B88052B21D910B50C46C3785F
:104C1000027942EA0322531E9BB2772B19D8530024
:104C20004179DBB2994201D0032010BD43788178ED
:104C300041EA03210131012389B2063000F0FCFB77
:104C400010B905232380F0E700F042FAEDE70320D6
:104C500070470320E9E738B50B88052B01D0032006
:104C600038BD0C46C378057945EA03256B1E9BB217
:104C70007C2B01D90320F3E790F801C08178002351
:104C80002380032202702288013222806A0042704F
:104C900022880132228041EA0C2101312A4689B260
:104CA000023000F0C9FB20B9238803EB45052580BD
:104CB000D6E700F00DFAD3E70B88092B45D92DE98B
:104CC000F04104460D46C378067946EA0326731E72
:104CD0009BB27C2B3BD8C379027A42EA0322531E53
:104CE0009BB2782B36D8437AB3EB420F01D0032026
:104CF0002EE090F8018087784379817941EA032199
:104D00000131012389B20A3000F096FB034610B14D
:104D100000F0DEF91CE02880172222702A88013278
:104D20002A80720062702A8801322A8047EA0821AC
:104D30000131324689B2A01C00F07EFB0028E7D189
:104D40002B8803EB46062E8002E0002070470320EC
:104D5000BDE8F0810320FBE738B50B88052B01D0B7
:104D6000032038BD0C46C378057945EA03256B1E40
:104D70009BB27B2B01D90320F3E742788178002393
:104D80002380042303702388013323806B00437046
:104D900023880133238041EA022101312A4689B266
:104DA000023000F01DFB20B9238803EB4505258068
:104DB000D7E700F08DF9D4E738B50D46054B1C88D0
:104DC00022460549013002F019FC01342C800020F4
:104DD00038BD00BFB81700209817002070B50D46E9
:104DE00014461E4600F080F9334608222146284624
:104DF00000F0EAF9012804D0032400F076F92046F7
:104E000070BDB4F5964F9DBF64000648B0FBF4F04A
:104E1000232080B200F09CFA01280CBF0024032458
:104E2000EBE700BFA07F170008B500F05DF9002197
:104E3000044B1970012000F0EBF900F08EFA00F03D
:104E400054F908BDBA17002008B500F04DF900214B
:104E5000084600F0DDF900F084FA00F046F908BDDC
:104E600070B506460D46144600F03EF90E4B1B8801
:104E70009BB2032B04D8052400F037F9204670BDFF
:104E8000094B198889B20948FFF7B6FD50B9074B9D
:104E900013F8012B3270044A1288033A22802B60E7
:104EA0000024E9E70524E7E7C0180020C017002028
:104EB0002DE9F04105460C46904600F015F9194BD6
:104EC0001B78DBB2012B05D0052400F00EF920463B
:104ED000BDE8F081601E144B1860144F01263E801F
:104EE00004F8015C3A88424492B23A80398889B227
:104EF000FFF782FD3B889BB29A1992B23A80C2B208
:104F00000B49CA543B889BB29A1992B23A80C0F3BB
:104F10000720C854074B1E703146002000F078F976
:104F20000024D2E7BA170020BC170020C2180020C6
:104F3000C0170020BB17002000B583B00DF107009B
:104F400000F0B0F91C4B1B78DBB2032B05D8DFE86F
:104F500003F0020B1D0800F000FA002003B05DF81A
:104F600004FB00F0FAF9F8E7144A002313801388D1
:104F70009BB2591C89B211809DF80710104AD15478
:104F80000D4B02221A7000F0E8F9E6E70B4B1B8884
:104F90009BB2FF2B0CD809490B889BB25A1C92B2CA
:104FA0000A809DF80710064AD15400F0D6F9D4E7DC
:104FB000014B03221A70F8E7BA170020C01800202E
:104FC000C017002010B5174B1B7803F0FF0423B166
:104FD000012C07D00024204610BD0021012000F044
:104FE00017F9F8E7104B1B889BB273B10F4C23687D
:104FF000187800F03FF92368013323600A4A1388C8
:10500000013B9BB213800024E5E7082000F078F80C
:1050100004460021012000F0FBF8024B00221A7028
:10502000D9E700BFBB170020C2180020BC17002022
:1050300010B50C4B1B785BB103F0FF02022A0CD0B9
:10504000002400F08EF9074B01221A70204610BD93
:10505000012000F055F80446F3E7022000F050F874
:105060000446EEE7BA17002030B5CC0804F1010E73
:105070004FF0010C0CFA02FC0CF1FF3C1FFA8CFC07
:10508000A1EBC4020CFA02FC10F80E50025D42EAD9
:10509000052222EA0C0201F007018B4013431BB2E8
:1050A0000355C3F3072300F80E3030BD4FEAD10C8F
:1050B0000CF10103C35C10F80C0040EA032001F07E
:1050C0000701084101239340013B1840C0B27047DB
:1050D000012805D0072805D0002818BF04207047F4
:1050E00002207047062070477047704708B5FCF7EC
:1050F000BDFA024B1860012008BD00BFC418002093
:1051000000B583B0014604281FD018D8431EDBB277
:10511000012B16D80023019301AA174B186800F041
:10512000A1FC70B1019B63B14FF0E0234FF08052BE
:10513000C3F8042DBFF34F8FBFF36F8F01E0082832
:1051400003D0012003B05DF804FB0023019301AA02
:10515000094B186800F086FC0028F2D0019B002B58
:10516000EFD04FF0E0234FF08052C3F8042DBFF38F
:105170004F8FBFF36F8FE4E7C418002030B583B0C2
:1051800005464FF0FF330093002301220F210D4C01
:10519000206800F08EFB431E072B07D8DFE803F0E2
:1051A0000409060C0606060F01232B70012003B02C
:1051B00030BD02232B70F9E704232B70F6E7082398
:1051C0002B70F3E7C418002008B5104A5160002185
:1051D000D160012B0AD0022B10D023B10B48FFF76E
:1051E0003BF8012008BD91601161F7E7074B4FF4D0
:1051F00080529A604FF4C0621A61EFE7034B4FF49C
:1052000080529A604FF480621A61E7E72C16002002
:1052100010B582B00C4690B1012212491248FFF736
:10522000E4FA00224FF480711048FDF755FF84B175
:1052300001210F4B186800F0C7FB02B010BD01221E
:105240004FF480710948FDF747FF0748FFF75AF808
:10525000EDE700230093012211460548006800F0A5
:1052600028FBEAE7C91800202C160020000801409E
:10527000CC18002000B583B08DF8070001224FF450
:1052800080710648FDF728FF01220DF1070104484F
:10529000FFF712F8012003B05DF804FB000801409D
:1052A0002C160020024B1B7803700120704700BFB2
:1052B000C818002000B583B00023019301AA012182
:1052C000094B186800F0CEFB58B1019B4BB14FF071
:1052D000E0234FF08052C3F8042DBFF34F8FBFF38C
:1052E0006F8F03B05DF804FBCC180020F0B583B0DD
:1052F000FCF7C2F9094B18601E464FF0FF35084F06
:1053000000240095234601221146306800F0D1FAAE
:105310000128F6D13B689847F2E700BFCC1800207F
:105320008417002008B506490A78064B1A70012236
:105330000548FFF75AFA054B1B68984708BD00BFA0
:10534000C9180020C81800202C1600208017002043
:1053500008B5FCF79DF9012008BD08B5FCF7A4F9D4
:1053600008BD08B5FCF7AEF908BD000008B5024B52
:105370001B68984708BD00BF88170020014B1870B4
:10538000704700BFD418002070B582B0012811D03A
:1053900070B90024114E0125E0B2FCF75BF9034619
:1053A0002A46A1B23046FFF75FFE0134042CF3D148
:1053B00002B070BD0024094E01252A46A1B2304634
:1053C000FFF774FE8DF807009DF80710E0B2FCF7B8
:1053D0003BF90134042CF0D1EAE700BFD0180020DB
:1053E000013989B204291ED9F8B58B180D2B1CDCA4
:1053F000104B1C880C1BA4B2CAB1851C224496B267
:10540000E7B23846FCF716FC000A05F8020C3846ED
:10541000FCF710FC05F8010C0134A4B20235B442CB
:10542000EED1002002E0012070470120F8BD0020ED
:10543000FCE700BF94000020013989B20C293AD959
:105440002DE9F04105461E468B182B2B35DC1E4BF3
:105450001C880C1BA4B2B6B1012E31D100206AB356
:1054600002351619B6B215F8021C15F8013C43EACC
:105470000121E0B2FCF7F6FB0134A4B20235B442DC
:10548000F1D100201AE0EAB1023522441FFA82F875
:10549000E7B23846FCF7C0FB000A05F8020C3846B4
:1054A000FCF7BAFB05F8010C0134A4B20235A045A3
:1054B000EED1304602E0012070470120BDE8F081C6
:1054C0000020FBE73046F9E792000020013989B25D
:1054D000002962D02DE9F84F054616461F468B1865
:1054E000052B5CDC4FEAD20808F101022E4B1C8828
:1054F0000C1BC4F3CC0B04F00704FFB1012F51D1F6
:10550000012A98BF814614D900EB08090746DFF845
:105510009CA0ABEB0005781980B217F8013B08227C
:1055200021465044FFF7A0FD4F45F4D1C3441FFA74
:105530008BFB16F0070227D1002031E00020FFF797
:1055400023FF08F10108A844A946DFF860A0ABEBEF
:1055500005054FF0080B09EB050080B25A462146BD
:105560005044FFF7A3FD09F8010BC145F3D106F044
:105570000706C6F1080218F8016C9640F6B216410B
:1055800008F8016C38460BE099F8003021460748CE
:105590005844FFF769FD002002E001207047012018
:1055A000BDE8F88F0020FBE790000020D018002015
:1055B0002DE9F0474D1EADB2AB18012B02DD0120E5
:1055C000BDE8F0871646154B1B88ED1AC5F3CC08CD
:1055D00005F0070500EBD20701370446DFF840A0CD
:1055E000A8EB00084FF0080904EB080080B24A4617
:1055F00029465044FFF75AFD04F8010BA742F3D1A6
:1056000006F00706C6F1080617F8013CB340DBB206
:1056100043FA06F607F8016C0020D1E7D6180020FF
:10562000D4180020EFF30583A3B9EFF31083A3B9D7
:105630000D4B1868022804D090B90B4B01221A6058
:105640007047EFF31183002B14BF6FF005004FF08C
:10565000FF3070476FF0050070476FF0050070472E
:105660004FF0FF30704700BF941B002008B5EFF3E8
:105670000583C3B9EFF31083C3B90F4B1B68022B2B
:1056800008D0012B15D10C4B02221A6000F074FFD8
:10569000002008BDEFF31183002B14BF6FF005004D
:1056A0004FF0FF30F5E76FF00500F2E76FF005000F
:1056B000EFE74FF0FF30ECE7941B0020F0B587B028
:1056C00000240494EFF30584D4B9EFF31083BBB93D
:1056D0002C4B1B68022B0FD090B100238DF8173094
:1056E000002A3AD0146874B193697BB11D46013B1E
:1056F000372B0CD9002004E0EFF31183002BEBD003
:10570000049807B0F0BD0DF11704EDE718255368B4
:1057100013F0010F34D1536913B14FEA930C01E038
:105720004FF0800C96688EB1D768BB2FE8D912690C
:10573000002AE5D0002BE3D00296019200950B469B
:105740006246214600F0ACFE0490D9E7D368002BF6
:10575000D6D11369002BD3D104E018254FF0800C6B
:105760000DF1170404AB019300950B461FFA8CF260
:10577000214600F0CFFE01281CBF00230493BFE7A1
:105780000020BEE7941B002008B5EFF30583A3B902
:10579000EFF31083A3B90C4B1B68022B02D040B966
:1057A000002008BDEFF31183002BF8D06FF0050047
:1057B000F7E701F059F80020F3E76FF00500F0E794
:1057C0006FF00500EDE700BF941B0020EFF30582AA
:1057D000F2B908B50346EFF31082DAB90E4A12683F
:1057E000022A07D073B1986850B1DB681F2B0CD820
:1057F000002009E0EFF31182002AF3D0002003E03B
:10580000DB680BB900F047F808BD00F01FF8FBE7B4
:10581000002070470020F7E7941B0020034B036033
:10582000034B0B6080231360704700BFD81A002021
:10583000D8180020034B0360034B0B604FF48073B8
:1058400013607047981F0020981B002080B110B58E
:1058500082B0044620230193019B202B11D04FF0EE
:10586000500383F31188BFF36F8FBFF34F8FFEE7B1
:105870004FF0500383F31188BFF36F8FBFF34F8F47
:10588000FEE7002340F8043B00F0F6F801232377FD
:10589000204602B010BD38B5202001F0BDFD044601
:1058A00028B1002540F8045B00F0E6F82577204693
:1058B00038BD2DE9F84378B10C4616461D4607461B
:1058C00011F07F4811D04FF0500383F31188BFF3DC
:1058D0006F8FBFF34F8FFEE74FF0500383F31188B4
:1058E000BFF36F8FBFF34F8FFEE741B94FF0500307
:1058F00083F31188BFF36F8FBFF34F8FFEE701F083
:105900006DF950B9089B43B14FF0500383F31188F0
:10591000BFF36F8FBFF34F8FFEE700F07BFED7F82A
:10592000009055BB14EA090F14BF0120002050BBA2
:10593000089B63B3002E18BF4FF080780DB148F07C
:105940008068089A48EA0401381D01F021F800F047
:1059500009FF48B94FF0E0234FF08052C3F8042DFF
:10596000BFF34F8FBFF36F8F01F090F9814610F0B6
:10597000007F11D029F07F490BE034EA09030CBF06
:1059800001200020D3E716B129EA04043C6000F0AE
:10599000E9FE4846BDE8F88301F0F4FBD7F8009033
:1059A00065B914EA090F14BF012300231BB116B116
:1059B00029EA04043C6001F007FCDBE734EA090350
:1059C0000CBF01230023F1E778B12DE9F0410E4629
:1059D000054611F07F4811D04FF0500383F3118832
:1059E000BFF36F8FBFF34F8FFEE74FF0500383F38A
:1059F0001188BFF36F8FBFF34F8FFEE700F10C07E5
:105A000000F008FE2C692B6833432B60A74218D1A5
:105A10002B6823EA08032B6000F0A4FE2868BDE889
:105A2000F081296832EA010109D113F0807F18BFA3
:105A300048EA0208296841F0007101F037F8A742EE
:105A4000E6D020466468036823F07F4213F0806F3D
:105A5000E7D129680A42E8D1F1E708B5FFF7B4FFBA
:105A600008BD000008B513460A460146014801F08A
:105A70001FFB08BD5B5A000800F1080343604FF0AC
:105A8000FF328260C360036100230360704700231C
:105A90000361704743684B609A688A6051609960FF
:105AA0000861036801330360704730B40D68B5F1D5
:105AB000FF3F11D000F108031C465B681A68AA4238
:105AC000FAD963684B6099608C6061600861036813
:105AD0000133036030BC70470469F2E70369416831
