:020000040800F2
:10000000005000208D220008252200082722000829
:10001000292200082B2200082D22000800000000E1
:10002000000000000000000000000000E175000872
:100030002F2200080000000081760008C576000825
:10004000D5220008D5220008D5220008D5220008B4
:10005000D5220008D5220008D5220008D5220008A4
:10006000D5220008D5220008D52200083122000838
:10007000D5220008D5220008D5220008D522000884
:10008000D5220008D5220008D5220008D522000874
:10009000D5220008D5220008D5220008D522000864
:1000A000D522000845220008D5220008D5220008E4
:1000B00055220008D522000865220008D522000834
:1000C000D5220008D5220008D5220008D522000834
:1000D000D522000879220008D5220008D522000880
:1000E000D5220008D5220008D52200080000000013
:1000F0000000000000000000000000000000000000
:0C01000000000000000000005FF808F1A3
:1001100010B5054C237833B9044B13B10448AFF341
:1001200000800123237010BD80000020000000002B
:10013000247C000808B5034B1BB103490348AFF307
:10014000008008BD0000000084000020247C00081E
:1001500070B54FF0FF0C4CF4E06C1CEA11541DBF5D
:100160001CEA135594EA0C0F95EA0C0F00F0DEF828
:100170002C4481EA030621EA4C5123EA4C5350EA0D
:10018000013518BF52EA033541F4801143F480135E
:1001900038D0A0FB02CE4FF00005E1FB02E506F0EF
:1001A0000042E0FB03E54FF00006E1FB03569CF044
:1001B000000F18BF4EF0010EA4F1FF04B6F5007F4A
:1001C00064F5407404D25FEA4E0E6D4146EB0606BC
:1001D00042EAC62141EA55514FEAC52040EA5E5045
:1001E0004FEACE2EB4F1FD0C88BFBCF5E06F1ED8EF
:1001F000BEF1004F08BF5FEA500E50F1000041EB26
:10020000045170BD06F0004646EA010140EA0200D2
:1002100081EA0301B4EB5C04C2BFD4EB0C0541EAF4
:10022000045170BD41F480114FF0000E013C00F309
:10023000AB8014F1360FDEBF002001F0004170BD2D
:10024000C4F10004203C35DA0C341BDC04F1140446
:10025000C4F1200500FA05F320FA04F001FA05F2D2
:1002600040EA020001F0004221F0004110EBD3709F
:1002700021FA04F642EB06015EEA430E08BF20EACB
:10028000D37070BDC4F10C04C4F1200500FA04F36E
:1002900020FA05F001FA04F240EA020001F0004100
:1002A00010EBD37041F100015EEA430E08BF20EA73
:1002B000D37070BDC4F1200500FA05F24EEA020EBB
:1002C00020FA04F301FA05F243EA020321FA04F0EA
:1002D00001F0004121FA04F220EA020000EBD370A1
:1002E0005EEA430E08BF20EAD37070BD94F0000FA1
:1002F0000FD101F00046400041EB010111F4801FD5
:1003000008BF013CF7D041EA060195F0000F18BF85
:10031000704703F00046520043EB030313F4801FC1
:1003200008BF013DF7D043EA0603704794EA0C0F7B
:100330000CEA135518BF95EA0C0F0CD050EA410691
:1003400018BF52EA4306D1D181EA030101F000410E
:100350004FF0000070BD50EA410606BF1046194636
:1003600052EA430619D094EA0C0F02D150EA013642
:1003700013D195EA0C0F05D152EA03361CBF104683
:1003800019460AD181EA030101F0004141F0FE4122
:1003900041F470014FF0000070BD41F0FE4141F4A6
:1003A000780170BD81F0004102E000BF83F000439E
:1003B00030B54FEA41044FEA430594EA050F08BF00
:1003C00090EA020F1FBF54EA000C55EA020C7FEAC4
:1003D000645C7FEA655C00F0E2804FEA5454D4EB41
:1003E0005555B8BF6D420CDD2C4480EA020281EA0B
:1003F000030382EA000083EA010180EA020281EA43
:100400000303362D88BF30BD11F0004F4FEA013194
:100410004FF4801C4CEA113102D0404261EB4101A3
:1004200013F0004F4FEA03334CEA133302D0524229
:1004300063EB430394EA050F00F0A780A4F10104E5
:10044000D5F1200E0DDB02FA0EFC22FA05F280181F
:1004500041F1000103FA0EF2801843FA05F3594105
:100460000EE0A5F120050EF1200E012A03FA0EFC84
:1004700028BF4CF0020C43FA05F3C01851EBE371AE
:1004800001F0004507D54FF0000EDCF1000C7EEBCB
:1004900000006EEB0101B1F5801F1BD3B1F5001F09
:1004A0000CD349085FEA30004FEA3C0C04F1010428
:1004B0004FEA445212F5800F80F09A80BCF1004F51
:1004C00008BF5FEA500C50F1000041EB045141EAD3
:1004D000050130BD5FEA4C0C404141EB0101013C9C
:1004E00028BFB1F5801FE9D291F0000F04BF01468B
:1004F0000020B1FA81F308BF2033A3F10B03B3F15D
:1005000020020CDA0C3208DD02F1140CC2F10C02EC
:1005100001FA0CF021FA02F10CE002F11402D8BF4A
:10052000C2F1200C01FA02F120FA0CFCDCBF41EA16
:100530000C019040E41AA2BF01EB0451294330BDE5
:100540006FEA04041F3C1CDA0C340EDC04F11404C2
:10055000C4F1200220FA04F001FA02F340EA030099
:1005600021FA04F345EA030130BDC4F10C04C4F1DF
:10057000200220FA02F001FA04F340EA03002946BF
:1005800030BD21FA04F0294630BD94F0000F83F409
:10059000801306BF81F480110134013D4EE77FEAEC
:1005A000645C18BF7FEA655C29D094EA050F08BF38
:1005B00090EA020F05D054EA000C04BF1946104619
:1005C00030BD91EA030F1EBF0021002030BD5FEA5D
:1005D000545C05D14000494128BF41F0004130BD85
:1005E00014F580043CBF01F5801130BD01F00045D9
:1005F00045F0FE4141F470014FF0000030BD7FEA4C
:10060000645C1ABF194610467FEA655C1CBF0B4646
:10061000024650EA013406BF52EA033591EA030F5D
:1006200041F4002130BD00BF90F0000F04BF002155
:10063000704730B54FF4806404F132044FF0000588
:100640004FF0000150E700BF90F0000F04BF002101
:10065000704730B54FF4806404F1320410F0004567
:1006600048BF40424FF000013EE700BF42004FEA62
:10067000E2014FEA31014FEA02701FBF12F07F43DF
:1006800093F07F4F81F06051704732F07F4208BF96
:10069000704793F07F4F04BF41F40021704730B59D
:1006A0004FF4607401F0004521F000411CE700BFE9
:1006B00050EA010208BF704730B54FF000050AE06C
:1006C00050EA010208BF704730B511F0004502D56D
:1006D000404261EB41014FF4806404F132045FEA6F
:1006E000915C3FF4D8AE4FF003025FEADC0C18BF18
:1006F00003325FEADC0C18BF033202EBDC02C2F10A
:10070000200300FA03FC20FA02F001FA03FE40EA9B
:100710000E0021FA02F11444BDE600BF4FEA410287
:10072000B2F1E04324BFB3F5001CDCF1FE5C0DD94F
:1007300001F0004C4FEAC0024CEA5070B2F1004F99
:1007400040EB830008BF20F00100704711F0804F9C
:1007500021D113F13872BCBF01F00040704741F461
:1007600080114FEA5252C2F11802C2F1200C10FA65
:100770000CF320FA02F018BF40F001004FEAC12349
:100780004FEAD32303FA0CFC40EA0C0023FA02F3ED
:100790004FEA4303CCE77FEA625307D150EA0133C3
:1007A0001EBF4FF0FE4040F44000704701F0004093
:1007B00040F0FE4040F40000704700BF80F0004071
:1007C00002E000BF81F0004142001FBF5FEA410329
:1007D00092EA030F7FEA226C7FEA236C6AD04FEA29
:1007E0001262D2EB1363C1BFD2184140484041406E
:1007F000B8BF5B42192B88BF704710F0004F40F420
:10080000000020F07F4018BF404211F0004F41F43B
:10081000000121F07F4118BF494292EA030F3FD007
:10082000A2F1010241FA03FC10EB0C00C3F120031A
:1008300001FA03F100F0004302D5494260EB4000A9
:10084000B0F5000F13D3B0F1807F06D340084FEA14
:10085000310102F10102FE2A51D2B1F1004F40EB09
:10086000C25008BF20F0010040EA03007047490071
:1008700040EB0000013A28BFB0F5000FEDD2B0FA0E
:1008800080FCACF1080CB2EB0C0200FA0CF0AABF31
:1008900000EBC25052421843BCBFD04018437047CF
:1008A00092F0000F81F4000106BF80F400000132D5
:1008B000013BB5E74FEA41037FEA226C18BF7FEAAC
:1008C000236C21D092EA030F04D092F0000F08BFEE
:1008D0000846704790EA010F1CBF0020704712F0D5
:1008E0007F4F04D1400028BF40F00040704712F114
:1008F00000723CBF00F50000704700F0004343F079
:10090000FE4040F4000070477FEA226216BF0846AE
:100910007FEA23630146420206BF5FEA412390EA71
:10092000010F40F4800070474FF0000304E000BF67
:1009300010F0004348BF40425FEA000C08BF704718
:1009400043F0964301464FF000001CE050EA0102DC
:1009500008BF70474FF000030AE000BF50EA0102F1
:1009600008BF704711F0004302D5404261EB4101DE
:100970005FEA010C02BF84460146002043F0B64303
:1009800008BFA3F18053A3F50003BCFA8CF2083A28
:10099000A3EBC25310DB01FA02FC634400FA02FC31
:1009A000C2F12002BCF1004F20FA02F243EB020038
:1009B00008BF20F00100704702F1200201FA02FC9A
:1009C000C2F1200250EA4C0021FA02F243EB02008D
:1009D00008BF20EADC7070474FF0FF0C1CEAD052D1
:1009E0001EBF1CEAD15392EA0C0F93EA0C0F6FD092
:1009F0001A4480EA010C400218BF5FEA41211ED070
:100A00004FF0006343EA501043EA5111A0FB01315B
:100A10000CF00040B1F5000F3EBF490041EAD37130
:100A20005B0040EA010062F17F02FD2A1DD8B3F1AC
:100A3000004F40EBC25008BF20F00100704790F01B
:100A4000000F0CF0004C08BF49024CEA502040EA6D
:100A500051207F3AC2BFD2F1FF0340EAC250704733
:100A600040F400004FF00003013A5DDC12F1190F71
:100A7000DCBF00F000407047C2F10002410021FAE3
:100A800002F1C2F1200200FA02FC5FEA310040F1FB
:100A9000000053EA4C0308BF20EADC70704792F074
:100AA000000F00F0004C02BF400010F4000F013AAC
:100AB000F9D040EA0C0093F0000F01F0004C02BFA7
:100AC000490011F4000F013BF9D041EA0C018FE716
:100AD0000CEAD15392EA0C0F18BF93EA0C0F0AD01C
:100AE00030F0004C18BF31F0004CD8D180EA010042
:100AF00000F00040704790F0000F17BF90F0004FDB
:100B0000084691F0000F91F0004F14D092EA0C0FBC
:100B100001D142020FD193EA0C0F03D14B0218BF4F
:100B2000084608D180EA010000F0004040F0FE4095
:100B300040F40000704740F0FE4040F44000704731
:100B40004FF0FF0C1CEAD0521EBF1CEAD15392EAB0
:100B50000C0F93EA0C0F69D0A2EB030280EA010CA0
:100B600049024FEA402037D04FF0805343EA111139
:100B700043EA10130CF000408B4238BF5B0042F197
:100B80007D024FF4000C8B4224BF5B1A40EA0C003C
:100B9000B3EB510F24BFA3EB510340EA5C00B3EB6E
:100BA000910F24BFA3EB910340EA9C00B3EBD10F5C
:100BB00024BFA3EBD10340EADC001B0118BF5FEAAE
:100BC0001C1CE0D1FD2A3FF650AF8B4240EBC250D7
:100BD00008BF20F0010070470CF0004C4CEA502098
:100BE0007F32C2BFD2F1FF0340EAC250704740F4E7
:100BF00000004FF00003013A37E792F0000F00F0D9
:100C0000004C02BF400010F4000F013AF9D040EA56
:100C10000C0093F0000F01F0004C02BF490011F4EA
:100C2000000F013BF9D041EA0C0195E70CEAD153E2
:100C300092EA0C0F08D142027FF47DAF93EA0C0FC9
:100C40007FF470AF084676E793EA0C0F04D14B02AD
:100C50003FF44CAF08466EE730F0004C18BF31F05F
:100C6000004CCAD130F000427FF45CAF31F0004359
:100C70007FF43CAF5FE700BF4FF0FF3C06E000BFF2
:100C80004FF0010C02E000BF4FF0010C4DF804CD15
:100C90004FEA40024FEA41037FEA226C18BF7FEA25
:100CA000236C11D001B052EA530C18BF90EA010F27
:100CB00058BFB2EB030088BFC81738BF6FEAE170B6
:100CC00018BF40F0010070477FEA226C02D15FEA52
:100CD000402C05D17FEA236CE4D15FEA412CE1D0BE
:100CE0005DF8040B704700BF844608466146FFE785
:100CF0000FB5FFF7C9FF002848BF10F1000F0FBD67
:100D00004DF808EDFFF7F4FF0CBF012000205DF85F
:100D100008FB00BF4DF808EDFFF7EAFF34BF0120E4
:100D200000205DF808FB00BF4DF808EDFFF7E0FF7D
:100D300094BF012000205DF808FB00BF4DF808EDCE
:100D4000FFF7D2FF94BF012000205DF808FB00BF31
:100D50004DF808EDFFF7C8FF34BF012000205DF813
:100D600008FB00BF42000ED2B2F1FE4F0BD34FF092
:100D70009E03B3EB126209D44FEA002343F0004311
:100D800023FA02F070474FF00000704712F1610F34
:100D900001D1420202D14FF0FF3070474FF0000006
:100DA000704700BF2DE9F843022833D80E461C4B8C
:100DB00013F810300BB90F462DE0194A02EB400032
:100DC000427894B2154603EB0208424526DA002722
:100DD000DFF8509004E00134A4B2254644451ADA05
:100DE00005EB450359F823103046FFF79DFF002817
:100DF000F1D06F0005EB450309EB830359683046DA
:100E0000FFF7EAFD2F4409EB8707B968FFF7DCFC21
:100E10000746E0E700273846BDE8F8830027FAE7F1
:100E2000A0000020A800002001291ED00346114A7E
:100E300012F8100098B910B40F4A12888C183C2C84
:100E400015D80C4C01F1FF3C04F813C004EB43032C
:100E50005A70013A1144084B198010BC704701398F
:100E6000884214BF022000207047032070470120F1
:100E7000F3E700BFA00000209C0000202DE9F04710
:100E800007460E4615461C46DDF820A0DDF82490E6
:100E900049465046FFF796FC804621462846FFF714
:100EA00091FC01464046FFF74BFE38602146504614
:100EB000FFF792FD074629464846FFF78DFD01469C
:100EC0003846FFF77FFC074629462046FFF77AFCA5
:100ED00001463846FFF734FE3060BDE8F087000079
:100EE000144B13F81030934201D802207047F0B52C
:100EF00083B00D460F4B03EB40004478224494B27C
:100F0000670004EB440080000B4E00F10801043040
:100F1000AB6801932B680093EB686A6831443044F6
:100F2000FFF7ACFFEB683C4446F82430002003B0E8
:100F3000F0BD00BFA0000020A800002070B584B064
:100F40001D460023019303930B2827D80446164619
:100F5000134B03EB001399734A1E18BF01221A7337
:100F6000104B53F830300093022911D00123029323
:100F70000C4B03EBC4036946586801F065FE084852
:100F800000EB0414A66065600020607304B070BDBF
:100F9000034B03EB001301229A73E7E70120F5E707
:100FA00080030020B87C000810B50B4C00232360A0
:100FB00022460221094B186804F082FD23684BB1D8
:100FC0004FF0E0234FF08052C3F8042DBFF34F8F52
:100FD000BFF36F8F10BD00BF400400204404002009
:100FE0002DE9F04182B09DF8205045B301EB430E4E
:100FF00000EB4200013DECB22344023101EB43041B
:10100000BDF824C04FEA4C0C00274FF003080D4DEB
:1010100008E0019BA5FB03235B082EF8023B02308E
:10102000A6450CD0019701464346019E0A883244EA
:101030000192013B614413F0FF03F6D1E9E702B0EE
:10104000BDE8F081ABAAAAAA84B003900B880293F2
:10105000029A039BC3EBC303DB00C82000FB0233EF
:10106000C3F30F23ADF80630BDF806300B80BDF892
:10107000060080B204B0704770B50446184E194996
:1010800001EB400136F81000FFF7DEFF054626F8B9
:101090001400FFF7D9FA10A3D3E90023FFF758F89B
:1010A000FFF73CFB0446C5F57F600F30FFF740FCBF
:1010B00001462046FFF744FD04460B49FFF748FE72
:1010C00020B92046FFF74EFE80B270BD48F6B8004A
:1010D000FBE700BFAFF30080000000000088C340C2
:1010E000700300206803002000B8084782B0002386
:1010F0000193094AA2F1C000019B5B000193019991
:1011000092F8BC3003F001030B430193103A824282
:10111000F2D1019802B07047800300202DE9F04F12
:1011200089B000F097FAA94B18600A231A460021EB
:101130000846FFF703FF0A231A4600210120FFF7A4
:10114000FDFE0A231A4600210220FFF7F7FE0A23BC
:101150001A4600210320FFF7F1FE0A231A46002158
:101160000420FFF7EBFE0A231A4600210520FFF7B3
:10117000E5FE0A231A4600210620FFF7DFFE0A23B8
:101180001A4600210720FFF7D9FE0A231A4600213C
:101190000820FFF7D3FE0A231A4600210920FFF793
:1011A000CDFE0A231A4600211846FFF7C7FE0A2380
:1011B0001A4600210B20FFF7C1FE0B210120FFF78B
:1011C00033FE834C002501266088FFF7ADFB0590B8
:1011D0002088FFF7A9FB0490E088FFF7A5FB0790A4
:1011E00034F8040FFFF7A0FB0690AAB204A930461A
:1011F000FFF776FE01350B2DE6D114210220FFF713
:1012000013FE744C002502266088FFF78DFB0590C5
:101210002088FFF789FB0490E088FFF785FB0790A3
:1012200034F8040FFFF780FB0690AAB204A93046F9
:10123000FFF756FE0135132DE6D1674A00231380D0
:10124000538093800293DFF894A19846ADF80E3056
:10125000DFF88CB14FF0010996E14446A2E100F0BD
:1012600003FD002840F0B181A9E14B465D4A1370AF
:10127000BBF8003013B15C4B1B7800E04B465B4A77
:101280001370BAF80030BBF8002013439BB23BB197
:10129000574B1B8801339BB2A3425FD2544A138041
:1012A000544C524B1A781021204601F00DFE4D4B44
:1012B0001A782021204601F007FE09224E494F48A6
:1012C00001F05EF9484605F065FC4D4B1B782BB9E3
:1012D000029B0133DBB20293322B49D0494C4A4D79
:1012E00004F1C00755E0BAF8003013B13E4B1B784B
:1012F00000E043463B4A1370404600F0E1FC0328FF
:1013000007D0BBF80030EBB1374B1B78374A13706E
:10131000B7E7404600F0C6FC0128F2D1BAF8003029
:1013200023B1314B1B78314A1370AAE7022000F039
:10133000B9FC0546032000F0B5FC854294BF0023AC
:101340000123F0E7022000F0ADFC0546032000F089
:10135000A9FC85428CBF00230123D7E7244BA3F8C7
:101360000080214A1378B3FA83F35B09137097E77F
:10137000234B83F800904946144B186804F052FB45
:10138000ACE7626816E0C4F8008010340835BC424F
:101390003CD02646A37B022BF7D02988686801F051
:1013A0008DFD627B8242EED0236801332360002AE8
:1013B000E7D1A2689342E8D9B37B83F0010303F03D
:1013C0000103434033737073DFE700BF4404002020
:1013D0003C7C0008687C0008680300207A03002039
:1013E0007C0300207803002077030020790300208D
:1013F0007E030020000801405403002090160020C6
:101400007603002080030020B87C00084FF0FF33F3
:1014100000934B46424602217E48006804F077FA6A
:101420007D4801F0F7F97D4C032301930093434677
:10143000424621467A48FFF7D3FDFFF757FEC0F337
:101440000111062000F048FCFFF750FE00F00F01EC
:10145000052000F041FCFFF749FEC0F38011042095
:1014600000F03AFCFFF742FEC0F3C011072000F085
:1014700033FC6C492088FFF7E7FD208040F6566377
:10148000984228BF1846962838BF9620A0F19603A8
:10149000654A82FB0312D917C1EB6211053189B28B
:1014A000022000F019FCFFF721FEC0F38121404625
:1014B00000F012FCFFF71AFEC0F30121484600F0CD
:1014C0000BFC0220FFF7D8FDA0F6AC539BB247F609
:1014D0000B3293423CD9072000F0E4FBC0B94846E8
:1014E000FFF7CAFDA0F6AD539BB247F60A3293420E
:1014F00079D94FF6FF71032000F0EEFB072000F0D2
:10150000DFFB40F0020189B2072000F0DFFB34E08E
:10151000072000F0D5FB40F0020189B2072000F05F
:10152000D5FB4846FFF7A8FDA0F6AD539BB247F6A2
:101530000A329342DDD8FFF7F7F901464846FFF734
:1015400031FCFFF70FFC81B2032000F0C5FB14E073
:10155000FFF7EAF901460220FFF724FCFFF702FC3F
:1015600081B2032000F0B8FB072000F0A9FB20F0B7
:10157000020189B2072000F0A9FBFFF7B7FDC0F315
:101580000111404600F0A2FBBDF80E30AAF8003071
:10159000ABF8003000F062FB00287FF45EAEAAF8E2
:1015A0000090FA2400F054FB10B9ABF80090FA2434
:1015B000072000F085FB10F0020F3FF450AEAAF8B0
:1015C0000090ABF800904FF4FA74404600F06AFBCC
:1015D00000287FF488AEBAF80030002B3FF445AE07
:1015E000124B1B7842E6FFF79FF901464846FFF78A
:1015F000D9FBFFF7B7FB81B2032000F06DFB07209A
:1016000000F05EFB20F0020189B2072000F05EFBD3
:10161000B3E700BF440400209016002070030020B0
:101620005403002068030020B71A3C4777030020CA
:1016300008B50A24204604F061F8FBE7014B18685E
:10164000704700BF9C180020014B1868704700BF0E
:10165000E4180020014B1868704700BFC018002034
:10166000014B1868704700BF7418002008B50A4B7A
:10167000D860184602F0CAF948B908484FF44863E0
:1016800043601423C36002F0C1F910B908BD72B6FB
:10169000FEE772B6FEE700BF041700209417002093
:1016A00010B5054C204602F087F8236800225A62E4
:1016B000204602F04DF810BD0417002008B502487E
:1016C00002F07AF808BD00BF0417002010B50446E8
:1016D000044802F071F8044B1C80044B00221A806D
:1016E00010BD00BF94170020781800207A18002041
:1016F00010B5064C204602F05FF8226800235362C2
:10170000034A1380204602F023F810BD94170020EE
:101710007A18002008B5034B00221A80024802F014
:101720004BF808BD7A1800209417002008B5084A25
:10173000138801339BB21380064A12889A4200D064
:1017400008BD034B00221A8003F012FEF8E700BF29
:101750007A1800207818002000B595B020220021CA
:101760000BA806F099F900230593069307930893B5
:101770000993019302930393049302230A93012292
:101780000E9210220F9211934FF4601313930AA834
:1017900001F0A0FBC8B90F23059302210691002395
:1017A00007934FF480620892099305A801F0D2FDD7
:1017B00068B9022301934FF40043039301A801F099
:1017C000BFFE30B915B05DF804FB72B6FEE772B625
:1017D000FEE772B6FEE7000080B592B000F07CFD37
:1017E000FFF7BAFF00240B940C940D940E94AD4DAA
:1017F000AB6943F01003AB61AB6903F010030193D5
:10180000019BAB6943F02003AB61AB6903F020039C
:101810000293029BAB6943F00403AB61AB6903F035
:1018200004030393039BAB6943F00803AB61AB690B
:1018300003F008030493049B9B4E22464FF49871D7
:10184000304601F041FB994F22464FF47041384633
:1018500001F03AFB4FF498730B934FF00109CDF868
:1018600030900D944FF00208CDF838800BA9304627
:1018700001F0EAF940F6FF730B930C940D940BA959
:10188000384601F0E1F94FF470430B93CDF83090F6
:101890000D94CDF838800BA9384601F0D5F94FF4F6
:1018A00000430B930C940D940BA9304601F0CCF936
:1018B0006B6943EA09036B616B6903EA09030093EF
:1018C000009B224605210B2000F0E6FF0B2001F0D3
:1018D00019F87748774B03604FF4E13343604FF4D6
:1018E00080538360C4604FF4C06303610C23436181
:1018F0008461C46102F0EAFA002840F040810023CC
:101900000B930C930D930E93079308936A484FF033
:10191000804202604FF44C62426083604FF47A72FE
:10192000C2600361836102F071F8002840F02981F0
:101930004FF480530B930BA95F4802F067F900281E
:1019400040F02181202307930023089307A95A48D8
:1019500002F012FA002840F0188100230B930C9338
:101960000D935648564A02604FF4807282600122FD
:10197000027303754FF46022C26143600323036165
:1019800000F0C4FE002840F0028100230B930123E5
:101990000C9304230D930BA9484800F0FFFC00288A
:1019A00040F0F78001230B9302230C930BA94348CB
:1019B00000F0F4FC002840F0EE8002230B93032398
:1019C0000C930BA93D4800F0E9FC002840F0E580AD
:1019D00000230793089309930A93059306930B93A7
:1019E0000C930D930E930F93109311933548364A31
:1019F00002600222426083604FF47A72C260036127
:101A0000836102F003F8002840F0C9804FF480534E
:101A1000079307A92B4802F0F9F8002840F0C1808D
:101A2000284802F01FF8002840F0BD8000230593ED
:101A3000069305A9234802F09FF9002840F0B580DD
:101A400060230B9300220C920D9204230F930BA999
:101A50001C4802F061F8002840F0A9804FF4FA73A6
:101A60000C9304220BA9174802F056F8002840F006
:101A7000A080144800F020FB00230B930C930D93DF
:101A80000E93079308931148114A02604FF4FA42EB
:101A9000426083604FF4FA62C2600361836101F0C7
:101AA000B5FF17E00010024000080140000C0140A3
:101AB000DC17002000380140041700209016002099
:101AC000002401404C17002000040040941700201F
:101AD0000008004000286ED14FF480530B930BA9EF
:101AE000384802F093F8002867D120230793002399
:101AF000089307A9334802F03FF900285FD103F0AB
:101B00004BFD314A0121084603F042FE2F4B18607D
:101B10002F4A00212F4803F08BFD2F4B18602F4ACE
:101B200000212F4803F084FD2E4B18602E4A00211F
:101B30002E4803F07DFD2E4B18602E4A00212E48C2
:101B400003F076FD2D4B18602D4A00212D4803F03F
:101B50006FFD2D4B18602D4803F0F2FD2C4B1860E3
:101B60002C4803F0EDFD2C4B18602C4803F0E8FDE9
:101B70002B4B186000F07EF803F032FDFEE772B6E2
:101B8000FEE772B6FEE772B6FEE772B6FEE772B621
:101B9000FEE772B6FEE772B6FEE772B6FEE772B611
:101BA000FEE772B6FEE772B6FEE772B6FEE772B601
:101BB000FEE772B6FEE772B6FEE772B6FEE772B6F1
:101BC000FEE700BF94170020387E0008741800203C
:101BD000147E0008311600088C160020847D000851
:101BE0001D11000884070020F07D0008C152000884
:101BF000CC130020A87D0008151D0008440C00200F
:101C0000CC7D0008E51C00080C110020487E00086F
:101C10009C180020687E0008E4180020587E000808
:101C2000C018002010B504460368B3F1804F04D0FB
:101C30002268054B9A4203D010BD03F099FBF7E7E9
:101C400000F05CFBF8E700BF002C014072B6FEE735
:101C5000014B1878704700BF0C190020014B187811
:101C6000704700BF0D190020014B1878704700BF66
:101C700026190020014B1860704700BF3C19002056
:101C800000B583B001464FF0FF33009301230022DB
:101C90000348006803F03BFE03B05DF804FB00BF9F
:101CA0003C190020024610B9034B01211970034B67
:101CB00033F81200704700BF0B19002028190020CC
:101CC000014B33F81000704710190020014B23F826
:101CD0001010704710190020014B23F810107047A6
:101CE0002819002008B50120FFF7CAFF01234FF48F
:101CF00096420021084602F0C5FB02F015FC0421C3
:101D0000034B186803F08EFE02F020FCFCE700BFD6
:101D10003C1900202DE9F04784B07C4B03F11E01F3
:101D200000221A705A7002338B42FAD10025784F84
:101D3000A8462E46DFF8DC91012403E00720FFF7D8
:101D40009FFF2546FE800A2004F024FF002DF5D0D9
:101D500089F80040704B1B88012B31D0022B33D007
:101D60005BB36D4B5B88012B38D0022B33D073B340
:101D7000694B9A88ADF80C20DB88ADF80E30674BC4
:101D80001B787BB3012BDCD1634B1B89002B37D134
:101D9000634B83F80080634B83F80080624B83F8C9
:101DA0000080624B1C705D4B83F80080604B1C70A0
:101DB000604B1C70604B1C70C3E7ADF80860D0E747
:101DC0000223ADF80830CCE7ADF80840C9E702239C
:101DD000ADF80A30CCE7ADF80A40C9E70323ADF807
:101DE0000A30C5E7CDF8008002AB04220D21404641
:101DF00002F0B2FDB0FA80F04009484B1870A0E73D
:101E00004346082205214948007802F07FFE042855
:101E10003DD800283ED1002845D0444B1B783B4A92
:101E200002EB43025278132A08D9384A02EB4302E4
:101E3000142151703A490A7801320A700133DBB239
:101E40003A4A1370344A52899A421CD2374B1C705A
:101E5000334A1378B3FA83F35B0937490B7082F87E
:101E60000080314A1378B3FA83F35B0931490B7070
:101E700082F800802B4A1378B3FA83F35B092C496C
:101E80000B7082F80080254B83F8008059E7062804
:101E90007FF457AF254B1A781C4B03EB42035A785B
:101EA00001325A70B7E7DFF884A09AF80030174A79
:101EB00002EB430282F80180013B414698B203F0F5
:101EC0005FFA05469AF800000138072180B203F056
:101ED00057FA114B9B89AB4203D0134A1378013355
:101EE0001370022D09D0042D07D010F0010F94D0EB
:101EF0000C4A1378013313708FE710F0020FF4D0FF
:101F0000084A137801331370EFE700BFEC18002084
:101F1000101900200B190020281900202419002076
:101F20000A19002025190020E818002000000020D0
:101F3000261900200D1900200C19002000B583B0CF
:101F4000114B9A6942F001029A619A6902F001020A
:101F50000092009ADA6942F08052DA61DB6903F09C
:101F600080530193019B00220F216FF0010000F0CC
:101F700093FC064A536823F0E06343F00073536018
:101F800003B05DF804FB00BF0010024000000140F8
:101F900010B586B00023029303930493059302685F
:101FA0001D4B9A4201D006B010BD044603F56C43A8
:101FB0009A6942F400729A619A6902F4007200927E
:101FC000009A9A6942F004029A619B6903F0040343
:101FD0000193019B072302930323039302A90F4854
:101FE00000F032FE0E480F4B036000234360836015
:101FF0008022C2604FF4807202614FF480624261BD
:102000008361C36100F08CFC18B9054B23625C62EC
:10201000C9E7FFF71BFEF8E7002401400008014074
:10202000C01600200800024000B585B00368B3F177
:10203000804F08D01D4A934219D01D4A934221D0A7
:1020400005B05DF804FB03F50433DA6942F00102E0
:10205000DA61DB6903F001030193019B0022052192
:102060001C2000F019FC1C2000F04CFCE8E7114B90
:10207000DA6942F00202DA61DB6903F002030293DB
:10208000029BDDE70B4BDA6942F00402DA61DB699F
:1020900003F004030393039B002205211E2000F09C
:1020A000FBFB1E2000F02EFCCAE700BF000400402E
:1020B000000800400010024000B587B000230293E2
:1020C00003930493059302680D4B9A4202D007B024
:1020D0005DF804FB03F503339A6942F004029A6148
:1020E0009B6903F004030193019BC0230293022325
:1020F00003930323059302A9024800F0A5FDE6E738
:10210000000400400008014030B587B0002302936E
:1021100003930493059302681B4B9A4201D007B0C6
:1021200030BD03F558439A6942F480429A619A6936
:1021300002F480420092009A9A6942F004029A6185
:102140009B6903F004030193019B4FF40073029316
:1021500002230393032305930C4D02A9284600F0A4
:1021600073FD4FF48063029300240394049402A946
:10217000284600F069FD22460521252000F08CFB51
:10218000252000F0BFFBCAE70038014000080140ED
:1021900030B589B004461E4B9A6942F400629A61D8
:1021A0009B6903F400630193019B02A903A801F05A
:1021B000A9F901F097F903461648174A026040F260
:1021C000E732C260154AA2FB03239B0C013B43602C
:1021D000002303618360836101F018FC054610B1A0
:1021E000284609B030BD0B4801F0B2FA0546002878
:1021F000F6D1192000F086FB0F2C01D90125EFE75D
:1022000000222146192000F047FB054B1C60E7E740
:102210000010024040190020002C014083DE1B43C7
:102220000C000020FEE7FEE7FEE7FEE7FEE7704752
:1022300008B5FEF7B9FE024800F066FC08BD00BF15
:10224000C016002008B5024801F0D4FA08BD00BF4E
:102250004019002008B5024801F0CCFA08BD00BFC3
:102260000417002008B5FFF761FA024801F0C2FA2E
:1022700008BD00BF9417002008B5024801F056FFC2
:1022800008BD00BFDC17002070470000FFF7FCFF0F
:102290000B480C490C4A002302E0D458C4500433C4
:1022A000C4188C42F9D3094A094C002301E0136099
:1022B0000432A242FBD305F0BBFBFFF78DFA704757
:1022C0000000002080000020A48100088000002081
:1022D000F03A0020FEE7000008B5074A136843F013
:1022E00010031360032000F0C5FA0F20FFF750FF22
:1022F000FFF724FE002008BD00200240034A1168B9
:10230000034B1B780B441360704700BF88190020F3
:1023100008000020014B1868704700BF8819002092
:10232000704708B5436A9A6A12F0500F1ED19A6A34
:1023300042F400729A621A68926802F46022B2F55E
:10234000602F03D01846FFF7EBFF08BD1A7B002A69
:10235000F8D19A6A22F480729A629A6A12F4805FC3
:10236000F0D19A6A42F001029A62EBE71B6A1B6B9A
:102370009847EAE7704708B5406AFFF7FBFF08BDDA
:10238000704708B5406A836A43F040038362C36ABA
:1023900043F00403C362FFF7F3FF08BD30B482B01B
:1023A0000022019290F82420012A00F09580034633
:1023B000012280F824204A68062A2DD80468606B20
:1023C00002EB8202053A4FF01F0C0CFA02FC20EAE5
:1023D0000C000D6805FA02F2024362630A68092ADA
:1023E0003AD91C68E06802EB42021E3A4FF0070C33
:1023F0000CFA02FC20EA0C008D6805FA02F2024396
:10240000E2600A68103A012A36D90020002283F8D7
:10241000242002B030BC70470C2A0ED80568286B07
:1024200002EB8202233A1F24944020EA04000C6845
:1024300004FA02F202432A63D0E70568E86A02EB75
:102440008202413A1F24944020EA04000C6804FAF6
:1024500002F20243EA62C1E71C68206902EB420211
:102460004FF0070C0CFA02FC20EA0C008D6805FA0C
:1024700002F202432261C4E71868184A904205D06C
:102480009A6A42F020029A620120BFE7926812F431
:10249000000F1DD11148826842F4000282600A6870
:1024A000102A01D00020B1E70D4A12680D49A1FBA6
:1024B0000212920C02EB820252000192019A4AB17E
:1024C000019A013A0192019A002AF9D100209DE770
:1024D00000209BE7002099E702209AE700240140B2
:1024E0000400002083DE1B4330B583B0002301933A
:1024F00003689A6812F0010F3BD104469A6842F0D3
:1025000001029A601C4B1B681C4AA2FB03239B0C14
:102510000193019B2BB1019B013B0193019B002B7C
:10252000F9D1FFF7F7FE054623689B6813F0010F0A
:1025300006D000201EE023689B6813F0010F16D11F
:10254000FFF7E8FE431B022BF5D923689B6813F0C5
:10255000010FF0D1A36A43F01003A362E36A43F0D2
:102560000103E362002384F82430012002E000200C
:1025700000E0002003B030BD0400002083DE1B43D8
:10258000F8B504460D4616460168424881425DD0C2
:10259000414B99425AD094F82430012B77D0012333
:1025A00084F824302046FFF79FFF074600286AD1B1
:1025B000A16A21F4706121F0010141F48071A162EE
:1025C0002268354B9A4248D0A36A23F48013A36251
:1025D000536813F4806F05D0A36A23F4405343F487
:1025E0008053A362A36A13F4805F1ABFE36A23F0E7
:1025F00006030023E362002384F82430236A274A79
:102600009A62236A264ADA62236A264A1A63236890
:102610006FF002021A602268936843F4807393603B
:10262000216833462A464C31206A00F0AFF923680E
:102630009A6802F46022B2F5602F9A680CBF42F4E7
:10264000A00242F480129A603846F8BD114B5B68D4
:1026500013F4702F9FD00127F6E7A3F580635B6822
:1026600013F4702FB0D0A36A43F48013A362094B14
:102670005B6813F4806FB5D0A36A23F4405343F42E
:102680008053A362AEE7002384F82430DCE70227FE
:10269000DAE700BF0024014000280140232300089E
:1026A000772300088323000838B503689A6812F07E
:1026B000010F01D1002038BD04469A6822F00102C2
:1026C0009A60FFF727FE054623689B6813F0010F09
:1026D00006D10020EFE723689B6813F0010F13D0A9
:1026E000FFF718FE431B022BF5D923689B6813F0F4
:1026F000010FF0D0A36A43F01003A362E36A43F032
:102700000103E3620120D6E70020D4E700287AD055
:1027100070B50446836A002B4FD02046FFF7C4FFF4
:10272000A36A13F0100368D1002866D1A26A22F4CC
:10273000885222F0020242F00202A262217B626809
:10274000E5692A4342EA4102A568B5F5807F04D0D5
:10275000012D14BF1D464FF48075267D012E32D009
:102760002668716821F46941294371602568AE6863
:10277000264931401143A960A168B1F5807F01D09D
:10278000012902D12369013B1B052568E96A21F46F
:1027900070010B43EB62236899681D4B0B409A4212
:1027A00022D0A36A23F0120343F01003A362E36A6A
:1027B00043F00103E362012024E0C36280F8243087
:1027C000FFF7E6FBA9E731B9A169013945EA4131D3
:1027D00041F40065C4E7A16A41F02001A162E16A09
:1027E00041F00101E162BBE70023E362A36A23F049
:1027F000030343F00103A36204E0A36A43F0100360
:10280000A362012070BD0120704700BFFDF7E1FF0A
:10281000FE0E1FFF90F82430012B28D010B504467F
:10282000012380F82430FFF73FFF50B922689368F6
:1028300023F480739360226A92F82130DBB2022B7A
:1028400003D0002384F8243010BD104600F0EDF8CA
:1028500040B9A36A23F4885323F0010343F0010332
:10286000A362EEE7A36A43F04003A362E9E7022014
:10287000704700000749CA68030203F4E06322F4CA
:10288000E0621204120C134343F0BF6343F40033BD
:10289000CB60704700ED00E000B5184BDB68C3F378
:1028A0000223C3F1070CBCF1040F28BF4FF0040C46
:1028B00003F1040EBEF1060F8CBF033B00234FF063
:1028C000FF3E0EFA0CFC21EA0C0199400EFA03F3CC
:1028D00022EA03021143002809DB0901C9B200F111
:1028E000604000F5614080F800135DF804FB00F0E3
:1028F0000F000901C9B2024B1954F6E700ED00E0E0
:1029000014ED00E0002808DB420900F01F0001235D
:1029100003FA00F0014B43F82200704700E100E0A9
:1029200060B310B402460168154B0B441548A0FB78
:1029300003031B099B001364134BD363022382F828
:102940002130086820F47F5020F0300053689468EC
:102950002343D4682343146923435469234394696C
:102960002343D469234303430B6000209063012376
:1029700082F8213082F8200010BC70470120704797
:10298000F8FFFDBFCDCCCCCC0000024090F820C0B9
:10299000BCF1010F47D04FF0010C80F820C090F837
:1029A00021C05FFA8CFCBCF1010F04D0002380F839
:1029B00020300220704770B4022480F821400024A7
:1029C000846305682C6824F001042C60C56B012425
:1029D000066CB4406C60046863604368102B12D0CE
:1029E000036899600368DA60C36A8BB10268136890
:1029F00043F00E0313600268136843F00103136091
:102A0000002070BC704703689A600368D960EBE7E8
:102A10000268136823F0040313600268136843F02C
:102A20000A031360E7E70220704790F82130DBB219
:102A3000022B06D004238363002380F8203001207A
:102A400070470268136823F00E031360026813686E
:102A500023F001031360C16B0122036C02FA03F33C
:102A60004B6080F82120002380F820301846704702
:102A700008B590F82130DBB2022B03D00423836326
:102A8000012008BD0268136823F00E03136002687A
:102A9000136823F0010313600368194A934213D0AB
:102AA000143293421ED0143293421DD014329342FA
:102AB0001DD0143293421DD0143293420CBF4FF4F8
:102AC00080134FF0807300E001230E4A536001230E
:102AD00080F82130002380F82030436B6BB1984799
:102AE0000020CEE71023F0E74FF48073EDE74FF4BA
:102AF0008053EAE74FF48033E7E70020C1E700BFE7
:102B0000080002400000024038B5C36B1A68046830
:102B10002568016C04238B40134234D015F0040F58
:102B200031D0236813F0200F03D1236823F004036E
:102B300023600368424A934213D01432934217D061
:102B40001432934216D01432934216D01432934268
:102B500016D0143293420CBF4FF480034FF08063C1
:102B600000E00423374A5360C36A03B1984738BD75
:102B70004023F7E74FF48063F4E74FF48043F1E735
:102B80004FF48023EEE702238B4013423BD015F035
:102B9000020F38D0236813F0200F06D1236823F0EA
:102BA0000A032360012380F821300368244A9342FA
:102BB00013D0143293421BD0143293421AD01432E1
:102BC00093421AD0143293421AD0143293420CBF5B
:102BD0004FF400134FF0007300E00223194A5360D2
:102BE000002380F82030836A002BC0D09847BEE7CE
:102BF0002023F3E74FF40073F0E74FF40053EDE7C1
:102C00004FF40033EAE7082303FA01F11142AED092
:102C100015F0080FABD0236823F00E032360C16BBF
:102C20000123026C03FA02F24A60836380F82130C8
:102C3000002380F82030036B002B98D0984796E74C
:102C400008000240000002402DE9F04F83B0D1F8A7
:102C50000090B9F1000F00F01F8100221346904E42
:102C6000904C914DDFF844E29446BAE04FF0000CEE
:102C700025E0A9450FD006D9F1450CD0DFF830A2E8
:102C8000D14508D01BE0DFF82CA2D14503D00AF5CE
:102C9000702AD1450FD1D1F808C0BCF1000F00F067
:102CA000EF80BCF1010F0CBFC0F81080C0F8148099
:102CB0004FF0080C03E0AAF5801AD145EBD0FF2FA6
:102CC00099BF8146924600F10409A2F1200AD9F881
:102CD00000804FF00F0B0BFA0AFB28EA0B080CFAE6
:102CE0000AFA48EA0A08C9F80080D1F8048018F006
:102CF000805F6FD0D6F8188048F00108C6F81880B9
:102D0000D6F8188008F00108CDF80480DDF80480BA
:102D100023F0030808F1804808F58038D8F808A0A7
:102D200003F003094FEA890B4FF00F0909FA0BF979
:102D30002AEA090ADFF88091484500F0A48009F5E5
:102D40008069484500F0A28009F58069484500F097
:102D5000A08009F5806948450CBF4FF003094FF08A
:102D6000040909FA0BF949EA0A09C8F80890D1F8E8
:102D7000048018F4801FD4F8088014BF48EA0708BC
:102D800028EA0708C4F80880D1F8048018F4001F66
:102D9000D4F80C8014BF48EA070828EA0708C4F8EA
:102DA0000C80D1F8048018F4003FD4F8048014BFDC
:102DB00048EA070828EA0708C4F80480D1F8048024
:102DC00018F4803FD4F8008014BF48EA070728EAC7
:102DD000070727600133D1F80090043239FA03F76E
:102DE0005AD04FF0010808FA03F808EA090738EA50
:102DF0000909EFD1D1F80490B9F1120F3FF639AFBC
:102E0000B9F1120F3FF65BAF0FF2040A5AF829F03E
:102E1000972C00085D2E00086D2E00086D2C000810
:102E2000BF2C0008BF2C0008BF2C0008BF2C0008D6
:102E3000BF2C0008BF2C0008BF2C0008BF2C0008C6
:102E4000BF2C0008BF2C0008BF2C0008BF2C0008B6
:102E5000BF2C0008632E0008772E0008D1F80CC0A4
:102E60002DE7D1F80CC00CF1040C28E7D1F80CC008
:102E70000CF1080C23E7D1F80CC00CF10C0C1EE788
:102E80004FF0040C1BE74FF000096AE74FF001090F
:102E900067E74FF0020964E703B0BDE8F08F00BFB9
:102EA0000010024000040140000022100000311018
:102EB000000032100000121000080140836819421F
:102EC00014BF0120002070470AB101617047090456
:102ED00001617047002800F001822DE9F04182B0C5
:102EE0000446036813F0010F2CD09F4B5B6803F07E
:102EF0000C03042B1DD09C4B5B6803F00C03082BC8
:102F000012D06368B3F5803F41D0002B55D103F157
:102F1000804303F504331A6822F480321A601A6879
:102F200022F480221A6037E08F4B5B6813F4803FF5
:102F3000E7D08D4B1B6813F4003F03D06368002B70
:102F400000F0CE81236813F0020F75D0864B5B68CA
:102F500013F00C0F5FD0844B5B6803F00C03082B5D
:102F600054D02369002B00F08A80804B01221A6024
:102F7000FFF7D0F905467C4E336813F0020F75D188
:102F8000FFF7C8F9401B0228F6D90320ADE1764AC5
:102F9000136843F480331360636843B3FFF7BAF9EF
:102FA0000546714E336813F4003FCBD1FFF7B2F9F9
:102FB000401B6428F6D9032097E1B3F5A02F09D070
:102FC000694B1A6822F480321A601A6822F480224F
:102FD0001A60E1E703F18043A3F53C331A6842F439
:102FE00080221A601A6842F480321A60D4E7FFF730
:102FF00091F905465C4E336813F4003FA2D0FFF709
:1030000089F9401B6428F6D903206EE1564B5B68B2
:1030100013F4803FA5D1544B1B6813F0020F03D06B
:103020002369012B40F05E814F4A1368616923F0E8
:10303000F80343EAC1031360236813F0080F3DD07F
:10304000A369002B66D0494B0122C3F88024FFF707
:1030500061F90546444E736A13F0020F21D1FFF760
:1030600059F9401B0228F6D903203EE13E4A136875
:10307000616923F0F80343EAC1031360DCE73B4BCB
:1030800000221A60FFF746F90546374E336813F001
:10309000020FD1D0FFF73EF9401B0228F6D90320DA
:1030A00023E1334B1B68334AA2FB03235B0A0193E2
:1030B00000BF019B5A1E0192002BF9D1236813F027
:1030C000040F00F09B80284BDB6913F0805F34D144
:1030D000254BDA6942F08052DA61DB6903F08053F4
:1030E0000093009B0125244B1B6813F4807F26D09E
:1030F000E368012B42D0002B58D103F1804303F544
:1031000004331A6A22F001021A621A6A22F00402D7
:103110001A6238E0154B0022C3F88024FFF7FAF852
:103120000546114E736A13F0020FC7D0FFF7F2F88D
:10313000401B0228F6D90320D7E00025D3E70E4A2A
:10314000136843F480731360FFF7E4F806460A4FF0
:103150003B6813F4807FCBD1FFF7DCF8801B642839
:10316000F6D90320C1E000BF001002400000424237
:1031700004000020D34D6210007000405E4A136AC4
:1031800043F001031362E36833B3FFF7C3F8064665
:10319000594F41F288383B6A13F0020F2DD1FFF7E7
:1031A000B9F8801B4045F6D903209EE0052B09D0D5
:1031B000514B1A6A22F001021A621A6A22F00402C2
:1031C0001A62E0E74C4B1A6A42F004021A621A6A69
:1031D00042F001021A62D6E7FFF79CF80646464F16
:1031E00041F288383B6A13F0020F06D0FFF792F8DD
:1031F000801B4045F6D9032077E0E5B9E369002B51
:1032000072D03D4A526802F00C02082A56D0022BB6
:1032100017D03A4B00221A66FFF77CF80446364D69
:103220002B6813F0007F47D0FFF774F8001B0228CB
:10323000F6D9032059E0304AD36923F08053D36193
:10324000DCE72E4B00221A66FFF764F805462A4E8B
:10325000336813F0007F06D0FFF75CF8401B0228AC
:10326000F6D9032041E0236AB3F5803F1AD0224902
:103270004A68236A606A034322F4741213434B6062
:103280001E4B01221A66FFF745F804461A4D2B68BB
:1032900013F0007F0ED1FFF73DF8001B0228F6D98E
:1032A000032022E0144A536823F40033A1680B433F
:1032B0005360DCE7002018E0002016E0012B17D057
:1032C0000D4B5B6803F48031226A914212D103F402
:1032D0007013606A181A18BF012006E001207047B9
:1032E000012002E0012000E0002002B0BDE8F081F2
:1032F0000120FAE70120F8E70010024000004242F6
:103300000F4B5B6803F00C02082A01D00D48704790
:10331000C3F383420C49885C13F4803F0BD0084B05
:103320005B68084A02FB00F0C3F34043074AD35CE2
:10333000B0FBF3F07047064B03FB00F0704700BF93
:103340000010024000127A00907E0008A07E000863
:1033500000093D00002800F0A2802DE9F0410D4653
:103360000446534B1B6803F007038B420BD2504AB1
:10337000136823F007030B431360136803F007037C
:103380008B4240F08E80236813F0020F17D013F0A9
:10339000040F04D0474A536843F4E0635360236842
:1033A00013F0080F04D0434A536843F4605353604A
:1033B000404A536823F0F003A1680B43536023682D
:1033C00013F0010F31D06268012A20D0022A25D0E3
:1033D000384B1B6813F0020F65D036494B6823F059
:1033E000030313434B60FEF795FF0646314F41F24E
:1033F00088387B6803F00C036268B3EB820F14D04B
:10340000FEF788FF801B4045F3D9032045E0294B98
:103410001B6813F4003FE0D101203EE0254B1B6800
:1034200013F0007FD9D1012037E0214B1B6803F056
:103430000703AB420AD91E4A136823F007032B4344
:103440001360136803F00703AB422ED1236813F017
:10345000040F06D0174A536823F4E063E1680B4376
:103460005360236813F0080F07D0124A536821698C
:1034700023F4605343EAC1035360FFF741FF0D4B50
:103480005B68C3F303130C4AD35CD8400B4B186042
:103490000B4B1868FEF77CFE0020BDE8F081012090
:1034A00070470120F9E70120F7E70120F5E700BFA9
:1034B0000020024000100240787E00080400002036
:1034C0000C000020044B5B68C3F30223034AD35C67
:1034D000034A1068D840704700100240887E0008F8
:1034E00004000020044B5B68C3F3C223034AD35C8F
:1034F000034A1068D840704700100240887E0008D8
:10350000040000200F2303600B4B5A6802F00302F3
:1035100042605A6802F0F00282605A6802F4E06287
:10352000C2605B68DB0803F4E0630361034B1B6864
:1035300003F007030B6070470010024000200240B8
:103540002DE9F04182B00446036813F0010F36D034
:103550003F4BDB6913F0805F49D13D4BDA6942F0A4
:103560008052DA61DB6903F080530193019B0125EE
:10357000384B1B6813F4807F3BD0354B1B6A13F428
:10358000407313D0626802F440729A420ED0304AFF
:10359000136A23F4407030490126C1F840640026C4
:1035A000C1F84064106213F0010F36D1284A136A43
:1035B00023F4407361680B431362002D3ED12368EE
:1035C00013F0020F06D0224A536823F44043A16847
:1035D0000B435360236813F0100F34D01C4A536818
:1035E00023F48003E1680B43536000202CE00025A6
:1035F000BEE7184A136843F480731360FEF78AFE2F
:103600000646144F3B6813F4807FB6D1FEF782FE66
:10361000801B6428F6D9032016E0FEF77BFE0646E1
:103620000B4F41F288383B6A13F0020FBED1FEF710
:1036300071FE801B4045F6D9032005E0D36923F0D5
:103640008053D361BBE7002002B0BDE8F08100BF2A
:1036500000100240007000400000424270B4036A53
:10366000026A22F0010202624468826922F0730257
:103670000D682A4323F002038D682B430B4DA842AB
:1036800006D0446082614A684263036270BC70473E
:1036900023F00803CD682B4323F0040324F4407483
:1036A0004D698E6935432C43EBE700BF002C014088
:1036B00070B4036A026A22F4807202624468C269CA
:1036C00022F073020D682A4323F400738D6843EAE5
:1036D00005230C4DA84206D04460C2614A68C2630B
:1036E000036270BC704723F40063CD6843EA05238E
:1036F00023F4806324F440544D698E69354344EAD1
:103700000514E9E7002C014030B4036A026A22F490
:10371000805202624468C26922F4E6420D6842EABD
:10372000052223F400538D6843EA0533074DA84270
:1037300006D04460C2614A680264036230BC7047CC
:1037400024F480444D6944EA8514F2E7002C0140DA
:1037500090F83D30DBB2012B27D1022380F83D30B9
:103760000268D36843F00103D3600368114A9342AF
:1037700010D0B3F1804F0DD0A2F59432934209D00E
:1037800002F58062934205D01A6842F001021A6085
:10379000002070479A6802F00702062A07D01A68CC
:1037A00042F001021A60002070470120704700209B
:1037B000704700BF002C01400268D36823F001036A
:1037C000D3600368196A41F21112114208D1196AD3
:1037D00040F24442114203D11A6822F001021A60F9
:1037E000012380F83D3000207047704770477047D4
:1037F0007047704710B5044603681A6912F0020F4B
:1038000011D0DA6812F0020F0DD06FF002021A61C7
:103810000123037703689B6913F0030F70D0FFF750
:10382000E6FF0023237723681A6912F0040F12D0F1
:10383000DA6812F0040F0ED06FF004021A6102234E
:10384000237723689B6913F4407F5FD02046FFF7FE
:10385000CEFF0023237723681A6912F0080F12D0D5
:10386000DA6812F0080F0ED06FF008021A61042314
:1038700023772368DB6913F0030F4ED02046FFF750
:10388000B6FF0023237723681A6912F0100F12D0B5
:10389000DA6812F0100F0ED06FF010021A610823D0
:1038A00023772368DB6913F4407F3DD02046FFF780
:1038B0009EFF0023237723681A6912F0010F03D0BB
:1038C000DA6812F0010F36D123681A6912F0800FFE
:1038D00003D0DA6812F0800F34D123681A6912F02D
:1038E000400F03D0DA6812F0400F32D123681A6912
:1038F00012F0200F03D0DA6812F0200F30D110BD83
:10390000FFF774FF2046FFF773FF8AE72046FFF7B3
:103910006DFF2046FFF76CFF9BE72046FFF766FF31
:103920002046FFF765FFACE72046FFF75FFF204624
:10393000FFF75EFFBDE76FF001021A612046FEF758
:1039400071F9C1E76FF080021A61204600F049FA70
:10395000C3E76FF040021A612046FFF74AFFC5E750
:103960006FF020021A61204600F03AFAC7E7000023
:103970000368254A904214D0B0F1804F2BD0A2F5B5
:103980009432904222D002F58062904237D023F0E8
:1039900080034A69134303608B68C3620B688362C8
:1039A0002AE023F070034A68134323F44073CA6883
:1039B000134323F080034A69134303608B68C36297
:1039C0000B6883620A69104B1A6315E023F07003D9
:1039D0004A68134303E023F070034A68134323F457
:1039E0004073CA68134323F080034A69134303609A
:1039F0008B68C3620B68836201234361704723F0C5
:103A000070034A681343EAE7002C014040B310B545
:103A1000044690F83D30F3B1022384F83D3021464E
:103A200051F8040BFFF7A4FF012384F8463084F813
:103A30003E3084F83F3084F8403084F8413084F8D8
:103A4000423084F8433084F8443084F8453084F8B8
:103A50003D30002010BD80F83C30FEF7E5FADBE792
:103A60000120704740B310B5044690F83D30F3B1E3
:103A7000022384F83D30214651F8040BFFF778FF0C
:103A8000012384F8463084F83E3084F83F3084F8CF
:103A9000403084F8413084F8423084F8433084F870
:103AA000443084F8453084F83D30002010BD80F863
:103AB0003C30FFF79AFEDBE70120704770B4036AE1
:103AC000026A22F0100202624468826922F4E6422D
:103AD0000D6842EA052223F020038D6843EA0513AE
:103AE0000C4DA84206D0446082614A68826303623A
:103AF00070BC704723F08003CD6843EA051323F0C0
:103B0000400324F440644D698E69354344EA8504DA
:103B1000E9E700BF002C014038B590F83C30012B9C
:103B200066D004460D46012380F83C300C2A5AD852
:103B3000DFE802F0075959591B5959593059595959
:103B400044000068FFF78AFD2268936943F0080388
:103B500093612268936923F0040393612268936957
:103B600029690B43936100203EE00068FFF7A6FF40
:103B70002268936943F4006393612268936923F494
:103B80008063936122689369296943EA0123936101
:103B9000002029E00068FFF78BFD2268D36943F01D
:103BA0000803D3612268D36923F00403D361226838
:103BB000D36929690B43D361002015E00068FFF742
:103BC000A3FD2268D36943F40063D3612268D369FB
:103BD00023F48063D3612268D369296943EA01230E
:103BE000D361002000E00120002384F83C3038BD80
:103BF0000220FCE710B4846824F47F4C0A4342EAB4
:103C0000032242EA0C02826010BC704790F83C30FC
:103C1000012B00F0AE8070B50446012380F83C30E3
:103C2000022380F83D300268936823F47F4323F039
:103C3000770393600B68602B60D03DD8402B79D020
:103C40001CD9502B36D103684868CD68196A1A6AA6
:103C500022F001021A629A6922F0F00242EA051289
:103C600021F00A0101439A6119622268936823F0E6
:103C7000700343F057039360002012E0202B02D022
:103C80000BD9302B14D121688A6822F070021343BB
:103C900043F007038B60002003E033F01002F2D002
:103CA0000120012384F83D30002384F83C3070BDAE
:103CB0000120F6E70120F4E7B3F5805F55D0B3F5B6
:103CC000005F0CD1CB684A6889680068FFF792FFF3
:103CD0002268936843F4804393600020E1E7702BEF
:103CE00045D1CB684A6889680068FFF783FF22687E
:103CF000936843F0770393600020D2E703684D6830
:103D0000CE681A6A186A20F010001862996921F4C6
:103D1000704141EA063122F0A00242EA051299619F
:103D20001A622268936823F0700343F0670393607C
:103D30000020B6E703684868CD68196A1A6A22F05D
:103D400001021A629A6922F0F00242EA051221F099
:103D50000A0101439A6119622268936823F0700393
:103D600043F04703936000209BE7002099E7012080
:103D700097E702207047000090F83C30012B2BD0D1
:103D800030B4012380F83C30022380F83D300468D1
:103D90006368A26823F070030D682B4363600368B7
:103DA0000E4CA3420AD0B3F1804F07D0A4F594344F
:103DB000A34203D004F58064A34204D122F0800220
:103DC00049680A439A60012380F83D30002380F857
:103DD0003C30184630BC704702207047002C014030
:103DE00070477047026802F10C0353E8003F23F468
:103DF00090730C3242E800310029F3D1026802F1DD
:103E0000140353E8003F23F00103143242E8003169
:103E10000029F3D1036B012B05D0202380F8423019
:103E2000002303637047026802F10C0353E8003F6C
:103E300023F010030C3242E800310029F3D1ECE703
:103E400010B504460268136923F44053C1680B435C
:103E500013610168CA6883680069034360690343AA
:103E600022F4B05222F00C021343CB602268536953
:103E700023F44073A1690B4353612268114B9A42AA
:103E80001BD0FFF71FFB034603EB830303EB830306
:103E900062689200B3FBF2F320680B49A1FB034276
:103EA0005209642404FB12331B013233A1FB0313B8
:103EB000120102EB5313836010BDFFF713FB03469F
:103EC000E2E700BF003801401F85EB5160B310B539
:103ED000044690F8413013B3242384F8413022681B
:103EE000D36823F40053D3602046FFF7A9FF22686C
:103EF000136923F4904313612268536923F02A0362
:103F000053612268D36843F40053D3600020606497
:103F1000202384F8413084F84230606310BD80F87B
:103F20004030FEF7F1F8D7E70120704790F84130B4
:103F3000DBB2202B10D189B192B101628284C2849C
:103F400000234364212280F841200168CA6842F0BE
:103F50008002CA60184670470220704701207047EF
:103F600001207047704708B5406A0023C385C384A9
:103F7000FFF7F8FF08BD704710B50446226802F14C
:103F80000C0353E8003F23F490730C3242E80031F5
:103F90000029F3D1226802F1140353E8003F23F013
:103FA0000103143242E800310029F3D1236B012BC5
:103FB0001CD023685B6913F0400F2ED0226802F1F9
:103FC000140353E8003F23F04003143242E8003169
:103FD0000029F3D1E36BB3B1154A5A63E06BFEF7E6
:103FE00047FD18B3E06B436B98471FE0226802F16E
:103FF0000C0353E8003F23F010030C3242E8003179
:104000000029F3D1D5E70023E385202284F842205C
:1040100023632046FFF7AFFF08E00023E38520225B
:1040200084F8422023632046FFF7A5FF002010BD3F
:104030003540000808B5406A0023C385202280F877
:1040400042200363FFF797FF08BD704790F84230A6
:10405000DBB2222B1ED18368B3F5805F06D0826A63
:1040600083B103685B6803F07F031BE00369ABB9AE
:10407000826A03685B68C3F308031380836A0233B0
:10408000836213E00369002BEBD108E001F034F9FF
:10409000002048E00220704700207047826A0368D1
:1040A0005B68DBB21370836A01338362C38D013BAB
:1040B0009BB2C385002BEFD100B583B00268D368F3
:1040C00023F02003D3600268D36823F48073D360A5
:1040D0000268536923F001035361202380F84230C2
:1040E00000234363036B012BD0D1002303630268D9
:1040F00002F10C0353E8003F23F010030C3242E8B6
:1041000000310029F3D103681A6812F0100F06D0AD
:10411000002201921A6801925B680193019B818DD4
:10412000FFF793FF002003B05DF804FB10B582B0E9
:10413000044602681368D168506913F00F0F09D163
:1041400013F0200F0DD011F0200F0AD02046FFF7FA
:104150007DFF17E000F0010001F4907C5CEA000CA8
:1041600012D1206B01287FD013F0800F03D011F003
:10417000800F40F0198113F0400F03D011F0400F71
:1041800040F03F8102B010BD13F0010F06D011F4D2
:10419000807F03D0626C42F00102626413F0040F6E
:1041A0002FD058B1626C42F00202626413F0020F29
:1041B00000F03281626C42F00402626413F0080F76
:1041C00007D001F02002024303D0626C42F00802E3
:1041D0006264626C002AD5D013F0200F02D011F077
:1041E000200F14D123685A69636C02F0400203F077
:1041F000080313430FD12046FFF7B4FE0023636486
:10420000C0E713F0020FD9D00028D7D0D2E720465C
:10421000FFF71CFFE6E72046FFF7E4FD23685B6934
:1042200013F0400F1CD0226802F1140353E8003F42
:1042300023F04003143242E800310029F3D1E36B4C
:1042400053B1784A5A63E06BFEF712FC002899D00C
:10425000E06B436B984795E72046FFF783FE91E7B5
:104260002046FFF77FFE8DE713F0100F3FF47CAF81
:1042700011F0100F3FF478AF0023019313680193FE
:1042800053680193019B536913F0400F50D0E26BC8
:1042900013685B689BB2002B3FF474AFA18D994209
:1042A0007FF670AFE3859369202B37D0226802F147
:1042B0000C0353E8003F23F480730C3242E80031D2
:1042C0000029F3D1226802F1140353E8003F23F0E0
:1042D0000103143242E800310029F3D1226802F1CF
:1042E000140353E8003F23F04003143242E8003146
:1042F0000029F3D1202384F842300023236322686D
:1043000002F10C0353E8003F23F010030C3242E8A3
:1043100000310029F3D1E06BFEF787FB02236363D2
:10432000E38DA18DC91A89B22046FFF78EFE29E7D9
:10433000E38D9AB2E38D9BB2002B3FF423AFA38DA4
:104340009B1A99B200293FF41DAF226802F10C03B9
:1043500053E8003F23F490730C3242E80030002809
:10436000F3D1226802F1140353E8003F23F0010364
:10437000143242E800300028F3D1202384F8423080
:1043800000232363226802F10C0353E8003F23F06B
:1043900010030C3242E800300028F3D1022363639B
:1043A0002046FFF752FEEDE694F84130DBB2212BB8
:1043B0007FF4E8AEA368B3F5805F16D0236A591C7A
:1043C00021621B785360E38C013B9BB2E384002B9A
:1043D0007FF4D8AE2268D36823F08003D3602268CC
:1043E000D36843F04003D360CCE62369002BE5D1CA
:1043F000236A1B88C3F308035360236A02332362D2
:10440000E1E7D36823F04003D360202384F84130F0
:10441000204600F039FFB5E613F0080F7FF4D5AE63
:10442000D7E600BF673F000881628285C28500230E
:104430004364222380F84230036923B10268D368C1
:1044400043F48073D3600268536943F001035361FE
:104450000268D36843F02003D3600020704708B59A
:1044600090F84230DBB2202B08D149B10AB90120C3
:1044700008BD00230363FFF7D7FFF9E70220F7E742
:104480000120F5E710B510B10224204610BD0C46FE
:104490001146154A15481060154A16481060164A0C
:1044A00016481060164A17481060174A002010601E
:1044B000164A17481060174A17481060174A1848DC
:1044C00010601A46204600F08DFB04460028DCD11F
:1044D00000F060FD18B1134B01221A7000E00324B4
:1044E00000F0EEFDD1E700BF9C1900201D4C000834
:1044F000A01900203D4C000894190020A54C00088C
:1045000090190020554C000898190020A41900208B
:10451000414D0008A8190020D94D0008AC19002011
:10452000614E00081000002008B5064B1B78012BD7
:1045300001D0062008BD044B1B6898470020014BA2
:104540001870F7E7100000209C19002070B582B0A9
:104550006B4B1B7813B1032B40F0CD800DF106009F
:1045600000F080FD012803D00024204602B070BD79
:10457000BDF80630013B0F2B00F2BF80DFE803F0EF
:10458000080DBD27BDBDBD78BDBDBDBDBDBDBD89CF
:104590005B4B03221A700024E7E75A4B1B685A4A08
:1045A0005A495B489847044628B9594B1A78594BE1
:1045B0001B789A4207D0584B01221A70102000F045
:1045C000F3FC0024D1E7042000F0EEFCCDE74F4BD4
:1045D0001B681A7851490120087093F900100029CE
:1045E00011DB00244E4911F8343023B19A4216D021
:1045F0000134102CF7D1484B02221A70102000F021
:10460000D3FC0024B1E75A78444B1A70434B1C7812
:10461000002CF0D100F092FD00F066FDA5E7414BC3
:1046200001221A7000F080FC68B93D4B03EBC40412
:1046300063683549354A10689847384B1870394BCC
:1046400000221A70E2E700F063FC2F4B188001256E
:10465000304E334B03EBC404646835702A492B4B4E
:104660001868A0472D4B18700135112DF5D1E6E7DC
:10467000264C204600F040FC2B4B1D68254B1E7835
:10468000246800F045FC024621463046A847002435
:104690006BE7214B1C781D4800F02EFC012C12D03A
:1046A000022C1CD01CB100F01FFD00245DE7194B4B
:1046B0001C78164B1D6800F02BFC0246294620464C
:1046C00000F01EFDEFE7134B1C78104B1D6800F047
:1046D0001FFC02462946204600F01CFDE3E70D4B77
:1046E0001C780A4B1D6800F013FC02462946204640
:1046F00000F01AFDD7E7062437E7002435E700BFAE
:104700001000002090190020B6190020B0190020D8
:10471000B5190020B41900208D1900208C19002033
:10472000A47E0008B819002094190020014B1878C5
:10473000704700BFB4190020014B1870704700BFCC
:10474000B4190020014B1870704700BF8D1900206C
:10475000B9B130B401F1FF3C1FFA8CFC0CF1010C33
:104760008444FF221146094D094C10F8013B534087
:10477000EA5C4A40E15C6045F7D142EA012030BC86
:104780007047FF2242EA0220704700BF247F0008E2
:104790002480000830B583B005460C4600F0C4FB09
:1047A00048BB2388012B29D901A800F0A5FB019B58
:1047B000DA78197941EA022211F0070F07D0D108FF
:1047C0000131C9B26878884207D0032014E00AB9E1
:1047D000032011E0C2F3C701F4E75878997841EA61
:1047E00000210131002389B2A81C00F03BFE18B162
:1047F00000F0C2FB00E0002003B030BD0320FBE767
:104800000B88052B01D00320704703790BBBC278BE
:10481000531EDBB2FD2B1ED900B583B043788178DF
:1048200000208DF80500FF2A14BF002201228DF818
:10483000042041EA0321013101231A4689B201A86B
:1048400000F010FE10B903B05DF804FB00F094FB1B
:10485000F9E7032070470320704710B582B0044683
:104860000B88052B02D000F05FFB40B301A800F0DD
:1048700043FBE278237943EA022213F0070F09D0C1
:10488000D3080133DBB201984179994208D0032063
:1048900002B010BD0AB90320FAE7C2F3C703F2E77A
:1048A0006378A17841EA03210131012389B20630FE
:1048B00000F0D8FD0028EBD000F05EFBE8E7032015
:1048C000E6E730B583B005460C4600F02DFB40BB53
:1048D0002388012B28D901A800F00EFB019BDA7870
:1048E000197941EA022211F0070F07D0D1080131EE
:1048F000C9B26878884207D0032013E00AB90320C0
:1049000010E0C2F3C701F4E75878997841EA002132
:10491000013189B2A81C00F0F3FD18B100F02CFBA6
:1049200000E0002003B030BD0320FBE708B50B8892
:10493000052B01D0032008BD4378817841EA03218B
:10494000013101231A4689B2033000F055FD0028D9
:10495000F1D000F011FBEEE7102801D902207047DA
:10496000F0B583B005460F4614461E46089800F081
:10497000AFFB10B9052003B0F0BD01A800F0BCFAF0
:104980002846FFF7D9FE019B10221A703A0A019BB4
:104990005A70019B9F70230A019AD370019BE2B267
:1049A0001A7152005A710633019394B1B11E651EFB
:1049B000ADB206EB450531F8023F1B0A0198421CD7
:1049C000019203700A88019B581C01901A70A94239
:1049D000F1D1E01C400080B200F094FA082000F011
:1049E000E3FA00F0B5FBC6E700B583B00B88052BF2
:1049F00002D000F099FAF0B101A800F07DFA019818
:104A0000C378027942EA03224379B3EB420F03D021
:104A1000032003B05DF804FB4378817841EA032169
:104A20000131012389B2063000F0E6FC0028F0D005
:104A300000F0A2FAEDE70320EBE730B583B00546BE
:104A40000C4600F071FAF8B92388012B1FD901A890
:104A500000F052FA019BD9781A7952EA012218D053
:104A60006978B1EB420F01D003200EE058789978B5
:104A700041EA00210131002389B2A81C00F0BCFCEE
:104A800018B100F079FA00E0002003B030BD032037
:104A9000FBE70320F9E7F0B583B005460C4600F0CC
:104AA00043FA80BB2388012B2ED901A800F024FAF9
:104AB0000198C378047944EA03246B78B3EB440F7C
:104AC00001D0032020E04778867890F807C043792A
:104AD000817941EA0321027A0131012342EA0C2261
:104AE00089B20A3000F088FC034610B100F044FAA5
:104AF0000AE046EA07210131224689B2A81C00F0EB
:104B00007BFC08B1F2E7002003B0F0BD102801D90A
:104B10000220704770B582B004460E46154618460E
:104B200000F0D6FA10B9052002B070BD01A800F05F
:104B3000E3F92046FFF700FE019B04221A70320AB7
:104B4000019B5A70019B9E702A0A019BDA70019B9F
:104B50001D71052000F0D6F9082000F025FA00F0BC
:104B6000F7FAE1E730B583B005460C4600F0DCF912
:104B7000F0B92388012B1ED901A800F0BDF9019BD3
:104B8000D9781A7952EA012217D06978B1EB420F2D
:104B900001D003200DE05878997841EA00210131D5
:104BA00089B2A81C00F0F4FB18B100F0E5F900E0B0
:104BB000002003B030BD0320FBE70320F9E700002D
:104BC00038B50D46054B1C8822460549013002F0D8
:104BD00055FF01342C80002038BD00BFDC190020B7
:104BE000BC19002070B504460D46164600F0D0F9F9
:104BF000334608222946204600F0D0FA012804D086
:104C0000032400F0C6F9204670BD642000F08AFB42
:104C100001280CBF00240324F3E7000008B500F0CE
:104C2000B7F90021044B1970012000F0E3FA00F0FD
:104C30007EFB00F0AEF908BDDF19002008B500F0DA
:104C4000A7F90021084600F0D5FA00F08BFB00F030
:104C5000A0F908BD70B506460D46144600F098F957
:104C60000E4B1B889BB2032B04D8052400F091F94E
:104C7000204670BD094B198889B20948FFF768FDC5
:104C800050B9074B13F8012B3270044A1288033ACB
:104C900022802B600024E9E70524E7E7E61B0020DB
:104CA000E81900202DE9F04110283CD804460E46B2
:104CB000154600F06DF91D4B1B78DBB2012B05D0BA
:104CC000052400F066F92046BDE8F081701E184BFF
:104CD0001860184F4FF00108A7F8008006F8014C43
:104CE0003A882A4492B23A80398889B2FFF730FD77
:104CF0003B889BB203EB080292B23A80C2B20E49E3
:104D0000CA543B889BB203EB080292B23A80C0F3CC
:104D10000720C854094B83F800804146002000F06A
:104D200069FA0024CDE70224CDE700BFDF19002097
:104D3000E4190020EA1B0020E81A0020E0190020F6
:104D400000B583B00DF1070000F096FA1E4B1B78FA
:104D5000DBB2032B05D8DFE803F0020B210800F0DB
:104D6000E6FA002003B05DF804FB00F0E0FAF8E793
:104D700000F0F8FA0023154A1370154A13801388BF
:104D80009BB2591C89B211809DF80710114AD15469
:104D90000D4B02221A7000F0CAFAE2E70C4B1B8896
:104DA0009BB2FF2B0CD80A490B889BB25A1C92B2BB
:104DB0000A809DF80710074AD15400F0B8FAD0E7EE
:104DC000014B03221A70F8E7DF190020E0190020D8
:104DD000E61B0020E819002010B51C4B1B782BB1F6
:104DE00003F0FF02012A06D0002010BD002101209F
:104DF00000F000FAF8E7164B1B889BB26BB1154C1C
:104E00002368187800F028FA236801332360104AD9
:104E10001388013B9BB21380E6E70F4B1B78B3FA74
:104E200083F35B090D4C23700021012000F0E2F9AF
:104E3000064B02221A702378DBB2012B02D000F05D
:104E400087FAD1E700F07AFACEE700BFE019002038
:104E5000EA1B0020E4190020E81A0020EC1B0020C7
:104E600010B5214B1B78DBB2022B1CD0032B1FD0BB
:104E7000A3B100241C4B01221A701C4B1B78DBB21F
:104E8000022B1ED0194B00221A7000F06BFA184B3F
:104E90001B78DBB2022B21D0204610BD012000F090
:104EA00083F80446E6E7022000F07EF80446E1E7D6
:104EB0000120FFF747FC4FF4806000F075F80446CE
:104EC000D8E70C4B1B78002BDCD10020FFF73AFC15
:104ED0004FF4806000F068F80446D3E74FF40070A8
:104EE00000F062F80446D7E7DF190020E01900203F
:104EF000DE190020EC1B0020014B0360704700BF4F
:104F0000E91A0020014B1880704700BFE81B002001
:104F1000014B188880B27047E81B0020014B1870C5
:104F2000704700BFDE190020014B1878704700BFA2
:104F3000EC1B002030B5CC0804F1010E4FF0010C41
:104F40000CFA02FC0CF1FF3C1FFA8CFCA1EBC40232
:104F50000CFA02FC10F80E50025D42EA052222EA29
:104F60000C0201F007018B4013431BB20355C3F33E
:104F7000072300F80E3030BD012805D0072805D0E2
:104F8000002818BF04207047022070470620704791
:104F90007047704708B5FCF751FB024B18600120C1
:104FA00008BD00BFF01B002000B583B001464028BB
:104FB00029D00AD9B0F5007F4ED01FD9B0F5806F47
:104FC00025D10023019310212FE0431E9BB21F2BFC
:104FD0001DD8431E1F2B1AD8DFE803F01D1D19151D
:104FE0001919191519191919191919151919191939
:104FF000191919191919191919191915802802D00F
:10500000B0F5807F03D1164B186800F00BFD01202E
:1050100003B05DF804FB00230193B0F5007F19D0C5
:10502000B0F5806F14BF0146102101AA0C4B18681F
:1050300000F046FD0028EAD0019B002BE7D04FF09E
:10504000E0234FF08052C3F8042DBFF34F8FBFF31E
:105050006F8FDCE70421E8E7002301930421E4E7F4
:10506000F01B002030B583B005464FF0FF330093AE
:10507000002301221F21114C206800F048FC431E30
:105080000F2B0BD8DFE803F0080D0A100A0A0A13E9
:105090000A0A0A0A0A0A0A1601232B80012003B011
:1050A00030BD02232B80F9E704232B80F6E7082389
:1050B0002B80F3E710232B80F0E700BFF01B0020CC
:1050C00008B5FCF7CDFA014B186008BDF41B0020B1
:1050D00008B50146034B186801F0B8F8B0FA80F043
:1050E000400908BDF41B002008B500231A461946E4
:1050F0000248006800F0C6FE08BD00BFF41B002097
:1051000008B54021024B186800F08CFC08BD00BFB8
:10511000F01B002008B58021024B186800F082FCCB
:1051200008BD00BFF01B002008B54FF48071024B92
:10513000186800F077FC08BDF01B002008B520219E
:10514000024B186800F06EFC08BD00BFF01B002089
:1051500000B583B04FF0FF330093002301224FF4DA
:10516000F0710D48006800F0D2FB80280FD008D8FD
:1051700020280ED0402814BF3720042003B05DF84B
:1051800004FBB0F5807F14BF37200620F6E703202C
:10519000F4E70020F2E700BFF01B002038B50D4611
:1051A0001C46FCF751FA114B1860114B5D60002250
:1051B000DA60012C0AD0022C10D024B10C48FEF782
:1051C00085FE012038BD9A601A61F7E7084B4FF45D
:1051D00080529A604FF4C0621A61EFE7044B4FF4BB
:1051E00080529A604FF480621A61E7E7FC1B00204E
:1051F000DC17002010B582B00C4690B10122124994
:105200001248FFF72CF900224FF480711048FDF787
:105210005BFE84B101210F4B186800F003FC02B063
:1052200010BD01224FF480710948FDF74DFE07487B
:10523000FEF7A2FEEDE70023009301221146054888
:10524000006800F064FBEAE7F91B0020DC1700208F
:1052500000080140FC1B002000B583B08DF807005A
:1052600001220DF107010348FEF760FE012003B0A3
:105270005DF804FBDC170020024B1B780370012053
:10528000704700BFF81B002000B583B000230193D6
:1052900001AA0121094B186800F012FC58B1019BCA
:1052A0004BB14FF0E0234FF08052C3F8042DBFF311
:1052B0004F8FBFF36F8F03B05DF804FBFC1B002022
:1052C000F0B583B0FCF7C0F9094B18601E464FF0EB
:1052D000FF35084F012400952346224621463068B9
:1052E00000F015FB0128F6D13B689847F2E700BFB4
:1052F000FC1B0020A819002008B506490A78064BB7
:105300001A7001220548FFF7AAF8054B1B68984759
:1053100008BD00BFF91B0020F81B0020DC1700208F
:10532000A419002008B5FCF7A1F9012008BD08B5B3
:105330000020FFF7F3FDFCF7B3F908BD08B5022024
:10534000FFF7ECFDC820FCF7C1F9FCF7D1F908BD67
:1053500008B50120FFF7E2FD6420FCF7B7F9FCF780
:10536000C7F908BD08B5FCF7A9F9FCF7D3F908BDE2
:1053700008B5024B1B68984708BD00BFAC19002058
:1053800001EBC001014B33F811007047E41F00200E
:1053900070B505460C461646FFF7C8F9631E9BB26A
:1053A000042B1FD99A190D2A1EDC114A12889B1A48
:1053B0009BB2DEB101380401A81C1E44B6B20D4DEB
:1053C00004EB430110F8022C12026A5210F801CCCF
:1053D00042EA0C026A5201339BB20230B342EFD16F
:1053E000002000E0012070BD0120FCE70020FAE76A
:1053F00016000020E41F002070B505460C46164636
:10540000FFF794F9631E9BB20C2B21D99A192B2A12
:1054100020DC124A12889B1A9BB2EEB10138C0EB15
:1054200000108100A81C1E44B6B20D4D01EB4304D0
:1054300010F8022C12022A5310F801CC42EA0C0296
:105440002A5301339BB20230B342EFD1002000E077
:10545000012070BD0120FCE70020FAE714000020C5
:10546000241C00202DE9F04F83B006460C469046E0
:10547000FFF75CF9013CA4B2C4B304EB0803052BAD
:1054800038DC4FEAD80201921B4F07441B4B1B88A4
:10549000E41AC4F3CC0B04F00704531C012B1AD9F3
:1054A00006EB02093546ABEB06064FF0080AA819D1
:1054B00080B215F8013B524621463844FFF73AFDC9
:1054C0004D45F4D1019B5B441FFA83FB18F00702A2
:1054D00003D100200BE0B146F8E799F800302146EF
:1054E00007EB0B00FFF726FD002000E0012003B0D2
:1054F000BDE8F08F0120FAE7FF1B0020120000201A
:105500002DE9F04F83B006460D469046FFF70EF9A1
:10551000013DADB205EB0803012B03DD012003B013
:10552000BDE8F08F4FEAD8020192194F0744194B9A
:105530001B88ED1AC5F3CC0B05F00705531C012B96
:105540001AD906EB02093446ABEB06064FF0080AFF
:10555000A01980B214F8013B524629463844FFF79F
:10556000E9FC4C45F4D1019B5B441FFA83FB18F026
:10557000070203D10020D2E7B146F8E799F80030DE
:10558000294607EB0B00FFF7D5FC0020C7E700BF5B
:105590000F1C0020201C0020EFF30583A3B9EFF3BC
:1055A0001083A3B90D4B1868022804D090B90B4B97
:1055B00001221A607047EFF31183002B14BF6FF0C4
:1055C00005004FF0FF3070476FF0050070476FF037
:1055D000050070474FF0FF30704700BFA023002048
:1055E00008B5EFF30583C3B9EFF31083C3B90F4BCD
:1055F0001B68022B08D0012B15D10C4B02221A601C
:1056000001F050F9002008BDEFF31183002B14BF07
:105610006FF005004FF0FF30F5E76FF00500F2E79F
:105620006FF00500EFE74FF0FF30ECE7A02300201C
:10563000F0B587B000240494EFF30584D4B9EFF3F8
:105640001083BBB92C4B1B68022B0FD090B10023E9
:105650008DF81730002A3AD0146874B193697BB181
:105660001D46013B372B0CD9002004E0EFF31183DA
:10567000002BEBD0049807B0F0BD0DF11704EDE757
:105680001825536813F0010F34D1536913B14FEA51
:10569000930C01E04FF0800C96688EB1D768BB2F59
:1056A000E8D91269002AE5D0002BE3D002960192D6
:1056B00000950B466246214601F088F80490D9E730
:1056C000D368002BD6D11369002BD3D104E0182561
:1056D0004FF0800C0DF1170404AB019300950B46BD
:1056E0001FFA8CF2214601F0ABF801281CBF002301
:1056F0000493BFE70020BEE7A023002008B5EFF326
:105700000583A3B9EFF31083A3B90C4B1B68022BDD
:1057100002D040B9002008BDEFF31183002BF8D070
:105720006FF00500F7E701F035FA0020F3E76FF0BE
:105730000500F0E76FF00500EDE700BFA0230020B3
:10574000EFF30582F2B908B50346EFF31082DAB938
:105750000E4A1268022A07D073B1986850B1DB680C
:105760001F2B0CD8002009E0EFF31182002AF3D0A0
:10577000002003E0DB680BB900F0BBF808BD00F0C7
:1057800093F8FBE7002070470020F7E7A0230020F4
:1057900070B582B0EFF30583002B46D10E46154657
:1057A000EFF31083002B44D1324B1B68022B0CD03B
:1057B000002840D0B04240D3002D4AD0AC6854B14C
:1057C000EB684F2B3BD8002430E0EFF31183002B24
:1057D000EED000242AE0EB6843BB012842D103222B
:1057E0000021012000F0E5FA0446FCB186B905B1BC
:1057F0002D682946204600F0FDFD17E003230093A5
:10580000234600221146012000F07DFA0446ECE711
:1058100000231A461946204600F034FB0128E6D042
:10582000204600F011FE002400E00024204602B0D3
:1058300070BD0024FAE70024F8E70024F6E7012809
:10584000DCD02246314600F0DCFA04460028CFD1F5
:10585000ECE70128C3D0314600F0F6FA04460028F0
:10586000E4D0C6E7314600F0EFFA04460028BFD185
:10587000DCE700BFA0230020034B0360034B0B6059
:1058800080231360704700BFE4220020E420002042
:10589000034B0360034B0B604FF48073136070473E
:1058A000A4270020A423002080B110B582B00446B4
:1058B00020230193019B202B11D04FF0500383F341
:1058C0001188BFF36F8FBFF34F8FFEE74FF0500388
:1058D00083F31188BFF36F8FBFF34F8FFEE7002371
:1058E00040F8043B00F0F6F801232377204602B08D
:1058F00010BD38B5202001F0CFFF044628B10025A7
:1059000040F8045B00F0E6F82577204638BD2DE925
:10591000F84378B10C4616461D46074611F07F48FD
:1059200011D04FF0500383F31188BFF36F8FBFF393
:105930004F8FFEE74FF0500383F31188BFF36F8F53
:10594000BFF34F8FFEE741B94FF0500383F3118847
:10595000BFF36F8FBFF34F8FFEE701F0D5FA50B959
:10596000089B43B14FF0500383F31188BFF36F8F4F
:10597000BFF34F8FFEE700F0E3FFD7F8009055BB71
:1059800014EA090F14BF0120002050BB089B63B329
:10599000002E18BF4FF080780DB148F08068089A4B
:1059A00048EA0401381D01F089F901F071F848B99D
:1059B0004FF0E0234FF08052C3F8042DBFF34F8F18
:1059C000BFF36F8F01F094FB814610F0007F11D080
:1059D00029F07F490BE034EA09030CBF01200020C5
:1059E000D3E716B129EA04043C6001F051F84846B7
:1059F000BDE8F88301F006FED7F8009065B914EA17
:105A0000090F14BF012300231BB116B129EA0404B6
:105A10003C6001F019FEDBE734EA09030CBF012307
:105A20000023F1E778B12DE9F0410E46054611F06B
:105A30007F4811D04FF0500383F31188BFF36F8F6D
:105A4000BFF34F8FFEE74FF0500383F31188BFF38E
:105A50006F8FBFF34F8FFEE700F10C0700F070FF70
:105A60002C692B6833432B60A74218D12B6823EA9B
:105A700008032B6001F00CF82868BDE8F081296864
:105A800032EA010109D113F0807F18BF48EA020809
:105A9000296841F0007101F09FF9A742E6D0204645
:105AA0006468036823F07F4213F0806FE7D12968B0
:105AB0000A42E8D1F1E708B5FFF7B4FF08BD0000DE
:105AC00008B513460A460146014801F031FD08BDFC
:105AD000B75A000800F1080343604FF0FF328260BC
