:020000040800F2
:100000000050002035270008CD260008CF26000824
:10001000D1260008D3260008D526000800000000DD
:1000200000000000000000000000000061760008F1
:10003000D726000800000000017700084577000877
:100040007D2700087D2700087D2700087D27000800
:100050007D2700087D2700087D2700087D270008F0
:100060007D2700087D2700087D270008D926000885
:100070007D2700087D2700087D2700087D270008D0
:100080007D2700087D2700087D2700087D270008C0
:100090007D2700087D2700087D2700087D270008B0
:1000A0007D270008ED2600087D2700087D27000831
:1000B000FD2600087D2700080D2700087D27000881
:1000C0007D2700087D2700087D2700087D27000880
:1000D0007D270008212700087D2700087D270008CC
:1000E0007D2700087D2700087D270008000000000C
:1000F0000000000000000000000000000000000000
:0C01000000000000000000005FF808F1A3
:1001100010B5054C237833B9044B13B10448AFF341
:1001200000800123237010BDE800002000000000C3
:10013000787C000808B5034B1BB103490348AFF3B3
:10014000008008BD00000000EC000020787C000862
:1001500081F0004102E000BF83F0004330B54FEA78
:1001600041044FEA430594EA050F08BF90EA020FE5
:100170001FBF54EA000C55EA020C7FEA645C7FEA78
:10018000655C00F0E2804FEA5454D4EB5555B8BF9B
:100190006D420CDD2C4480EA020281EA030382EA0C
:1001A000000083EA010180EA020281EA0303362D9E
:1001B00088BF30BD11F0004F4FEA01314FF4801C71
:1001C0004CEA113102D0404261EB410113F0004F83
:1001D0004FEA03334CEA133302D0524263EB43033A
:1001E00094EA050F00F0A780A4F10104D5F1200ED8
:1001F0000DDB02FA0EFC22FA05F2801841F1000133
:1002000003FA0EF2801843FA05F359410EE0A5F106
:1002100020050EF1200E012A03FA0EFC28BF4CF037
:10022000020C43FA05F3C01851EBE37101F00045ED
:1002300007D54FF0000EDCF1000C7EEB00006EEBFA
:100240000101B1F5801F1BD3B1F5001F0CD3490884
:100250005FEA30004FEA3C0C04F101044FEA4452DB
:1002600012F5800F80F09A80BCF1004F08BF5FEA62
:10027000500C50F1000041EB045141EA050130BD42
:100280005FEA4C0C404141EB0101013C28BFB1F554
:10029000801FE9D291F0000F04BF01460020B1FA9F
:1002A00081F308BF2033A3F10B03B3F120020CDA72
:1002B0000C3208DD02F1140CC2F10C0201FA0CF050
:1002C00021FA02F10CE002F11402D8BFC2F1200CB5
:1002D00001FA02F120FA0CFCDCBF41EA0C0190406B
:1002E000E41AA2BF01EB0451294330BD6FEA0404B4
:1002F0001F3C1CDA0C340EDC04F11404C4F120029F
:1003000020FA04F001FA02F340EA030021FA04F3B0
:1003100045EA030130BDC4F10C04C4F1200220FA07
:1003200002F001FA04F340EA0300294630BD21FA45
:1003300004F0294630BD94F0000F83F4801306BF0B
:1003400081F480110134013D4EE77FEA645C18BFFF
:100350007FEA655C29D094EA050F08BF90EA020F96
:1003600005D054EA000C04BF1946104630BD91EA8E
:10037000030F1EBF0021002030BD5FEA545C05D191
:100380004000494128BF41F0004130BD14F58004D0
:100390003CBF01F5801130BD01F0004545F0FE4144
:1003A00041F470014FF0000030BD7FEA645C1ABF79
:1003B000194610467FEA655C1CBF0B46024650EAB0
:1003C000013406BF52EA033591EA030F41F40021DC
:1003D00030BD00BF90F0000F04BF0021704730B562
:1003E0004FF4806404F132044FF000054FF0000137
:1003F00050E700BF90F0000F04BF0021704730B5F8
:100400004FF4806404F1320410F0004548BF4042CC
:100410004FF000013EE700BF42004FEAE2014FEA21
:1004200031014FEA02701FBF12F07F4393F07F4FFC
:1004300081F06051704732F07F4208BF704793F0FF
:100440007F4F04BF41F40021704730B54FF4607412
:1004500001F0004521F000411CE700BF50EA010215
:1004600008BF704730B54FF000050AE050EA0102BE
:1004700008BF704730B511F0004502D5404261EB2E
:1004800041014FF4806404F132045FEA915C3FF46F
:10049000D8AE4FF003025FEADC0C18BF03325FEA0C
:1004A000DC0C18BF033202EBDC02C2F1200300FABD
:1004B00003FC20FA02F001FA03FE40EA0E0021FAE2
:1004C00002F11444BDE600BF70B54FF0FF0C4CF4D0
:1004D000E06C1CEA11541DBF1CEA135594EA0C0F82
:1004E00095EA0C0F00F0DEF82C4481EA030621EABD
:1004F0004C5123EA4C5350EA013518BF52EA0335F8
:1005000041F4801143F4801338D0A0FB02CE4FF0A9
:100510000005E1FB02E506F00042E0FB03E54FF0D9
:100520000006E1FB03569CF0000F18BF4EF0010ED1
:10053000A4F1FF04B6F5007F64F5407404D25FEACD
:100540004E0E6D4146EB060642EAC62141EA555180
:100550004FEAC52040EA5E504FEACE2EB4F1FD0CC2
:1005600088BFBCF5E06F1ED8BEF1004F08BF5FEA40
:10057000500E50F1000041EB045170BD06F00046F2
:1005800046EA010140EA020081EA0301B4EB5C049F
:10059000C2BFD4EB0C0541EA045170BD41F4801197
:1005A0004FF0000E013C00F3AB8014F1360FDEBFBC
:1005B000002001F0004170BDC4F10004203C35DA98
:1005C0000C341BDC04F11404C4F1200500FA05F31B
:1005D00020FA04F001FA05F240EA020001F00042BC
:1005E00021F0004110EBD37021FA04F642EB060132
:1005F0005EEA430E08BF20EAD37070BDC4F10C045C
:10060000C4F1200500FA04F320FA05F001FA04F21F
:1006100040EA020001F0004110EBD37041F100010B
:100620005EEA430E08BF20EAD37070BDC4F1200516
:1006300000FA05F24EEA020E20FA04F301FA05F27E
:1006400043EA020321FA04F001F0004121FA04F226
:1006500020EA020000EBD3705EEA430E08BF20EAF6
:10066000D37070BD94F0000F0FD101F00046400030
:1006700041EB010111F4801F08BF013CF7D041EAB2
:10068000060195F0000F18BF704703F000465200B6
:1006900043EB030313F4801F08BF013DF7D043EA87
:1006A0000603704794EA0C0F0CEA135518BF95EA3D
:1006B0000C0F0CD050EA410618BF52EA4306D1D1C4
:1006C00081EA030101F000414FF0000070BD50EAE3
:1006D000410606BF1046194652EA430619D094EA6D
:1006E0000C0F02D150EA013613D195EA0C0F05D157
:1006F00052EA03361CBF104619460AD181EA0301AB
:1007000001F0004141F0FE4141F470014FF0000062
:1007100070BD41F0FE4141F4780170BD70B54FF0FD
:10072000FF0C4CF4E06C1CEA11541DBF1CEA13557D
:1007300094EA0C0F95EA0C0F00F0A7F8A4EB05045F
:1007400081EA030E52EA03354FEA013100F0888056
:100750004FEA03334FF0805545EA131343EA12631F
:100760004FEA022245EA111545EA10654FEA0026D4
:100770000EF000419D4208BF964244F1FD0404F58D
:10078000407402D25B084FEA3202B61A65EB0305E9
:100790005B084FEA32024FF480104FF4002CB6EBA6
:1007A000020E75EB030E22BFB61A754640EA0C0026
:1007B0005B084FEA3202B6EB020E75EB030E22BF66
:1007C000B61A754640EA5C005B084FEA3202B6EBA7
:1007D000020E75EB030E22BFB61A754640EA9C0066
:1007E0005B084FEA3202B6EB020E75EB030E22BF36
:1007F000B61A754640EADC0055EA060E18D04FEAF4
:10080000051545EA16754FEA06164FEAC30343EA93
:1008100052734FEAC2025FEA1C1CC0D111F4801F60
:100820000BD141EA00014FF000004FF0004CB6E759
:1008300011F4801F04BF01430020B4F1FD0C88BFF8
:10084000BCF5E06F3FF6AFAEB5EB030C04BFB6EB03
:10085000020C5FEA500C50F1000041EB045170BDF6
:100860000EF0004E4EEA113114EB5C04C2BFD4EB23
:100870000C0541EA045170BD41F480114FF0000EA7
:10088000013C90E645EA060E8DE60CEA135594EA23
:100890000C0F08BF95EA0C0F3FF43BAF94EA0C0F26
:1008A0000AD150EA01347FF434AF95EA0C0F7FF49B
:1008B00025AF104619462CE795EA0C0F06D152EAEF
:1008C00003353FF4FDAE1046194622E750EA4106D3
:1008D00018BF52EA43067FF4C5AE50EA41047FF4E4
:1008E0000DAF52EA43057FF4EBAE12E74A0011D296
:1008F00012F5001211D20DD56FF47873B3EB62527A
:100900000ED44FEAC12343F0004343EA505323FA85
:1009100002F070474FF00000704750EA013002D1FA
:100920004FF0FF3070474FF0000070474FEA410230
:10093000B2F1E04324BFB3F5001CDCF1FE5C0DD93D
:1009400001F0004C4FEAC0024CEA5070B2F1004F87
:1009500040EB830008BF20F00100704711F0804F8A
:1009600021D113F13872BCBF01F00040704741F44F
:1009700080114FEA5252C2F11802C2F1200C10FA53
:100980000CF320FA02F018BF40F001004FEAC12337
:100990004FEAD32303FA0CFC40EA0C0023FA02F3DB
:1009A0004FEA4303CCE77FEA625307D150EA0133B1
:1009B0001EBF4FF0FE4040F44000704701F0004081
:1009C00040F0FE4040F40000704700BF80F000405F
:1009D00002E000BF81F0004142001FBF5FEA410317
:1009E00092EA030F7FEA226C7FEA236C6AD04FEA17
:1009F0001262D2EB1363C1BFD2184140484041405C
:100A0000B8BF5B42192B88BF704710F0004F40F40D
:100A1000000020F07F4018BF404211F0004F41F429
:100A2000000121F07F4118BF494292EA030F3FD0F5
:100A3000A2F1010241FA03FC10EB0C00C3F1200308
:100A400001FA03F100F0004302D5494260EB400097
:100A5000B0F5000F13D3B0F1807F06D340084FEA02
:100A6000310102F10102FE2A51D2B1F1004F40EBF7
:100A7000C25008BF20F0010040EA0300704749005F
:100A800040EB0000013A28BFB0F5000FEDD2B0FAFC
:100A900080FCACF1080CB2EB0C0200FA0CF0AABF1F
:100AA00000EBC25052421843BCBFD04018437047BD
:100AB00092F0000F81F4000106BF80F400000132C3
:100AC000013BB5E74FEA41037FEA226C18BF7FEA9A
:100AD000236C21D092EA030F04D092F0000F08BFDC
:100AE0000846704790EA010F1CBF0020704712F0C3
:100AF0007F4F04D1400028BF40F00040704712F102
:100B000000723CBF00F50000704700F0004343F066
:100B1000FE4040F4000070477FEA226216BF08469C
:100B20007FEA23630146420206BF5FEA412390EA5F
:100B3000010F40F4800070474FF0000304E000BF55
:100B400010F0004348BF40425FEA000C08BF704706
:100B500043F0964301464FF000001CE050EA0102CA
:100B600008BF70474FF000030AE000BF50EA0102DF
:100B700008BF704711F0004302D5404261EB4101CC
:100B80005FEA010C02BF84460146002043F0B643F1
:100B900008BFA3F18053A3F50003BCFA8CF2083A16
:100BA000A3EBC25310DB01FA02FC634400FA02FC1F
:100BB000C2F12002BCF1004F20FA02F243EB020026
:100BC00008BF20F00100704702F1200201FA02FC88
:100BD000C2F1200250EA4C0021FA02F243EB02007B
:100BE00008BF20EADC7070474FF0FF0C1CEAD052BF
:100BF0001EBF1CEAD15392EA0C0F93EA0C0F6FD080
:100C00001A4480EA010C400218BF5FEA41211ED05D
:100C10004FF0006343EA501043EA5111A0FB013149
:100C20000CF00040B1F5000F3EBF490041EAD3711E
:100C30005B0040EA010062F17F02FD2A1DD8B3F19A
:100C4000004F40EBC25008BF20F00100704790F009
:100C5000000F0CF0004C08BF49024CEA502040EA5B
:100C600051207F3AC2BFD2F1FF0340EAC250704721
:100C700040F400004FF00003013A5DDC12F1190F5F
:100C8000DCBF00F000407047C2F10002410021FAD1
:100C900002F1C2F1200200FA02FC5FEA310040F1E9
:100CA000000053EA4C0308BF20EADC70704792F062
:100CB000000F00F0004C02BF400010F4000F013A9A
:100CC000F9D040EA0C0093F0000F01F0004C02BF95
:100CD000490011F4000F013BF9D041EA0C018FE704
:100CE0000CEAD15392EA0C0F18BF93EA0C0F0AD00A
:100CF00030F0004C18BF31F0004CD8D180EA010030
:100D000000F00040704790F0000F17BF90F0004FC8
:100D1000084691F0000F91F0004F14D092EA0C0FAA
:100D200001D142020FD193EA0C0F03D14B0218BF3D
:100D3000084608D180EA010000F0004040F0FE4083
:100D400040F40000704740F0FE4040F4400070471F
:100D50004FF0FF0C1CEAD0521EBF1CEAD15392EA9E
:100D60000C0F93EA0C0F69D0A2EB030280EA010C8E
:100D700049024FEA402037D04FF0805343EA111127
:100D800043EA10130CF000408B4238BF5B0042F185
:100D90007D024FF4000C8B4224BF5B1A40EA0C002A
:100DA000B3EB510F24BFA3EB510340EA5C00B3EB5C
:100DB000910F24BFA3EB910340EA9C00B3EBD10F4A
:100DC00024BFA3EBD10340EADC001B0118BF5FEA9C
:100DD0001C1CE0D1FD2A3FF650AF8B4240EBC250C5
:100DE00008BF20F0010070470CF0004C4CEA502086
:100DF0007F32C2BFD2F1FF0340EAC250704740F4D5
:100E000000004FF00003013A37E792F0000F00F0C6
:100E1000004C02BF400010F4000F013AF9D040EA44
:100E20000C0093F0000F01F0004C02BF490011F4D8
:100E3000000F013BF9D041EA0C0195E70CEAD153D0
:100E400092EA0C0F08D142027FF47DAF93EA0C0FB7
:100E50007FF470AF084676E793EA0C0F04D14B029B
:100E60003FF44CAF08466EE730F0004C18BF31F04D
:100E7000004CCAD130F000427FF45CAF31F0004347
:100E80007FF43CAF5FE700BF4FF0FF3C06E000BFE0
:100E90004FF0010C02E000BF4FF0010C4DF804CD03
:100EA0004FEA40024FEA41037FEA226C18BF7FEA13
:100EB000236C11D001B052EA530C18BF90EA010F15
:100EC00058BFB2EB030088BFC81738BF6FEAE170A4
:100ED00018BF40F0010070477FEA226C02D15FEA40
:100EE000402C05D17FEA236CE4D15FEA412CE1D0AC
:100EF0005DF8040B704700BF844608466146FFE773
:100F00000FB5FFF7C9FF002848BF10F1000F0FBD54
:100F10004DF808EDFFF7F4FF0CBF012000205DF84D
:100F200008FB00BF4DF808EDFFF7EAFF34BF0120D2
:100F300000205DF808FB00BF4DF808EDFFF7E0FF6B
:100F400094BF012000205DF808FB00BF4DF808EDBC
:100F5000FFF7D2FF94BF012000205DF808FB00BF1F
:100F60004DF808EDFFF7C8FF34BF012000205DF801
:100F700008FB00BF42000ED2B2F1FE4F0BD34FF080
:100F80009E03B3EB126209D44FEA002343F00043FF
:100F900023FA02F070474FF00000704712F1610F22
:100FA00001D1420202D14FF0FF3070474FF00000F4
:100FB000704700BF2DE9F843022832D80E461C4B7B
:100FC00013F810300BB90F462CE0194A02EB40021F
:100FD0005478254603EB0408444526DA0027DFF859
:100FE000549004E00134A4B2254644451ADA05EBD6
:100FF000450359F823103046FFF79EFF0028F1D033
:101000006F0005EB450309EB830359683046FFF792
:10101000EBFD2F4409EB8707B968FFF7DDFC0746B6
:10102000E0E700273846BDE8F8830027FAE700BF6D
:10103000B40300200801002001291ED00346114AF4
:1010400012F8100098B910B40F4A12888C183C2C72
:1010500015D80C4C01F1FF3C04F813C004EB430419
:101060006270013A1144084B198010BC7047013975
:10107000081A18BF01204000704703207047012064
:10108000F3E700BFB4030020040100202DE9F0477E
:1010900007460E4615461C46DDF820A0DDF82490D4
:1010A00049465046FFF796FC804621462846FFF702
:1010B00091FC01464046FFF74BFE38602146504602
:1010C000FFF792FD074629464846FFF78DFD01468A
:1010D0003846FFF77FFC074629462046FFF77AFC93
:1010E00001463846FFF734FE3060BDE8F087000067
:1010F000144B13F81030934201D802207047F0B51A
:1011000083B00D460F4B03EB40035B781A4494B257
:10111000670004EB4400800000F108010A4E04302F
:10112000AB6801932B680093EB686A6831443044E4
:10113000FFF7ACFFEB68274446F82730002003B0E8
:10114000F0BD00BFB40300200801002003280CD824
:10115000064B00EB40024FEA420C03EB4202517097
:101160000021917003F80C10918070475804002002
:1011700070B584B01D46002301930393082826D838
:101180001646144B03EB001399734A1E18BF012235
:101190001A73114B53F83030009302291DBF0D4BC9
:1011A00003EB0013CBB201230A4C04EB0014A3732E
:1011B00001230293084B03EBC0036946586801F012
:1011C00093FFA66065600020607304B070BD0120CD
:1011D000FBE700BFC8030020B07C000810B50B4C33
:1011E0000023236022460221094B186804F036FED2
:1011F00023684BB14FF0E0234FF08052C3F8042D29
:10120000BFF34F8FBFF36F8F10BD00BFBC03002033
:10121000C40300202DE9F04182B09DF820402CB39A
:1012200001EB430E00EB42001C4401EB4404BDF80B
:1012300024C04FEA4C0C00274FF003080D4D08E086
:10124000019BA5FB03235B082EF8023B0230A64559
:101250000CD0019701464346019E0A883244019210
:10126000013B614413F0FF03F6D1E9E702B0BDE8AA
:10127000F08100BFABAAAAAA84B003900B880293A6
:10128000029A039BC3EBC303DB00C82000FB0233BD
:10129000C3F30F23ADF80630BDF806300B80BDF860
:1012A000060080B204B0704770B50446184E194964
:1012B00001EB400136F81000FFF7DEFF054626F887
:1012C0001400FFF797F810A3D3E90023FFF7FCF809
:1012D000FFF72CFB0446C5F57F600F30FFF730FCAD
:1012E00001462046FFF734FD04460B49FFF738FE60
:1012F00020B92046FFF73EFE80B270BD48F6B80028
:10130000FBE700BFAFF30080000000000088C3408F
:101310008C0400208404002000B8084782B0002319
:101320000193094AA2F19000019B5B00019301998E
:1013300092F88C3003F001030B430193103A824280
:10134000F2D1019802B07047C80300202DE9F04F98
:1013500089B000F0CDF9BE4B18600A231A4600216F
:101360000846FFF705FF0A231A4600210120FFF770
:10137000FFFE0A231A4600210220FFF7F9FE0A2386
:101380001A4600210320FFF7F3FE0A231A46002124
:101390000420FFF7EDFE0A231A4600210520FFF77F
:1013A000E7FE0A231A4600210620FFF7E1FE0A2382
:1013B0001A4600210720FFF7DBFE0A231A46002108
:1013C0000820FFF7D5FE14210120FFF735FEA14CC0
:1013D0002546002601276888FFF7AEFB0590288880
:1013E000FFF7AAFB0490E888FFF7A6FB079035F803
:1013F000040FFFF7A1FB0690B2B204A93846FFF72D
:1014000077FE0136132EE6D114210220FFF714FED9
:10141000002502266088FFF78FFB05902088FFF7E4
:101420008BFB0490E088FFF787FB079034F8040FEC
:10143000FFF782FB0690AAB204A93046FFF758FED8
:101440000135132DE6D101210020FFF77FFE012198
:101450000846FFF77BFE01210220FFF777FE0121FE
:101460000320FFF773FE7C4A002313805380938090
:101470000393DFF8E8B1DFF8E8A14FF001089946DF
:10148000B4E0784B83F800804146714B186804F053
:1014900098FCC2E04A462988686801F06BFF84F82E
:1014A000029006340835B44216D02378002BF1D0D0
:1014B000A3785BB9A38801339BB2A380B3F57A7F8D
:1014C000EFD984F80280A4F80490EAE7424629881C
:1014D000686801F04FFFE4E7634C644D04F1900746
:1014E00007E0626816E0C4F8009010340835BC428A
:1014F0001BD02646A37B022BF7D02988686801F011
:1015000033FF627B8242EED0236801332360002ADE
:10151000E7D1A2689342E8D9B37B83F0010303F0DB
:101520000103434033737073DFE74FF0FF330093E1
:1015300043464A4602214648006804F0B8FB50463C
:1015400001F0BAFB0323019300934B464A464849F6
:101550005846FFF75FFE4046FFF7A6FE014605200E
:1015600000F0DCFB0220FFF79FFE0146062000F0A2
:10157000D5FB4046FFF798FEA0F6AC539BB247F66A
:101580000B3293424ED94FF6FF71404600F0B4FB48
:10159000072000F0ABFB40F0010189B2072000F00A
:1015A000ABFB0220FFF780FEA0F6AC539BB247F6E0
:1015B0000B32934264D94FF6FF71022000F09CFB7E
:1015C000072000F093FB40F0020189B2072000F0F1
:1015D00093FBFFF7A3FEC0F3002004F04FF8FFF7E2
:1015E0009DFEC0F30111484600F086FB09225946D2
:1015F000504601F017FA404605F0BAFB424610216A
:101600001C4801F0B7FE174B1B7833B9039B01331D
:10161000DBB20393322B3FF434AF174C174D04F178
:10162000180642E7FFF788FA01464046FFF7C2FC7A
:10163000FFF7A0FC81B2404600F05EFB072000F0FF
:1016400055FB20F0010189B2072000F055FBA8E707
:10165000C4030020F87C00088404002070040020EB
:10166000A8180020C0030020C8030020B07C000898
:101670008C0400200008014058040020907C0008E1
:10168000FFF75AFA01460220FFF794FCFFF772FCBD
:1016900081B2022000F030FB072000F027FB20F091
:1016A000020189B2072000F027FB92E700EB40001F
:1016B000014B03F8101070475804002000EB400065
:1016C000014B13F8100070475804002008B50A2495
:1016D000204604F0E3F9FBE7014B1868704700BFB0
:1016E000FC040020014B1868704700BFD80400209C
:1016F000014B1868704700BFB404002008B5044BC4
:10170000D860184602F018FC00B908BD72B6FEE7B2
:101710001018002010B5054C204602F0E3FA2368AB
:1017200000225A62204602F0A9FA10BD10180020CB
:1017300008B5024802F0D6FA08BD00BF1018002014
:1017400000B595B0202200210BA806F0AFF90023C8
:1017500005930693079308930993019302930393C8
:1017600004930A230A9301230E9310220F921093DD
:10177000022311934FF4601313930AA801F040FE63
:10178000C8B90F23059302210691002307934FF454
:1017900080620892099305A802F072F868B90223E2
:1017A00001934FF40043039301A802F05FF930B9AD
:1017B00015B05DF804FB72B6FEE772B6FEE772B6CE
:1017C000FEE7000080B592B000F0DAFFFFF7B8FF47
:1017D00000240B940C940D940E94AD4DAB6943F022
:1017E0001003AB61AB6903F010030193019BAB697C
:1017F00043F02003AB61AB6903F020030293029B2B
:10180000AB6943F00403AB61AB6903F004030393DA
:10181000039BAB6943F00803AB61AB6903F00803BA
:101820000493049B9B4E22464FF49871304601F07E
:10183000A1FD994F22464FF47041384601F09AFDC0
:101840004FF498730B934FF00109CDF830900D943D
:101850004FF00208CDF838800BA9304601F044FC67
:1018600040F6FF730B930C940D940BA9384601F0CE
:101870003BFC4FF470430B93CDF830900D94CDF8B2
:1018800038800BA9384601F02FFC4FF400430B932E
:101890000C940D940BA9304601F026FC6B6943EAC9
:1018A00009036B616B6903EA09030093009B2246FD
:1018B00005210B2001F042FA0B2001F075FA774860
:1018C000774B03604FF4E13343604FF48053836000
:1018D000C4604FF4C06303610C2343618461C4613D
:1018E00002F03EFE002840F04C8100230B930C9345
:1018F0000D930E93079308936A484FF0804202605D
:101900004FF44C62426083604FF47A72C2600361AC
:10191000836102F011FB002840F035814FF48053C1
:101920000B930BA95F4802F007FC002840F02D81C3
:10193000202307930023089307A95A4802F066FD65
:10194000002840F0248100230B930C930D935648FC
:10195000564A02604FF4807282600122027303755E
:101960004FF46022C26143600323036101F020F958
:10197000002840F00E8100230B9301230C930423D5
:101980000D930BA9484800F05DFF002840F003814B
:1019900001230B9302230C930BA9434800F052FF41
:1019A000002840F0FA8002230B9303230C930BA929
:1019B0003D4800F047FF002840F0F18000230793E6
:1019C000089309930A93059306930B930C930D9335
:1019D0000E930F93109311933548364A02600222FA
:1019E000426083604FF47A72C2600361836102F0E7
:1019F000A3FA002840F0D5804FF48053079307A93D
:101A00002B4802F099FB002840F0CD80284802F0D6
:101A1000BFFA002840F0C98000230593069305A96A
:101A2000234802F0F3FC002840F0C18060230B93B0
:101A300000220C920D9204230F930BA91C4802F074
:101A400001FB002840F0B5804FF4FA730C93042298
:101A50000BA9174802F0F6FA002840F0AC801448B1
:101A600000F07EFD00230B930C930D930E930793D0
:101A700008931148114A02604FF4FA4242608360B1
:101A80004FF4FA62C2600361836102F055FA17E015
:101A90000010024000080140000C014038170020EF
:101AA0000038014010180020A81800200024014030
:101AB000C8170020000400408017002000080040E4
:101AC00000287AD14FF480530B930BA93F4802F0C2
:101AD00033FB002873D1202307930023089307A921
:101AE0003A4802F093FC00286BD13948394B036027
:101AF0000423436040F6FF73836001F04AFC002832
:101B000061D103F019FF344A0121084604F010F8AE
:101B1000324B1860324A0021324803F059FF324BF1
:101B20001860324A0021324803F052FF314B1860EE
:101B3000314A0021314803F04BFF314B1860314AE4
:101B40000021314803F044FF304B1860304A002137
:101B5000304803F03DFF304B1860304803F0C0FFC1
:101B60002F4B18602F4803F0BBFF2F4B18602F48F6
:101B700003F0B6FF2E4B186000F092F803F000FF60
:101B8000FEE772B6FEE772B6FEE772B6FEE772B621
:101B9000FEE772B6FEE772B6FEE772B6FEE772B611
:101BA000FEE772B6FEE772B6FEE772B6FEE772B601
:101BB000FEE772B6FEE772B6FEE772B6FEE772B6F1
:101BC000FEE772B6FEE772B6FEE700BF80170020A0
:101BD0005818002000300040E47D00085005002027
:101BE000847E0008CD16000834170020607E0008AF
:101BF0004D130008881400203C7E0008ED550008B5
:101C00005C110020187E0008DD1D0008B00E0020C9
:101C1000F47D0008411D0008040A0020D47D00085E
:101C2000FC040020C47D0008D8040020B47D000816
:101C3000B404002008B5024801F0DCFB08BD00BF79
:101C40005818002010B504460368B3F1804F04D043
:101C50002268054B9A4203D010BD03F007FDF7E759
:101C600000F0A0FDF8E700BF002C014072B6FEE7CF
:101C700002291CBF074B1970064B1A78064B1A81B4
:101C800004281CBF054B1870044B1A78024B5A816C
:101C9000704700BF0D190020F81800200E19002011
:101CA000014B1860704700BF1019002000B583B0C9
:101CB00001464FF0FF3300930123002203480068E0
:101CC00003F0F5FF03B05DF804FB00BF101900201E
:101CD000024610B9034B01211970034B33F812006F
:101CE000704700BFE6180020E8180020014B33F8C9
:101CF00010007047F8180020024630B9054B1B88C9
:101D00008B4202D0044B01201870024B23F81210B2
:101D1000704700BFF81800200F190020024630B9A4
:101D2000054B1B888B4202D0044B01201870024BDC
:101D300023F81210704700BFE81800200F19002088
:101D400000B583B00120FFF7B1FFFFF7E7FA0123E9
:101D500000934FF49643002200F00F01104602F06A
:101D6000D7FE02F033FF0421034B186804F029F872
:101D700002F03EFFFCE700BF10190020024A136882
:101D800001331360704700BFDC1800200A4B1B882A
:101D900033B10A4B1B6898428CBF0020012070476A
:101DA00010B5054B01221A800024044B1C60044826
:101DB00001F064FF204610BDD8180020DC18002078
:101DC0008017002008B5034801F08CFF024B002269
:101DD0001A8008BD80170020D81800202DE9F04691
:101DE00089B00024DFF880920026A04F06E007208B
:101DF000FFF75CFF9E4B01221A700124FFF71AFFC8
:101E00009C4B1A789C4BDA800A2004F0B1FF002C1E
:101E1000EDD0FFF783FA10F4807F07D0964B9B89B3
:101E2000022B954B0CBF032202229A81904B1B7808
:101E3000012B3AD0904BDA891B88002B57D012F037
:101E4000010F04D1022B52D112F0020F4FD0894B57
:101E500005221A7001210020FFF70AFF874B18891D
:101E6000002301930293039304930593069307932E
:101E7000642804D8824B1B88834240F029827E4B21
:101E8000DB8913F0010F40F04D8213F0020F04D0F4
:101E9000794B1B88022B00F045820022794B1A8077
:101EA0002021484601F066FA47E2734B01229A81ED
:101EB0001B8833B96F4B04221A706D4B00221A70C5
:101EC000B8E7714B01221A706C4B1B883BB1013B88
:101ED0009BB29342F1D8674B01221A70EDE70021C3
:101EE0000846FFF7C5FE634B02221A70E5E7614A18
:101EF00092F800A0BAF1050F12D00AF1FF32052ABC
:101F0000ACD801A151F822F04D1F0008291F00088C
:101F1000CD2000085D1E0008551E0008A11F000806
:101F2000534B01221A7068E7534B5B88142B08D976
:101F30001D2B87BF0021084602210020FFF798FED5
:101F40008CE701210020FFF793FE87E701210020A5
:101F5000FFF78EFE4C4B01221A70484B1B889342B0
:101F600003D1454B1B88032B10D03C20FFF70EFFFD
:101F700000283FF473AF404B5B88132B7FF66EAFA6
:101F8000FFF720FF3B4B06221A7067E73A4B5B884E
:101F9000092B28BF4FF0060A364B83F800A05DE7F7
:101FA000354A01219181334A03211170022B15D04A
:101FB000012B47D0344A01211170304A12888A42DD
:101FC00047D1032B45D12D4B9988DA8891428CBF9C
:101FD000002101219878FFF74BFE3FE72A4B0122B1
:101FE0001A70264B1B88022B03D0274B01221A7034
:101FF0002FE0214B9B88214A9288111F8B4204DAE3
:1020000001210320FFF734FE28E7911E8B4204DAFA
:1020100001210220FFF72CFE20E79A4204D901217A
:102020000846FFF725FE19E79A4206D09A42DCD20D
:1020300000210846FFF71CFE10E700210120FFF7F2
:1020400017FE0BE7104B01221A700C4B1B88022B5A
:102050001CD00A4B9988DA88914294BF0021012153
:102060009878FFF705FEF9E60008014000005940A6
:102070000F1900200C190020F8180020E818002083
:10208000E4180020E2180020E61800209F4AD388B8
:102090009288911E8B4204DA01210220FFF7E8FDAD
:1020A000DCE69A4204D901210846FFF7E1FDD5E6B6
:1020B0009A4206D09A42CCD200210846FFF7D8FDBA
:1020C000CCE600210120FFF7D3FDC7E6904A0121AD
:1020D00011708E4A12888A4207D08E4949880C298D
:1020E0000DD88D4B01221A70B8E6032BF5D1894B20
:1020F0005B88042B00F25B81874B1970AEE6854943
:102100008989012913D0022A0FD103292AD0FFF788
:1021100005F910F4807F03D17820FFF737FE38BB34
:1021200001210320FFF7A4FD98E6012A17D0022B16
:1021300024D0032B75D0012A25D0012B7FF48EAE3D
:10214000022A7FF48BAE714A9388D288D91E9142BD
:1021500040F3978001210220FFF78AFD7EE6032BE2
:10216000E5D1D2E76B4B02229A81FFF72BFECEE737
:10217000FFF728FE684B06221A706FE6022A0ED07F
:10218000012A7FF46BAE614BDA889B88991C8A42E6
:102190006DDD00215D4B9878FFF76AFD5EE65B4BD5
:1021A0009B885C4A9288591F914204DD01210320DB
:1021B000FFF75EFD52E6191F8A4204DA012104206E
:1021C000FFF756FD4AE68A4207D0991E8A4209DA8D
:1021D00001210420FFF74CFD40E601210220FFF71A
:1021E00047FD3BE68A4206D09A4209D202210420EA
:1021F000FFF73EFD32E601210846FFF739FD2DE6E7
:102200009A4209D001339A424FF00001D4BF042012
:102210000846FFF72DFD21E600210120FFF728FDEC
:102220001CE6012A00F0C880022A7FF417AE374B63
:10223000DA889B88991C8A420FDD0021334B9878FD
:10224000FFF716FD0AE6023B9A42B4BF00210221C5
:102250002E4B9878FFF70CFD00E6023B9A42B4BF84
:1022600001210221294B9878FFF702FDF6E5023B98
:102270009A42B4BF01210221244B9878FFF7F8FC61
:10228000ECE5991E8A4204DA01210420FFF7F0FCF4
:10229000E4E58A4206D09A4209D202210120FFF7E2
:1022A000E7FCDBE501210846FFF7E2FCD6E59A42B0
:1022B00009D001339A424FF00001D4BF04200846F0
:1022C000FFF7D6FCCAE500210120FFF7D1FCC5E5E8
:1022D00060230193FEF78EF832463B46FEF71EFA66
:1022E00000220E4BFEF7F0F8FEF700FB02900C4DBB
:1022F0000021284602F048F8002201A9284601F0F2
:10230000A1FE0021284601F0DBFFB8E5E818002017
:10231000E6180020F81800200C19002000E08A4080
:10232000C81700202B4B32221A802B4B1B880133FD
:102330009BB2312B23D8284A1380284B1B8833B3F8
:10234000264A518902292CD0032924D0012914BFFF
:102350004FF0000A4FF0010A00210C460020FFF761
:10236000A5F921460120FFF7A1F951460220FFF708
:102370009DF91A4B197A0320FFF798F93DE5164BA2
:1023800000221A802021484600F0FAFFD5E70120FC
:1023900003F07AF931E5012B06D021460024A2464C
:1023A000DCE700218A46D9E700218A46D6E70B4BB5
:1023B000998901297FF4A9AE094BDA889B88991C79
:1023C0008A427FF740AF0121054B9878FFF750FC18
:1023D00044E500BFE2180020E0180020F8180020B3
:1023E000E818002000B583B0114B9A6942F0010251
:1023F0009A619A6902F001020092009ADA6942F049
:102400008052DA61DB6903F080530193019B002263
:102410000F216FF0010000F091FC064A536823F091
:10242000E06343F00073536003B05DF804FB00BF4A
:10243000001002400000014010B586B00023029356
:1024400003930493059302681D4B9A4201D006B092
:1024500010BD044603F56C439A6942F400729A6118
:102460009A6902F400720092009A9A6942F004029A
:102470009A619B6903F004030193019B0723029374
:102480000323039302A90F4800F02EFE0E480F4BC2
:1024900003600023436083608022C2604FF4807237
:1024A00002614FF4806242618361C36100F08AFC83
:1024B00018B9054B23625C62C9E7FFF7D7FBF8E761
:1024C0000024014000080140641800200800024078
:1024D00000B585B00368B3F1804F08D01D4A934220
:1024E00019D01D4A934221D005B05DF804FB03F5D5
:1024F0000433DA6942F00102DA61DB6903F00103B7
:102500000193019B002205211C2000F017FC1C20D8
:1025100000F04AFCE8E7114BDA6942F00202DA61A6
:10252000DB6903F002030293029BDDE70B4BDA69E0
:1025300042F00402DA61DB6903F004030393039BB6
:10254000002205211E2000F0F9FB1E2000F02CFCCB
:10255000CAE700BF0004004000080040001002402D
:1025600000B587B000230293039304930593026898
:102570000D4B9A4202D007B05DF804FB03F503331C
:102580009A6942F004029A619B6903F00403019383
:10259000019BC0230293022303930323059302A903
:1025A000024800F0A1FDE6E70004004000080140F9
:1025B00030B587B000230293039304930593026818
:1025C0001B4B9A4201D007B030BD03F558439A69BE
:1025D00042F480429A619A6902F480420092009A21
:1025E0009A6942F004029A619B6903F00403019323
:1025F000019B4FF40073029302230393032305937B
:102600000C4D02A9284600F06FFD4FF48063029341
:1026100000240394049402A9284600F065FD224694
:102620000521252000F08AFB252000F0BDFBCAE72C
:10263000003801400008014030B589B004461E4B07
:102640009A6942F400629A619B6903F40063019302
:10265000019B02A903A801F0EBF901F0D9F90346A7
:102660001648174A026040F2E732C260154AA2FBE0
:1026700003239B0C013B4360002303618360836160
:1026800001F05AFC054610B1284609B030BD0B4890
:1026900001F0F4FA05460028F6D1192000F084FB79
:1026A0000F2C01D90125EFE700222146192000F067
:1026B00045FB054B1C60E7E70010024014190020A1
:1026C000002C014083DE1B4308000020FEE7FEE7EC
:1026D000FEE7FEE7FEE7704708B5FEF77FFD02481C
:1026E00000F062FC08BD00BF6418002008B5024875
:1026F00001F016FB08BD00BF1419002008B5024800
:1027000001F00EFB08BD00BF1018002008B5FFF750
:1027100035FB024801F004FB08BD00BF8017002014
:1027200008B5024802F04CF808BD00BF3817002079
:1027300070470000FFF7FCFF0B480C490C4A0023D0
:1027400002E0D458C4500433C4188C42F9D3094A67
:10275000094C002301E013600432A242FBD305F0D0
:1027600003FAFFF72FF8704700000020E800002070
:10277000F4800008E8000020EC350020FEE70000AF
:1027800008B5074A136843F010031360032000F0F4
:10279000C3FA0F20FFF750FFFFF724FE002008BD0B
:1027A00000200240034A1168034B1B780B4413605E
:1027B000704700BF5C19002004000020014B18681E
:1027C000704700BF5C190020704708B5436A9A6AD9
:1027D00012F0500F1ED19A6A42F400729A621A687F
:1027E000926802F46022B2F5602F03D01846FFF71A
:1027F000EBFF08BD1A7B002AF8D19A6A22F4807296
:102800009A629A6A12F4805FF0D19A6A42F00102E9
:102810009A62EBE71B6A1B6B9847EAE7704708B5BB
:10282000406AFFF7FBFF08BD704708B5406A836A3E
:1028300043F040038362C36A43F00403C362FFF7BB
:10284000F3FF08BD30B482B00022019290F824203A
:10285000012A00F093800346012280F824204A6870
:10286000062A2DD80468606B02EB8202053A4FF00D
:102870001F0C0CFA02FC20EA0C000D6805FA02F2AB
:10288000024362630A68092A38D91C68E06802EBCF
:1028900042021E3A4FF0070C0CFA02FC20EA0C0030
:1028A0008D6805FA02F20243E2600A68103A012AD2
:1028B00034D90020002283F8242002B030BC7047B5
:1028C0000C2A0DD80568286B02EB8202233A1F24DC
:1028D000944020EA04000C68944020432863D1E728
:1028E0000568E86A02EB8202413A1F24944020EA1C
:1028F00004000C6894402043E862C3E71C68206928
:1029000002EB42024FF0070C0CFA02FC20EA0C002A
:102910008D6805FA02F202432261C6E71868184A78
:10292000904205D09A6A42F020029A620120C1E7E3
:10293000926812F4000F1DD11148826842F400021F
:1029400082600A68102A01D00020B3E70D4A12689D
:102950000D49A1FB0212920C02EB8202520001927D
:10296000019A4AB1019A013A0192019A002AF9D1D9
:1029700000209FE700209DE700209BE702209CE7C6
:10298000002401400000002083DE1B4330B583B0EB
:102990000023019303689A6812F0010F3BD10446AB
:1029A0009A6842F001029A601C4B1B681C4AA2FB09
:1029B00003239B0C0193019B2BB1019B013B0193D2
:1029C000019B002BF9D1FFF7F9FE054623689B68B0
:1029D00013F0010F06D000201EE023689B6813F05F
:1029E000010F16D1FFF7EAFE431B022BF5D923682E
:1029F0009B6813F0010FF0D1A36A43F01003A362A8
:102A0000E36A43F00103E362002384F824300120E9
:102A100002E0002000E0002003B030BD00000020F4
:102A200083DE1B43F8B504460D461646016842484E
:102A300081425DD0414B99425AD094F82430012B09
:102A400077D0012384F824302046FFF79FFF074604
:102A500000286AD1A16A21F4706121F0010141F4DA
:102A60008071A1622268354B9A4248D0A36A23F450
:102A70008013A362536813F4806F05D0A36A23F414
:102A8000405343F48053A362A36A13F4805F1ABFD8
:102A9000E36A23F006030023E362002384F8243072
:102AA000236A274A9A62236A264ADA62236A264AF6
:102AB0001A6323686FF002021A602268936843F475
:102AC00080739360216833462A464C31206A00F0B7
:102AD000AFF923689A6802F46022B2F5602F9A6811
:102AE0000CBF42F4A00242F480129A603846F8BD4E
:102AF000114B5B6813F4702F9FD00127F6E7A3F505
:102B000080635B6813F4702FB0D0A36A43F4801322
:102B1000A362094B5B6813F4806FB5D0A36A23F4FA
:102B2000405343F48053A362AEE7002384F824307B
:102B3000DCE70227DAE700BF00240140002801405B
:102B4000CB2700081F2800082B28000838B5036889
:102B50009A6812F0010F01D1002038BD04469A682E
:102B600022F001029A60FFF729FE054623689B6860
:102B700013F0010F06D10020EFE723689B6813F0E4
:102B8000010F13D0FFF71AFE431B022BF5D9236860
:102B90009B6813F0010FF0D0A36A43F01003A36207
:102BA000E36A43F00103E3620120D6E70020D4E7A3
:102BB00000287AD070B50446836A002B4FD0204697
:102BC000FFF7C4FFA36A13F0100368D1002866D191
:102BD000A26A22F4885222F0020242F00202A262A9
:102BE000217B6268E5692A4342EA4102A568B5F59E
:102BF000807F04D0012D14BF002501252D02267DE4
:102C0000012E32D02668716821F469412943716030
:102C10002568AE68264931401143A960A168B1F525
:102C2000807F01D0012902D12369013B1B05256862
:102C3000E96A21F470010B43EB62236899681D4B2C
:102C40000B409A4222D0A36A23F0120343F01003F0
:102C5000A362E36A43F00103E362012024E0C3625C
:102C600080F82430FFF7E8FBA9E731B9A169013901
:102C700045EA413141F40065C4E7A16A41F0200111
:102C8000A162E16A41F00101E162BBE70023E36276
:102C9000A36A23F0030343F00103A36204E0A36AE1
:102CA00043F01003A362012070BD0120704700BFF4
:102CB000FDF7E1FFFE0E1FFF90F82430012B28D016
:102CC00010B50446012380F82430FFF73FFF50B9C8
:102CD0002268936823F480739360226A92F821300B
:102CE000DBB2022B03D0002384F8243010BD104641
:102CF00000F0EDF840B9A36A23F4885323F00103F0
:102D000043F00103A362EEE7A36A43F04003A3622A
:102D1000E9E70220704700000749CA68030203F48C
:102D2000E06322F4E0621204120C134343F0BF6329
:102D300043F40033CB60704700ED00E000B5184B62
:102D4000DB68C3F30223C3F1070CBCF1040F28BFF7
:102D50004FF0040C03F1040EBEF1060F8CBF033BD1
:102D600000234FF0FF3E0EFA0CFC21EA0C019940C3
:102D70000EFA03FE22EA0E021143002809DB0901C4
:102D8000C9B200F1604000F5614080F800135DF8C1
:102D900004FB00F00F000901C9B2024B1954F6E719
:102DA00000ED00E014ED00E0002807DB410900F031
:102DB0001F0001238340024A42F82130704700BFC0
:102DC00000E100E060B310B402460168154B0B440B
:102DD0001548A0FB03031B099B001364134BD3632B
:102DE000022382F82130086820F47F5020F0300060
:102DF000536894682343D468234314692343546974
:102E0000234394692343D469234303430B60002085
:102E10009063012382F8213082F8200010BC7047B3
:102E200001207047F8FFFDBFCDCCCCCC00000240A4
:102E300090F820C0BCF1010F47D04FF0010C80F892
:102E400020C090F821C05FFA8CFCBCF1010F04D0C7
:102E5000002380F820300220704770B4022480F8EC
:102E600021400024846305682C6824F001042C6050
:102E7000C56B0124066CB4406C60046863604368F1
:102E8000102B12D0036899600368DA60C36A8BB1B3
:102E90000268136843F00E0313600268136843F07E
:102EA00001031360002070BC704703689A600368D8
:102EB000D960EBE70268136823F00403136002682B
:102EC000136843F00A031360E7E7022070470346E4
:102ED00090F82120D2B2022A06D004228263012077
:102EE000002283F82020704701680A6822F00E0251
:102EF0000A6001680A6822F001020A60C06B0121C1
:102F00001A6C01FA02F2426083F821100020E7E710
:102F100008B590F82130DBB2022B03D00423836381
:102F2000012008BD0268136823F00E0313600268D5
:102F3000136823F0010313600368194A934213D006
:102F4000143293421ED0143293421DD01432934255
:102F50001DD0143293421DD01432934214BF4FF04F
:102F600080734FF4801300E001230E4A5360012365
:102F700080F82130002380F82030436B6BB19847F4
:102F80000020CEE71023F0E74FF48073EDE74FF415
:102F90008053EAE74FF48033E7E70020C1E700BF42
:102FA000080002400000024038B5C36B1A6804688C
:102FB0002568016C04238B40134234D015F0040FB4
:102FC00031D0236813F0200F03D1236823F00403CA
:102FD00023600368424A934213D01432934217D0BD
:102FE0001432934216D01432934216D014329342C4
:102FF00016D01432934214BF4FF080634FF4800315
:1030000000E00423374A5360C36A03B1984738BDD0
:103010004023F7E74FF48063F4E74FF48043F1E790
:103020004FF48023EEE702238B4013423BD015F090
:10303000020F38D0236813F0200F06D1236823F045
:103040000A032360012380F821300368244A934255
:1030500013D0143293421BD0143293421AD014323C
:1030600093421AD0143293421AD01432934214BFAE
:103070004FF000734FF4001300E00223194A53602D
:10308000002380F82030836A002BC0D09847BEE729
:103090002023F3E74FF40073F0E74FF40053EDE71C
:1030A0004FF40033EAE708238B401342AFD015F00A
:1030B000080FACD0236823F00E032360C16B0123FB
:1030C000026C03FA02F24A60836380F82130002325
:1030D00080F82030036B002B99D0984797E700BF0A
:1030E00008000240000002402DE9F04F83B0D1F803
:1030F0000090B9F1000F00F0268100221346934D95
:10310000934C944EDFF850E29446BEE0A1450DD0BA
:1031100004D9B1450AD0F14508D01BE0DFF83CA244
:10312000D14503D00AF5702AD1450FD1D1F808C096
:10313000BCF1000F00F0FB80BCF1010F0CBFC0F828
:103140001080C0F814804FF0080C03E0AAF5801A34
:10315000D145EBD0FF2F99BF8146924600F104097B
:10316000A2F1200AD9F800804FF00F0B0BFA0AFBEE
:1031700028EA0B080CFA0AFA48EA0A08C9F800809B
:10318000D1F8048018F0805F78D0D5F8188048F026
:103190000108C5F81880D5F8188008F00108CDF8A6
:1031A0000480DDF8048023F0030808F1804808F566
:1031B0008038D8F808A003F0030B4FEA8B0B4FF0D0
:1031C0000F0909FA0BF92AEA090ADFF89491484530
:1031D00000F0B08009F58069484500F0AE8009F53F
:1031E0008069484500F0AC8009F58069484514BF06
:1031F0004FF004094FF0030909FA0BF949EA0A09EB
:10320000C8F80890D1F8048018F4801FDFF85491B2
:10321000D9F8088014BF48EA070828EA0708C9F85F
:103220000880D1F8048018F4001FDFF83891D9F82D
:103230000C8014BF48EA070828EA0708C9F80C8080
:10324000D1F8048018F4003FDFF81891D9F8048011
:1032500014BF48EA070828EA0708C9F80480D1F82B
:10326000048018F4803FDFF8FC90D9F8008014BF88
:1032700048EA070728EA0707C9F800700133D1F8C0
:103280000090043239FA03F75DD04FF0010808FAD4
:1032900003F808EA090738EA0909EFD1D1F80490E0
:1032A000B9F1120F3FF632AFB9F1120F3FF652AF3C
:1032B0000FF2040A5AF829F02D31000805330008EE
:1032C000153300082933000855310008553100082E
:1032D00055310008553100085531000855310008B6
:1032E00055310008553100085531000855310008A6
:1032F0005531000855310008553100080B330008DE
:103300001F330008D1F80CC024E7D1F80CC00CF131
:10331000040C1FE7D1F80CC00CF1080C1AE7D1F827
:103320000CC00CF10C0C15E74FF0000C12E74FF03D
:10333000040C0FE74FF000095EE74FF001095BE76F
:103340004FF0020958E703B0BDE8F08F00100240CB
:103350000000221000003110000032100000121096
:1033600000080140000401408368194214BF012095
:10337000002070470AB1016170470904016170477C
:10338000C36801EA030221EA030141EA0241016143
:10339000704768B338B5044603684CF6CC421A60EF
:1033A000036845F255521A60036842685A60036820
:1033B00082689A60FFF702FA05462368DA6812F01D
:1033C000030F09D14AF6AA221A60002038BD2368EB
:1033D000DA6812F0030FF5D0FFF7F0F9401B272849
:1033E000F5D92368DB6813F0030FF0D00320EDE775
:1033F0000120704703684AF6AA221A60002070472D
:10340000002800F001822DE9F04182B004460368F3
:1034100013F0010F2CD09F4B5B6803F00C03042BBF
:103420001DD09C4B5B6803F00C03082B12D0636823
:10343000B3F5803F41D0002B55D103F1804303F514
:1034400004331A6822F480321A601A6822F4802247
:103450001A6037E08F4B5B6813F4803FE7D08D4BE9
:103460001B6813F4003F03D06368002B00F0CE818B
:10347000236813F0020F75D0864B5B6813F00C0FB6
:103480005FD0844B5B6803F00C03082B54D0236996
:10349000002B00F08A80804B01221A60FFF78EF922
:1034A00005467C4E336813F0020F75D1FFF786F99D
:1034B000401B0228F6D90320ADE1764A136843F495
:1034C00080331360636843B3FFF778F90546714EA4
:1034D000336813F4003FCBD1FFF770F9401B642829
:1034E000F6D9032097E1B3F5A02F09D0694B1A68EC
:1034F00022F480321A601A6822F480221A60E1E70E
:1035000003F18043A3F53C331A6842F480221A6029
:103510001A6842F480321A60D4E7FFF74FF9054683
:103520005C4E336813F4003FA2D0FFF747F9401B0D
:103530006428F6D903206EE1564B5B6813F4803F94
:10354000A5D1544B1B6813F0020F03D02369012B44
:1035500040F05E814F4A1368616923F0F80343EA43
:10356000C1031360236813F0080F3DD0A369002B3B
:1035700066D0494B0122C3F88024FFF71FF90546A6
:10358000444E736A13F0020F21D1FFF717F9401B65
:103590000228F6D903203EE13E4A1368616923F010
:1035A000F80343EAC1031360DCE73B4B00221A60D7
:1035B000FFF704F90546374E336813F0020FD1D0F8
:1035C000FFF7FCF8401B0228F6D9032023E1334B18
:1035D0001B68334AA2FB03235B0A019300BF019BD4
:1035E0005A1E0192002BF9D1236813F0040F00F04A
:1035F0009B80284BDB6913F0805F34D1254BDA695F
:1036000042F08052DA61DB6903F080530093009B43
:103610000125244B1B6813F4807F26D0E368012B1F
:1036200042D0002B58D103F1804303F504331A6ACA
:1036300022F001021A621A6A22F004021A6238E0C9
:10364000154B0022C3F88024FFF7B8F80546114E49
:10365000736A13F0020FC7D0FFF7B0F8401B0228BF
:10366000F6D90320D7E00025D3E70E4A136843F4C8
:1036700080731360FFF7A2F806460A4F3B6813F405
:10368000807FCBD1FFF79AF8801B6428F6D90320FE
:10369000C1E000BF001002400000424200000020D4
:1036A000D34D6210007000405E4A136A43F001037C
:1036B0001362E36833B3FFF781F80646594F41F2CE
:1036C00088383B6A13F0020F2DD1FFF777F8801B83
:1036D0004045F6D903209EE0052B09D0514B1A6ACC
:1036E00022F001021A621A6A22F004021A62E0E76A
:1036F0004C4B1A6A42F004021A621A6A42F0010242
:103700001A62D6E7FFF75AF80646464F41F2883864
:103710003B6A13F0020F06D0FFF750F8801B4045BC
:10372000F6D9032077E0E5B9E369002B72D03D4A72
:10373000526802F00C02082A56D0022B17D03A4BDE
:1037400000221A66FFF73AF80446364D2B6813F04C
:10375000007F47D0FFF732F8001B0228F6D903207C
:1037600059E0304AD36923F08053D361DCE72E4B14
:1037700000221A66FFF722F805462A4E336813F036
:10378000007F06D0FFF71AF8401B0228F6D9032065
:1037900041E0236AB3F5803F1AD022494A68236A80
:1037A000606A034322F4741213434B601E4B0122E0
:1037B0001A66FFF703F804461A4D2B6813F0007FD2
:1037C0000ED1FEF7FBFF001B0228F6D9032022E0F2
:1037D000144A536823F40033A1680B435360DCE7B9
:1037E000002018E0002016E0012B17D00D4B5B687D
:1037F00003F48031226A914212D103F47013606A9B
:10380000181A18BF012006E001207047012002E0CD
:10381000012000E0002002B0BDE8F0810120FAE7BD
:103820000120F8E700100240000042420F4B5B68A5
:1038300003F00C02082A01D00D487047C3F38342FD
:103840000C49885C13F4803F0BD0084B5B68084A36
:1038500002FB00F0C3F34043074AD35CB0FBF3F034
:103860007047064B03FB00F0704700BF001002409A
:1038700000127A00C47E0008C07E000800093D00E6
:10388000002800F0A2802DE9F0410D460446534B7C
:103890001B6803F007038B420BD2504A136823F0D6
:1038A00007030B431360136803F007038B4240F0D8
:1038B0008E80236813F0020F17D013F0040F04D08A
:1038C000474A536843F4E0635360236813F0080FDA
:1038D00004D0434A536843F460535360404A5368EA
:1038E00023F0F003A1680B435360236813F0010F2A
:1038F00031D06268012A20D0022A25D0384B1B68BB
:1039000013F0020F65D036494B6823F003031343CD
:103910004B60FEF753FF0646314F41F288387B6813
:1039200003F00C036268B3EB820F14D0FEF746FF7E
:10393000801B4045F3D9032045E0294B1B6813F455
:10394000003FE0D101203EE0254B1B6813F0007FD3
:10395000D9D1012037E0214B1B6803F00703AB42AC
:103960000AD91E4A136823F007032B431360136818
:1039700003F00703AB422ED1236813F0040F06D0E7
:10398000174A536823F4E063E1680B4353602368EC
:1039900013F0080F07D0124A5368216923F46053CB
:1039A00043EAC1035360FFF741FF0D4B5B68C3F36C
:1039B00003130C4AD35CD8400B4B18600B4B1868B0
:1039C000FEF73AFE0020BDE8F0810120704701209B
:1039D000F9E70120F7E70120F5E700BF00200240EA
:1039E00000100240B07E0008000000200800002007
:1039F000044B5B68C3F30223034AD35C034A106899
:103A0000D840704700100240A87E00080000002047
:103A1000044B5B68C3F3C223034AD35C034A1068B8
:103A2000D840704700100240A87E00080000002027
:103A30000F2303600B4B5A6802F0030242605A687E
:103A400002F0F00282605A6802F4E062C2605B68D1
:103A5000DB0803F4E0630361034B1B6803F0070317
:103A60000B60704700100240002002402DE9F04139
:103A700082B00446036813F0010F36D03F4BDB6978
:103A800013F0805F49D13D4BDA6942F08052DA6130
:103A9000DB6903F080530193019B0125384B1B68C0
:103AA00013F4807F3BD0354B1B6A13F4407313D063
:103AB000626802F440729A420ED0304A136A23F4CC
:103AC000407030490126C1F840640026C1F84064C6
:103AD000106213F0010F36D1284A136A23F44073A1
:103AE00061680B431362002D3ED1236813F0020F6F
:103AF00006D0224A536823F44043A1680B43536025
:103B0000236813F0100F34D01C4A536823F4800349
:103B1000E1680B43536000202CE00025BEE7184A03
:103B2000136843F480731360FEF748FE0646144F93
:103B30003B6813F4807FB6D1FEF740FE801B6428FB
:103B4000F6D9032016E0FEF739FE06460B4F41F288
:103B500088383B6A13F0020FBED1FEF72FFE801BA0
:103B60004045F6D9032005E0D36923F08053D361A3
:103B7000BBE7002002B0BDE8F08100BF00100240AA
:103B8000007000400000424270B4036A026A22F0F2
:103B9000010202624468826922F073020D682A43BE
:103BA00023F002038D682B430B4DA84206D04460DE
:103BB00082614A684263036270BC704723F0080365
:103BC000CD682B4323F0040324F440744D698E69BF
:103BD00035432C43EBE700BF002C014070B4036A6F
:103BE000026A22F4807202624468C26922F073029F
:103BF0000D682A4323F400738D6843EA05230C4DB6
:103C0000A84206D04460C2614A68C263036270BCC5
:103C1000704723F40063CD6843EA052323F48063EF
:103C200024F440544D698E69354344EA0514E9E7AC
:103C3000002C014030B4036A026A22F4805202620E
:103C40004468C26922F4E6420D6842EA052223F480
:103C500000538D6843EA0533074DA84206D04460FF
:103C6000C2614A680264036230BC704724F4804435
:103C70004D6944EA8514F2E7002C014090F83D308C
:103C8000DBB2012B27D1022380F83D300268D368D4
:103C900043F00103D3600368114A934210D0B3F19B
:103CA000804F0DD0A2F59432934209D002F5806284
:103CB000934205D01A6842F001021A600020704752
:103CC0009A6802F00702062A07D01A6842F0010239
:103CD0001A6000207047012070470020704700BF25
:103CE000002C01400268D36823F00103D36003680D
:103CF000196A41F21112114208D1196A40F2444284
:103D0000114203D11A6822F001021A60012380F8DF
:103D10003D300020704770477047704770477047CC
:103D200010B5044603681A6912F0020F11D0DA6860
:103D300012F0020F0DD06FF002021A610123037717
:103D400003689B6913F0030F70D0FFF7E6FF0023B1
:103D5000237723681A6912F0040F12D0DA6812F080
:103D6000040F0ED06FF004021A6102232377236838
:103D70009B6913F4407F5FD02046FFF7CEFF0023FE
:103D8000237723681A6912F0080F12D0DA6812F04C
:103D9000080F0ED06FF008021A61042323772368FE
:103DA000DB6913F0030F4ED02046FFF7B6FF002368
:103DB000237723681A6912F0100F12D0DA6812F014
:103DC000100F0ED06FF010021A61082323772368BA
:103DD000DB6913F4407F3DD02046FFF79EFF0023B0
:103DE000237723681A6912F0010F03D0DA6812F002
:103DF000010F36D123681A6912F0800F03D0DA68F8
:103E000012F0800F34D123681A6912F0400F03D0EA
:103E1000DA6812F0400F32D123681A6912F0200FCD
:103E200003D0DA6812F0200F30D110BDFFF774FF15
:103E30002046FFF773FF8AE72046FFF76DFF204615
:103E4000FFF76CFF9BE72046FFF766FF2046FFF772
:103E500065FFACE72046FFF75FFF2046FFF75EFFF8
:103E6000BDE76FF001021A612046FDF7EBFEC1E7E6
:103E70006FF080021A61204600F0FDFAC3E76FF090
:103E800040021A612046FFF74AFFC5E76FF02002A3
:103E90001A61204600F0EEFAC7E700000368254AE1
:103EA000904214D0B0F1804F26D0A2F594329042C7
:103EB00036D002F58062904237D023F080034A6901
:103EC000134303608B68C3620B68836225E023F0B1
:103ED00070034A68134323F44073CA68134323F002
:103EE00080034A69134303608B68C3620B68836273
:103EF0000A69104B1A6310E023F070034A681343F9
:103F000023F44073CA68134323F080034A691343C0
:103F100003608B68C3620B6883620123436170474F
:103F200023F070034A681343EAE723F070034A68FA
:103F30001343E5E7002C014040B310B5044690F868
:103F40003D30F3B1022384F83D30214651F8040B93
:103F5000FFF7A4FF012384F8463084F83E3084F84C
:103F60003F3084F8403084F8413084F8423084F89F
:103F7000433084F8443084F8453084F83D300020E4
:103F800010BD80F83C30FEF7A3FADBE70120704754
:103F900040B310B5044690F83D30F3B1022384F8E5
:103FA0003D30214651F8040BFFF778FF012384F8D8
:103FB000463084F83E3084F83F3084F8403084F84E
:103FC000413084F8423084F8433084F8443084F837
:103FD000453084F83D30002010BD80F83C30FFF7BC
:103FE0009AFEDBE70120704770B4036A026A22F090
:103FF000100202624468826922F4E6420D6842EAD5
:10400000052223F020038D6843EA05130C4DA842D6
:1040100006D0446082614A688263036270BC704764
:1040200023F08003CD6843EA051323F0400324F412
:1040300040644D698E69354344EA8504E9E700BF71
:10404000002C014038B590F83C30012B66D0044676
:104050000D46012380F83C300C2A5AD8DFE802F0E4
:10406000075959591B595959305959594400006831
:10407000FFF78AFD2268936943F008039361226881
:10408000936923F0040393612268936929690B43C0
:10409000936100203EE00068FFF7A6FF2268936965
:1040A00043F4006393612268936923F4806393610E
:1040B00022689369296943EA01239361002029E07A
:1040C0000068FFF78BFD2268D36943F00803D361D2
:1040D0002268D36923F00403D3612268D369296974
:1040E0000B43D361002015E00068FFF7A3FD2268B1
:1040F000D36943F40063D3612268D36923F48063F6
:10410000D3612268D369296943EA0123D36100207E
:1041100000E00120002384F83C3038BD0220FCE799
:1041200010B4846824F47F4C0A4342EA032242EA32
:104130000C02826010BC704738B590F83C30012BFF
:1041400000F0AD800446012380F83C30022380F863
:104150003D300268936823F47F4323F07703936034
:104160000B68602B60D03DD8402B79D01CD9502BE8
:1041700036D103684868CD68196A1A6A22F00102CC
:104180001A629A6922F0F00242EA051221F00A014D
:1041900001439A6119622268936823F0700343F027
:1041A00057039360002012E0202B02D00BD9302B54
:1041B00014D121688A6822F07002134343F0070388
:1041C0008B60002003E033F01002F2D001200123C5
:1041D00084F83D30002384F83C3038BD0120F6E7F8
:1041E0000120F4E7B3F5805F55D0B3F5005F0CD143
:1041F000CB684A6889680068FFF792FF2268936875
:1042000043F4804393600020E1E7702B45D1CB68F5
:104210004A6889680068FFF783FF2268936843F063
:10422000770393600020D2E703684868CD681A6A74
:10423000196A21F010011962996921F4704141EA6B
:10424000053122F0A00242EA001299611A62226846
:10425000936823F0700343F0670393600020B6E790
:1042600003684868CD68196A1A6A22F001021A6266
:104270009A6922F0F00242EA051221F00A01014394
:104280009A6119622268936823F0700343F0470330
:10429000936000209BE7002099E7012097E7022028
:1042A0009BE701F01F01036A4FF0010C0CFA01FCBF
:1042B00023EA0C030362036A8A401A4302627047CE
:1042C00010B50446084601BB94F83E30DBB2012B22
:1042D00052D1022384F83E30012201462068FFF7C4
:1042E000E0FF2368264A934234D0B3F1804F38D0A0
:1042F000244A934235D002F58062934231D01A6845
:1043000042F001021A60002035E004290CD008298F
:104310000CBF94F8403094F84130DBB2013B18BF39
:10432000012343B1012026E094F83F30DBB2013B8A
:1043300018BF0123F5E7042808D008284FF002032E
:104340000CBF84F8403084F84130C5E7022384F87C
:104350003F30C1E7536C43F40043536423689342F6
:10436000C3D19A6802F00702062A07D01A6842F001
:1043700001021A60002010BD0120FCE70020FAE7CE
:10438000002C01400004004038B504460D460022D0
:104390000068FFF786FF22681B4B9A4214D02368FF
:1043A000196A41F21112114208D1196A40F24442CD
:1043B000114203D11A6822F001021A60ADB901233B
:1043C00084F83E30002038BD1A6A41F211131A42B7
:1043D000E5D10D4B1A6A40F244431A42DFD10A4A32
:1043E000536C23F400435364D9E7042D08D0082DFF
:1043F0004FF001030CBF84F8403084F84130E1E70E
:10440000012384F83F30DDE7002C014090F83C2088
:10441000012A2BD030B40346012280F83C2002222E
:1044200080F83D2004686268A06822F070020D6880
:104430002A4362601A680E4CA2420AD0B2F1804F41
:1044400007D0A4F59434A24203D004F58064A242BC
:1044500004D120F08000496808439060012283F86D
:104460003D20002083F83C0030BC7047022070479C
:10447000002C014070477047026802F10C0353E8BA
:10448000003F23F490730C3242E800310029F3D14D
:10449000026802F1140353E8003F23F001031432D1
:1044A00042E800310029F3D1036B012B05D0202312
:1044B00080F84230002303637047026802F10C0366
:1044C00053E8003F23F010030C3242E8003100298A
:1044D000F3D1ECE710B504460268136923F44053A6
:1044E000C1680B4313610168CA68836800690343AC
:1044F0006069034322F4B05222F00C021343CB60F4
:104500002268536923F44073A1690B435361226805
:10451000114B9A421BD0FFF76BFA034603EB830360
:1045200003EB830362689200B3FBF2F320680B494C
:10453000A1FB03425209642404FB12331B013233F2
:10454000A1FB0313120102EB5312826010BDFFF7AF
:104550005FFA0346E2E700BF003801401F85EB51D8
:1045600060B310B5044690F8413013B3242384F8A7
:1045700041302268D36823F40053D3602046FFF70C
:10458000A9FF2268136923F49043136122685369D9
:1045900023F02A0353612268D36843F40053D360A5
:1045A00000206064202384F8413084F84230606346
:1045B00010BD80F84030FDF7FBFFD7E701207047C2
:1045C00090F84130DBB2202B10D189B192B1016259
:1045D0008284C28400234364212280F84120016840
:1045E000CA6842F08002CA601846704702207047CD
:1045F0000120704701207047704708B5406A0023CA
:10460000C385C384FFF7F8FF08BD704710B50446A3
:10461000226802F10C0353E8003F23F490730C323C
:1046200042E800310029F3D1226802F1140353E873
:10463000003F23F00103143242E800310029F3D196
:10464000236B012B1CD023685B6913F0400F2ED025
:10465000226802F1140353E8003F23F040031432B0
:1046600042E800310029F3D1E36BB3B1154A5A6334
:10467000E06BFEF74DFC18B3E06B436B98471FE00F
:10468000226802F10C0353E8003F23F010030C32C0
:1046900042E800310029F3D1D5E70023E385202249
:1046A00084F8422023632046FFF7AFFF08E0002391
:1046B000E385202284F8422023632046FFF7A5FFEC
:1046C000002010BDC946000808B5406A0023C38514
:1046D000202280F842200363FFF797FF08BD704750
:1046E00090F84230DBB2222B1DD18368B3F5805F96
:1046F00006D0826A7BB103685B6803F07F031AE02F
:104700000369A3B9826A03685B68C3F30803138073
:10471000836A023312E00369002BECD108E000F059
:1047200081FF002048E00220704700207047826A25
:1047300003685B68DBB21370836A01338362C38DE5
:10474000013B9BB2C385002BEFD100B583B002685B
:10475000D36823F02003D3600268D36823F4807306
:10476000D3600268536923F001035361202380F86A
:10477000423000234363036B012BD0D1002303633A
:10478000026802F10C0353E8003F23F010030C32DF
:1047900042E800310029F3D103681A6812F0100FC3
:1047A00006D0002201921A6801925B680193019B76
:1047B000818DFFF794FF002003B05DF804FB00003B
:1047C00010B582B0044602681368D068516913F0CE
:1047D0000F0F09D113F0200F0DD010F0200F0AD0C9
:1047E0002046FFF77DFF18E001F0010100F4907C06
:1047F0005CEA010C13D1216B012900F0818013F0D8
:10480000800F03D010F0800F40F01A8113F0400F9A
:1048100003D010F0400F40F0408102B010BD13F003
:10482000010F06D010F4807F03D0626C42F00102C9
:10483000626413F0040F0BD091B1626C42F002027B
:10484000626413F0020F07D113F0080F0FD112E0CA
:1048500013F0020F04D019B1626C42F004026264DA
:1048600013F0080F07D000F020020A4303D0626C57
:1048700042F008026264626C002ACED013F0200F6E
:1048800002D010F0200F0ED123685B69626C03F038
:10489000400302F00802134309D12046FFF7ACFEA3
:1048A00000236364B9E72046FFF71AFFECE72046D0
:1048B000FFF7E2FD23685B6913F0400F1CD022680C
:1048C00002F1140353E8003F23F04003143242E89E
:1048D00000310029F3D1E36B53B1754A5A63E06BA1
:1048E000FEF716FB002898D0E06B436B984794E7DF
:1048F0002046FFF781FE90E72046FFF77DFE8CE71C
:1049000013F0100F3FF47BAF10F0100F3FF477AFB0
:10491000002301931368019353680193019B53692A
:1049200013F0400F50D0E26B13685B689BB2002B12
:104930003FF473AFA18D99427FF66FAFE385936922
:10494000202B37D0226802F10C0353E8003F23F4F8
:1049500080730C3242E800310029F3D1226802F161
:10496000140353E8003F23F00103143242E80031FE
:104970000029F3D1226802F1140353E8003F23F029
:104980004003143242E800310029F3D1202384F897
:10499000423000232363226802F10C0353E8003FF6
:1049A00023F010030C3242E800310029F3D1E06B10
:1049B000FEF78DFA02236363E38DA18DC91A89B2D4
:1049C0002046FFF78CFE28E7E38D9AB2E38D9BB279
:1049D000002B3FF422AFA18D891A89B200293FF440
:1049E0001CAF226802F10C0353E8003F23F49073DC
:1049F0000C3242E800300028F3D1226802F114039F
:104A000053E8003F23F00103143242E8003000284D
:104A1000F3D1202384F8423000232363226802F17B
:104A20000C0353E8003F23F010030C3242E800303F
:104A30000028F3D1022363632046FFF750FEECE623
:104A400094F84130DBB2212B7FF4E7AEA368B3F5D5
:104A5000805F16D0236A591C21621B785360E38C57
:104A6000013B9BB2E384002B7FF4D7AE2268D3686E
:104A700023F08003D3602268D36843F04003D360FF
:104A8000CBE62369002BE5D1236A1B88C3F3080317
:104A90005360236A02332362E1E7D36823F04003C3
:104AA000D360202384F84130204600F083FDB4E633
:104AB000FB45000881628285C2850023436422236E
:104AC00080F84230036923B10268D36843F48073ED
:104AD000D3600268536943F0010353610268D368ED
:104AE00043F02003D3600020704708B590F84230AF
:104AF000DBB2202B08D149B10AB9012008BD00233F
:104B00000363FFF7D7FFF9E70220F7E70120F5E796
:104B100010B50446084601F1FF3C5FFA8CFCBCF17D
:104B2000F60F2BD811461A46174B18700CB10224F9
:104B300025E0164B164C1C60164B174C1C60174B8F
:104B4000174C1C60174B184C1C60184B00241C6041
:104B5000174B184C1C60184B184C1C60184B194C08
:104B60001C609DF8083000F0BFFA044638B900F028
:104B70003DFC30B1144B01221A7000E002242046A3
:104B800010BD0324FBE700BF8C190020841900200E
:104B90002151000880190020415100088819002087
:104BA000A95100087C1900205951000878190020EB
:104BB000741900203552000870190020C1520008F5
:104BC0006C1900202D5300088C00002008B5064BFE
:104BD0001B78012B01D0062008BD044B1B689847A9
:104BE0000020014B1870F7E78C000020841900208A
:104BF00030B583B0394B1C78002C55D10DF107002E
:104C000000F03CFC012802D0204603B030BD9DF8E6
:104C10000730022B19D0042BF6D1314B18680178DC
:104C2000304B1970304B01221A7000232F4D15F8AC
:104C3000332022B191421DD00133102BF7D12C4BE0
:104C40001B78002B34D11C46DEE72A4B1B682A4A0E
:104C500023492748984705460028D5D1244B1B787F
:104C6000264A12789A4200D003BB042000F0C8FB09
:104C70002C46C9E71D4A02EBC3035B681E499847EF
:104C8000194B18701A4B1B7863B1174B1B788BB9F3
:104C90001B4B1B68184A128811490968174800788D
:104CA0009847B1E71C46AFE70624ADE70446ABE7FB
:104CB0000D4B1B780B4A1178094805680E4A4FF0D6
:104CC000010CA2F800C061F07F0129700068118812
:104CD00001EB0C0515804354DAE700BF8C0000207F
:104CE0006419002061190020601900200C000020C8
:104CF000681900207C190020621900208C190020FE
:104D000088190020B9B130B401F1FF3C1FFA8CFCC6
:104D10000CF1010C8444FF221146094D094C10F896
:104D2000013B5340EA5C4A40E15C6045F7D142EA0E
:104D3000012030BC7047FF2242EA0220704700BFCA
:104D4000D47F0008D47E000838B50B88052B01D02D
:104D5000032038BD0C46C378027942EA0322531E71
:104D60009BB240F2CE718B4225D890F801C0817879
:104D7000002323800123037023880133238012F052
:104D8000070F1DBFD5080135EDB2C2F3C705457049
:104D900023880133238041EA0C210131002389B2A9
:104DA000023000F013FD18B923881D442580D0E798
:104DB00000F00CFBCDE70320CBE70B88052B01D0DF
:104DC0000320704703790BBBC278531EDBB2FD2B67
:104DD0001ED900B583B04378817800208DF8050096
:104DE000FF2A14BF002201228DF8042041EA03218A
:104DF000013101231A4689B201A800F0E7FC10B97D
:104E000003B05DF804FB00F0E1FAF9E70320704716
:104E1000032070470B88052B28D910B50C46C278A3
:104E2000037943EA022213F0070F1DBFD1080131B5
:104E3000C9B2C2F3C701531E9BB2B3F5F66F17D2C6
:104E400043798B4201D0032010BD4378817841EA39
:104E500003210131012389B2063000F0B7FC10B9FB
:104E600005232380F0E700F0B1FAEDE70320704757
:104E70000320E9E738B50B88052B01D0032038BDA6
:104E80000C46C378027942EA0322531E9BB240F2D9
:104E9000CE718B4224D890F801C081780023238002
:104EA0000223037023880133238012F0070F1DBFF4
:104EB000D5080135EDB2C2F3C7054570238801332B
:104EC000238041EA0C21013189B2023000F0F8FC64
:104ED00018B923881D442580D1E700F077FACEE782
:104EE0000320CCE708B50B88052B01D0032008BDB3
:104EF0004378817841EA0321013101231A4689B2BE
:104F0000033000F019FC0028F1D000F05FFAEEE762
:104F10000B88052B21D910B50C46C378027942EADB
:104F20000322531E9BB2772B19D853004179DBB271
:104F3000994201D0032010BD4378817841EA0321D2
:104F40000131012389B2063000F0F6FB10B90523C8
:104F50002380F0E700F03AFAEDE7032070470320E2
:104F6000E9E738B50B88052B01D0032038BD0C4686
:104F7000C378057945EA03256B1E9BB27C2B01D9CA
:104F80000320F3E790F801C08178002323800322F7
:104F900002702288013222806A0042702288013227
:104FA000228041EA0C2101312A4689B2023000F008
:104FB000C3FB20B9238803EB45032380D6E700F029
:104FC00005FAD3E70B88092B44D92DE9F0410446B3
:104FD0000D46C378067946EA0326731E9BB27C2BE6
:104FE0003AD8C379027A42EA0322531E9BB2782B45
:104FF00035D8437AB3EB420F01D003202DE090F86F
:10500000018087784379817941EA032101310123C5
:1050100089B20A3000F090FB0346C0B928801722FD
:1050200022702A8801322A80720062702A88013236
:105030002A8047EA08210131324689B2A01C00F0DB
:105040007BFB20B92B8803EB46032B8005E000F0A7
:10505000BDF902E0002070470320BDE8F081032085
:10506000FBE738B50B88052B01D0032038BD0C4673
:10507000C378057945EA03256B1E9BB27B2B01D9CA
:105080000320F3E742788178002323800423037010
:105090002388013323806B004370238801332380EE
:1050A00041EA022101312A4689B2023000F018FBA0
:1050B00020B9238803EB45032380D7E700F086F966
:1050C000D4E7000038B50D46054B1C88224605493B
:1050D000013002F06FFD01342C80002038BD00BF8C
:1050E0008E1900209019002070B50C4615461E46FA
:1050F00000F079F9334608222946204600F0E4F909
:10510000012804D0032400F06FF9204670BD23204D
:1051100000F09EFA012814BF03240024F3E70000E6
:1051200008B500F060F90021044B1970012000F06F
:10513000EFF900F092FA00F057F908BDB81A002014
:1051400008B500F050F90021084600F0E1F900F040
:1051500088FA00F049F908BD70B506460D461446B8
:1051600000F041F90E4B1B889BB2032B04D8052499
:1051700000F03AF9204670BD094B198889B20948F8
:10518000FFF7C0FD50B9074B13F8012B3270044AEA
:105190001288033A22802B600024E9E70524E7E720
:1051A000B0190020B81900202DE9F04105460C4641
:1051B000904600F018F91A4B1B78DBB2012B05D092
:1051C000052400F011F92046BDE8F081601E154B62
:1051D0001860154F01263E8004F8015C3B8808EBFF
:1051E000030292B23A80398889B2FFF78BFD3B887F
:1051F0009BB29A1992B23A80C2B20C49CA543B8807
:105200009BB29A1992B23A80C0F30720C854084B57
:105210001E703146002000F07BF90024D1E700BF6A
:10522000B81A0020B4190020B2190020B8190020C3
:10523000B91A002000B583B00DF1070000F0B2F9F3
:105240001C4B1B78DBB2032B05D8DFE803F0020B05
:105250001D0800F002FA002003B05DF804FB00F026
:10526000FCF9F8E7144A0023138013889BB2591CF9
:1052700089B211809DF80710104AD1540D4B0222BB
:105280001A7000F0EAF9E6E70B4B1B889BB2FF2B84
:105290000CD809490B889BB25A1C92B20A809DF81F
:1052A0000710064AD15400F0D8F9D4E7014B032285
:1052B0001A70F8E7B81A0020B0190020B8190020B9
:1052C00010B5174B1B7803F0FF0423B1012C07D056
:1052D0000024204610BD0021012000F019F9F8E754
:1052E000104B1B889BB273B10F4C2368187800F0E9
:1052F00041F92368013323600A4A1388013B9BB2BA
:1053000013800024E5E7082000F07AF80446002125
:10531000012000F0FDF8024B00221A70D9E700BF0F
:10532000B91A0020B2190020B419002010B50C4B96
:105330001B785BB103F0FF02022A0CD0002400F0BE
:1053400090F9074B01221A70204610BD012000F091
:1053500057F80446F3E7022000F052F80446EEE75F
:10536000B81A002030B5CC0804F1010E4FF0010C42
:105370000CFA02FC0CF1FF3C1FFA8CFCA1EBC402FE
:105380000CFA02FC10F80E50025D42EA052222EAF5
:105390000C0201F007018B4013431BB20355C3F30A
:1053A000072300F80E3030BD4FEAD10C00EBD103DB
:1053B0005B7810F80C0040EA032001F00701084177
:1053C00001239340013B1840C0B27047012806D02A
:1053D000072806D0003818BF01208000704702203F
:1053E00070470620704770477047000008B5FCF70B
:1053F00073F9024B1860012008BD00BFBC1A0020E1
:1054000000B583B0014604281FD018D8431EDBB274
:10541000012B16D80023019301AA174B186800F03E
:105420001DFD70B1019B63B14FF0E0234FF080523E
:10543000C3F8042DBFF34F8FBFF36F8F01E008282F
:1054400003D0012003B05DF804FB0023019301AAFF
:10545000094B186800F002FD0028F2D0019B002BD8
:10546000EFD04FF0E0234FF08052C3F8042DBFF38C
:105470004F8FBFF36F8FE4E7BC1A002030B583B0C5
:1054800005464FF0FF330093002301220F210D4CFE
:10549000206800F00CFC431E072B07D8DFE803F060
:1054A0000409060C0606060F01232B70012003B029
:1054B00030BD02232B70F9E704232B70F6E7082395
:1054C0002B70F3E7BC1A002008B5104A5160002188
:1054D000D160012B0AD0022B10D023B10B48FFF76B
:1054E0003FF8012008BD91601161F7E7074B4FF4C9
:1054F00080529A604FF4C0621A61EFE7034B4FF499
:1055000080529A604FF480621A61E7E738170020F2
:1055100010B582B00C4690B1012212491248FFF733
:10552000E4FA00224FF480711048FDF723FF84B1A4
:1055300001210F4B186800F044FC02B010BD01229D
:105540004FF480710948FDF715FF0748FFF75EF833
:10555000EDE700230093012211460548006800F0A2
:10556000A6FBEAE7C11A0020381700200008014016
:10557000C41A002000B583B08DF8070001224FF453
:1055800080710648FDF7F6FE01220DF1070104487F
:10559000FFF716F8012003B05DF804FB0008014096
:1055A00038170020024B1B7803700120704700BFA2
:1055B000C01A002000B583B00023019301AA012185
:1055C000094B186800F04AFC58B1019B4BB14FF0F1
:1055D000E0234FF08052C3F8042DBFF34F8FBFF389
:1055E0006F8F03B05DF804FBC41A0020F0B583B0E0
:1055F000FCF778F8094B18601E464FF0FF35084F4E
:1056000000240095234601221146306800F04FFB2C
:105610000128F6D13B689847F2E700BFC41A002082
:105620007019002008B506490A78064B1A70012245
:105630000548FFF75AFA054B1B68984708BD00BF9D
:10564000C11A0020C01A0020381700207419002049
:1056500008B5FCF753F8012008BD08B5FCF75AF867
:1056600008BD08B5FCF764F808BD000008B5024B9A
:105670001B68984708BD00BF6C190020014B1870CB
:10568000704700BFCC1A002070B582B0012811D03D
:1056900070B90024114E0125E0B2FCF70FF8034663
:1056A0002A46A1B23046FFF75DFE0134042CF3D147
:1056B00002B070BD0024094E01252A46A1B2304631
:1056C000FFF772FE8DF807009DF80710E0B2FBF7B8
:1056D000EDFF0134042CF0D1EAE700BFC81A002026
:1056E000013989B204291ED9F8B58B180D2B1CDCA1
:1056F000104B1B88CC1AA4B2CAB1851C224496B2A6
:10570000E7B23846FCF7F2FA000A05F8020C384610
:10571000FCF7ECFA05F8010C0134A4B20235B442EE
:10572000EED1002002E0012070470120F8BD0020EA
:10573000FCE700BF90000020013989B20C293AD95A
:105740002DE9F04105461E468B18172B35DC1E4B04
:105750001B88CC1AA4B2B6B1012E31D100206AB395
:1057600002351619B6B215F8021C15F8013C43EAC9
:105770000121E0B2FCF7D2FA0134A4B20235B442FE
:10578000F1D100201AE0EAB1023522441FFA82F872
:10579000E7B23846FCF79CFA000A05F8020C3846D6
:1057A000FCF796FA05F8010C0134A4B20235A045C5
:1057B000EED1304602E0012070470120BDE8F081C3
:1057C0000020FBE73046F9E78E000020013989B25E
:1057D000002969D02DE9F04F83B0054616461F46D3
:1057E0008B18052B62DCD2080192334B1B88CC1A34
:1057F000C4F3CC0B04F007042FB3012F5AD1531C70
:10580000012B98BF804619D9019B00EB030807467E
:10581000ABEB0005ADB2DFF8A4A04FF00809781992
:1058200080B217F8013B4A4621465044FFF79AFDE3
:105830004745F4D1019B5B441FFA83FB16F0070236
:1058400029D1002033E00020FFF71EFF019B013328
:1058500005EB0309A846ABEB0505ADB2DFF85CA08C
:105860004FF0080B08EB050080B25A462146504421
:10587000FFF79AFD08F8010BC845F3D106F00706BB
:10588000C6F1080619F8012CB240D2B2324109F82B
:10589000012C38460BE098F8003021460748584460
:1058A000FFF760FD002002E001207047012003B0F7
:1058B000BDE8F08F0020FAE792000020C81A00200F
:1058C0002DE9F0474D1EADB2AB18012B02DD0120D2
:1058D000BDE8F0871646164B1B88ED1AC5F3CC08B9
:1058E00005F0070500EBD20701370446A8EB0008D6
:1058F0001FFA88F8DFF83CA04FF0080904EB080015
:1059000080B24A4629465044FFF74EFD04F8010B89
:10591000BC42F3D106F00706C6F1080617F8013CB1
:10592000B340DBB2334107F8013C0020D0E700BFB1
:10593000CE1A0020CC1A0020EFF30583A3B9EFF3B1
:105940001083A3B90D4B1868022804D090B90B4BF3
:1059500001221A607047EFF31183002B0CBF4FF048
:10596000FF306FF0050070476FF0050070476FF073
:10597000050070474FF0FF30704700BF2022002025
:1059800008B5EFF30583C3B9EFF31083C3B90F4B29
:105990001B68022B08D0012B15D10C4B02221A6078
:1059A00001F070F8002008BDEFF31183002B0CBF4D
:1059B0004FF0FF306FF00500F5E76FF00500F2E7FC
:1059C0006FF00500EFE74FF0FF30ECE720220020FA
:1059D000F0B587B000240494EFF30584D4B9EFF355
:1059E0001083BBB92C4B1B68022B0FD090B1002346
:1059F0008DF81730002A3AD0146874B193697BB1DE
:105A00001D46013B372B0CD9002004E0EFF3118336
:105A1000002BEBD0049807B0F0BD0DF11704EDE7B3
:105A20001825536813F0010F34D1536913B14FEAAD
:105A3000930C01E04FF0800C96688EB1D768A72FC9
:105A4000E8D91269002AE5D0002BE3D00296019232
:105A500000950B466246214600F0A8FF0490D9E766
:105A6000D368002BD6D11369002BD3D104E01825BD
:105A70004FF0800C0DF1170404AB019300950B4619
:105A80001FFA8CF2214600F0CBFF01281CBF002337
:105A90000493BFE70020BEE72022002008B5EFF303
:105AA0000583A3B9EFF31083A3B90C4B1B68022B3A
:105AB00002D040B9002008BDEFF31183002BF8D0CD
:105AC0006FF00500F7E701F053F90020F3E76FF0FE
:105AD0000500F0E76FF00500EDE700BF2022002091
