:020000040800F2
:1000000000500020ED220008892200088B22000801
:100010008D2200088F2200089122000800000000B5
:1000200000000000000000000000000061760008F1
:1000300093220008000000000177000845770008BF
:100040003523000835230008352300083523000830
:100050003523000835230008352300083523000820
:1000600035230008352300083523000895220008B1
:100070003523000835230008352300083523000800
:1000800035230008352300083523000835230008F0
:1000900035230008352300083523000835230008E0
:1000A00035230008A922000835230008352300085D
:1000B000B922000835230008C922000835230008AA
:1000C00035230008352300083523000835230008B0
:1000D00035230008D92200083523000835230008FD
:1000E00035230008352300083523000800000000F0
:1000F0000000000000000000000000000000000000
:0C01000000000000000000005FF808F1A3
:1001100010B5054C237833B9044B13B10448AFF341
:1001200000800123237010BD6C000020000000003F
:10013000787C000808B5034B1BB103490348AFF3B3
:10014000008008BD0000000070000020787C0008DE
:1001500070B54FF0FF0C4CF4E06C1CEA11541DBF5D
:100160001CEA135594EA0C0F95EA0C0F00F0DEF828
:100170002C4481EA030621EA4C5123EA4C5350EA0D
:10018000013518BF52EA033541F4801143F480135E
:1001900038D0A0FB02CE4FF00005E1FB02E506F0EF
:1001A0000042E0FB03E54FF00006E1FB03569CF044
:1001B000000F18BF4EF0010EA4F1FF04B6F5007F4A
:1001C00064F5407404D25FEA4E0E6D4146EB0606BC
:1001D00042EAC62141EA55514FEAC52040EA5E5045
:1001E0004FEACE2EB4F1FD0C88BFBCF5E06F1ED8EF
:1001F000BEF1004F08BF5FEA500E50F1000041EB26
:10020000045170BD06F0004646EA010140EA0200D2
:1002100081EA0301B4EB5C04C2BFD4EB0C0541EAF4
:10022000045170BD41F480114FF0000E013C00F309
:10023000AB8014F1360FDEBF002001F0004170BD2D
:10024000C4F10004203C35DA0C341BDC04F1140446
:10025000C4F1200500FA05F320FA04F001FA05F2D2
:1002600040EA020001F0004221F0004110EBD3709F
:1002700021FA04F642EB06015EEA430E08BF20EACB
:10028000D37070BDC4F10C04C4F1200500FA04F36E
:1002900020FA05F001FA04F240EA020001F0004100
:1002A00010EBD37041F100015EEA430E08BF20EA73
:1002B000D37070BDC4F1200500FA05F24EEA020EBB
:1002C00020FA04F301FA05F243EA020321FA04F0EA
:1002D00001F0004121FA04F220EA020000EBD370A1
:1002E0005EEA430E08BF20EAD37070BD94F0000FA1
:1002F0000FD101F00046400041EB010111F4801FD5
:1003000008BF013CF7D041EA060195F0000F18BF85
:10031000704703F00046520043EB030313F4801FC1
:1003200008BF013DF7D043EA0603704794EA0C0F7B
:100330000CEA135518BF95EA0C0F0CD050EA410691
:1003400018BF52EA4306D1D181EA030101F000410E
:100350004FF0000070BD50EA410606BF1046194636
:1003600052EA430619D094EA0C0F02D150EA013642
:1003700013D195EA0C0F05D152EA03361CBF104683
:1003800019460AD181EA030101F0004141F0FE4122
:1003900041F470014FF0000070BD41F0FE4141F4A6
:1003A000780170BD81F0004102E000BF83F000439E
:1003B00030B54FEA41044FEA430594EA050F08BF00
:1003C00090EA020F1FBF54EA000C55EA020C7FEAC4
:1003D000645C7FEA655C00F0E2804FEA5454D4EB41
:1003E0005555B8BF6D420CDD2C4480EA020281EA0B
:1003F000030382EA000083EA010180EA020281EA43
:100400000303362D88BF30BD11F0004F4FEA013194
:100410004FF4801C4CEA113102D0404261EB4101A3
:1004200013F0004F4FEA03334CEA133302D0524229
:1004300063EB430394EA050F00F0A780A4F10104E5
:10044000D5F1200E0DDB02FA0EFC22FA05F280181F
:1004500041F1000103FA0EF2801843FA05F3594105
:100460000EE0A5F120050EF1200E012A03FA0EFC84
:1004700028BF4CF0020C43FA05F3C01851EBE371AE
:1004800001F0004507D54FF0000EDCF1000C7EEBCB
:1004900000006EEB0101B1F5801F1BD3B1F5001F09
:1004A0000CD349085FEA30004FEA3C0C04F1010428
:1004B0004FEA445212F5800F80F09A80BCF1004F51
:1004C00008BF5FEA500C50F1000041EB045141EAD3
:1004D000050130BD5FEA4C0C404141EB0101013C9C
:1004E00028BFB1F5801FE9D291F0000F04BF01468B
:1004F0000020B1FA81F308BF2033A3F10B03B3F15D
:1005000020020CDA0C3208DD02F1140CC2F10C02EC
:1005100001FA0CF021FA02F10CE002F11402D8BF4A
:10052000C2F1200C01FA02F120FA0CFCDCBF41EA16
:100530000C019040E41AA2BF01EB0451294330BDE5
:100540006FEA04041F3C1CDA0C340EDC04F11404C2
:10055000C4F1200220FA04F001FA02F340EA030099
:1005600021FA04F345EA030130BDC4F10C04C4F1DF
:10057000200220FA02F001FA04F340EA03002946BF
:1005800030BD21FA04F0294630BD94F0000F83F409
:10059000801306BF81F480110134013D4EE77FEAEC
:1005A000645C18BF7FEA655C29D094EA050F08BF38
:1005B00090EA020F05D054EA000C04BF1946104619
:1005C00030BD91EA030F1EBF0021002030BD5FEA5D
:1005D000545C05D14000494128BF41F0004130BD85
:1005E00014F580043CBF01F5801130BD01F00045D9
:1005F00045F0FE4141F470014FF0000030BD7FEA4C
:10060000645C1ABF194610467FEA655C1CBF0B4646
:10061000024650EA013406BF52EA033591EA030F5D
:1006200041F4002130BD00BF90F0000F04BF002155
:10063000704730B54FF4806404F132044FF0000588
:100640004FF0000150E700BF90F0000F04BF002101
:10065000704730B54FF4806404F1320410F0004567
:1006600048BF40424FF000013EE700BF42004FEA62
:10067000E2014FEA31014FEA02701FBF12F07F43DF
:1006800093F07F4F81F06051704732F07F4208BF96
:10069000704793F07F4F04BF41F40021704730B59D
:1006A0004FF4607401F0004521F000411CE700BFE9
:1006B00050EA010208BF704730B54FF000050AE06C
:1006C00050EA010208BF704730B511F0004502D56D
:1006D000404261EB41014FF4806404F132045FEA6F
:1006E000915C3FF4D8AE4FF003025FEADC0C18BF18
:1006F00003325FEADC0C18BF033202EBDC02C2F10A
:10070000200300FA03FC20FA02F001FA03FE40EA9B
:100710000E0021FA02F11444BDE600BF4FEA410287
:10072000B2F1E04324BFB3F5001CDCF1FE5C0DD94F
:1007300001F0004C4FEAC0024CEA5070B2F1004F99
:1007400040EB830008BF20F00100704711F0804F9C
:1007500021D113F13872BCBF01F00040704741F461
:1007600080114FEA5252C2F11802C2F1200C10FA65
:100770000CF320FA02F018BF40F001004FEAC12349
:100780004FEAD32303FA0CFC40EA0C0023FA02F3ED
:100790004FEA4303CCE77FEA625307D150EA0133C3
:1007A0001EBF4FF0FE4040F44000704701F0004093
:1007B00040F0FE4040F40000704700BF80F0004071
:1007C00002E000BF81F0004142001FBF5FEA410329
:1007D00092EA030F7FEA226C7FEA236C6AD04FEA29
:1007E0001262D2EB1363C1BFD2184140484041406E
:1007F000B8BF5B42192B88BF704710F0004F40F420
:10080000000020F07F4018BF404211F0004F41F43B
:10081000000121F07F4118BF494292EA030F3FD007
:10082000A2F1010241FA03FC10EB0C00C3F120031A
:1008300001FA03F100F0004302D5494260EB4000A9
:10084000B0F5000F13D3B0F1807F06D340084FEA14
:10085000310102F10102FE2A51D2B1F1004F40EB09
:10086000C25008BF20F0010040EA03007047490071
:1008700040EB0000013A28BFB0F5000FEDD2B0FA0E
:1008800080FCACF1080CB2EB0C0200FA0CF0AABF31
:1008900000EBC25052421843BCBFD04018437047CF
:1008A00092F0000F81F4000106BF80F400000132D5
:1008B000013BB5E74FEA41037FEA226C18BF7FEAAC
:1008C000236C21D092EA030F04D092F0000F08BFEE
:1008D0000846704790EA010F1CBF0020704712F0D5
:1008E0007F4F04D1400028BF40F00040704712F114
:1008F00000723CBF00F50000704700F0004343F079
:10090000FE4040F4000070477FEA226216BF0846AE
:100910007FEA23630146420206BF5FEA412390EA71
:10092000010F40F4800070474FF0000304E000BF67
:1009300010F0004348BF40425FEA000C08BF704718
:1009400043F0964301464FF000001CE050EA0102DC
:1009500008BF70474FF000030AE000BF50EA0102F1
:1009600008BF704711F0004302D5404261EB4101DE
:100970005FEA010C02BF84460146002043F0B64303
:1009800008BFA3F18053A3F50003BCFA8CF2083A28
:10099000A3EBC25310DB01FA02FC634400FA02FC31
:1009A000C2F12002BCF1004F20FA02F243EB020038
:1009B00008BF20F00100704702F1200201FA02FC9A
:1009C000C2F1200250EA4C0021FA02F243EB02008D
:1009D00008BF20EADC7070474FF0FF0C1CEAD052D1
:1009E0001EBF1CEAD15392EA0C0F93EA0C0F6FD092
:1009F0001A4480EA010C400218BF5FEA41211ED070
:100A00004FF0006343EA501043EA5111A0FB01315B
:100A10000CF00040B1F5000F3EBF490041EAD37130
:100A20005B0040EA010062F17F02FD2A1DD8B3F1AC
:100A3000004F40EBC25008BF20F00100704790F01B
:100A4000000F0CF0004C08BF49024CEA502040EA6D
:100A500051207F3AC2BFD2F1FF0340EAC250704733
:100A600040F400004FF00003013A5DDC12F1190F71
:100A7000DCBF00F000407047C2F10002410021FAE3
:100A800002F1C2F1200200FA02FC5FEA310040F1FB
:100A9000000053EA4C0308BF20EADC70704792F074
:100AA000000F00F0004C02BF400010F4000F013AAC
:100AB000F9D040EA0C0093F0000F01F0004C02BFA7
:100AC000490011F4000F013BF9D041EA0C018FE716
:100AD0000CEAD15392EA0C0F18BF93EA0C0F0AD01C
:100AE00030F0004C18BF31F0004CD8D180EA010042
:100AF00000F00040704790F0000F17BF90F0004FDB
:100B0000084691F0000F91F0004F14D092EA0C0FBC
:100B100001D142020FD193EA0C0F03D14B0218BF4F
:100B2000084608D180EA010000F0004040F0FE4095
:100B300040F40000704740F0FE4040F44000704731
:100B40004FF0FF0C1CEAD0521EBF1CEAD15392EAB0
:100B50000C0F93EA0C0F69D0A2EB030280EA010CA0
:100B600049024FEA402037D04FF0805343EA111139
:100B700043EA10130CF000408B4238BF5B0042F197
:100B80007D024FF4000C8B4224BF5B1A40EA0C003C
:100B9000B3EB510F24BFA3EB510340EA5C00B3EB6E
:100BA000910F24BFA3EB910340EA9C00B3EBD10F5C
:100BB00024BFA3EBD10340EADC001B0118BF5FEAAE
:100BC0001C1CE0D1FD2A3FF650AF8B4240EBC250D7
:100BD00008BF20F0010070470CF0004C4CEA502098
:100BE0007F32C2BFD2F1FF0340EAC250704740F4E7
:100BF00000004FF00003013A37E792F0000F00F0D9
:100C0000004C02BF400010F4000F013AF9D040EA56
:100C10000C0093F0000F01F0004C02BF490011F4EA
:100C2000000F013BF9D041EA0C0195E70CEAD153E2
:100C300092EA0C0F08D142027FF47DAF93EA0C0FC9
:100C40007FF470AF084676E793EA0C0F04D14B02AD
:100C50003FF44CAF08466EE730F0004C18BF31F05F
:100C6000004CCAD130F000427FF45CAF31F0004359
:100C70007FF43CAF5FE700BF4FF0FF3C06E000BFF2
:100C80004FF0010C02E000BF4FF0010C4DF804CD15
:100C90004FEA40024FEA41037FEA226C18BF7FEA25
:100CA000236C11D001B052EA530C18BF90EA010F27
:100CB00058BFB2EB030088BFC81738BF6FEAE170B6
:100CC00018BF40F0010070477FEA226C02D15FEA52
:100CD000402C05D17FEA236CE4D15FEA412CE1D0BE
:100CE0005DF8040B704700BF844608466146FFE785
:100CF0000FB5FFF7C9FF002848BF10F1000F0FBD67
:100D00004DF808EDFFF7F4FF0CBF012000205DF85F
:100D100008FB00BF4DF808EDFFF7EAFF34BF0120E4
:100D200000205DF808FB00BF4DF808EDFFF7E0FF7D
:100D300094BF012000205DF808FB00BF4DF808EDCE
:100D4000FFF7D2FF94BF012000205DF808FB00BF31
:100D50004DF808EDFFF7C8FF34BF012000205DF813
:100D600008FB00BF42000ED2B2F1FE4F0BD34FF092
:100D70009E03B3EB126209D44FEA002343F0004311
:100D800023FA02F070474FF00000704712F1610F34
:100D900001D1420202D14FF0FF3070474FF0000006
:100DA000704700BF2DE9F843022832D80E461C4B8D
:100DB00013F810300BB90F462CE0194A02EB400231
:100DC0005478254603EB0408444526DA0027DFF86B
:100DD000549004E00134A4B2254644451ADA05EBE8
:100DE000450359F823103046FFF79EFF0028F1D045
:100DF0006F0005EB450309EB830359683046FFF7A5
:100E0000EBFD2F4409EB8707B968FFF7DDFC0746C8
:100E1000E0E700273846BDE8F8830027FAE700BF7F
:100E2000E80400208C00002001291ED00346114A4E
:100E300012F8100098B910B40F4A12888C18602C60
:100E400015D80C4C01F1FF3C04F813C004EB43042B
:100E50006270013A1144084B198010BC7047013987
:100E6000081A18BF01204000704703207047012076
:100E7000F3E700BFE8040020880000202DE9F047D8
:100E800007460E4615461C46DDF820A0DDF82490E6
:100E900049465046FFF796FC804621462846FFF714
:100EA00091FC01464046FFF74BFE38602146504614
:100EB000FFF792FD074629464846FFF78DFD01469C
:100EC0003846FFF77FFC074629462046FFF77AFCA5
:100ED00001463846FFF734FE3060BDE8F087000079
:100EE000144B13F81030934201D802207047F0B52C
:100EF00083B00D460F4B03EB40035B781A4494B26A
:100F0000670004EB4400800000F108010A4E043041
:100F1000AB6801932B680093EB686A6831443044F6
:100F2000FFF7ACFFEB68274446F82730002003B0FA
:100F3000F0BD00BFE80400208C00002070B584B034
:100F40001D460023019303930B2826D81646144B05
:100F500003EB001399734A1E18BF01221A73114B39
:100F600053F83030009302291DBF0D4B03EB0013E3
:100F7000CBB201230A4C04EB0014A37301230293A8
:100F8000084B03EBC0036946586801F089FEA66070
:100F900065600020607304B070BD0120FBE700BFF6
:100FA00004050020907C000810B50B4C0023236042
:100FB00022460221094B186804F0CCFD23684BB18E
:100FC0004FF0E0234FF08052C3F8042DBFF34F8F52
:100FD000BFF36F8F10BD00BFF0040020000500209C
:100FE0002DE9F04182B09DF820402CB301EB430E77
:100FF00000EB42001C4401EB4404BDF824C04FEA5E
:101000004C0C00274FF003080D4D08E0019BA5FB99
:1010100003235B082EF8023B0230A6450CD0019753
:1010200001464346019E0A8832440192013B6144D5
:1010300013F0FF03F6D1E9E702B0BDE8F08100BF8D
:10104000ABAAAAAA84B003900B880293029A039BCE
:10105000C3EBC303DB00C82000FB0233C3F30F2341
:10106000ADF80630BDF806300B80BDF8060080B242
:1010700004B070470000000070B50446184E1949CE
:1010800001EB400136F81000FFF7DCFF054626F8BB
:101090001400FFF7D9FA10A3D3E90023FFF758F89B
:1010A000FFF73CFB0446C5F57F600F30FFF740FCBF
:1010B00001462046FFF744FD04460B49FFF748FE72
:1010C00020B92046FFF74EFE80B270BD48F6B8004A
:1010D000FBE700BFAFF30080000000000088C340C2
:1010E000E0050020D805002000B8084782B00023A2
:1010F0000193094AA2F1C000019B5B000193019991
:1011000092F8BC3003F001030B430193103A824282
:10111000F2D1019802B07047040500202DE9F04F8C
:1011200089B000F09DFAAC4B18600A231A460021E2
:101130000846FFF703FF0A231A4600210120FFF7A4
:10114000FDFE0A231A4600210220FFF7F7FE0A23BC
:101150001A4600210320FFF7F1FE0A231A46002158
:101160000420FFF7EBFE0A231A4600210520FFF7B3
:10117000E5FE0A231A4600210620FFF7DFFE0A23B8
:101180001A4600210720FFF7D9FE0A231A4600213C
:101190000820FFF7D3FE0A231A4600210920FFF793
:1011A000CDFE0A231A4600211846FFF7C7FE0A2380
:1011B0001A4600210B20FFF7C1FE0B210120FFF78B
:1011C00033FE864C002501266088FFF7ADFB0590B5
:1011D0002088FFF7A9FB0490E088FFF7A5FB0790A4
:1011E00034F8040FFFF7A0FB0690AAB204A930461A
:1011F000FFF776FE01350B2DE6D120210220FFF707
:1012000013FE774C002502266088FFF78DFB0590C2
:101210002088FFF789FB0490E088FFF785FB0790A3
:1012200034F8040FFFF780FB0690AAB204A93046F9
:10123000FFF756FE01351F2DE6D16A4A00231380C1
:10124000538093800393DFF8A0A198461E46DFF8F1
:101250009CB14FF001099FE14446A9E100F02EFD49
:10126000002840F0B881B0E14346614A1370BBF8F2
:10127000003013B15F4B1B7800E043465E4A1370A9
:10128000BAF80030BBF8002013439BB23BB15B4B74
:101290001B8801339BB2A34266D2584A1380584C34
:1012A000554B1A781021204601F040FE504B1A7819
:1012B0002021204601F03AFE09225249524801F00D
:1012C0008DF9484605F0A4FC504B1B782BB9039BC5
:1012D0000133DBB20393322B50D04D4C4D4D04F112
:1012E000C007ADF80A605AE0BAF8003013B1414BBC
:1012F0001B7800E04B463E4A1370404600F00AFD62
:10130000032807D0BBF8003013B33A4B18783A4B98
:101310001870B5E7BBF800305BB1364B1B78364A26
:101320001370BAF800305BB1324B1B78304A13703F
:10133000A6E7404600F0E0FC831E18BF0123EEE75D
:10134000404600F0D9FC022814BF00230123EDE73A
:10135000022000F0D1FC0546032000F0CDFC8542C0
:1013600094BF00200120D2E7244BA3F80080214A3B
:101370001378B3FA83F35B09137090E7234B83F878
:1013800000904946144B186804F097FBA5E7626883
:1013900016E0C4F8008010340835BC423CD0264624
:1013A000A37B022BF7D02988686801F0B9FD627B26
:1013B0008242EED0236801332360002AE7D1A2687D
:1013C0009342E8D9B37B83F0010303F00103434068
:1013D00033737073DFE700BF00050020F07C000866
:1013E0001C7D0008D8050020FA040020FC04002021
:1013F000F4040020F6040020F5040020F804002086
:1014000000080140C4050020001A0020FE0400204E
:1014100004050020907C0008BDF80A604FF0FF33FF
:1014200000934B46424602217D48006804F0BBFA17
:101430007C4801F01DFA7C4C032301930093434642
:10144000424621467948FFF7CBFDFFF74FFEC0F338
:101450000111062000F06AFCFFF748FE00F00F01C2
:10146000052000F063FCFFF741FEC0F3801104206B
:1014700000F05CFCFFF73AFEC0F3C011072000F05B
:1014800055FC6B492088FFF7DDFD208040F6566350
:10149000984228BF1846962838BF9620A0F1960398
:1014A000644A82FB0312D917C1EB6211053189B27C
:1014B000022000F03BFCFFF719FEC0F381214046FB
:1014C00000F034FCFFF712FEC0F30121484600F0A3
:1014D0002DFC0220FFF7D0FDA0F5FD739BB248F272
:1014E000BD6293423CD9072000F006FCC0B94846D3
:1014F000FFF7C2FDA0F2FB139BB248F2BC6293421D
:1015000077D94FF6FF71032000F010FC072000F0A0
:1015100001FC40F0020189B2072000F001FC34E038
:10152000072000F0F7FB40F0020189B2072000F02D
:10153000F7FB4846FFF7A0FDA0F2FB139BB248F271
:10154000BC629342DDD8FFF7EFF901464846FFF74A
:1015500029FCFFF707FC81B2032000F0E7FB14E051
:10156000FFF7E2F901460220FFF71CFCFFF7FAFB48
:1015700081B2032000F0DAFB072000F0CBFB20F063
:10158000020189B2072000F0CBFBFFF7AFFDC0F3EB
:101590000111404600F0C4FBAAF80060ABF80060FF
:1015A00000F086FB00287FF457AEAAF80090FA24DA
:1015B00000F078FB10B9ABF80090FA24072000F097
:1015C000A9FB10F0020F3FF449AEAAF80090ABF867
:1015D00000904FF4FA74404600F08EFB00287FF430
:1015E00083AEBAF80030002B3FF43EAE124B1B78AE
:1015F0003BE6FFF799F901464846FFF7D3FBFFF7B3
:10160000B1FB81B2032000F091FB072000F082FBC8
:1016100020F0020189B2072000F082FBB5E700BF8D
:1016200000050020001A0020E0050020C40500206D
:10163000D8050020B71A3C47F604002008B50A2454
:10164000204604F0A7F8FBE7014B1868704700BF7D
:1016500054060020014B1868704700BF3006002078
:10166000014B1868704700BF0C060020014B18683A
:10167000704700BFA806002008B50A4BD86018467E
:1016800002F02EFA48B908484FF448634360142327
:10169000C36002F025FA10B908BD72B6FEE772B653
:1016A000FEE700BF68190020D818002010B5054CCF
:1016B000204602F0EBF8236800225A62204602F02E
:1016C000B1F810BD6819002008B5024802F0DEF834
:1016D00008BD00BF6819002010B50446044802F098
:1016E000D5F8044B1C80044B00221A8010BD00BFAB
:1016F000D8180020E6050020E805002010B5064CAB
:10170000204602F0C3F8226800235362034A138084
:10171000204602F087F810BDD8180020E805002008
:1017200008B5034B00221A80024802F0AFF808BD4A
:10173000E8050020D818002008B5084A13880133AE
:101740009BB21380064A12889A4200D008BD034B10
:1017500000221A8003F058FEF8E700BFE8050020D9
:10176000E605002000B595B0202200210BA806F068
:101770009DF900230593069307930893099301931A
:101780000293039304930A230A9301230E931022D6
:101790000F921093022311934FF4601313930AA82E
:1017A00001F002FCC8B90F23059302210691002322
:1017B00007934FF480620892099305A801F034FE64
:1017C00068B9022301934FF40043039301A801F089
:1017D00021FF30B915B05DF804FB72B6FEE772B6B2
:1017E000FEE772B6FEE7000080B592B000F0A4FDFF
:1017F000FFF7B8FF00240B940C940D940E94AD4D9C
:10180000AB6943F01003AB61AB6903F010030193C4
:10181000019BAB6943F02003AB61AB6903F020038C
:101820000293029BAB6943F00403AB61AB6903F025
:1018300004030393039BAB6943F00803AB61AB69FB
:1018400003F008030493049B9B4E22464FF49871C7
:10185000304601F06BFB994F22464FF470413846F9
:1018600001F064FB4FF498730B934FF00109CDF82E
:1018700030900D944FF00208CDF838800BA9304617
:1018800001F00EFA40F6FF730B930C940D940BA924
:10189000384601F005FA4FF470430B93CDF83090C1
:1018A0000D94CDF838800BA9384601F0F9F94FF4C2
:1018B00000430B930C940D940BA9304601F0F0F902
:1018C0006B6943EA09036B616B6903EA09030093DF
:1018D000009B224605210B2001F00CF80B2001F0A3
:1018E0003FF87748774B03604FF4E13343604FF4A0
:1018F00080538360C4604FF4C06303610C23436171
:101900008461C46102F04CFB002840F04C8100234C
:101910000B930C930D930E93079308936A484FF023
:10192000804202604FF44C62426083604FF47A72EE
:10193000C2600361836102F0D3F8002840F0358172
:101940004FF480530B930BA95F4802F0C9F90028AC
:1019500040F02D81202307930023089307A95A48BC
:1019600002F074FA002840F0248100230B930C93BA
:101970000D935648564A02604FF4807282600122ED
:10198000027303754FF46022C26143600323036155
:1019900000F0EAFE002840F00E8100230B930123A3
:1019A0000C9304230D930BA9484800F027FD002851
:1019B00040F0038101230B9302230C930BA94348AE
:1019C00000F01CFD002840F0FA8002230B93032353
:1019D0000C930BA93D4800F011FD002840F0F18068
:1019E00000230793089309930A93059306930B9397
:1019F0000C930D930E930F93109311933548364A21
:101A000002600222426083604FF47A72C260036116
:101A1000836102F065F8002840F0D5804FF48053D0
:101A2000079307A92B4802F05BF9002840F0CD800E
:101A3000284802F081F8002840F0C980002305936F
:101A4000069305A9234802F001FA002840F0C1805E
:101A500060230B9300220C920D9204230F930BA989
:101A60001C4802F0C3F8002840F0B5804FF4FA7328
:101A70000C9304220BA9174802F0B8F8002840F094
:101A8000AC80144800F04AFB00230B930C930D9399
:101A90000E93079308931148114A02604FF4FA42DB
:101AA000426083604FF4FA62C2600361836102F0B6
:101AB00017F817E00010024000080140000C014038
:101AC000901800200038014068190020001A0020FA
:101AD000002401402019002000040040D8180020F4
:101AE0000008004000287AD14FF480530B930BA9D3
:101AF0003F4802F0F5F8002873D120230793002314
:101B0000089307A93A4802F0A1F900286BD1394897
:101B1000394B03600423436040F6FF73836001F098
:101B20000BFA002861D103F083FD344A01210846F5
:101B300003F07AFE324B1860324A0021324803F03B
:101B4000C3FD324B1860324A0021324803F0BCFD1D
:101B5000314B1860314A0021314803F0B5FD314B5B
:101B60001860314A0021314803F0AEFD304B186057
:101B7000304A0021304803F0A7FD304B1860304850
:101B800003F02AFE2F4B18602F4803F025FE2F4B41
:101B900018602F4803F020FE2E4B186000F094F8D8
:101BA00003F06AFDFEE772B6FEE772B6FEE772B6B4
:101BB000FEE772B6FEE772B6FEE772B6FEE772B6F1
:101BC000FEE772B6FEE772B6FEE772B6FEE772B6E1
:101BD000FEE772B6FEE772B6FEE772B6FEE772B6D1
:101BE000FEE772B6FEE772B6FEE772B6FEE700BF2A
:101BF000D8180020B019002000300040387E0008BE
:101C0000A8060020D87E00083D1600088C18002089
:101C1000B47E00081D110008E0150020907E000829
:101C200059530008B41200206C7E0008711D000892
:101C300008100020487E0008391D00085C0B0020B9
:101C4000287E000854060020187E00083006002078
:101C5000087E00080C06002008B5024801F09DF936
:101C600008BD00BFB019002010B504460368B3F1E9
:101C7000804F08D02268084B9A4207D02268074B51
:101C80009A4206D010BD03F0BFFBF3E7FFF754FD07
:101C9000F4E700F063FBF5E700080040002C01408A
:101CA00072B6FEE7014B1878704700BF881A002013
:101CB000014B1878704700BF651A0020014B187857
:101CC000704700BF641A0020014B1860704700BFC6
:101CD0008C1A002000B583B001464FF0FF3300930B
:101CE000012300220348006803F05DFE03B05DF8A5
:101CF00004FB00BF8C1A0020024610B9034B0121DF
:101D00001970034B33F81200704700BF381A0020D7
:101D10003C1A0020014B33F810007047501A002085
:101D2000014B23F810107047501A0020014B23F884
:101D3000101070473C1A002008B50120FFF7CAFFB9
:101D400001234FF496420021084602F001FC02F004
:101D500051FC0421054B186803F0AFFE0A2420460D
:101D600004F056FF02F058FCF9E700BF8C1A00207F
:101D70002DE9F04182B07D4B03F1200100221A7061
:101D80005A7002338B42FAD10025794E794F0124E3
:101D900003E00720FFF79EFF2546FFF75DFF0023C6
:101DA000F3800A2004F034FF002DF2D03C70724B17
:101DB0001B88012B31D0022B33D0002B29D06E4B46
:101DC0005B88012B37D0022B32D0002B2CD06A4AF3
:101DD00091886A4B9980D288DA80694B1B78002BF6
:101DE0002DD0012BD8D1644B1B89002B34D100237B
:101DF000644A1370644A1370644A1370644A14701E
:101E00005F4A1370634B1C70634B1C70634B1C70F8
:101E1000C2E75A4B00221A80D1E7584B02221A809F
:101E2000CDE7564B1C80CAE7544B02225A80CEE7BE
:101E3000524B5C80CBE7514B03225A80C7E700200E
:101E400000904E4B04220D2102F0ECFDB0FA80F020
:101E500040094B4B18709FE70023082205214C488E
:101E6000007802F0B6FE042861D800286BD1DFF8B4
:101E7000208198F800003D4B03EB4003002159708E
:101E8000013880B203F0C8FA054698F8000001381E
:101E9000072180B203F0C0FA374B9B89AB4203D0D5
:101EA0003A4A137801331370022D57D0042D55D0C0
:101EB00010F0010F03D0344A137801331370344B00
:101EC0001B782A4A02EB43025278132A08D9274A80
:101ED00002EB4302142151702A490A7801320A7038
:101EE0000133DBB22A4A1370234A52899A421AD22A
:101EF000274B1C7023490B78B3FA83F35B09274AFD
:101F0000137000220A7021490B78B3FA83F35B093E
:101F1000214803700A701C490B78B3FA83F35B09FC
:101F20001C4803700A70164B00221A7034E706280A
:101F30007FF432AF164B1A780C4B03EB42035A78FE
:101F400001325A70BBE7124B1A78084B03EB42037D
:101F50005A7801325A70002889D0B0E710F0020F89
:101F6000A6D0094A137801331370A1E7681A00203C
:101F7000501A0020381A00203C1A0020301A002085
:101F8000891A00208B1A00208A1A0020661A002065
:101F900000000020641A0020651A0020881A002022
:101FA00000B583B0114B9A6942F001029A619A69B7
:101FB00002F001020092009ADA6942F08052DA617E
:101FC000DB6903F080530193019B00220F216FF026
:101FD000010000F08FFC064A536823F0E06343F0F1
:101FE0000073536003B05DF804FB00BF00100240B3
:101FF0000000014010B586B00023029303930493C0
:10200000059302681D4B9A4201D006B010BD0446EC
:1020100003F56C439A6942F400729A619A6902F47A
:1020200000720092009A9A6942F004029A619B69D8
:1020300003F004030193019B0723029303230393FB
:1020400002A90F4800F02CFE0E480F4B036000233E
:10205000436083608022C2604FF4807202614FF45B
:10206000806242618361C36100F088FC18B9054B4E
:1020700023625C62C9E7FFF713FEF8E70024014022
:1020800000080140BC1900200800024000B585B0DE
:102090000368B3F1804F08D01D4A934219D01D4AFE
:1020A000934221D005B05DF804FB03F50433DA69EF
:1020B00042F00102DA61DB6903F001030193019B45
:1020C000002205211C2000F015FC1C2000F048FC1B
:1020D000E8E7114BDA6942F00202DA61DB6903F0EA
:1020E00002030293029BDDE70B4BDA6942F0040224
:1020F000DA61DB6903F004030393039B00220521EB
:102100001E2000F0F7FB1E2000F02AFCCAE700BFEB
:1021100000040040000800400010024000B587B0F5
:102120000023029303930493059302680D4B9A4294
:1021300002D007B05DF804FB03F503339A6942F05F
:1021400004029A619B6903F004030193019BC0237D
:102150000293022303930323059302A9024800F08C
:102160009FFDE6E7000400400008014030B587B05D
:102170000023029303930493059302681B4B9A4236
:1021800001D007B030BD03F558439A6942F480424C
:102190009A619A6902F480420092009A9A6942F028
:1021A00004029A619B6903F004030193019B4FF4BD
:1021B0000073029302230393032305930C4D02A99A
:1021C000284600F06DFD4FF48063029300240394D1
:1021D000049402A9284600F063FD2246052125202B
:1021E00000F088FB252000F0BBFBCAE70038014067
:1021F0000008014030B589B004461E4B9A6942F48C
:1022000000629A619B6903F400630193019B02A938
:1022100003A801F0E1F901F0CFF903461648174A87
:10222000026040F2E732C260154AA2FB03239B0C16
:10223000013B4360002303618360836101F050FC34
:10224000054610B1284609B030BD0B4801F0EAFA46
:1022500005460028F6D1192000F082FB0F2C01D989
:102260000125EFE700222146192000F043FB054B32
:102270001C60E7E700100240901A0020002C01408B
:1022800083DE1B430C000020FEE7FEE7FEE7FEE7CF
:10229000FEE7704708B5FEF787FE024800F060FCD5
:1022A00008BD00BFBC19002008B5024801F00CFBB6
:1022B00008BD00BF901A002008B5024801F004FBD9
:1022C00008BD00BF6819002008B5024801F0FCFAFB
:1022D00008BD00BFD818002008B5024801F090FFE3
:1022E00008BD00BF9018002070470000FFF7FCFFFA
:1022F0000B480C490C4A002302E0D458C450043364
:10230000C4188C42F9D3094A094C002301E0136038
:102310000432A242FBD305F027FCFFF765FA7047B1
:10232000000000206C000020C88100086C00002024
:10233000D03A0020FEE7000008B5074A136843F0D2
:1023400010031360032000F0C3FA0F20FFF752FFC1
:10235000FFF726FE002008BD00200240034A116856
:10236000034B1B780B441360704700BFD81A002042
:1023700008000020014B1868704700BFD81A0020E1
:10238000704708B5436A9A6A12F0500F1ED19A6AD4
:1023900042F400729A621A68926802F46022B2F5FE
:1023A000602F03D01846FFF7EBFF08BD1A7B002A09
:1023B000F8D19A6A22F480729A629A6A12F4805F63
:1023C000F0D19A6A42F001029A62EBE71B6A1B6B3A
:1023D0009847EAE7704708B5406AFFF7FBFF08BD7A
:1023E000704708B5406A836A43F040038362C36A5A
:1023F00043F00403C362FFF7F3FF08BD30B482B0BB
:102400000022019290F82420012A00F093800346D4
:10241000012280F824204A68062A2DD80468606BBF
:1024200002EB8202053A4FF01F0C0CFA02FC20EA84
:102430000C000D6805FA02F2024362630A68092A79
:1024400038D91C68E06802EB42021E3A4FF0070CD4
:102450000CFA02FC20EA0C008D6805FA02F2024335
:10246000E2600A68103A012A34D90020002283F879
:10247000242002B030BC70470C2A0DD80568286BA8
:1024800002EB8202233A1F24944020EA04000C68E5
:10249000944020432863D1E70568E86A02EB820292
:1024A000413A1F24944020EA04000C6894402043E1
:1024B000E862C3E71C68206902EB42024FF0070C98
:1024C0000CFA02FC20EA0C008D6805FA02F20243C5
:1024D0002261C6E71868184A904205D09A6A42F00D
:1024E00020029A620120C1E7926812F4000F1DD108
:1024F0001148826842F4000282600A68102A01D002
:102500000020B3E70D4A12680D49A1FB0212920C9C
:1025100002EB820252000192019A4AB1019A013AF9
:102520000192019A002AF9D100209FE700209DE73F
:1025300000209BE702209CE70024014004000020CB
:1025400083DE1B4330B583B00023019303689A6890
:1025500012F0010F3BD104469A6842F001029A60E2
:102560001C4B1B681C4AA2FB03239B0C0193019B81
:102570002BB1019B013B0193019B002BF9D1FFF78C
:10258000F9FE054623689B6813F0010F06D0002072
:102590001EE023689B6813F0010F16D1FFF7EAFED7
:1025A000431B022BF5D923689B6813F0010FF0D170
:1025B000A36A43F01003A362E36A43F00103E362FA
:1025C000002384F82430012002E0002000E00020F5
:1025D00003B030BD0400002083DE1B43F8B5044681
:1025E0000D4616460168424881425DD0414B9942F2
:1025F0005AD094F82430012B77D0012384F824306A
:102600002046FFF79FFF074600286AD1A16A21F400
:10261000706121F0010141F48071A1622268354BA3
:102620009A4248D0A36A23F48013A362536813F438
:10263000806F05D0A36A23F4405343F48053A36210
:10264000A36A13F4805F1ABFE36A23F00603002332
:10265000E362002384F82430236A274A9A62236ABB
:10266000264ADA62236A264A1A6323686FF0020256
:102670001A602268936843F480739360216833463C
:102680002A464C31206A00F0AFF923689A6802F4B8
:102690006022B2F5602F9A680CBF42F4A00242F4A7
:1026A00080129A603846F8BD114B5B6813F4702FA6
:1026B0009FD00127F6E7A3F580635B6813F4702FC2
:1026C000B0D0A36A43F48013A362094B5B6813F490
:1026D000806FB5D0A36A23F4405343F48053A362C0
:1026E000AEE7002384F82430DCE70227DAE700BFF6
:1026F000002401400028014083230008D72300085C
:10270000E323000838B503689A6812F0010F01D17D
:10271000002038BD04469A6822F001029A60FFF753
:1027200029FE054623689B6813F0010F06D100209F
:10273000EFE723689B6813F0010F13D0FFF71AFE31
:10274000431B022BF5D923689B6813F0010FF0D0CF
:10275000A36A43F01003A362E36A43F00103E36258
:102760000120D6E70020D4E700287AD070B50446CF
:10277000836A002B4FD02046FFF7C4FFA36A13F0F3
:10278000100368D1002866D1A26A22F4885222F090
:10279000020242F00202A262217B6268E5692A43DA
:1027A00042EA4102A568B5F5807F04D0012D14BF2F
:1027B000002501252D02267D012E32D02668716864
:1027C00021F46941294371602568AE68264931408A
:1027D0001143A960A168B1F5807F01D0012902D120
:1027E0002369013B1B052568E96A21F470010B434D
:1027F000EB62236899681D4B0B409A4222D0A36A72
:1028000023F0120343F01003A362E36A43F00103D1
:10281000E362012024E0C36280F82430FFF7EAFB82
:10282000A9E731B9A169013945EA413141F40065AF
:10283000C4E7A16A41F02001A162E16A41F001010F
:10284000E162BBE70023E362A36A23F0030343F0E2
:102850000103A36204E0A36A43F01003A362012012
:1028600070BD0120704700BFFDF7E1FFFE0E1FFFA6
:1028700090F82430012B28D010B50446012380F8AD
:102880002430FFF73FFF50B92268936823F4807328
:102890009360226A92F82130DBB2022B03D000232E
:1028A00084F8243010BD104600F0EDF840B9A36A5A
:1028B00023F4885323F0010343F00103A362EEE7FE
:1028C000A36A43F04003A362E9E7022070470000D7
:1028D0000749CA68030203F4E06322F4E0621204C9
:1028E000120C134343F0BF6343F40033CB607047D3
:1028F00000ED00E000B5184BDB68C3F30223C3F121
:10290000070CBCF1040F28BF4FF0040C03F1040EB8
:10291000BEF1060F8CBF033B00234FF0FF3E0EFAC3
:102920000CFC21EA0C0199400EFA03FE22EA0E0289
:102930001143002809DB0901C9B200F1604000F52C
:10294000614080F800135DF804FB00F00F000901FE
:10295000C9B2024B1954F6E700ED00E014ED00E0B7
:10296000002807DB410900F01F0001238340024AD1
:1029700042F82130704700BF00E100E060B310B4BE
:1029800002460168154B0B441548A0FB03031B09C5
:102990009B001364134BD363022382F82130086831
:1029A00020F47F5020F03000536894682343D468AB
:1029B0002343146923435469234394692343D4690B
:1029C000234303430B6000209063012382F82130EE
:1029D00082F8200010BC704701207047F8FFFDBF4F
:1029E000CDCCCCCC0000024090F820C0BCF1010F4F
:1029F00047D04FF0010C80F820C090F821C05FFA5A
:102A00008CFCBCF1010F04D0002380F820300220A0
:102A1000704770B4022480F8214000248463056864
:102A20002C6824F001042C60C56B0124066CB440B2
:102A30006C60046863604368102B12D0036899606F
:102A40000368DA60C36A8BB10268136843F00E034F
:102A500013600268136843F001031360002070BC28
:102A6000704703689A600368D960EBE702681368EF
:102A700023F0040313600268136843F00A03136031
:102A8000E7E702207047034690F82120D2B2022ADD
:102A900006D0042282630120002283F820207047A0
:102AA00001680A6822F00E020A6001680A6822F0D2
:102AB00001020A60C06B01211A6C01FA02F2426045
:102AC00083F821100020E7E708B590F82130DBB249
:102AD000022B03D004238363012008BD026813681E
:102AE00023F00E0313600268136823F001031360E0
:102AF0000368194A934213D0143293421ED0143201
:102B000093421DD0143293421DD0143293421DD0F3
:102B10001432934214BF4FF080734FF4801300E0DF
:102B200001230E4A5360012380F82130002380F8EE
:102B30002030436B6BB198470020CEE71023F0E7BD
:102B40004FF48073EDE74FF48053EAE74FF480339E
:102B5000E7E70020C1E700BF080002400000024094
:102B600038B5C36B1A6804682568016C04238B4070
:102B7000134234D015F0040F31D0236813F0200F26
:102B800003D1236823F0040323600368424A93427D
:102B900013D01432934217D01432934216D0143209
:102BA000934216D01432934216D01432934214BF7B
:102BB0004FF080634FF4800300E00423374A5360F2
:102BC000C36A03B1984738BD4023F7E74FF48063E9
:102BD000F4E74FF48043F1E74FF48023EEE702235C
:102BE0008B4013423BD015F0020F38D0236813F00E
:102BF000200F06D1236823F00A032360012380F805
:102C000021300368244A934213D0143293421BD0DC
:102C1000143293421AD0143293421AD0143293428F
:102C20001AD01432934214BF4FF000734FF40013C4
:102C300000E00223194A5360002380F82030836AA1
:102C4000002BC0D09847BEE72023F3E74FF4007372
:102C5000F0E74FF40053EDE74FF40033EAE70823C1
:102C60008B401342AFD015F0080FACD0236823F08F
:102C70000E032360C16B0123026C03FA02F24A6067
:102C8000836380F82130002380F82030036B002B11
:102C900099D0984797E700BF080002400000024023
:102CA0002DE9F04F83B0D1F80090B9F1000F00F09A
:102CB000268100221346934D934C944EDFF850E248
:102CC0009446BEE0A1450DD004D9B1450AD0F145E6
:102CD00008D01BE0DFF83CA2D14503D00AF5702AEA
:102CE000D1450FD1D1F808C0BCF1000F00F0FB8036
:102CF000BCF1010F0CBFC0F81080C0F814804FF079
:102D0000080C03E0AAF5801AD145EBD0FF2F99BF3C
:102D10008146924600F10409A2F1200AD9F8008008
:102D20004FF00F0B0BFA0AFB28EA0B080CFA0AFA11
:102D300048EA0A08C9F80080D1F8048018F0805FDA
:102D400078D0D5F8188048F00108C5F81880D5F873
:102D5000188008F00108CDF80480DDF8048023F025
:102D6000030808F1804808F58038D8F808A003F077
:102D7000030B4FEA8B0B4FF00F0909FA0BF92AEA04
:102D8000090ADFF89491484500F0B08009F58069A0
:102D9000484500F0AE8009F58069484500F0AC80F8
:102DA00009F58069484514BF4FF004094FF0030945
:102DB00009FA0BF949EA0A09C8F80890D1F8048021
:102DC00018F4801FDFF85491D9F8088014BF48EA3E
:102DD000070828EA0708C9F80880D1F8048018F421
:102DE000001FDFF83891D9F80C8014BF48EA0708B3
:102DF00028EA0708C9F80C80D1F8048018F4003FCD
:102E0000DFF81891D9F8048014BF48EA070828EAC7
:102E10000708C9F80480D1F8048018F4803FDFF86F
:102E2000FC90D9F8008014BF48EA070728EA070792
:102E3000C9F800700133D1F80090043239FA03F771
:102E40005DD04FF0010808FA03F808EA090738EAEC
:102E50000909EFD1D1F80490B9F1120F3FF632AF62
:102E6000B9F1120F3FF652AF0FF2040A5AF829F0E7
:102E7000E52C0008BD2E0008CD2E0008E12E00082C
:102E80000D2D00080D2D00080D2D00080D2D00083A
:102E90000D2D00080D2D00080D2D00080D2D00082A
:102EA0000D2D00080D2D00080D2D00080D2D00081A
:102EB0000D2D0008C32E0008D72E0008D1F80CC035
:102EC00024E7D1F80CC00CF1040C1FE7D1F80CC0BA
:102ED0000CF1080C1AE7D1F80CC00CF10C0C15E73A
:102EE0004FF0000C12E74FF0040C0FE74FF0000911
:102EF0005EE74FF001095BE74FF0020958E703B0C6
:102F0000BDE8F08F001002400000221000003110D8
:102F100000003210000012100008014000040140BF
:102F20008368194214BF0120002070470AB1016173
:102F3000704709040161704768B338B504460368F7
:102F40004CF6CC421A60036845F255521A60036889
:102F500042685A60036882689A60FFF70BFA054678
:102F60002368DA6812F0030F09D14AF6AA221A6020
:102F7000002038BD2368DA6812F0030FF5D0FFF7A0
:102F8000F9F9401B2728F5D92368DB6813F0030FF4
:102F9000F0D00320EDE70120704703684AF6AA222B
:102FA0001A60002070470000002800F001822DE91F
:102FB000F04182B00446036813F0010F2CD09F4B00
:102FC0005B6803F00C03042B1DD09C4B5B6803F083
:102FD0000C03082B12D06368B3F5803F41D0002B5F
:102FE00055D103F1804303F504331A6822F480328B
:102FF0001A601A6822F480221A6037E08F4B5B68EF
:1030000013F4803FE7D08D4B1B6813F4003F03D0CF
:103010006368002B00F0CE81236813F0020F75D097
:10302000864B5B6813F00C0F5FD0844B5B6803F03A
:103030000C03082B54D02369002B00F08A80804BAE
:1030400001221A60FFF796F905467C4E336813F0AB
:10305000020F75D1FFF78EF9401B0228F6D9032025
:10306000ADE1764A136843F480331360636843B379
:10307000FFF780F90546714E336813F4003FCBD15A
:10308000FFF778F9401B6428F6D9032097E1B3F5E0
:10309000A02F09D0694B1A6822F480321A601A688E
:1030A00022F480221A60E1E703F18043A3F53C3368
:1030B0001A6842F480221A601A6842F480321A6058
:1030C000D4E7FFF757F905465C4E336813F4003F29
:1030D000A2D0FFF74FF9401B6428F6D903206EE118
:1030E000564B5B6813F4803FA5D1544B1B6813F01B
:1030F000020F03D02369012B40F05E814F4A136811
:10310000616923F0F80343EAC1031360236813F0F5
:10311000080F3DD0A369002B66D0494B0122C3F8AC
:103120008024FFF727F90546444E736A13F0020F17
:1031300021D1FFF71FF9401B0228F6D903203EE1F9
:103140003E4A1368616923F0F80343EAC103136040
:10315000DCE73B4B00221A60FFF70CF90546374EBF
:10316000336813F0020FD1D0FFF704F9401B022897
:10317000F6D9032023E1334B1B68334AA2FB032318
:103180005B0A019300BF019B5A1E0192002BF9D1EB
:10319000236813F0040F00F09B80284BDB6913F0C9
:1031A000805F34D1254BDA6942F08052DA61DB6905
:1031B00003F080530093009B0125244B1B6813F4FC
:1031C000807F26D0E368012B42D0002B58D103F139
:1031D000804303F504331A6A22F001021A621A6A64
:1031E00022F004021A6238E0154B0022C3F8802452
:1031F000FFF7C0F80546114E736A13F0020FC7D0EF
:10320000FFF7B8F8401B0228F6D90320D7E00025C5
:10321000D3E70E4A136843F480731360FFF7AAF8EC
:1032200006460A4F3B6813F4807FCBD1FFF7A2F824
:10323000801B6428F6D90320C1E000BF00100240C3
:103240000000424204000020D34D62100070004094
:103250005E4A136A43F001031362E36833B3FFF776
:1032600089F80646594F41F288383B6A13F0020F3D
:103270002DD1FFF77FF8801B4045F6D903209EE053
:10328000052B09D0514B1A6A22F001021A621A6A00
:1032900022F004021A62E0E74C4B1A6A42F0040280
:1032A0001A621A6A42F001021A62D6E7FFF762F860
:1032B0000646464F41F288383B6A13F0020F06D0AB
:1032C000FFF758F8801B4045F6D9032077E0E5B9B1
:1032D000E369002B72D03D4A526802F00C02082AC2
:1032E00056D0022B17D03A4B00221A66FFF742F84D
:1032F0000446364D2B6813F0007F47D0FFF73AF8AD
:10330000001B0228F6D9032059E0304AD36923F084
:103310008053D361DCE72E4B00221A66FFF72AF8B0
:1033200005462A4E336813F0007F06D0FFF722F8D7
:10333000401B0228F6D9032041E0236AB3F5803F01
:103340001AD022494A68236A606A034322F474123D
:1033500013434B601E4B01221A66FFF70BF804461D
:103360001A4D2B6813F0007F0ED1FFF703F8001BF6
:103370000228F6D9032022E0144A536823F40033CC
:10338000A1680B435360DCE7002018E0002016E042
:10339000012B17D00D4B5B6803F48031226A9142F8
:1033A00012D103F47013606A181A18BF012006E0E6
:1033B00001207047012002E0012000E0002002B05F
:1033C000BDE8F0810120FAE70120F8E70010024093
:1033D000000042420F4B5B6803F00C02082A01D048
:1033E0000D487047C3F383420C49885C13F4803F57
:1033F0000BD0084B5B68084A02FB00F0C3F3404364
:10340000074AD35CB0FBF3F07047064B03FB00F0B8
:10341000704700BF0010024000127A00187F0008B9
:10342000147F000800093D00002800F0A2802DE96B
:10343000F0410D460446534B1B6803F007038B42D3
:103440000BD2504A136823F007030B431360136831
:1034500003F007038B4240F08E80236813F0020FC5
:1034600017D013F0040F04D0474A536843F4E063C5
:103470005360236813F0080F04D0434A536843F4A1
:1034800060535360404A536823F0F003A1680B4334
:103490005360236813F0010F31D06268012A20D0F5
:1034A000022A25D0384B1B6813F0020F65D036492D
:1034B0004B6823F0030313434B60FEF75BFF0646A4
:1034C000314F41F288387B6803F00C036268B3EB3C
:1034D000820F14D0FEF74EFF801B4045F3D9032026
:1034E00045E0294B1B6813F4003FE0D101203EE08A
:1034F000254B1B6813F0007FD9D1012037E0214B09
:103500001B6803F00703AB420AD91E4A136823F075
:1035100007032B431360136803F00703AB422ED15C
:10352000236813F0040F06D0174A536823F4E063AE
:10353000E1680B435360236813F0080F07D0124A69
:103540005368216923F4605343EAC1035360FFF7D2
:1035500041FF0D4B5B68C3F303130C4AD35CD840A7
:103560000B4B18600B4B1868FEF744FE0020BDE8BB
:10357000F081012070470120F9E70120F7E70120E1
:10358000F5E700BF0020024000100240047F000861
:10359000040000200C000020044B5B68C3F30223EE
:1035A000034AD35C034A1068D840704700100240B9
:1035B000FC7E000804000020044B5B68C3F3C223B8
:1035C000034AD35C034A1068D84070470010024099
:1035D000FC7E0008040000200F2303600B4B5A6898
:1035E00002F0030242605A6802F0F00282605A68F8
:1035F00002F4E062C2605B68DB0803F4E06303612D
:10360000034B1B6803F007030B6070470010024078
:10361000002002402DE9F04182B00446036813F017
:10362000010F36D03F4BDB6913F0805F49D13D4B32
:10363000DA6942F08052DA61DB6903F0805301936A
:10364000019B0125384B1B6813F4807F3BD0354B21
:103650001B6A13F4407313D0626802F440729A42FA
:103660000ED0304A136A23F4407030490126C1F865
:1036700040640026C1F84064106213F0010F36D197
:10368000284A136A23F4407361680B431362002DC8
:103690003ED1236813F0020F06D0224A536823F468
:1036A0004043A1680B435360236813F0100F34D0DC
:1036B0001C4A536823F48003E1680B4353600020E5
:1036C0002CE00025BEE7184A136843F480731360AA
:1036D000FEF750FE0646144F3B6813F4807FB6D1C8
:1036E000FEF748FE801B6428F6D9032016E0FEF79B
:1036F00041FE06460B4F41F288383B6A13F0020F39
:10370000BED1FEF737FE801B4045F6D9032005E009
:10371000D36923F08053D361BBE7002002B0BDE83A
:10372000F08100BF001002400070004000004242E3
:1037300070B4036A026A22F001020262446882697C
:1037400022F073020D682A4323F002038D682B4395
:103750000B4DA84206D0446082614A68426303620E
:1037600070BC704723F00803CD682B4323F004039B
:1037700024F440744D698E6935432C43EBE700BF58
:10378000002C014070B4036A026A22F48072026263
:103790004468C26922F073020D682A4323F400735F
:1037A0008D6843EA05230C4DA84206D04460C261EF
:1037B0004A68C263036270BC704723F40063CD683B
:1037C00043EA052323F4806324F440544D698E6951
:1037D000354344EA0514E9E7002C014030B4036A9C
:1037E000026A22F4805202624468C26922F4E6420C
:1037F0000D6842EA052223F400538D6843EA05333D
:10380000074DA84206D04460C2614A680264036260
:1038100030BC704724F480444D6944EA8514F2E7D3
:10382000002C014090F83D30DBB2012B27D1022360
:1038300080F83D300268D36843F00103D360036829
:10384000114A934210D0B3F1804F0DD0A2F59432BB
:10385000934209D002F58062934205D01A6842F083
:1038600001021A60002070479A6802F00702062AD7
:1038700007D01A6842F001021A6000207047012048
:1038800070470020704700BF002C01400268D368D9
:1038900023F00103D3600368196A41F21112114247
:1038A00008D1196A40F24442114203D11A6822F049
:1038B00001021A60012380F83D30002070477047F4
:1038C000704770477047704710B5044603681A691F
:1038D00012F0020F11D0DA6812F0020F0DD06FF063
:1038E00002021A610123037703689B6913F0030F37
:1038F00070D0FFF7E6FF0023237723681A6912F0E0
:10390000040F12D0DA6812F0040F0ED06FF0040228
:103910001A610223237723689B6913F4407F5FD0E9
:103920002046FFF7CEFF0023237723681A6912F0A1
:10393000080F12D0DA6812F0080F0ED06FF00802EC
:103940001A61042323772368DB6913F0030F4ED039
:103950002046FFF7B6FF0023237723681A6912F089
:10396000100F12D0DA6812F0100F0ED06FF01002A4
:103970001A61082323772368DB6913F4407F3DD065
:103980002046FFF79EFF0023237723681A6912F071
:10399000010F03D0DA6812F0010F36D123681A69DB
:1039A00012F0800F03D0DA6812F0800F34D1236850
:1039B0001A6912F0400F03D0DA6812F0400F32D1CA
:1039C00023681A6912F0200F03D0DA6812F0200F72
:1039D00030D110BDFFF774FF2046FFF773FF8AE771
:1039E0002046FFF76DFF2046FFF76CFF9BE7204660
:1039F000FFF766FF2046FFF765FFACE72046FFF7BD
:103A00005FFF2046FFF75EFFBDE76FF001021A611E
:103A10002046FEF729F9C1E76FF080021A612046BF
:103A200000F049FAC3E76FF040021A612046FFF741
:103A30004AFFC5E76FF020021A61204600F03AFA0B
:103A4000C7E700000368254A904214D0B0F1804FC8
:103A500026D0A2F59432904236D002F58062904290
:103A600037D023F080034A69134303608B68C36235
:103A70000B68836225E023F070034A68134323F444
:103A80004073CA68134323F080034A6913430360F9
:103A90008B68C3620B6883620A69104B1A6310E07B
:103AA00023F070034A68134323F44073CA68134336
:103AB00023F080034A69134303608B68C3620B6879
:103AC000836201234361704723F070034A68134304
:103AD000EAE723F070034A681343E5E7002C01404E
:103AE00040B310B5044690F83D30F3B1022384F89A
:103AF0003D30214651F8040BFFF7A4FF012384F861
:103B0000463084F83E3084F83F3084F8403084F802
:103B1000413084F8423084F8433084F8443084F8EB
:103B2000453084F83D30002010BD80F83C30FEF771
:103B3000ADFADBE70120704740B310B5044690F8BA
:103B40003D30F3B1022384F83D30214651F8040B97
:103B5000FFF778FF012384F8463084F83E3084F87C
:103B60003F3084F8403084F8413084F8423084F8A3
:103B7000433084F8443084F8453084F83D300020E8
:103B800010BD80F83C30FFF79AFEDBE7012070475C
:103B900070B4036A026A22F0100202624468826909
:103BA00022F4E6420D6842EA052223F020038D68E4
:103BB00043EA05130C4DA84206D0446082614A686E
:103BC0008263036270BC704723F08003CD6843EAD0
:103BD000051323F0400324F440644D698E69354396
:103BE00044EA8504E9E700BF002C014038B590F8AD
:103BF0003C30012B66D004460D46012380F83C3052
:103C00000C2A5AD8DFE802F0075959591B5959595B
:103C10003059595944000068FFF78AFD22689369BA
:103C200043F0080393612268936923F004039361CE
:103C30002268936929690B43936100203EE0006884
:103C4000FFF7A6FF2268936943F40063936122683B
:103C5000936923F48063936122689369296943EA35
:103C600001239361002029E00068FFF78BFD2268A3
:103C7000D36943F00803D3612268D36923F00403B6
:103C8000D3612268D36929690B43D361002015E011
:103C90000068FFF7A3FD2268D36943F40063D36192
:103CA0002268D36923F48063D3612268D3692969C8
:103CB00043EA0123D361002000E00120002384F8BF
:103CC0003C3038BD0220FCE710B4846824F47F4CFB
:103CD0000A4342EA032242EA0C02826010BC7047A7
:103CE00038B590F83C30012B00F0AD80044601233C
:103CF00080F83C30022380F83D300268936823F45A
:103D00007F4323F0770393600B68602B60D03DD82E
:103D1000402B79D01CD9502B36D103684868CD6828
:103D2000196A1A6A22F001021A629A6922F0F002F4
:103D300042EA051221F00A0101439A6119622268E0
:103D4000936823F0700343F057039360002012E060
:103D5000202B02D00BD9302B14D121688A6822F095
:103D60007002134343F007038B60002003E033F03D
:103D70001002F2D00120012384F83D30002384F8A2
:103D80003C3038BD0120F6E70120F4E7B3F5805F51
:103D900055D0B3F5005F0CD1CB684A6889680068DC
:103DA000FFF792FF2268936843F4804393600020FA
:103DB000E1E7702B45D1CB684A6889680068FFF756
:103DC00083FF2268936843F0770393600020D2E773
:103DD00003684868CD681A6A196A21F010011962EF
:103DE000996921F4704141EA053122F0A00242EACA
:103DF000001299611A622268936823F0700343F0FD
:103E0000670393600020B6E703684868CD68196AC5
:103E10001A6A22F001021A629A6922F0F00242EA5A
:103E2000051221F00A0101439A6119622268936820
:103E300023F0700343F04703936000209BE70020CA
:103E400099E7012097E702209BE7000090F83C20CB
:103E5000012A2BD030B40346012280F83C200222F4
:103E600080F83D2004686268A06822F070020D6846
:103E70002A4362601A680E4CA2420AD0B2F1804F07
:103E800007D0A4F59434A24203D004F58064A24282
:103E900004D120F08000496808439060012283F833
:103EA0003D20002083F83C0030BC70470220704762
:103EB000002C014070477047026802F10C0353E880
:103EC000003F23F490730C3242E800310029F3D113
:103ED000026802F1140353E8003F23F00103143297
:103EE00042E800310029F3D1036B012B05D02023D8
:103EF00080F84230002303637047026802F10C032C
:103F000053E8003F23F010030C3242E8003100294F
:103F1000F3D1ECE710B504460268136923F440536B
:103F2000C1680B4313610168CA6883680069034371
:103F30006069034322F4B05222F00C021343CB60B9
:103F40002268536923F44073A1690B4353612268CB
:103F5000114B9A421BD0FFF71FFB034603EB830371
:103F600003EB830362689200B3FBF2F320680B4912
:103F7000A1FB03425209642404FB12331B013233B8
:103F8000A1FB0313120102EB5312826010BDFFF775
:103F900013FB0346E2E700BF003801401F85EB51E9
:103FA00060B310B5044690F8413013B3242384F86D
:103FB00041302268D36823F40053D3602046FFF7D2
:103FC000A9FF2268136923F490431361226853699F
:103FD00023F02A0353612268D36843F40053D3606B
:103FE00000206064202384F8413084F8423060630C
:103FF00010BD80F84030FEF7B9F8D7E701207047D0
:1040000090F84130DBB2202B10D189B192B101621E
:104010008284C28400234364212280F84120016805
:10402000CA6842F08002CA60184670470220704792
:104030000120704701207047704708B5406A00238F
:10404000C385C384FFF7F8FF08BD704710B5044669
:10405000226802F10C0353E8003F23F490730C3202
:1040600042E800310029F3D1226802F1140353E839
:10407000003F23F00103143242E800310029F3D15C
:10408000236B012B1CD023685B6913F0400F2ED0EB
:10409000226802F1140353E8003F23F04003143276
:1040A00042E800310029F3D1E36BB3B1154A5A63FA
:1040B000E06BFEF709FD18B3E06B436B98471FE018
:1040C000226802F10C0353E8003F23F010030C3286
:1040D00042E800310029F3D1D5E70023E38520220F
:1040E00084F8422023632046FFF7AFFF08E0002357
:1040F000E385202284F8422023632046FFF7A5FFB2
:10410000002010BD0941000808B5406A0023C3859E
:10411000202280F842200363FFF797FF08BD704715
:1041200090F84230DBB2222B1DD18368B3F5805F5B
:1041300006D0826A7BB103685B6803F07F031AE0F4
:104140000369A3B9826A03685B68C3F30803138039
:10415000836A023312E00369002BECD108E001F01E
:1041600017F9002048E00220704700207047826A5B
:1041700003685B68DBB21370836A01338362C38DAB
:10418000013B9BB2C385002BEFD100B583B0026821
:10419000D36823F02003D3600268D36823F48073CC
:1041A000D3600268536923F001035361202380F830
:1041B000423000234363036B012BD0D10023036300
:1041C000026802F10C0353E8003F23F010030C32A5
:1041D00042E800310029F3D103681A6812F0100F89
:1041E00006D0002201921A6801925B680193019B3C
:1041F000818DFFF794FF002003B05DF804FB000001
:1042000010B582B0044602681368D068516913F093
:104210000F0F09D113F0200F0DD010F0200F0AD08E
:104220002046FFF77DFF18E001F0010100F4907CCB
:104230005CEA010C13D1216B012900F0818013F09D
:10424000800F03D010F0800F40F01A8113F0400F60
:1042500003D010F0400F40F0408102B010BD13F0C9
:10426000010F06D010F4807F03D0626C42F001028F
:10427000626413F0040F0BD091B1626C42F0020241
:10428000626413F0020F07D113F0080F0FD112E090
:1042900013F0020F04D019B1626C42F004026264A0
:1042A00013F0080F07D000F020020A4303D0626C1D
:1042B00042F008026264626C002ACED013F0200F34
:1042C00002D010F0200F0ED123685B69626C03F0FE
:1042D000400302F00802134309D12046FFF7ACFE69
:1042E00000236364B9E72046FFF71AFFECE7204696
:1042F000FFF7E2FD23685B6913F0400F1CD02268D2
:1043000002F1140353E8003F23F04003143242E863
:1043100000310029F3D1E36B53B1754A5A63E06B66
:10432000FEF7D2FB002898D0E06B436B984794E7E8
:104330002046FFF781FE90E72046FFF77DFE8CE7E1
:1043400013F0100F3FF47BAF10F0100F3FF477AF76
:10435000002301931368019353680193019B5369F0
:1043600013F0400F50D0E26B13685B689BB2002BD8
:104370003FF473AFA18D99427FF66FAFE3859369E8
:10438000202B37D0226802F10C0353E8003F23F4BE
:1043900080730C3242E800310029F3D1226802F127
:1043A000140353E8003F23F00103143242E80031C4
:1043B0000029F3D1226802F1140353E8003F23F0EF
:1043C0004003143242E800310029F3D1202384F85D
:1043D000423000232363226802F10C0353E8003FBC
:1043E00023F010030C3242E800310029F3D1E06BD6
:1043F000FEF749FB02236363E38DA18DC91A89B2DD
:104400002046FFF78CFE28E7E38D9AB2E38D9BB23E
:10441000002B3FF422AFA18D891A89B200293FF405
:104420001CAF226802F10C0353E8003F23F49073A1
:104430000C3242E800300028F3D1226802F1140364
:1044400053E8003F23F00103143242E80030002813
:10445000F3D1202384F8423000232363226802F141
:104460000C0353E8003F23F010030C3242E8003005
:104470000028F3D1022363632046FFF750FEECE6E9
:1044800094F84130DBB2212B7FF4E7AEA368B3F59B
:10449000805F16D0236A591C21621B785360E38C1D
:1044A000013B9BB2E384002B7FF4D7AE2268D36834
:1044B00023F08003D3602268D36843F04003D360C5
:1044C000CBE62369002BE5D1236A1B88C3F30803DD
:1044D0005360236A02332362E1E7D36823F0400389
:1044E000D360202384F84130204600F019FFB4E661
:1044F0003B40000881628285C285002343642223F9
:1045000080F84230036923B10268D36843F48073B2
:10451000D3600268536943F0010353610268D368B2
:1045200043F02003D3600020704708B590F8423074
:10453000DBB2202B08D149B10AB9012008BD002304
:104540000363FFF7D7FFF9E70220F7E70120F5E75C
:1045500010B510B10224204610BD0C461146154A74
:1045600015481060154A16481060164A1648106023
:10457000164A17481060174A00201060164A17485C
:104580001060174A17481060174A184810601A46FA
:10459000204600F089FB04460028DCD100F05EFDD7
:1045A00018B1134B01221A7000E0032400F0D4FD6F
:1045B000D1E700BF001B0020E14C0008FC1A0020DE
:1045C000014D0008041B0020694D0008F81A002066
:1045D000194D0008F41A0020F01A0020054E0008BA
:1045E000EC1A00209D4E0008E81A0020254F000814
:1045F0001000002008B5064B1B78012B01D00620C7
:1046000008BD044B1B6898470020014B1870F7E762
:1046100010000020001B002070B582B06B4B1B788F
:1046200013B1032B40F0CD800DF1060000F066FDC4
:10463000012803D00024204602B070BDBDF806302A
:10464000013B0F2B00F2BF80DFE803F0080DBD2710
:10465000BDBDBD78BDBDBDBDBDBDBD895B4B03222C
:104660001A700024E7E75A4B1B685A4A5A495B48BC
:104670009847044628B9594B1A78594B1B789A42E7
:1046800007D0584B01221A70102000F0F1FC0024D2
:10469000D1E7042000F0ECFCCDE74F4B1B681A7803
:1046A00051490120087093F90010002911DB002402
:1046B0004E4911F8343023B19A4216D00134102CEF
:1046C000F7D1484B02221A70102000F0D1FC0024D0
:1046D000B1E75A78444B1A70434B1C78002CF0D148
:1046E00000F078FD00F04CFDA5E7414B01221A7067
:1046F00000F07CFC68B93D4B03EBC4035B683549B3
:10470000354A10689847384B1870394B00221A7098
:10471000E2E700F05FFC2F4B18800125304E334B51
:1047200003EBC4035C6835702A492B4B1868A0471B
:104730002D4B18700135112DF5D1E6E7264C20469A
:1047400000F03CFC2B4B1D68254B1E78246800F0C4
:1047500041FC024621463046A84700246BE7214B26
:104760001C781D4800F02AFC012C12D0022C1CD011
:104770001CB100F005FD00245DE7194B1C78164BB9
:104780001D6800F027FC02462946204600F004FD83
:10479000EFE7134B1C78104B1D6800F01BFC024622
:1047A0002946204600F002FDE3E70D4B1C780A4B3A
:1047B0001D6800F00FFC02462946204600F000FD6F
:1047C000D7E7062437E7002435E700BF10000020B4
:1047D000F81A0020DE1A0020E01A0020E41A002057
:1047E0000A1B0020081B0020DC1A0020287F00087C
:1047F000091B0020041B0020014B1878704700BFE4
:104800000A1B0020014B1870704700BF0A1B0020D4
:10481000014B1870704700BF081B0020B9B130B4BD
:1048200001F1FF3C1FFA8CFC0CF1010C8444FF22C7
:104830001146094D094C10F8013B5340EA5C4A40CF
:10484000E15C6045F7D142EA012030BC7047FF22AD
:1048500042EA0220704700BFA8800008A87F000835
:1048600030B583B005460C4600F0C0FB48BB23883A
:10487000012B29D901A800F0A1FB019BDA78197955
:1048800041EA022211F0070F07D0D1080131C9B265
:104890006878884207D0032014E00AB9032011E0A9
:1048A000C2F3C701F4E75878997841EA0021013151
:1048B000002389B2A81C00F021FE18B100F0BEFB55
:1048C00000E0002003B030BD0320FBE70B88052B80
:1048D00001D00320704703790BBBC278531EDBB2B3
:1048E000FD2B1ED900B583B04378817800208DF868
:1048F0000500FF2A14BF002201228DF8042041EA9E
:104900000321013101231A4689B201A800F0F6FD06
:1049100010B903B05DF804FB00F090FBF9E7032049
:1049200070470320704710B582B004460B88052BF2
:1049300002D000F05BFB40B301A800F03FFBE2783F
:10494000237943EA022213F0070F09D0D308013379
:10495000DBB201984179994208D0032002B010BD22
:104960000AB90320FAE7C2F3C703F2E76378A17834
:1049700041EA03210131012389B2063000F0BEFD76
:104980000028EBD000F05AFBE8E70320E6E730B55B
:1049900083B005460C4600F029FB40BB2388012B61
:1049A00028D901A800F00AFB019BDA78197941EABD
:1049B000022211F0070F07D0D1080131C9B268787F
:1049C000884207D0032013E00AB9032010E0C2F3A5
:1049D000C701F4E75878997841EA0021013189B29A
:1049E000A81C00F0D9FD18B100F028FB00E0002061
:1049F00003B030BD0320FBE708B50B88052B01D0C1
:104A0000032008BD4378817841EA03210131012365
:104A10001A4689B2033000F03BFD0028F1D000F0C7
:104A20000DFBEEE7102801D902207047F0B583B0E6
:104A300004460F4615461E46089800F095FB10B92F
:104A4000052003B0F0BD01A800F0B8FA2046FFF73A
:104A5000D9FE019B10221A703A0A019B5A70019BE1
:104A60009F702B0A019AD370019BEAB21A7152000F
:104A70005A710633019385B1314606EB4503088828
:104A8000019C621C0192000A207031F8022B0198EF
:104A9000441C019402709942F1D1E81C400080B29C
:104AA00000F092FA082000F0E3FA00F09DFBC8E75E
:104AB00000B583B00B88052B02D000F097FAF0B157
:104AC00001A800F07BFA0198C378027942EA032238
:104AD0004379B3EB420F03D0032003B05DF804FB2E
:104AE0004378817841EA03210131012389B20630FC
:104AF00000F0CEFC0028F0D000F0A0FAEDE7032093
:104B0000EBE730B583B005460C4600F06FFAF8B914
:104B10002388012B1FD901A800F050FA019BD978F6
:104B20001A7952EA012218D06978B1EB420F01D00C
:104B300003200EE05878997841EA002101310023E2
:104B400089B2A81C00F0A4FC18B100F077FA00E0CC
:104B5000002003B030BD0320FBE70320F9E7F0B5E8
:104B600083B005460C4600F041FA78BB2388012B40
:104B70002DD901A800F022FA0198C378047944EAFB
:104B800003246B78B3EB440F01D003201FE0477878
:104B9000867890F807C04379817941EA0321027A47
:104BA0000131012342EA0C2289B20A3000F070FC84
:104BB000034640B946EA07210131224689B2A81CC2
:104BC00000F066FC18B100F039FA00E0002003B0F4
:104BD000F0BD102801D90220704770B582B004469C
:104BE0000E461546184600F0BFFA10B9052002B06F
:104BF00070BD01A800F0E2F92046FFF703FE019B1B
:104C000004221A70320A019B5A70019B9E702A0A74
:104C1000019BDA70019B1D71052000F0D5F9082079
:104C200000F026FA00F0E0FAE1E730B583B005467F
:104C30000C4600F0DBF9F0B92388012B1ED901A83E
:104C400000F0BCF9019BD9781A7952EA012217D0F9
:104C50006978B1EB420F01D003200DE058789978C4
:104C600041EA0021013189B2A81C00F0DDFB18B136
:104C700000F0E4F900E0002003B030BD0320FBE7C2
:104C80000320F9E738B50D46054B1C882246054937
:104C9000013002F08FFF01342C80002038BD00BFAE
:104CA0000C1B0020101B002070B504460D46164654
:104CB00000F0D1F9334608222946204600F0BAFA1E
:104CC000012804D0032400F0C7F9204670BD23203A
:104CD00000F074FB012814BF03240024F3E7000054
:104CE00008B500F0B8F90021044B1970012000F05C
:104CF000CDFA00F068FB00F0AFF908BD3D1D0020C3
:104D000008B500F0A8F90021084600F0BFFA00F04D
:104D100075FB00F0A1F908BD70B506460D461446B6
:104D200000F099F90E4B1B889BB2032B04D8052485
:104D300000F092F9204670BD094B198889B20948E4
:104D4000FFF76CFD50B9074B13F8012B3270044A82
:104D50001288033A22802B600024E9E70524E7E764
:104D6000321B0020401B00202DE9F04110283CD8C8
:104D700004460E46154600F06EF91D4B1B78DBB25B
:104D8000012B05D0052400F067F92046BDE8F0812D
:104D9000701E184B1860184F4FF00108A7F80080DC
:104DA00006F8014C3B88EA1892B23A80398889B2F9
:104DB000FFF734FD3B889BB203EB080292B23A80C6
:104DC000C2B20E49CA543B889BB203EB080292B2AE
:104DD0003A80C0F30720C854094B83F8008041464D
:104DE000002000F053FA0024CDE70224CDE700BFF5
:104DF0003D1D0020381B0020341B0020401C0020DB
:104E00003E1D002000B583B00DF1070000F080FAD0
:104E10001E4B1B78DBB2032B05D8DFE803F0020B37
:104E2000210800F0D0FA002003B05DF804FB00F088
:104E3000CAFAF8E700F0E2FA0023154A1370154A9F
:104E4000138013889BB2591C89B211809DF80710FA
:104E5000114AD1540D4B02221A7000F0B4FAE2E765
:104E60000C4B1B889BB2FF2B0CD80A490B889BB2BA
:104E70005A1C92B20A809DF80710074AD15400F0DC
:104E8000A2FAD0E7014B03221A70F8E73D1D00207B
:104E90003E1D0020321B0020401B002010B51C4B83
:104EA0001B782BB103F0FF02012A06D0002010BDB1
:104EB0000021012000F0EAF9F8E7164B1B889BB2AD
:104EC0006BB1154C2368187800F012FA236801338F
:104ED0002360104A1388013B9BB21380E6E70F4B17
:104EE0001B78B3FA83F35B090D4C2370002101207A
:104EF00000F0CCF9064B02221A702378DBB2012BAA
:104F000002D000F071FAD1E700F064FACEE700BFFA
:104F10003E1D0020341B0020381B0020401C0020B8
:104F2000311B002010B5214B1B78DBB2022B1CD0AB
:104F3000032B1FD0A3B100241C4B01221A701C4B61
:104F40001B78DBB2022B1ED0194B00221A7000F026
:104F500055FA184B1B78DBB2022B21D0204610BD2E
:104F6000012000F085F80446E6E7022000F080F812
:104F70000446E1E70120FFF74BFC4FF4806000F0AE
:104F800077F80446D8E70C4B1B78002BDCD10020C7
:104F9000FFF73EFC4FF4806000F06AF80446D3E768
:104FA0004FF4007000F064F80446D7E73D1D002080
:104FB0003E1D0020301B0020311B0020014B0360F0
:104FC000704700BF411C0020014B1880704700BF94
:104FD0003C1B0020014B188880B270473C1B00200E
:104FE000014B1870704700BF301B0020014B187830
:104FF000704700BF311B002030B5CC0804F1010E12
:105000004FF0010C0CFA02FC0CF1FF3C1FFA8CFC77
:10501000A1EBC4020CFA02FC10F80E50025D42EA49
:10502000052222EA0C0201F007018B4013431BB258
:105030000355C3F3072300F80E3030BD012806D016
:10504000072806D0003818BF0120800070470220D2
:1050500070470620704770477047000008B5FCF79E
:10506000F3FA024B1860012008BD00BF441D002068
:1050700000B583B00146402835D01CD9B0F5007F7B
:1050800036D02BD9B0F5806F21D1102100230193A8
:1050900001AA184B186800F05DFDC0B1019BB3B1C7
:1050A0004FF0E0234FF08052C3F8042DBFF34F8F31
:1050B000BFF36F8F0BE002280DD9031F9BB21C2B8F
:1050C00005D80D4A22FA03F313F0010F0BD101208A
:1050D00003B05DF804FB0028F9D0D7E7802802D0A0
:1050E000B0F5807FF3D1034B186800F0E6FCEEE7E3
:1050F0000421CBE7441D00201110001030B583B00F
:1051000005464FF0FF330093002301221F21114C6D
:10511000206800F048FC431E0F2B0BD8DFE803F09B
:10512000080D0A100A0A0A130A0A0A0A0A0A0A16C3
:1051300001232B80012003B030BD02232B80F9E72F
:1051400004232B80F6E708232B80F3E710232B8022
:10515000F0E700BF441D002008B5FCF787FA014BBB
:10516000186008BD401D002008B50146034B1868B3
:1051700001F0AEF8B0FA80F0400908BD401D0020F3
:1051800008B500231A4619460248006800F0C0FE20
:1051900008BD00BF401D002008B54021024B186823
:1051A00000F08BFC08BD00BF441D002008B5802125
:1051B000024B186800F081FC08BD00BF441D0020B0
:1051C00008B54FF48071024B186800F076FC08BDFA
:1051D000441D002008B52021024B186800F06DFC2A
:1051E00008BD00BF441D002000B583B04FF0FF3361
:1051F0000093002301224FF4F0710D48006800F085
:10520000D2FB80280FD008D820280ED040280CBF11
:105210000420372003B05DF804FBB0F5807F0CBF9D
:1052200006203720F6E70320F4E70020F2E700BF6E
:10523000441D002038B50D461C46FCF70BFA114BF7
:105240001860114B5D600022DA60012C0AD0022C3C
:1052500010D024B10C48FEF7A3FE012038BD9A609F
:105260001A61F7E7084B4FF480529A604FF4C0621E
:105270001A61EFE7044B4FF480529A604FF480625A
:105280001A61E7E74C1D00209018002010B582B08D
:105290000C4690B1012212491248FFF746F900224C
:1052A0004FF480711048FDF741FE84B101210F4B8E
:1052B000186800F002FC02B010BD01224FF48071AA
:1052C0000948FDF733FE0748FEF7C0FEEDE700236F
:1052D0000093012211460548006800F064FBEAE7EC
:1052E000491D002090180020000801404C1D00209E
:1052F00000B583B08DF8070001220DF107010348C6
:10530000FEF77EFE012003B05DF804FB901800203C
:10531000024B1B7803700120704700BF481D00201E
:1053200000B583B00023019301AA0121094B18683D
:1053300000F010FC58B1019B4BB14FF0E0234FF04F
:105340008052C3F8042DBFF34F8FBFF36F8F03B0AC
:105350005DF804FB4C1D0020F0B583B0FCF77AF932
:10536000094B18601E464FF0FF35084F0124009589
:10537000234622462146306800F015FB0128F6D16D
:105380003B689847F2E700BF4C1D0020EC1A002054
:1053900008B506490A78064B1A7001220548FFF73E
:1053A000C4F8054B1B68984708BD00BF491D002085
:1053B000481D002090180020F01A002008B5FCF7C6
:1053C0005BF9012008BD08B50020FFF709FEFCF7D6
:1053D0006DF908BD08B50220FFF702FEC820FCF7F2
:1053E0007BF9FCF78BF908BD08B50120FFF7F8FD44
:1053F0006420FCF771F9FCF781F908BD08B5FCF7EA
:1054000063F9FCF78DF908BD08B5024B1B68984796
:1054100008BD00BFE81A002001EBC001014B33F8C2
:1054200011007047901E002070B505460C461646C8
:10543000FFF7E2F9631E9BB2042B1FD99A190D2ABC
:105440001EDC114A12889B1A9BB2DEB1013804019E
:10545000A81C1E44B6B20D4D04EB430210F8021C0A
:105460000902A95210F801CC41EA0C01A9520133FA
:105470009BB20230B342EFD1002000E0012070BDAA
:105480000120FCE70020FAE714000020901E002015
:1054900070B505460C461646FFF7AEF9631E9BB283
:1054A0000C2B21D99A19172A20DC124A12889B1A30
:1054B0009BB2EEB1013800EB80008200A81C1E44B4
:1054C000B6B20D4D02EB430410F8021C0902295339
:1054D00010F801CC41EA0C01295301339BB2023090
:1054E000B342EFD1002000E0012070BD0120FCE7B5
:1054F0000020FAE712000020501D00202DE9F04F97
:1055000083B006460C461746FFF776F9611E89B24E
:10551000C1B3CB19052B39DCFB081D4A00EB02088F
:105520001C4A1288891AC1F3CC0B01F007045A1CDB
:10553000012A1CD906EB03093546ABEB0606B6B2C9
:105540004FF0080A0193A81980B215F8013B5246A2
:1055500021464044FFF750FD4D45F4D1019B5B448B
:105560001FFA83FB17F0070203D100200BE0B146BE
:10557000F8E799F80030214608EB0B00FFF73CFDF7
:10558000002000E0012003B0BDE8F08F0120FAE721
:105590008F1F0020160000202DE9F04F83B0064633
:1055A0000D469046FFF728F9013DADB205EB080323
:1055B000012B03DD012003B0BDE8F08F4FEAD803D3
:1055C000194F0744194A1288AD1AC5F3CC0B05F0E0
:1055D00007055A1C012A1CD906EB03093446ABEB1C
:1055E0000606B6B24FF0080A0193A01980B214F86B
:1055F000013B524629463844FFF7FEFC4C45F4D1A6
:10560000019B5B441FFA83FB18F0070203D10020C3
:10561000D1E7B146F8E799F80030294607EB0B00CF
:10562000FFF7EAFC0020C6E79F1F0020B01F002004
:10563000EFF30583A3B9EFF31083A3B90D4B1868FB
:10564000022804D090B90B4B01221A607047EFF387
:105650001183002B0CBF4FF0FF306FF00500704737
:105660006FF0050070476FF0050070474FF0FF3096
:10567000704700BF0427002008B5EFF30583C3B9C6
:10568000EFF31083C3B90F4B1B68022B08D0012B1B
:1056900015D10C4B02221A6001F044F9002008BD1C
:1056A000EFF31183002B0CBF4FF0FF306FF00500BC
:1056B000F5E76FF00500F2E76FF00500EFE74FF058
:1056C000FF30ECE704270020F0B587B000240494F5
:1056D000EFF30584D4B9EFF31083BBB92C4B1B68EF
:1056E000022B0FD090B100238DF81730002A3AD04A
:1056F000146874B193697BB11D46013B372B0CD9FB
:10570000002004E0EFF31183002BEBD0049807B0E6
:10571000F0BD0DF11704EDE71825536813F0010FE4
:1057200034D1536913B14FEA930C01E04FF0800C70
:1057300096688EB1D768A72FE8D91269002AE5D0FC
:10574000002BE3D00296019200950B46624621465B
:1057500001F07CF80490D9E7D368002BD6D1136907
:10576000002BD3D104E018254FF0800C0DF1170465
:1057700004AB019300950B461FFA8CF2214601F011
:105780009FF801281CBF00230493BFE70020BEE759
:105790000427002008B5EFF30583A3B9EFF31083C6
:1057A000A3B90C4B1B68022B02D040B9002008BDE6
:1057B000EFF31183002BF8D06FF00500F7E701F04D
:1057C00027FA0020F3E76FF00500F0E76FF005001F
:1057D000EDE700BF04270020EFF30582F2B908B51A
:1057E0000346EFF31082DAB90E4A1268022A07D094
:1057F00073B1986850B1DB681F2B0CD8002009E00A
:10580000EFF31182002AF3D0002003E0DB680BB92C
:1058100000F0BBF808BD00F093F8FBE700207047EC
:105820000020F7E70427002070B582B0EFF305836E
:10583000002B46D10E461546EFF31083002B44D1C2
:10584000324B1B68022B0CD0002840D0B04240D312
:10585000002D4AD0AC6854B1EB684F2B3BD80024E4
:1058600030E0EFF31183002BEED000242AE0EB6848
:1058700043BB012842D103220021012000F0DFFABE
:105880000446FCB186B905B12D682946204600F0D2
:10589000F3FD17E003230093234600221146012065
:1058A00000F07BFA0446ECE700231A46194620462E
:1058B00000F02EFB0128E6D0204600F007FE002471
:1058C00000E00024204602B070BD0024FAE7002466
:1058D000F8E70024F6E70128DCD02246314600F044
:1058E000D6FA04460028CFD1ECE70128C3D03146D0
:1058F00000F0F0FA04460028E4D0C6E7314600F094
:10590000E9FA04460028BFD1DCE700BF04270020E5
:10591000034B0360034B0B6080231360704700BF91
:105920005C2600205C240020034B0360034B0B60CB
:105930004FF4807313607047B4230020B41F00201D
:1059400080B110B582B0044620230193019B202B27
:1059500011D04FF0500383F31188BFF36F8FBFF363
:105960004F8FFEE74FF0500383F31188BFF36F8F23
:10597000BFF34F8FFEE7002340F8043B00F0F4F83C
:1059800001232377204602B010BD38B5202001F056
:10599000C1FF044628B1002540F8045B00F0E4F89C
:1059A0002577204638BD88B12DE9F0410C461646D2
:1059B0001D460746B1F1807F11D34FF0500383F3AA
:1059C0001188BFF36F8FBFF34F8FFEE74FF0500387
:1059D00083F31188BFF36F8FBFF34F8FFEE741B999
:1059E0004FF0500383F31188BFF36F8FBFF34F8FD6
:1059F000FEE701F0C7FA50B9069B43B14FF05003E0
:105A000083F31188BFF36F8FBFF34F8FFEE700F072
:105A1000D7FFD7F800805DBB14EA080F14BF012040
:105A2000002058BB069B6BB3311E18BF012109062D
:105A30000DB141F08061069A2143381D01F07CF9D7
:105A400001F066F848B94FF0E0234FF08052C3F8F8
:105A5000042DBFF34F8FBFF36F8F01F087FB80469C
:105A600010F0007F11D028F07F484046BDE8F0815B
:105A700034EA08030CBF01200020D2E716B128EA5F
:105A800004043C6001F044F8EFE701F0FBFDD7F8B7
:105A9000008065B914EA080F14BF012300231BB16D
:105AA00016B128EA04043C6001F00EFEDBE734EA9C
:105AB00008030CBF01230023F1E7F8B568B10E46D7
:105AC0000546B1F1807F11D34FF0500383F3118865
:105AD000BFF36F8FBFF34F8FFEE74FF0500383F399
